{"abi":[{"type":"constructor","inputs":[{"name":"_eas","type":"address","internalType":"contract IEAS"},{"name":"_schemaRegistry","type":"address","internalType":"contract ISchemaRegistry"}],"stateMutability":"nonpayable"},{"type":"receive","stateMutability":"payable"},{"type":"function","name":"ATTESTATION_SCHEMA","inputs":[],"outputs":[{"name":"","type":"bytes32","internalType":"bytes32"}],"stateMutability":"view"},{"type":"function","name":"attest","inputs":[{"name":"attestation","type":"tuple","internalType":"struct Attestation","components":[{"name":"uid","type":"bytes32","internalType":"bytes32"},{"name":"schema","type":"bytes32","internalType":"bytes32"},{"name":"time","type":"uint64","internalType":"uint64"},{"name":"expirationTime","type":"uint64","internalType":"uint64"},{"name":"revocationTime","type":"uint64","internalType":"uint64"},{"name":"refUID","type":"bytes32","internalType":"bytes32"},{"name":"recipient","type":"address","internalType":"address"},{"name":"attester","type":"address","internalType":"address"},{"name":"revocable","type":"bool","internalType":"bool"},{"name":"data","type":"bytes","internalType":"bytes"}]}],"outputs":[{"name":"","type":"bool","internalType":"bool"}],"stateMutability":"payable"},{"type":"function","name":"checkStatement","inputs":[{"name":"statement","type":"tuple","internalType":"struct Attestation","components":[{"name":"uid","type":"bytes32","internalType":"bytes32"},{"name":"schema","type":"bytes32","internalType":"bytes32"},{"name":"time","type":"uint64","internalType":"uint64"},{"name":"expirationTime","type":"uint64","internalType":"uint64"},{"name":"revocationTime","type":"uint64","internalType":"uint64"},{"name":"refUID","type":"bytes32","internalType":"bytes32"},{"name":"recipient","type":"address","internalType":"address"},{"name":"attester","type":"address","internalType":"address"},{"name":"revocable","type":"bool","internalType":"bool"},{"name":"data","type":"bytes","internalType":"bytes"}]},{"name":"demand","type":"bytes","internalType":"bytes"},{"name":"","type":"bytes32","internalType":"bytes32"}],"outputs":[{"name":"","type":"bool","internalType":"bool"}],"stateMutability":"view"},{"type":"function","name":"getSchema","inputs":[],"outputs":[{"name":"","type":"tuple","internalType":"struct SchemaRecord","components":[{"name":"uid","type":"bytes32","internalType":"bytes32"},{"name":"resolver","type":"address","internalType":"contract ISchemaResolver"},{"name":"revocable","type":"bool","internalType":"bool"},{"name":"schema","type":"string","internalType":"string"}]}],"stateMutability":"view"},{"type":"function","name":"getStatement","inputs":[{"name":"uid","type":"bytes32","internalType":"bytes32"}],"outputs":[{"name":"","type":"tuple","internalType":"struct Attestation","components":[{"name":"uid","type":"bytes32","internalType":"bytes32"},{"name":"schema","type":"bytes32","internalType":"bytes32"},{"name":"time","type":"uint64","internalType":"uint64"},{"name":"expirationTime","type":"uint64","internalType":"uint64"},{"name":"revocationTime","type":"uint64","internalType":"uint64"},{"name":"refUID","type":"bytes32","internalType":"bytes32"},{"name":"recipient","type":"address","internalType":"address"},{"name":"attester","type":"address","internalType":"address"},{"name":"revocable","type":"bool","internalType":"bool"},{"name":"data","type":"bytes","internalType":"bytes"}]}],"stateMutability":"view"},{"type":"function","name":"isPayable","inputs":[],"outputs":[{"name":"","type":"bool","internalType":"bool"}],"stateMutability":"pure"},{"type":"function","name":"makeStatement","inputs":[{"name":"data","type":"tuple","internalType":"struct TokenBundlePaymentObligation.StatementData","components":[{"name":"erc20Tokens","type":"address[]","internalType":"address[]"},{"name":"erc20Amounts","type":"uint256[]","internalType":"uint256[]"},{"name":"erc721Tokens","type":"address[]","internalType":"address[]"},{"name":"erc721TokenIds","type":"uint256[]","internalType":"uint256[]"},{"name":"erc1155Tokens","type":"address[]","internalType":"address[]"},{"name":"erc1155TokenIds","type":"uint256[]","internalType":"uint256[]"},{"name":"erc1155Amounts","type":"uint256[]","internalType":"uint256[]"},{"name":"payee","type":"address","internalType":"address"}]}],"outputs":[{"name":"uid_","type":"bytes32","internalType":"bytes32"}],"stateMutability":"nonpayable"},{"type":"function","name":"makeStatementFor","inputs":[{"name":"data","type":"tuple","internalType":"struct TokenBundlePaymentObligation.StatementData","components":[{"name":"erc20Tokens","type":"address[]","internalType":"address[]"},{"name":"erc20Amounts","type":"uint256[]","internalType":"uint256[]"},{"name":"erc721Tokens","type":"address[]","internalType":"address[]"},{"name":"erc721TokenIds","type":"uint256[]","internalType":"uint256[]"},{"name":"erc1155Tokens","type":"address[]","internalType":"address[]"},{"name":"erc1155TokenIds","type":"uint256[]","internalType":"uint256[]"},{"name":"erc1155Amounts","type":"uint256[]","internalType":"uint256[]"},{"name":"payee","type":"address","internalType":"address"}]},{"name":"payer","type":"address","internalType":"address"},{"name":"recipient","type":"address","internalType":"address"}],"outputs":[{"name":"uid_","type":"bytes32","internalType":"bytes32"}],"stateMutability":"nonpayable"},{"type":"function","name":"multiAttest","inputs":[{"name":"attestations","type":"tuple[]","internalType":"struct Attestation[]","components":[{"name":"uid","type":"bytes32","internalType":"bytes32"},{"name":"schema","type":"bytes32","internalType":"bytes32"},{"name":"time","type":"uint64","internalType":"uint64"},{"name":"expirationTime","type":"uint64","internalType":"uint64"},{"name":"revocationTime","type":"uint64","internalType":"uint64"},{"name":"refUID","type":"bytes32","internalType":"bytes32"},{"name":"recipient","type":"address","internalType":"address"},{"name":"attester","type":"address","internalType":"address"},{"name":"revocable","type":"bool","internalType":"bool"},{"name":"data","type":"bytes","internalType":"bytes"}]},{"name":"values","type":"uint256[]","internalType":"uint256[]"}],"outputs":[{"name":"","type":"bool","internalType":"bool"}],"stateMutability":"payable"},{"type":"function","name":"multiRevoke","inputs":[{"name":"attestations","type":"tuple[]","internalType":"struct Attestation[]","components":[{"name":"uid","type":"bytes32","internalType":"bytes32"},{"name":"schema","type":"bytes32","internalType":"bytes32"},{"name":"time","type":"uint64","internalType":"uint64"},{"name":"expirationTime","type":"uint64","internalType":"uint64"},{"name":"revocationTime","type":"uint64","internalType":"uint64"},{"name":"refUID","type":"bytes32","internalType":"bytes32"},{"name":"recipient","type":"address","internalType":"address"},{"name":"attester","type":"address","internalType":"address"},{"name":"revocable","type":"bool","internalType":"bool"},{"name":"data","type":"bytes","internalType":"bytes"}]},{"name":"values","type":"uint256[]","internalType":"uint256[]"}],"outputs":[{"name":"","type":"bool","internalType":"bool"}],"stateMutability":"payable"},{"type":"function","name":"revoke","inputs":[{"name":"attestation","type":"tuple","internalType":"struct Attestation","components":[{"name":"uid","type":"bytes32","internalType":"bytes32"},{"name":"schema","type":"bytes32","internalType":"bytes32"},{"name":"time","type":"uint64","internalType":"uint64"},{"name":"expirationTime","type":"uint64","internalType":"uint64"},{"name":"revocationTime","type":"uint64","internalType":"uint64"},{"name":"refUID","type":"bytes32","internalType":"bytes32"},{"name":"recipient","type":"address","internalType":"address"},{"name":"attester","type":"address","internalType":"address"},{"name":"revocable","type":"bool","internalType":"bool"},{"name":"data","type":"bytes","internalType":"bytes"}]}],"outputs":[{"name":"","type":"bool","internalType":"bool"}],"stateMutability":"payable"},{"type":"function","name":"version","inputs":[],"outputs":[{"name":"","type":"string","internalType":"string"}],"stateMutability":"view"},{"type":"event","name":"BundleTransferred","inputs":[{"name":"payment","type":"bytes32","indexed":true,"internalType":"bytes32"},{"name":"from","type":"address","indexed":true,"internalType":"address"},{"name":"to","type":"address","indexed":true,"internalType":"address"}],"anonymous":false},{"type":"error","name":"AccessDenied","inputs":[]},{"type":"error","name":"ArrayLengthMismatch","inputs":[]},{"type":"error","name":"AttestationRevoked","inputs":[]},{"type":"error","name":"DeadlineExpired","inputs":[]},{"type":"error","name":"InsufficientValue","inputs":[]},{"type":"error","name":"InvalidEAS","inputs":[]},{"type":"error","name":"InvalidLength","inputs":[]},{"type":"error","name":"InvalidSchema","inputs":[]},{"type":"error","name":"InvalidTransfer","inputs":[]},{"type":"error","name":"NotFromStatement","inputs":[]},{"type":"error","name":"NotPayable","inputs":[]}],"bytecode":{"object":"0x610160806040523461027b57604081611c36803803809161002082856102b5565b83398101031261027b5780516001600160a01b0381169182820361027b5760200151916001600160a01b03831680840361027b5760405160e081016001600160401b038111828210176102a15760405260bc815260208101927f616464726573735b5d206572633230546f6b656e732c2075696e743235365b5d84527f206572633230416d6f756e74732c20616464726573735b5d206572633732315460408301527f6f6b656e732c2075696e743235365b5d20657263373231546f6b656e4964732c60608301527f20616464726573735b5d2065726331313535546f6b656e732c2075696e74323560808301527f365b5d2065726331313535546f6b656e4964732c2075696e743235365b5d206560a08301527f726331313535416d6f756e74732c20616464726573732070617965650000000060c08301526001608052600360a0525f60c05215610292576084948460209560e05261012052610100525f604051958680958194630c1af44f60e31b8352606060048401525180918160648501528484015e818101830184905230602483015260016044830152601f01601f191681010301925af1908115610287575f91610251575b506101405260405161195d90816102d98239608051816105c0015260a051816105eb015260c05181610616015260e051816118e8015261010051816101a301526101205181818161035101526113560152610140518181816101710152818161038a0152818161057e0152818161086901526112a90152f35b90506020813d60201161027f575b8161026c602093836102b5565b8101031261027b57515f6101d8565b5f80fd5b3d915061025f565b6040513d5f823e3d90fd5b6341bc07ff60e11b5f5260045ffd5b634e487b7160e01b5f52604160045260245ffd5b601f909101601f19168101906001600160401b038211908210176102a15760405256fe6080806040526004361015610029575b50361561001a575f80fd5b631574f9f360e01b5f5260045ffd5b5f3560e01c9081631272ff8b14610755575080631d6f87dd146106ee5780634f4a9b19146106a357806354fd4d50146105a15780635bf2f20d146105675780635cc02d2f146102d75780636b122fe01461013257806388e5b2d91461010957806391db0b7e14610109578063ce46e046146100eb578063e49617e1146100b95763e60c3505146100b9575f61000f565b60206100d760e06100c936610aea565b6100d16118e6565b01610df1565b6040516001600160a01b0390911630148152f35b34610105575f3660031901126101055760206040515f8152f35b5f80fd5b602061012861011736610a9a565b926101239291926118e6565b6114ab565b6040519015158152f35b34610105575f3660031901126101055760608060405161015181610981565b5f81525f60208201525f604082015201526040516351753e3760e11b81527f000000000000000000000000000000000000000000000000000000000000000060048201525f8160248160018060a01b037f0000000000000000000000000000000000000000000000000000000000000000165afa80156102cc575f9061021c575b606090610218604051928392602084528051602085015260018060a01b0360208201511660408501526040810151151582850152015160808084015260a0830190610a46565b0390f35b503d805f833e61022c818361099c565b810190602081830312610105578051906001600160401b0382116101055701608081830312610105576040519061026282610981565b8051825260208101516001600160a01b038116810361010557602083015261028c60408201611444565b60408301526060810151906001600160401b038211610105570182601f82011215610105576060928160206102c393519101611451565b828201526101d2565b6040513d5f823e3d90fd5b346101055760203660031901126101055760606101206040516102f981610951565b5f81525f60208201525f60408201525f838201525f60808201525f60a08201525f60c08201525f60e08201525f61010082015201526040516328c44a9960e21b815260043560048201525f8160248160018060a01b037f0000000000000000000000000000000000000000000000000000000000000000165afa9081156102cc575f91610462575b506020810180517f0000000000000000000000000000000000000000000000000000000000000000036104535761021861012060405193849360208552815160208601525160408501526001600160401b0360408201511660608501526001600160401b0360608201511660808501526001600160401b0360808201511660a085015260a081015160c085015260018060a01b0360c08201511660e085015260018060a01b0360e082015116610100850152610100810151151582850152015161014080840152610160830190610a46565b63295d5f3960e01b5f5260045ffd5b90503d805f833e610473818361099c565b810190602081830312610105578051906001600160401b0382116101055701906101408282031261010557604051916104ab83610951565b80518352602081015160208401526104c560408201611430565b60408401526104d660608201611430565b60608401526104e760808201611430565b608084015260a081015160a084015261050260c08201610b35565b60c084015261051360e08201610b35565b60e08401526105256101008201611444565b610100840152610120810151906001600160401b03821161010557019080601f8301121561010557815161055b92602001611451565b61012082015281610381565b34610105575f3660031901126101055760206040517f00000000000000000000000000000000000000000000000000000000000000008152f35b34610105575f36600319011261010557610218602061068f60016105e47f0000000000000000000000000000000000000000000000000000000000000000611779565b818461060f7f0000000000000000000000000000000000000000000000000000000000000000611779565b818061063a7f0000000000000000000000000000000000000000000000000000000000000000611779565b9260405199878b985191829101848a015e870190601760f91b83830152805192839101602183015e010190601760f91b84830152805192839101600283015e01015f838201520301601f19810183528261099c565b604051918291602083526020830190610a46565b34610105576020366003190112610105576004356001600160401b038111610105576101006003198236030112610105576106e660209133903390600401610e05565b604051908152f35b34610105576060366003190112610105576004356001600160401b03811161010557610100600319823603011261010557602435906001600160a01b0382168203610105576044356001600160a01b0381168103610105576020926106e692600401610e05565b34610105576060366003190112610105576004356001600160401b0381116101055761014060031982360301126101055761078f82610951565b806004013582526020820190602481013582526107ae604482016109bd565b60408401526107bf606482016109bd565b606084019081526107d2608483016109bd565b916080850192835260a481013560a08601526107f060c482016109d1565b60c086015261080160e482016109d1565b60e08601526101048101358015158103610105576101008601526101248101356001600160401b038111610105576101209160046108429236920101610a00565b94019384526024356001600160401b03811161010557610866903690600401610a00565b927f000000000000000000000000000000000000000000000000000000000000000090510361094257516001600160401b03168015159081610938575b5061092957516001600160401b031661091a576108dd6108ce60209351848082518301019101610c0b565b91838082518301019101610c0b565b6108e7818361155d565b91826108fa575b50506040519015158152f35b60e0908101519101516001600160a01b03908116911614905082806108ee565b637b6227e960e11b5f5260045ffd5b631ab7da6b60e01b5f5260045ffd5b90504211846108a3565b635f9bd90760e11b5f5260045ffd5b61014081019081106001600160401b0382111761096d57604052565b634e487b7160e01b5f52604160045260245ffd5b608081019081106001600160401b0382111761096d57604052565b90601f801991011681019081106001600160401b0382111761096d57604052565b35906001600160401b038216820361010557565b35906001600160a01b038216820361010557565b6001600160401b03811161096d57601f01601f191660200190565b81601f8201121561010557803590610a17826109e5565b92610a25604051948561099c565b8284526020838301011161010557815f926020809301838601378301015290565b805180835260209291819084018484015e5f828201840152601f01601f1916010190565b9181601f84011215610105578235916001600160401b038311610105576020808501948460051b01011161010557565b6040600319820112610105576004356001600160401b0381116101055781610ac491600401610a6a565b92909291602435906001600160401b03821161010557610ae691600401610a6a565b9091565b602060031982011261010557600435906001600160401b038211610105576101409082900360031901126101055760040190565b6001600160401b03811161096d5760051b60200190565b51906001600160a01b038216820361010557565b9080601f83011215610105578151610b6081610b1e565b92610b6e604051948561099c565b81845260208085019260051b82010192831161010557602001905b828210610b965750505090565b60208091610ba384610b35565b815201910190610b89565b9080601f83011215610105578151610bc581610b1e565b92610bd3604051948561099c565b81845260208085019260051b82010192831161010557602001905b828210610bfb5750505090565b8151815260209182019101610bee565b602081830312610105578051906001600160401b038211610105570161010081830312610105576040519161010083018381106001600160401b0382111761096d5760405281516001600160401b0381116101055781610c6c918401610b49565b835260208201516001600160401b0381116101055781610c8d918401610bae565b602084015260408201516001600160401b0381116101055781610cb1918401610b49565b604084015260608201516001600160401b0381116101055781610cd5918401610bae565b606084015260808201516001600160401b0381116101055781610cf9918401610b49565b608084015260a08201516001600160401b0381116101055781610d1d918401610bae565b60a084015260c0820151916001600160401b03831161010557610d4760e092610d52948301610bae565b60c085015201610b35565b60e082015290565b9035601e19823603018112156101055701602081359101916001600160401b038211610105578160051b3603831361010557565b916020908281520191905f5b818110610da75750505090565b909192602080600192838060a01b03610dbf886109d1565b168152019401929101610d9a565b81835290916001600160fb1b0383116101055760209260051b809284830137010190565b356001600160a01b03811681036101055790565b92610e108480611744565b602086019150610e208287611744565b919050036113fd576040850193610e378587611744565b606088019150610e478289611744565b919050036113fd576080870195610e5e8789611744565b60a08a019150610e6e828b611744565b9190501480159061140c575b6113fd57949660e0890195905f5b8a610e938180611744565b9050821015610f8b5760208a8a835f610ee887610ee28f610edc83610ed5610ed0610ec18a610f239f611744565b6001600160a01b039491611487565b610df1565b1697610df1565b95611744565b90611487565b6040516323b872dd60e01b81526001600160a01b03958616600482015292909416602483015292356044820152938492839182906064820190565b03925af19081156102cc575f91610f52575b5015610f4357600101610e88565b632f35253160e01b5f5260045ffd5b90506020813d8211610f83575b81610f6c6020938361099c565b8101031261010557610f7d90611444565b5f610f35565b3d9150610f5f565b5050909193979492945f5b8a610fa18782611744565b9050821015611038579081610fd182610ee28b610fcb838f98610ed08f610ec190610ed593611744565b94611744565b35833b15610105576040516323b872dd60e01b81526001600160a01b038d811660048301529290921660248301526044820152915f908390606490829084905af19182156102cc57600192611028575b5001610f96565b5f6110329161099c565b5f611021565b505091959497909296935f9760c08b019560018060a01b0316985b61105d868d611744565b90508110156111165780888a6110a48f94610ee28c61109d83610ee28f8261108f610ed0610ec18f9461109695611744565b1699610df1565b978b611744565b3597611744565b35823b15610105578d5f809460c4936040519889968795637921219560e11b8752600487015260018060a01b031660248601526044850152606484015260a060848401528160a48401525af19182156102cc57600192611106575b5001611053565b5f6111109161099c565b5f6110ff565b509493909599929897969197604051968796602088016020905261113a8680610d5a565b60408a0161010090526101408a019061115292610d8e565b9061115d9087610d5a565b898303603f190160608b01526111739291610dcd565b9061117e9086610d5a565b888303603f190160808a01526111949291610d8e565b9061119f9085610d5a565b878303603f190160a08901526111b59291610dcd565b906111c09084610d5a565b868303603f190160c08801526111d69291610d8e565b906111e19083610d5a565b858303603f190160e08701526111f79291610dcd565b9161120191610d5a565b838303603f19016101008501526112189291610dcd565b6001600160a01b03611229886109d1565b1661012083015203601f1981018252611242908261099c565b6040519260c084018481106001600160401b0382111761096d5760405260018060a01b031683525f6020840152600160408401525f606084015260808301525f60a083015260405160408101908082106001600160401b0383111761096d576020916040527f000000000000000000000000000000000000000000000000000000000000000081528181019384526040518094819263f17325e760e01b8352846004840152516024830152516040604483015260018060a01b0381511660648301526001600160401b03848201511660848301526040810151151560a4830152606081015160c483015260a0611348608083015160c060e4860152610124850190610a46565b91015161010483015203815f7f00000000000000000000000000000000000000000000000000000000000000006001600160a01b03165af19182156102cc575f926113c9575b5081936113a160018060a01b0391610df1565b16917ff499ed54dafb173ee5c0ac81d260b37d4ceba55eb489caab761ba8a1bc663a345f80a4565b9091506020813d6020116113f5575b816113e56020938361099c565b810103126101055751905f61138e565b3d91506113d8565b63512509d360e11b5f5260045ffd5b50611417888a611744565b905061142660c08b018b611744565b9190501415610e7a565b51906001600160401b038216820361010557565b5190811515820361010557565b92919261145d826109e5565b9161146b604051938461099c565b829481845281830111610105578281602093845f96015e010152565b91908110156114975760051b0190565b634e487b7160e01b5f52603260045260245ffd5b91909280840361153a575f91345b8584101561152f576114cc848484611487565b35818111611520578460051b86013561013e19873603018112156101055730906001600160a01b039061150390890160e001610df1565b160361151557600191039301926114b9565b505050505050505f90565b63044044a560e21b5f5260045ffd5b505050505050600190565b63251f56a160e21b5f5260045ffd5b80518210156114975760209160051b010190565b8051518251511161173e575f5b8251518110156115e15781516001600160a01b039061158a908390611549565b511660018060a01b0361159e838651611549565b5116148015906115bc575b6115b55760010161156a565b5050505f90565b506115cb816020840151611549565b516115da826020860151611549565b51116115a9565b506040810191825151604082019081515111611736575f5b8151518110156116735784516001600160a01b0390611619908390611549565b511660018060a01b0361162d838551611549565b51161480159061164d575b611644576001016115f9565b50505050505f90565b5061165c816060860151611549565b5161166b826060860151611549565b511415611638565b50509150608081019182515192608082019384515111611736575f5b84515181101561172c5781516001600160a01b03906116af908390611549565b511660018060a01b036116c3838851611549565b511614801590611706575b80156116e1575b6116445760010161168f565b506116f08160c0860151611549565b516116ff8260c0860151611549565b51116116d5565b506117158160a0860151611549565b516117248260a0860151611549565b5114156116ce565b5050505050600190565b505050505f90565b50505f90565b903590601e198136030182121561010557018035906001600160401b03821161010557602001918160051b3603831361010557565b805f9172184f03e93ff9f4daa797ed6e38ed64bf6a1f0160401b8210156118c3575b806d04ee2d6d415b85acef8100000000600a9210156118a8575b662386f26fc10000811015611894575b6305f5e100811015611883575b612710811015611874575b6064811015611866575b101561185b575b600a60216001840193611800856109e5565b9461180e604051968761099c565b80865261181d601f19916109e5565b013660208701378401015b5f1901916f181899199a1a9b1b9c1cb0b131b232b360811b8282061a835304801561185657600a9091611828565b505090565b6001909101906117ee565b6064600291049301926117e7565b612710600491049301926117dd565b6305f5e100600891049301926117d2565b662386f26fc10000601091049301926117c5565b6d04ee2d6d415b85acef8100000000602091049301926117b5565b506040915072184f03e93ff9f4daa797ed6e38ed64bf6a1f0160401b810461179b565b7f00000000000000000000000000000000000000000000000000000000000000006001600160a01b0316330361191857565b634ca8886760e01b5f5260045ffdfea2646970667358221220354a24b01126faebd5fe4c90f54e2f37d181abc4adcdf4386baf1812237e9bee64736f6c634300081b0033","linkReferences":{}},"methodIdentifiers":{"ATTESTATION_SCHEMA()":"5bf2f20d","attest((bytes32,bytes32,uint64,uint64,uint64,bytes32,address,address,bool,bytes))":"e60c3505","checkStatement((bytes32,bytes32,uint64,uint64,uint64,bytes32,address,address,bool,bytes),bytes,bytes32)":"1272ff8b","getSchema()":"6b122fe0","getStatement(bytes32)":"5cc02d2f","isPayable()":"ce46e046","makeStatement((address[],uint256[],address[],uint256[],address[],uint256[],uint256[],address))":"4f4a9b19","makeStatementFor((address[],uint256[],address[],uint256[],address[],uint256[],uint256[],address),address,address)":"1d6f87dd","multiAttest((bytes32,bytes32,uint64,uint64,uint64,bytes32,address,address,bool,bytes)[],uint256[])":"91db0b7e","multiRevoke((bytes32,bytes32,uint64,uint64,uint64,bytes32,address,address,bool,bytes)[],uint256[])":"88e5b2d9","revoke((bytes32,bytes32,uint64,uint64,uint64,bytes32,address,address,bool,bytes))":"e49617e1","version()":"54fd4d50"},"id":82}