{"abi":[{"type":"constructor","inputs":[{"name":"_eas","type":"address","internalType":"contract IEAS"},{"name":"_schemaRegistry","type":"address","internalType":"contract ISchemaRegistry"}],"stateMutability":"nonpayable"},{"type":"receive","stateMutability":"payable"},{"type":"function","name":"ATTESTATION_SCHEMA","inputs":[],"outputs":[{"name":"","type":"bytes32","internalType":"bytes32"}],"stateMutability":"view"},{"type":"function","name":"attest","inputs":[{"name":"attestation","type":"tuple","internalType":"struct Attestation","components":[{"name":"uid","type":"bytes32","internalType":"bytes32"},{"name":"schema","type":"bytes32","internalType":"bytes32"},{"name":"time","type":"uint64","internalType":"uint64"},{"name":"expirationTime","type":"uint64","internalType":"uint64"},{"name":"revocationTime","type":"uint64","internalType":"uint64"},{"name":"refUID","type":"bytes32","internalType":"bytes32"},{"name":"recipient","type":"address","internalType":"address"},{"name":"attester","type":"address","internalType":"address"},{"name":"revocable","type":"bool","internalType":"bool"},{"name":"data","type":"bytes","internalType":"bytes"}]}],"outputs":[{"name":"","type":"bool","internalType":"bool"}],"stateMutability":"payable"},{"type":"function","name":"checkStatement","inputs":[{"name":"statement","type":"tuple","internalType":"struct Attestation","components":[{"name":"uid","type":"bytes32","internalType":"bytes32"},{"name":"schema","type":"bytes32","internalType":"bytes32"},{"name":"time","type":"uint64","internalType":"uint64"},{"name":"expirationTime","type":"uint64","internalType":"uint64"},{"name":"revocationTime","type":"uint64","internalType":"uint64"},{"name":"refUID","type":"bytes32","internalType":"bytes32"},{"name":"recipient","type":"address","internalType":"address"},{"name":"attester","type":"address","internalType":"address"},{"name":"revocable","type":"bool","internalType":"bool"},{"name":"data","type":"bytes","internalType":"bytes"}]},{"name":"demand","type":"bytes","internalType":"bytes"},{"name":"","type":"bytes32","internalType":"bytes32"}],"outputs":[{"name":"","type":"bool","internalType":"bool"}],"stateMutability":"view"},{"type":"function","name":"collectExpired","inputs":[{"name":"uid","type":"bytes32","internalType":"bytes32"}],"outputs":[{"name":"","type":"bool","internalType":"bool"}],"stateMutability":"nonpayable"},{"type":"function","name":"collectPayment","inputs":[{"name":"_payment","type":"bytes32","internalType":"bytes32"},{"name":"_fulfillment","type":"bytes32","internalType":"bytes32"}],"outputs":[{"name":"","type":"bool","internalType":"bool"}],"stateMutability":"nonpayable"},{"type":"function","name":"decodeStatementData","inputs":[{"name":"data","type":"bytes","internalType":"bytes"}],"outputs":[{"name":"","type":"tuple","internalType":"struct ERC20EscrowObligation.StatementData","components":[{"name":"arbiter","type":"address","internalType":"address"},{"name":"demand","type":"bytes","internalType":"bytes"},{"name":"token","type":"address","internalType":"address"},{"name":"amount","type":"uint256","internalType":"uint256"}]}],"stateMutability":"pure"},{"type":"function","name":"getSchema","inputs":[],"outputs":[{"name":"","type":"tuple","internalType":"struct SchemaRecord","components":[{"name":"uid","type":"bytes32","internalType":"bytes32"},{"name":"resolver","type":"address","internalType":"contract ISchemaResolver"},{"name":"revocable","type":"bool","internalType":"bool"},{"name":"schema","type":"string","internalType":"string"}]}],"stateMutability":"view"},{"type":"function","name":"getStatement","inputs":[{"name":"uid","type":"bytes32","internalType":"bytes32"}],"outputs":[{"name":"","type":"tuple","internalType":"struct Attestation","components":[{"name":"uid","type":"bytes32","internalType":"bytes32"},{"name":"schema","type":"bytes32","internalType":"bytes32"},{"name":"time","type":"uint64","internalType":"uint64"},{"name":"expirationTime","type":"uint64","internalType":"uint64"},{"name":"revocationTime","type":"uint64","internalType":"uint64"},{"name":"refUID","type":"bytes32","internalType":"bytes32"},{"name":"recipient","type":"address","internalType":"address"},{"name":"attester","type":"address","internalType":"address"},{"name":"revocable","type":"bool","internalType":"bool"},{"name":"data","type":"bytes","internalType":"bytes"}]}],"stateMutability":"view"},{"type":"function","name":"getStatementData","inputs":[{"name":"uid","type":"bytes32","internalType":"bytes32"}],"outputs":[{"name":"","type":"tuple","internalType":"struct ERC20EscrowObligation.StatementData","components":[{"name":"arbiter","type":"address","internalType":"address"},{"name":"demand","type":"bytes","internalType":"bytes"},{"name":"token","type":"address","internalType":"address"},{"name":"amount","type":"uint256","internalType":"uint256"}]}],"stateMutability":"view"},{"type":"function","name":"isPayable","inputs":[],"outputs":[{"name":"","type":"bool","internalType":"bool"}],"stateMutability":"pure"},{"type":"function","name":"makeStatement","inputs":[{"name":"data","type":"tuple","internalType":"struct ERC20EscrowObligation.StatementData","components":[{"name":"arbiter","type":"address","internalType":"address"},{"name":"demand","type":"bytes","internalType":"bytes"},{"name":"token","type":"address","internalType":"address"},{"name":"amount","type":"uint256","internalType":"uint256"}]},{"name":"expirationTime","type":"uint64","internalType":"uint64"}],"outputs":[{"name":"uid_","type":"bytes32","internalType":"bytes32"}],"stateMutability":"nonpayable"},{"type":"function","name":"makeStatementFor","inputs":[{"name":"data","type":"tuple","internalType":"struct ERC20EscrowObligation.StatementData","components":[{"name":"arbiter","type":"address","internalType":"address"},{"name":"demand","type":"bytes","internalType":"bytes"},{"name":"token","type":"address","internalType":"address"},{"name":"amount","type":"uint256","internalType":"uint256"}]},{"name":"expirationTime","type":"uint64","internalType":"uint64"},{"name":"payer","type":"address","internalType":"address"},{"name":"recipient","type":"address","internalType":"address"}],"outputs":[{"name":"uid_","type":"bytes32","internalType":"bytes32"}],"stateMutability":"nonpayable"},{"type":"function","name":"multiAttest","inputs":[{"name":"attestations","type":"tuple[]","internalType":"struct Attestation[]","components":[{"name":"uid","type":"bytes32","internalType":"bytes32"},{"name":"schema","type":"bytes32","internalType":"bytes32"},{"name":"time","type":"uint64","internalType":"uint64"},{"name":"expirationTime","type":"uint64","internalType":"uint64"},{"name":"revocationTime","type":"uint64","internalType":"uint64"},{"name":"refUID","type":"bytes32","internalType":"bytes32"},{"name":"recipient","type":"address","internalType":"address"},{"name":"attester","type":"address","internalType":"address"},{"name":"revocable","type":"bool","internalType":"bool"},{"name":"data","type":"bytes","internalType":"bytes"}]},{"name":"values","type":"uint256[]","internalType":"uint256[]"}],"outputs":[{"name":"","type":"bool","internalType":"bool"}],"stateMutability":"payable"},{"type":"function","name":"multiRevoke","inputs":[{"name":"attestations","type":"tuple[]","internalType":"struct Attestation[]","components":[{"name":"uid","type":"bytes32","internalType":"bytes32"},{"name":"schema","type":"bytes32","internalType":"bytes32"},{"name":"time","type":"uint64","internalType":"uint64"},{"name":"expirationTime","type":"uint64","internalType":"uint64"},{"name":"revocationTime","type":"uint64","internalType":"uint64"},{"name":"refUID","type":"bytes32","internalType":"bytes32"},{"name":"recipient","type":"address","internalType":"address"},{"name":"attester","type":"address","internalType":"address"},{"name":"revocable","type":"bool","internalType":"bool"},{"name":"data","type":"bytes","internalType":"bytes"}]},{"name":"values","type":"uint256[]","internalType":"uint256[]"}],"outputs":[{"name":"","type":"bool","internalType":"bool"}],"stateMutability":"payable"},{"type":"function","name":"revoke","inputs":[{"name":"attestation","type":"tuple","internalType":"struct Attestation","components":[{"name":"uid","type":"bytes32","internalType":"bytes32"},{"name":"schema","type":"bytes32","internalType":"bytes32"},{"name":"time","type":"uint64","internalType":"uint64"},{"name":"expirationTime","type":"uint64","internalType":"uint64"},{"name":"revocationTime","type":"uint64","internalType":"uint64"},{"name":"refUID","type":"bytes32","internalType":"bytes32"},{"name":"recipient","type":"address","internalType":"address"},{"name":"attester","type":"address","internalType":"address"},{"name":"revocable","type":"bool","internalType":"bool"},{"name":"data","type":"bytes","internalType":"bytes"}]}],"outputs":[{"name":"","type":"bool","internalType":"bool"}],"stateMutability":"payable"},{"type":"function","name":"version","inputs":[],"outputs":[{"name":"","type":"string","internalType":"string"}],"stateMutability":"view"},{"type":"event","name":"EscrowClaimed","inputs":[{"name":"payment","type":"bytes32","indexed":true,"internalType":"bytes32"},{"name":"fulfillment","type":"bytes32","indexed":true,"internalType":"bytes32"},{"name":"fulfiller","type":"address","indexed":true,"internalType":"address"}],"anonymous":false},{"type":"event","name":"EscrowMade","inputs":[{"name":"payment","type":"bytes32","indexed":true,"internalType":"bytes32"},{"name":"buyer","type":"address","indexed":true,"internalType":"address"}],"anonymous":false},{"type":"error","name":"AccessDenied","inputs":[]},{"type":"error","name":"AttestationCreateFailed","inputs":[]},{"type":"error","name":"AttestationNotFound","inputs":[{"name":"attestationId","type":"bytes32","internalType":"bytes32"}]},{"type":"error","name":"AttestationRevoked","inputs":[]},{"type":"error","name":"DeadlineExpired","inputs":[]},{"type":"error","name":"ERC20TransferFailed","inputs":[{"name":"token","type":"address","internalType":"address"},{"name":"from","type":"address","internalType":"address"},{"name":"to","type":"address","internalType":"address"},{"name":"amount","type":"uint256","internalType":"uint256"}]},{"type":"error","name":"InsufficientValue","inputs":[]},{"type":"error","name":"InvalidEAS","inputs":[]},{"type":"error","name":"InvalidEscrow","inputs":[]},{"type":"error","name":"InvalidEscrowAttestation","inputs":[]},{"type":"error","name":"InvalidFulfillment","inputs":[]},{"type":"error","name":"InvalidLength","inputs":[]},{"type":"error","name":"InvalidSchema","inputs":[]},{"type":"error","name":"NotFromStatement","inputs":[]},{"type":"error","name":"NotPayable","inputs":[]},{"type":"error","name":"RevocationFailed","inputs":[{"name":"attestationId","type":"bytes32","internalType":"bytes32"}]},{"type":"error","name":"UnauthorizedCall","inputs":[]}],"bytecode":{"object":"0x610160806040523461020657604081611d8380380380916100208285610240565b8339810103126102065780516001600160a01b038116918282036102065760200151916001600160a01b03831680840361020657604051606081016001600160401b0381118282101761022c57604052603c815260208101927f6164647265737320617262697465722c2062797465732064656d616e642c206184527f64647265737320746f6b656e2c2075696e7432353620616d6f756e740000000060408301526001608052600360a0525f60c0521561021d576084948460209560e05261012052610100525f604051958680958194630c1af44f60e31b8352606060048401525180918160648501528484015e818101830184905230602483015260016044830152601f01601f191681010301925af1908115610212575f916101dc575b5061014052604051611b1f9081610264823960805181610855015260a05181610881015260c051816108ac015260e05181611aaa015261010051816105e8015261012051818181610268015281816103c1015281816107560152818161097a01526113f00152610140518181816102a8015281816105b6015281816107960152818161081201528181610ac50152818161134301526115e10152f35b90506020813d60201161020a575b816101f760209383610240565b8101031261020657515f610140565b5f80fd5b3d91506101ea565b6040513d5f823e3d90fd5b6341bc07ff60e11b5f5260045ffd5b634e487b7160e01b5f52604160045260245ffd5b601f909101601f19168101906001600160401b0382119082101761022c5760405256fe60806040526004361015610027575b3615610018575f80fd5b631574f9f360e01b5f5260045ffd5b5f5f3560e01c9081630fce714614610e295781631272ff8b14610d1157816330088bc91461093957816354fd4d50146108355781635bf2f20d146107fb5781635cc02d2f1461071f5781636b122fe01461057657816388e5b2d91461054d57816391db0b7e1461054d578163a84f2aa014610387578163b8b0e3fc14610333578163c75c572b14610231578163ce46e04614610216578163e112ea081461011157508063e49617e1146100df5763e60c35050361000e575b60206100fd60e06100ef3661114e565b6100f7611aa8565b01611182565b6040516001600160a01b0390911630148152f35b3461020757602036600319011261020757600435906001600160401b03821161020757366023830112156102075781600401356001600160401b03811161020a578201916024830190368211610212576101696118bc565b50602081850312610212576024810135906001600160401b03821161020e5701926080908490031261020a57604051916101a283610f21565b6101ae60248501610ec2565b83526044840135906001600160401b0382116102075750926101da608492602461020396840101610f78565b60208401526101eb60648201610ec2565b60408401520135606082015260405191829182611104565b0390f35b80fd5b5080fd5b8380fd5b8280fd5b34610207578060031936011261020757602090604051908152f35b346102075760203660031901126102075761024a6118bc565b506040516328c44a9960e21b815260048035908201529080826024817f00000000000000000000000000000000000000000000000000000000000000006001600160a01b03165afa918215610326578192610302575b5060208201517f0000000000000000000000000000000000000000000000000000000000000000036102f3576102036102e76101208401516020808251830101910161155f565b60405191829182611104565b63629cd40b60e11b8152600490fd5b61031f9192503d8084833e6103178183610f3c565b81019061172e565b90826102a0565b50604051903d90823e3d90fd5b3461020757604036600319011261020757600435906001600160401b038211610207576080600319833603011261020757602061037f83610372610e98565b90339133916004016111ce565b604051908152f35b3461020757602036600319011261020757600435906103a46116d0565b506040516328c44a9960e21b8152600481018390529181836024817f00000000000000000000000000000000000000000000000000000000000000006001600160a01b03165afa80938394610531575b5061040c576301fb6dd160e01b825260045260249150fd5b506001600160401b036060830151164210610522576104396101208301516020808251830101910161155f565b6040818101805160c095909501805160609094018051935163a9059cbb60e01b81526001600160a01b03958616600482015260248101949094529590949193919291602091839160449183918791165af18291816104e6575b506104df57505b156104a957602060405160018152f35b5190519151604051634a73404560e11b81529283926104db92916001600160a01b0390811691309116600486016111a3565b0390fd5b9050610499565b9091506020813d60201161051a575b8161050260209383610f3c565b810103126102125761051390611196565b9086610492565b3d91506104f5565b637bf6a16f60e01b8152600490fd5b6105469194503d8085833e6103178183610f3c565b92846103f4565b602061056c61055b366110b4565b92610567929192611aa8565b611809565b6040519015158152f35b3461020757806003193601126102075760608060405161059581610f21565b8381528360208201528360408201520152604051906351753e3760e11b82527f00000000000000000000000000000000000000000000000000000000000000006004830152808260248160018060a01b037f0000000000000000000000000000000000000000000000000000000000000000165afa90811561071357809161065e575b606082610203604051928392602084528051602085015260018060a01b0360208201511660408501526040810151151582850152015160808084015260a0830190610fbe565b90503d8082843e61066f8184610f3c565b82019160208184031261020a578051906001600160401b03821161021257019060808284031261020757604051916106a683610f21565b8051835260208101516001600160a01b03811681036102125760208401526106d060408201611196565b60408401526060810151906001600160401b03821161021257019083601f8301121561020757506060928160206107099351910161150f565b8282015282610618565b604051903d90823e3d90fd5b34610207576020366003190112610207576107386116d0565b506040516328c44a9960e21b815260048035908201529080826024817f00000000000000000000000000000000000000000000000000000000000000006001600160a01b03165afa9182156103265781926107df575b5060208201517f0000000000000000000000000000000000000000000000000000000000000000036107d0576040516020808252819061020390820185610fe2565b63295d5f3960e01b8152600490fd5b6107f49192503d8084833e6103178183610f3c565b908261078e565b3461020757806003193601126102075760206040517f00000000000000000000000000000000000000000000000000000000000000008152f35b3461020757806003193601126102075760206109256001610203936108797f000000000000000000000000000000000000000000000000000000000000000061193b565b9082856108a57f000000000000000000000000000000000000000000000000000000000000000061193b565b81806108d07f000000000000000000000000000000000000000000000000000000000000000061193b565b926040519a888c995191829101848b015e880190601760f91b83830152805192839101602183015e010190601760f91b84830152805192839101600283015e010190838201520301601f198101835282610f3c565b604051918291602083526020830190610fbe565b34610c72576040366003190112610c7257600435906024359061095a6116d0565b506109636116d0565b506040516328c44a9960e21b8152600481018490527f00000000000000000000000000000000000000000000000000000000000000006001600160a01b031691905f81602481865afa5f9181610cf5575b506109cc57846301fb6dd160e01b5f5260045260245ffd5b84906040516328c44a9960e21b81528560048201525f81602481885afa5f9181610cd9575b50610a0957856301fb6dd160e01b5f5260045260245ffd5b90859194610a16826118e0565b15610cca57610a836020610a3761012085015182808251830101910161155f565b9360018060a01b03855116610a718a84880151935160405196879586948594631272ff8b60e01b8652606060048701526064860190610fe2565b84810360031901602486015290610fbe565b90604483015203915afa908115610cbf575f91610c85575b5015610c7657604051610aad81610f06565b8481525f602082015260405190610ac382610f06565b7f0000000000000000000000000000000000000000000000000000000000000000825260208201908152823b15610c725760645f92836020956040519687958694634692626760e01b86525160048601525180516024860152015160448401525af19081610c5d575b50610b455763614cf93960e01b84526004839052602484fd5b6040818101805160c097909701805160609094018051935163a9059cbb60e01b81526001600160a01b0395861660048201526024810194909452979093919291602091839160449183918b91165af1869181610c1d575b50610c185750845b15610be657506020945060018060a01b03905116917fd903ca32e81477af89f5b8a6ce888d185cc715390e49474a77b4c6846254cccd6040519480a460018152f35b5190518551604051634a73404560e11b81529283926104db92916001600160a01b0391821691309116600486016111a3565b610ba4565b9091506020813d602011610c55575b81610c3960209383610f3c565b81010312610c5157610c4a90611196565b9088610b9c565b8680fd5b3d9150610c2c565b610c6a9195505f90610f3c565b5f9386610b2c565b5f80fd5b630ebe58ef60e11b5f5260045ffd5b90506020813d602011610cb7575b81610ca060209383610f3c565b81010312610c7257610cb190611196565b87610a9b565b3d9150610c93565b6040513d5f823e3d90fd5b63629cd40b60e11b5f5260045ffd5b610cee9192503d805f833e6103178183610f3c565b90876109f1565b610d0a9192503d805f833e6103178183610f3c565b90866109b4565b34610c72576060366003190112610c72576004356001600160401b038111610c72576101406003198236030112610c725760405190610d4f82610ed6565b8060040135825260248101356020830152610d6c60448201610eae565b6040830152610d7d60648201610eae565b6060830152610d8e60848201610eae565b608083015260a481013560a0830152610da960c48201610ec2565b60c0830152610dba60e48201610ec2565b60e08301526101048101358015158103610c7257610100830152610124810135906001600160401b038211610c72576004610df89236920101610f78565b6101208201526024356001600160401b038111610c7257602091610e2361056c923690600401610f78565b906115df565b34610c72576080366003190112610c72576004356001600160401b038111610c725760806003198236030112610c7257610e61610e98565b906044356001600160a01b0381168103610c7257606435906001600160a01b0382168203610c725760209361037f936004016111ce565b602435906001600160401b0382168203610c7257565b35906001600160401b0382168203610c7257565b35906001600160a01b0382168203610c7257565b61014081019081106001600160401b03821117610ef257604052565b634e487b7160e01b5f52604160045260245ffd5b604081019081106001600160401b03821117610ef257604052565b608081019081106001600160401b03821117610ef257604052565b90601f801991011681019081106001600160401b03821117610ef257604052565b6001600160401b038111610ef257601f01601f191660200190565b81601f82011215610c7257803590610f8f82610f5d565b92610f9d6040519485610f3c565b82845260208383010111610c7257815f926020809301838601378301015290565b805180835260209291819084018484015e5f828201840152601f01601f1916010190565b906101406101206110819380518452602081015160208501526001600160401b0360408201511660408501526001600160401b0360608201511660608501526001600160401b03608082015116608085015260a081015160a085015260018060a01b0360c08201511660c085015260018060a01b0360e08201511660e08501526101008101511515610100850152015191816101208201520190610fbe565b90565b9181601f84011215610c72578235916001600160401b038311610c72576020808501948460051b010111610c7257565b6040600319820112610c72576004356001600160401b038111610c7257816110de91600401611084565b92909291602435906001600160401b038211610c725761110091600401611084565b9091565b6020815260018060a01b03825116602082015260806060611133602085015183604086015260a0850190610fbe565b60408501516001600160a01b03168483015293015191015290565b6020600319820112610c7257600435906001600160401b038211610c7257610140908290036003190112610c725760040190565b356001600160a01b0381168103610c725790565b51908115158203610c7257565b6001600160a01b03918216815291811660208301529091166040820152606081019190915260800190565b9293929091604082016001600160a01b036111e882611182565b16915f60206060860135946064604051809481936323b872dd60e01b835260018060a01b03881660048401523060248401528960448401525af15f91816114bf575b506114ba57505f5b156114915750604051602080820152926001600160a01b0361125382610ec2565b1660408501526020810135601e1982360301811215610c725701602081359101906001600160401b038111610c72578036038213610c72576112e29360e093828794608060608701528160c0870152868601375f8484018601526001600160a01b03906112bf90610ec2565b16608084015260a0830152601f801991011681010301601f198101835282610f3c565b6040519360c08501908582106001600160401b03831117610ef2576001600160401b039160405260018060a01b031692838652166020850152600160408501525f606085015260808401525f60a0840152602060405161134181610f06565b7f000000000000000000000000000000000000000000000000000000000000000081528181019485526040518095819263f17325e760e01b8352846004840152516024830152516040604483015260018060a01b0381511660648301526001600160401b03848201511660848301526040810151151560a4830152606081015160c483015260a06113e2608083015160c060e4860152610124850190610fbe565b91015161010483015203815f7f00000000000000000000000000000000000000000000000000000000000000006001600160a01b03165af15f938161145d575b5061143657634a10301360e11b5f5260045ffd5b827f8f7f2dbafd79125e808bf16a53d7fa4e17b8b6374ced76d946a45f94b7bf4d065f80a3565b9093506020813d602011611489575b8161147960209383610f3c565b81010312610c725751925f611422565b3d915061146c565b9061149e6104db91611182565b92604051938493634a73404560e11b85523091600486016111a3565b611232565b9091506020813d6020116114f3575b816114db60209383610f3c565b81010312610c72576114ec90611196565b905f61122a565b3d91506114ce565b51906001600160a01b0382168203610c7257565b92919261151b82610f5d565b916115296040519384610f3c565b829481845281830111610c72578281602093845f96015e010152565b9080601f83011215610c725781516110819260200161150f565b602081830312610c72578051906001600160401b038211610c72570190608082820312610c72576040519161159383610f21565b61159c816114fb565b835260208101516001600160401b038111610c72576060926115bf918301611545565b60208401526115d0604082016114fb565b60408401520151606082015290565b7f00000000000000000000000000000000000000000000000000000000000000006020820151036116c157611613816118e0565b156116bb576116336101206116439201516020808251830101910161155f565b916020808251830101910161155f565b604082810151908201516001600160a01b0390811691161491826116a7575b8261168e575b8261167257505090565b6020919250810151818151910120910151602081519101201490565b805182516001600160a01b039081169116149250611668565b915060608201516060820151111591611662565b50505f90565b635f9bd90760e11b5f5260045ffd5b604051906116dd82610ed6565b6060610120835f81525f60208201525f60408201525f838201525f60808201525f60a08201525f60c08201525f60e08201525f6101008201520152565b51906001600160401b0382168203610c7257565b602081830312610c72578051906001600160401b038211610c72570161014081830312610c72576040519161176283610ed6565b815183526020820151602084015261177c6040830161171a565b604084015261178d6060830161171a565b606084015261179e6080830161171a565b608084015260a082015160a08401526117b960c083016114fb565b60c08401526117ca60e083016114fb565b60e08401526117dc6101008301611196565b6101008401526101208201516001600160401b038111610c72576118009201611545565b61012082015290565b9290928184036118ad575f91345b858410156118a2578184101561188e578360051b808601359082821161187f5784013561013e1985360301811215610c725730906001600160a01b039061186290870160e001611182565b16036118745760019103930192611817565b505050505050505f90565b63044044a560e21b5f5260045ffd5b634e487b7160e01b5f52603260045260245ffd5b505050505050600190565b63251f56a160e21b5f5260045ffd5b604051906118c982610f21565b5f6060838281528160208201528260408201520152565b6001600160401b036060820151168015159081611931575b5061192257608001516001600160401b031661191357600190565b637b6227e960e11b5f5260045ffd5b631ab7da6b60e01b5f5260045ffd5b905042115f6118f8565b805f9172184f03e93ff9f4daa797ed6e38ed64bf6a1f0160401b821015611a85575b806d04ee2d6d415b85acef8100000000600a921015611a6a575b662386f26fc10000811015611a56575b6305f5e100811015611a45575b612710811015611a36575b6064811015611a28575b1015611a1d575b600a602160018401936119c285610f5d565b946119d06040519687610f3c565b8086526119df601f1991610f5d565b013660208701378401015b5f1901916f181899199a1a9b1b9c1cb0b131b232b360811b8282061a8353048015611a1857600a90916119ea565b505090565b6001909101906119b0565b6064600291049301926119a9565b6127106004910493019261199f565b6305f5e10060089104930192611994565b662386f26fc1000060109104930192611987565b6d04ee2d6d415b85acef810000000060209104930192611977565b506040915072184f03e93ff9f4daa797ed6e38ed64bf6a1f0160401b810461195d565b7f00000000000000000000000000000000000000000000000000000000000000006001600160a01b03163303611ada57565b634ca8886760e01b5f5260045ffdfea264697066735822122023a9ec6ee5e523f2df55786730a5842c2ab09180925b72f4831788781ef22af964736f6c634300081b0033","linkReferences":{}},"methodIdentifiers":{"ATTESTATION_SCHEMA()":"5bf2f20d","attest((bytes32,bytes32,uint64,uint64,uint64,bytes32,address,address,bool,bytes))":"e60c3505","checkStatement((bytes32,bytes32,uint64,uint64,uint64,bytes32,address,address,bool,bytes),bytes,bytes32)":"1272ff8b","collectExpired(bytes32)":"a84f2aa0","collectPayment(bytes32,bytes32)":"30088bc9","decodeStatementData(bytes)":"e112ea08","getSchema()":"6b122fe0","getStatement(bytes32)":"5cc02d2f","getStatementData(bytes32)":"c75c572b","isPayable()":"ce46e046","makeStatement((address,bytes,address,uint256),uint64)":"b8b0e3fc","makeStatementFor((address,bytes,address,uint256),uint64,address,address)":"0fce7146","multiAttest((bytes32,bytes32,uint64,uint64,uint64,bytes32,address,address,bool,bytes)[],uint256[])":"91db0b7e","multiRevoke((bytes32,bytes32,uint64,uint64,uint64,bytes32,address,address,bool,bytes)[],uint256[])":"88e5b2d9","revoke((bytes32,bytes32,uint64,uint64,uint64,bytes32,address,address,bool,bytes))":"e49617e1","version()":"54fd4d50"},"id":88}