{"abi":[{"type":"constructor","inputs":[{"name":"_eas","type":"address","internalType":"contract IEAS"},{"name":"_schemaRegistry","type":"address","internalType":"contract ISchemaRegistry"}],"stateMutability":"nonpayable"},{"type":"receive","stateMutability":"payable"},{"type":"function","name":"ATTESTATION_SCHEMA","inputs":[],"outputs":[{"name":"","type":"bytes32","internalType":"bytes32"}],"stateMutability":"view"},{"type":"function","name":"attest","inputs":[{"name":"attestation","type":"tuple","internalType":"struct Attestation","components":[{"name":"uid","type":"bytes32","internalType":"bytes32"},{"name":"schema","type":"bytes32","internalType":"bytes32"},{"name":"time","type":"uint64","internalType":"uint64"},{"name":"expirationTime","type":"uint64","internalType":"uint64"},{"name":"revocationTime","type":"uint64","internalType":"uint64"},{"name":"refUID","type":"bytes32","internalType":"bytes32"},{"name":"recipient","type":"address","internalType":"address"},{"name":"attester","type":"address","internalType":"address"},{"name":"revocable","type":"bool","internalType":"bool"},{"name":"data","type":"bytes","internalType":"bytes"}]}],"outputs":[{"name":"","type":"bool","internalType":"bool"}],"stateMutability":"payable"},{"type":"function","name":"checkStatement","inputs":[{"name":"statement","type":"tuple","internalType":"struct Attestation","components":[{"name":"uid","type":"bytes32","internalType":"bytes32"},{"name":"schema","type":"bytes32","internalType":"bytes32"},{"name":"time","type":"uint64","internalType":"uint64"},{"name":"expirationTime","type":"uint64","internalType":"uint64"},{"name":"revocationTime","type":"uint64","internalType":"uint64"},{"name":"refUID","type":"bytes32","internalType":"bytes32"},{"name":"recipient","type":"address","internalType":"address"},{"name":"attester","type":"address","internalType":"address"},{"name":"revocable","type":"bool","internalType":"bool"},{"name":"data","type":"bytes","internalType":"bytes"}]},{"name":"demand","type":"bytes","internalType":"bytes"},{"name":"","type":"bytes32","internalType":"bytes32"}],"outputs":[{"name":"","type":"bool","internalType":"bool"}],"stateMutability":"view"},{"type":"function","name":"collectExpired","inputs":[{"name":"uid","type":"bytes32","internalType":"bytes32"}],"outputs":[{"name":"","type":"bool","internalType":"bool"}],"stateMutability":"nonpayable"},{"type":"function","name":"collectPayment","inputs":[{"name":"_payment","type":"bytes32","internalType":"bytes32"},{"name":"_fulfillment","type":"bytes32","internalType":"bytes32"}],"outputs":[{"name":"","type":"bool","internalType":"bool"}],"stateMutability":"nonpayable"},{"type":"function","name":"getSchema","inputs":[],"outputs":[{"name":"","type":"tuple","internalType":"struct SchemaRecord","components":[{"name":"uid","type":"bytes32","internalType":"bytes32"},{"name":"resolver","type":"address","internalType":"contract ISchemaResolver"},{"name":"revocable","type":"bool","internalType":"bool"},{"name":"schema","type":"string","internalType":"string"}]}],"stateMutability":"view"},{"type":"function","name":"getStatement","inputs":[{"name":"uid","type":"bytes32","internalType":"bytes32"}],"outputs":[{"name":"","type":"tuple","internalType":"struct Attestation","components":[{"name":"uid","type":"bytes32","internalType":"bytes32"},{"name":"schema","type":"bytes32","internalType":"bytes32"},{"name":"time","type":"uint64","internalType":"uint64"},{"name":"expirationTime","type":"uint64","internalType":"uint64"},{"name":"revocationTime","type":"uint64","internalType":"uint64"},{"name":"refUID","type":"bytes32","internalType":"bytes32"},{"name":"recipient","type":"address","internalType":"address"},{"name":"attester","type":"address","internalType":"address"},{"name":"revocable","type":"bool","internalType":"bool"},{"name":"data","type":"bytes","internalType":"bytes"}]}],"stateMutability":"view"},{"type":"function","name":"isPayable","inputs":[],"outputs":[{"name":"","type":"bool","internalType":"bool"}],"stateMutability":"pure"},{"type":"function","name":"makeStatement","inputs":[{"name":"data","type":"tuple","internalType":"struct ERC20EscrowObligation.StatementData","components":[{"name":"token","type":"address","internalType":"address"},{"name":"amount","type":"uint256","internalType":"uint256"},{"name":"arbiter","type":"address","internalType":"address"},{"name":"demand","type":"bytes","internalType":"bytes"}]},{"name":"expirationTime","type":"uint64","internalType":"uint64"}],"outputs":[{"name":"uid_","type":"bytes32","internalType":"bytes32"}],"stateMutability":"nonpayable"},{"type":"function","name":"makeStatementFor","inputs":[{"name":"data","type":"tuple","internalType":"struct ERC20EscrowObligation.StatementData","components":[{"name":"token","type":"address","internalType":"address"},{"name":"amount","type":"uint256","internalType":"uint256"},{"name":"arbiter","type":"address","internalType":"address"},{"name":"demand","type":"bytes","internalType":"bytes"}]},{"name":"expirationTime","type":"uint64","internalType":"uint64"},{"name":"payer","type":"address","internalType":"address"},{"name":"recipient","type":"address","internalType":"address"}],"outputs":[{"name":"uid_","type":"bytes32","internalType":"bytes32"}],"stateMutability":"nonpayable"},{"type":"function","name":"multiAttest","inputs":[{"name":"attestations","type":"tuple[]","internalType":"struct Attestation[]","components":[{"name":"uid","type":"bytes32","internalType":"bytes32"},{"name":"schema","type":"bytes32","internalType":"bytes32"},{"name":"time","type":"uint64","internalType":"uint64"},{"name":"expirationTime","type":"uint64","internalType":"uint64"},{"name":"revocationTime","type":"uint64","internalType":"uint64"},{"name":"refUID","type":"bytes32","internalType":"bytes32"},{"name":"recipient","type":"address","internalType":"address"},{"name":"attester","type":"address","internalType":"address"},{"name":"revocable","type":"bool","internalType":"bool"},{"name":"data","type":"bytes","internalType":"bytes"}]},{"name":"values","type":"uint256[]","internalType":"uint256[]"}],"outputs":[{"name":"","type":"bool","internalType":"bool"}],"stateMutability":"payable"},{"type":"function","name":"multiRevoke","inputs":[{"name":"attestations","type":"tuple[]","internalType":"struct Attestation[]","components":[{"name":"uid","type":"bytes32","internalType":"bytes32"},{"name":"schema","type":"bytes32","internalType":"bytes32"},{"name":"time","type":"uint64","internalType":"uint64"},{"name":"expirationTime","type":"uint64","internalType":"uint64"},{"name":"revocationTime","type":"uint64","internalType":"uint64"},{"name":"refUID","type":"bytes32","internalType":"bytes32"},{"name":"recipient","type":"address","internalType":"address"},{"name":"attester","type":"address","internalType":"address"},{"name":"revocable","type":"bool","internalType":"bool"},{"name":"data","type":"bytes","internalType":"bytes"}]},{"name":"values","type":"uint256[]","internalType":"uint256[]"}],"outputs":[{"name":"","type":"bool","internalType":"bool"}],"stateMutability":"payable"},{"type":"function","name":"revoke","inputs":[{"name":"attestation","type":"tuple","internalType":"struct Attestation","components":[{"name":"uid","type":"bytes32","internalType":"bytes32"},{"name":"schema","type":"bytes32","internalType":"bytes32"},{"name":"time","type":"uint64","internalType":"uint64"},{"name":"expirationTime","type":"uint64","internalType":"uint64"},{"name":"revocationTime","type":"uint64","internalType":"uint64"},{"name":"refUID","type":"bytes32","internalType":"bytes32"},{"name":"recipient","type":"address","internalType":"address"},{"name":"attester","type":"address","internalType":"address"},{"name":"revocable","type":"bool","internalType":"bool"},{"name":"data","type":"bytes","internalType":"bytes"}]}],"outputs":[{"name":"","type":"bool","internalType":"bool"}],"stateMutability":"payable"},{"type":"function","name":"version","inputs":[],"outputs":[{"name":"","type":"string","internalType":"string"}],"stateMutability":"view"},{"type":"event","name":"EscrowClaimed","inputs":[{"name":"payment","type":"bytes32","indexed":true,"internalType":"bytes32"},{"name":"fulfillment","type":"bytes32","indexed":true,"internalType":"bytes32"},{"name":"fulfiller","type":"address","indexed":true,"internalType":"address"}],"anonymous":false},{"type":"event","name":"EscrowMade","inputs":[{"name":"payment","type":"bytes32","indexed":true,"internalType":"bytes32"},{"name":"buyer","type":"address","indexed":true,"internalType":"address"}],"anonymous":false},{"type":"error","name":"AccessDenied","inputs":[]},{"type":"error","name":"AttestationRevoked","inputs":[]},{"type":"error","name":"DeadlineExpired","inputs":[]},{"type":"error","name":"InsufficientValue","inputs":[]},{"type":"error","name":"InvalidEAS","inputs":[]},{"type":"error","name":"InvalidEscrow","inputs":[]},{"type":"error","name":"InvalidEscrowAttestation","inputs":[]},{"type":"error","name":"InvalidFulfillment","inputs":[]},{"type":"error","name":"InvalidLength","inputs":[]},{"type":"error","name":"InvalidSchema","inputs":[]},{"type":"error","name":"NotFromStatement","inputs":[]},{"type":"error","name":"NotPayable","inputs":[]},{"type":"error","name":"UnauthorizedCall","inputs":[]}],"bytecode":{"object":"0x61016080604052346101f8576040816119f080380380916100208285610232565b8339810103126101f85780516001600160a01b038116918282036101f85760200151916001600160a01b0383168084036101f857604051606081016001600160401b0381118282101761021e57604052603c815260208101927f6164647265737320746f6b656e2c2075696e7432353620616d6f756e742c206184527f64647265737320617262697465722c2062797465732064656d616e640000000060408301526001608052600360a0525f60c0521561020f576084948460209560e05261012052610100525f604051958680958194630c1af44f60e31b8352606060048401525180918160648501528484015e818101830184905230602483015260016044830152601f01601f191681010301925af1908115610204575f916101ce575b506101405260405161179a9081610256823960805181610667015260a05181610693015260c051816106be015260e05181611725015261010051816103c201526101205181818161014f01528181610570015281816107c101526113a7015261014051818181610390015281816105a801528181610624015281816108f001528181610f8601526112fa0152f35b90506020813d6020116101fc575b816101e960209383610232565b810103126101f857515f610140565b5f80fd5b3d91506101dc565b6040513d5f823e3d90fd5b6341bc07ff60e11b5f5260045ffd5b634e487b7160e01b5f52604160045260245ffd5b601f909101601f19168101906001600160401b0382119082101761021e5760405256fe6080806040526004361015610029575b50361561001a575f80fd5b631574f9f360e01b5f5260045ffd5b5f803560e01c9182631272ff8b14610aee5750816330088bc91461079757816347c0d9c21461074b57816354fd4d50146106475781635bf2f20d1461060d5781635cc02d2f146104f55781636b122fe0146103505781636b728707146102cf57816388e5b2d9146102a657816391db0b7e146102a6578163a84f2aa014610121578163ce46e0461461010357508063e49617e1146100d15763e60c3505146100d1575f61000f565b60206100ef60e06100e136610e6e565b6100e9611723565b01611172565b6040516001600160a01b0390911630148152f35b3461011e578060031936011261011e57602090604051908152f35b80fd5b3461011e57602036600319011261011e576040516328c44a9960e21b815260048035908201529080826024817f00000000000000000000000000000000000000000000000000000000000000006001600160a01b03165afa918215610299578192610275575b506001600160401b036060830151164210610266576020826101b96101206101fe950151838082518301019101610f06565b805160c0909201519083015160405163a9059cbb60e01b81526001600160a01b0392831660048201526024810191909152948592909116908290859082906044820190565b03925af190811561025a57809161021d575b6020826040519015158152f35b90506020823d602011610252575b8161023860209383610c68565b8101031261011e575061024c60209161108a565b82610210565b3d915061022b565b604051903d90823e3d90fd5b637bf6a16f60e01b8152600490fd5b6102929192503d8084833e61028a8183610c68565b810190611097565b9082610187565b50604051903d90823e3d90fd5b60206102c56102b436610e1e565b926102c0929192611723565b6114cb565b6040519015158152f35b3461011e57608036600319011261011e576004356001600160401b03811161034c576080600319823603011261034c57610307610c89565b604435916001600160a01b038316830361034857606435936001600160a01b038516850361011e57602061034086868686600401611186565b604051908152f35b8380fd5b5080fd5b3461011e578060031936011261011e5760608060405161036f81610c4d565b8381528360208201528360408201520152604051906351753e3760e11b82527f00000000000000000000000000000000000000000000000000000000000000006004830152808260248160018060a01b037f0000000000000000000000000000000000000000000000000000000000000000165afa90811561025a57809161043c575b606082610438604051928392602084528051602085015260018060a01b0360208201511660408501526040810151151582850152015160808084015260a0830190610d28565b0390f35b90503d8082843e61044d8184610c68565b82019160208184031261034c578051906001600160401b0382116104f157019060808284031261011e576040519161048483610c4d565b8051835260208101516001600160a01b03811681036104f15760208401526104ae6040820161108a565b60408401526060810151906001600160401b0382116104f157019083601f8301121561011e57506060928160206104e793519101610eb6565b82820152826103f2565b8280fd5b3461011e57602036600319011261011e57606061012060405161051781610c02565b83815283602082015283604082015283838201528360808201528360a08201528360c08201528360e0820152836101008201520152604051906328c44a9960e21b82526004356004830152808260248160018060a01b037f0000000000000000000000000000000000000000000000000000000000000000165afa9182156102995781926105f1575b5060208201517f0000000000000000000000000000000000000000000000000000000000000000036105e2576040516020808252819061043890820185610d4c565b63295d5f3960e01b8152600490fd5b6106069192503d8084833e61028a8183610c68565b90826105a0565b3461011e578060031936011261011e5760206040517f00000000000000000000000000000000000000000000000000000000000000008152f35b3461011e578060031936011261011e57602061073760016104389361068b7f00000000000000000000000000000000000000000000000000000000000000006115b6565b9082856106b77f00000000000000000000000000000000000000000000000000000000000000006115b6565b81806106e27f00000000000000000000000000000000000000000000000000000000000000006115b6565b926040519a888c995191829101848b015e880190601760f91b83830152805192839101602183015e010190601760f91b84830152805192839101600283015e010190838201520301601f198101835282610c68565b604051918291602083526020830190610d28565b3461011e57604036600319011261011e57600435906001600160401b03821161011e576080600319833603011261011e5760206103408361078a610c89565b9033913391600401611186565b34610a5c576040366003190112610a5c576040516328c44a9960e21b8152600480359082018190527f00000000000000000000000000000000000000000000000000000000000000006001600160a01b031692916024803591905f90829081885afa908115610a51575f91610ad4575b506040516328c44a9960e21b815260048101839052905f82602481895afa918215610a51575f92610ab8575b5061083d8161155b565b15610aa95761085a61012082015160208082518301019101610f06565b9060206108ae60018060a01b036040850151166060850151935193604051809581948293631272ff8b60e01b84526060600485015261089c606485018c610d4c565b84810360031901602486015290610d28565b90604483015203915afa908115610a51575f91610a6f575b5015610a60576040516108d881610c32565b8481525f6020820152604051906108ee82610c32565b7f0000000000000000000000000000000000000000000000000000000000000000825260208201908152873b15610a5c5760645f928360209a6040519b8c958694634692626760e01b86525160048601525180516024860152015160448401525af1958615610a51576109ab96610a3b575b50805160c092909201805160209283015160405163a9059cbb60e01b81526001600160a01b039283166004820152602481019190915297919388929116908290889082906044820190565b03925af18015610a30576109f6575b6020945060018060a01b03905116917fd903ca32e81477af89f5b8a6ce888d185cc715390e49474a77b4c6846254cccd6040519480a460018152f35b6020853d602011610a28575b81610a0f60209383610c68565b8101031261034857610a2260209561108a565b506109ba565b3d9150610a02565b6040513d86823e3d90fd5b610a489195505f90610c68565b5f936020610960565b6040513d5f823e3d90fd5b5f80fd5b630ebe58ef60e11b5f5260045ffd5b90506020813d602011610aa1575b81610a8a60209383610c68565b81010312610a5c57610a9b9061108a565b876108c6565b3d9150610a7d565b63629cd40b60e11b5f5260045ffd5b610acd9192503d805f833e61028a8183610c68565b9086610833565b610ae891503d805f833e61028a8183610c68565b85610807565b34610a5c576060366003190112610a5c576004356001600160401b038111610a5c576101406003198236030112610a5c57610b2882610c02565b8060040135825260248101356020830152610b4560448201610c9f565b6040830152610b5660648201610c9f565b6060830152610b6760848201610c9f565b608083015260a481013560a0830152610b8260c48201610cb3565b60c0830152610b9360e48201610cb3565b60e08301526101048101358015158103610a5c57610100830152610124810135906001600160401b038211610a5c576004610bd19236920101610ce2565b6101208201526024356001600160401b038111610a5c57602091610bfc6102c5923690600401610ce2565b90610f84565b61014081019081106001600160401b03821117610c1e57604052565b634e487b7160e01b5f52604160045260245ffd5b604081019081106001600160401b03821117610c1e57604052565b608081019081106001600160401b03821117610c1e57604052565b90601f801991011681019081106001600160401b03821117610c1e57604052565b602435906001600160401b0382168203610a5c57565b35906001600160401b0382168203610a5c57565b35906001600160a01b0382168203610a5c57565b6001600160401b038111610c1e57601f01601f191660200190565b81601f82011215610a5c57803590610cf982610cc7565b92610d076040519485610c68565b82845260208383010111610a5c57815f926020809301838601378301015290565b805180835260209291819084018484015e5f828201840152601f01601f1916010190565b90610140610120610deb9380518452602081015160208501526001600160401b0360408201511660408501526001600160401b0360608201511660608501526001600160401b03608082015116608085015260a081015160a085015260018060a01b0360c08201511660c085015260018060a01b0360e08201511660e08501526101008101511515610100850152015191816101208201520190610d28565b90565b9181601f84011215610a5c578235916001600160401b038311610a5c576020808501948460051b010111610a5c57565b6040600319820112610a5c576004356001600160401b038111610a5c5781610e4891600401610dee565b92909291602435906001600160401b038211610a5c57610e6a91600401610dee565b9091565b6020600319820112610a5c57600435906001600160401b038211610a5c57610140908290036003190112610a5c5760040190565b51906001600160a01b0382168203610a5c57565b929192610ec282610cc7565b91610ed06040519384610c68565b829481845281830111610a5c578281602093845f96015e010152565b9080601f83011215610a5c578151610deb92602001610eb6565b602081830312610a5c578051906001600160401b038211610a5c5701608081830312610a5c5760405191610f3983610c4d565b610f4282610ea2565b835260208201516020840152610f5a60408301610ea2565b604084015260608201516001600160401b038111610a5c57610f7c9201610eec565b606082015290565b7f000000000000000000000000000000000000000000000000000000000000000060208201510361106757610fb88161155b565b1561106157610fd8610120610fe892015160208082518301019101610f06565b9160208082518301019101610f06565b815181516001600160a01b03908116911614918261104d575b8261102e575b8261101157505090565b606091925081015160208151910120910151602081519101201490565b604080820151908301516001600160a01b039081169116149250611007565b915060208201516020820151111591611001565b50505f90565b635f9bd90760e11b5f5260045ffd5b51906001600160401b0382168203610a5c57565b51908115158203610a5c57565b602081830312610a5c578051906001600160401b038211610a5c570161014081830312610a5c57604051916110cb83610c02565b81518352602082015160208401526110e560408301611076565b60408401526110f660608301611076565b606084015261110760808301611076565b608084015260a082015160a084015261112260c08301610ea2565b60c084015261113360e08301610ea2565b60e0840152611145610100830161108a565b6101008401526101208201516001600160401b038111610a5c576111699201610eec565b61012082015290565b356001600160a01b0381168103610a5c5790565b9293929091905f60206001600160a01b036111a084611172565b6040516323b872dd60e01b81526001600160a01b039096166004870152306024870152848301356044870181905295938492606492849291165af1908115610a51575f9161144a575b501561143b57604051602080820152916001600160a01b0361120a83610cb3565b166040840152606083015260018060a01b0361122860408301610cb3565b1660808301526060810135601e1982360301811215610a5c5701602081359101906001600160401b038111610a5c578036038213610a5c57828160e09261129994608060a08501528160c0850152848401375f838284010152601f801991011681010301601f198101835282610c68565b6040519360c08501908582106001600160401b03831117610c1e576001600160401b039160405260018060a01b031692838652166020850152600160408501525f606085015260808401525f60a084015260206040516112f881610c32565b7f000000000000000000000000000000000000000000000000000000000000000081528181019485526040518095819263f17325e760e01b8352846004840152516024830152516040604483015260018060a01b0381511660648301526001600160401b03848201511660848301526040810151151560a4830152606081015160c483015260a0611399608083015160c060e4860152610124850190610d28565b91015161010483015203815f7f00000000000000000000000000000000000000000000000000000000000000006001600160a01b03165af1928315610a51575f93611407575b50827f8f7f2dbafd79125e808bf16a53d7fa4e17b8b6374ced76d946a45f94b7bf4d065f80a3565b9092506020813d602011611433575b8161142360209383610c68565b81010312610a5c5751915f6113df565b3d9150611416565b63c4c3834b60e01b5f5260045ffd5b90506020813d60201161147c575b8161146560209383610c68565b81010312610a5c576114769061108a565b5f6111e9565b3d9150611458565b91908110156114945760051b0190565b634e487b7160e01b5f52603260045260245ffd5b91908110156114945760051b8101359061013e1981360301821215610a5c570190565b91929081810361154c575f91345b8284106114eb57505050505050600190565b6114f6848388611484565b3581811161153d576115098585886114a8565b30906001600160a01b03906115209060e001611172565b160361153257600191039301926114d9565b505050505050505f90565b63044044a560e21b5f5260045ffd5b63251f56a160e21b5f5260045ffd5b6001600160401b0360608201511680151590816115ac575b5061159d57608001516001600160401b031661158e57600190565b637b6227e960e11b5f5260045ffd5b631ab7da6b60e01b5f5260045ffd5b905042115f611573565b805f9172184f03e93ff9f4daa797ed6e38ed64bf6a1f0160401b821015611700575b806d04ee2d6d415b85acef8100000000600a9210156116e5575b662386f26fc100008110156116d1575b6305f5e1008110156116c0575b6127108110156116b1575b60648110156116a3575b1015611698575b600a6021600184019361163d85610cc7565b9461164b6040519687610c68565b80865261165a601f1991610cc7565b013660208701378401015b5f1901916f181899199a1a9b1b9c1cb0b131b232b360811b8282061a835304801561169357600a9091611665565b505090565b60019091019061162b565b606460029104930192611624565b6127106004910493019261161a565b6305f5e1006008910493019261160f565b662386f26fc1000060109104930192611602565b6d04ee2d6d415b85acef8100000000602091049301926115f2565b506040915072184f03e93ff9f4daa797ed6e38ed64bf6a1f0160401b81046115d8565b7f00000000000000000000000000000000000000000000000000000000000000006001600160a01b0316330361175557565b634ca8886760e01b5f5260045ffdfea26469706673582212209d87b966645632cfee6bef52c241fe21754c93b8f8ea56e2ce91920067b94b0964736f6c634300081a0033","linkReferences":{}},"methodIdentifiers":{"ATTESTATION_SCHEMA()":"5bf2f20d","attest((bytes32,bytes32,uint64,uint64,uint64,bytes32,address,address,bool,bytes))":"e60c3505","checkStatement((bytes32,bytes32,uint64,uint64,uint64,bytes32,address,address,bool,bytes),bytes,bytes32)":"1272ff8b","collectExpired(bytes32)":"a84f2aa0","collectPayment(bytes32,bytes32)":"30088bc9","getSchema()":"6b122fe0","getStatement(bytes32)":"5cc02d2f","isPayable()":"ce46e046","makeStatement((address,uint256,address,bytes),uint64)":"47c0d9c2","makeStatementFor((address,uint256,address,bytes),uint64,address,address)":"6b728707","multiAttest((bytes32,bytes32,uint64,uint64,uint64,bytes32,address,address,bool,bytes)[],uint256[])":"91db0b7e","multiRevoke((bytes32,bytes32,uint64,uint64,uint64,bytes32,address,address,bool,bytes)[],uint256[])":"88e5b2d9","revoke((bytes32,bytes32,uint64,uint64,uint64,bytes32,address,address,bool,bytes))":"e49617e1","version()":"54fd4d50"},"id":56}