{"abi":[{"type":"function","name":"checkStatement","inputs":[{"name":"","type":"tuple","internalType":"struct Attestation","components":[{"name":"uid","type":"bytes32","internalType":"bytes32"},{"name":"schema","type":"bytes32","internalType":"bytes32"},{"name":"time","type":"uint64","internalType":"uint64"},{"name":"expirationTime","type":"uint64","internalType":"uint64"},{"name":"revocationTime","type":"uint64","internalType":"uint64"},{"name":"refUID","type":"bytes32","internalType":"bytes32"},{"name":"recipient","type":"address","internalType":"address"},{"name":"attester","type":"address","internalType":"address"},{"name":"revocable","type":"bool","internalType":"bool"},{"name":"data","type":"bytes","internalType":"bytes"}]},{"name":"","type":"bytes","internalType":"bytes"},{"name":"","type":"bytes32","internalType":"bytes32"}],"outputs":[{"name":"","type":"bool","internalType":"bool"}],"stateMutability":"pure"}],"bytecode":{"object":"0x60808060405234601557610230908161001a8239f35b5f80fdfe60806040526004361015610011575f80fd5b5f3560e01c631272ff8b14610024575f80fd5b346101515760603660031901126101515760043567ffffffffffffffff81116101515761014060031982360301126101515760405190610140820182811067ffffffffffffffff82111761015557604052806004013582526024810135602083015261009260448201610169565b60408301526100a360648201610169565b60608301526100b460848201610169565b608083015260a481013560a08301526100cf60c4820161017e565b60c08301526100e060e4820161017e565b60e083015261010481013580151581036101515761010083015261012481013567ffffffffffffffff8111610151576101209160046101229236920101610192565b91015260243567ffffffffffffffff811161015157610145903690600401610192565b50602060405160018152f35b5f80fd5b634e487b7160e01b5f52604160045260245ffd5b359067ffffffffffffffff8216820361015157565b35906001600160a01b038216820361015157565b81601f820112156101515780359067ffffffffffffffff82116101555760405192601f8301601f19908116603f0116840167ffffffffffffffff811185821017610155576040528284526020838301011161015157815f92602080930183860137830101529056fea2646970667358221220827a01b75c9ac791f6fdee58c58da190223be9008d237145c51f955681eee03264736f6c634300081b0033","linkReferences":{}},"methodIdentifiers":{"checkStatement((bytes32,bytes32,uint64,uint64,uint64,bytes32,address,address,bool,bytes),bytes,bytes32)":"1272ff8b"},"id":64}