{"abi":[{"type":"constructor","inputs":[{"name":"_shouldAccept","type":"bool","internalType":"bool"}],"stateMutability":"nonpayable"},{"type":"function","name":"checkStatement","inputs":[{"name":"","type":"tuple","internalType":"struct Attestation","components":[{"name":"uid","type":"bytes32","internalType":"bytes32"},{"name":"schema","type":"bytes32","internalType":"bytes32"},{"name":"time","type":"uint64","internalType":"uint64"},{"name":"expirationTime","type":"uint64","internalType":"uint64"},{"name":"revocationTime","type":"uint64","internalType":"uint64"},{"name":"refUID","type":"bytes32","internalType":"bytes32"},{"name":"recipient","type":"address","internalType":"address"},{"name":"attester","type":"address","internalType":"address"},{"name":"revocable","type":"bool","internalType":"bool"},{"name":"data","type":"bytes","internalType":"bytes"}]},{"name":"","type":"bytes","internalType":"bytes"},{"name":"","type":"bytes32","internalType":"bytes32"}],"outputs":[{"name":"","type":"bool","internalType":"bool"}],"stateMutability":"view"},{"type":"function","name":"setShouldAccept","inputs":[{"name":"_shouldAccept","type":"bool","internalType":"bool"}],"outputs":[],"stateMutability":"nonpayable"}],"bytecode":{"object":"0x608034606057601f6102e838819003918201601f19168301916001600160401b038311848410176064578084926020946040528339810103126060575180151580910360605760ff80195f54169116175f5560405161026f90816100798239f35b5f80fd5b634e487b7160e01b5f52604160045260245ffdfe60806040526004361015610011575f80fd5b5f3560e01c80631272ff8b1461006157636413b8531461002f575f80fd5b3461005d57602036600319011261005d5760043580151580910361005d5760ff80195f54169116175f555f80f35b5f80fd5b3461005d57606036600319011261005d5760043567ffffffffffffffff811161005d57610140600319823603011261005d5760405190610140820182811067ffffffffffffffff8211176101945760405280600401358252602481013560208301526100cf604482016101a8565b60408301526100e0606482016101a8565b60608301526100f1608482016101a8565b608083015260a481013560a083015261010c60c482016101bd565b60c083015261011d60e482016101bd565b60e0830152610104810135801515810361005d5761010083015261012481013567ffffffffffffffff811161005d5761012091600461015f92369201016101d1565b91015260243567ffffffffffffffff811161005d576101829036906004016101d1565b50602060ff5f54166040519015158152f35b634e487b7160e01b5f52604160045260245ffd5b359067ffffffffffffffff8216820361005d57565b35906001600160a01b038216820361005d57565b81601f8201121561005d5780359067ffffffffffffffff82116101945760405192601f8301601f19908116603f0116840167ffffffffffffffff811185821017610194576040528284526020838301011161005d57815f92602080930183860137830101529056fea2646970667358221220192993679cbe35c03caf45b6965ebba600086e5dad3a71769db358c09977e1cb64736f6c634300081b0033","linkReferences":{}},"methodIdentifiers":{"checkStatement((bytes32,bytes32,uint64,uint64,uint64,bytes32,address,address,bool,bytes),bytes,bytes32)":"1272ff8b","setShouldAccept(bool)":"6413b853"},"id":96}