{"abi":[{"type":"constructor","inputs":[{"name":"_eas","type":"address","internalType":"contract IEAS"},{"name":"_schemaRegistry","type":"address","internalType":"contract ISchemaRegistry"},{"name":"_baseStatement","type":"address","internalType":"contract StringResultObligation"}],"stateMutability":"nonpayable"},{"type":"receive","stateMutability":"payable"},{"type":"function","name":"ATTESTATION_SCHEMA","inputs":[],"outputs":[{"name":"","type":"bytes32","internalType":"bytes32"}],"stateMutability":"view"},{"type":"function","name":"attest","inputs":[{"name":"attestation","type":"tuple","internalType":"struct Attestation","components":[{"name":"uid","type":"bytes32","internalType":"bytes32"},{"name":"schema","type":"bytes32","internalType":"bytes32"},{"name":"time","type":"uint64","internalType":"uint64"},{"name":"expirationTime","type":"uint64","internalType":"uint64"},{"name":"revocationTime","type":"uint64","internalType":"uint64"},{"name":"refUID","type":"bytes32","internalType":"bytes32"},{"name":"recipient","type":"address","internalType":"address"},{"name":"attester","type":"address","internalType":"address"},{"name":"revocable","type":"bool","internalType":"bool"},{"name":"data","type":"bytes","internalType":"bytes"}]}],"outputs":[{"name":"","type":"bool","internalType":"bool"}],"stateMutability":"payable"},{"type":"function","name":"checkStatement","inputs":[{"name":"statement","type":"tuple","internalType":"struct Attestation","components":[{"name":"uid","type":"bytes32","internalType":"bytes32"},{"name":"schema","type":"bytes32","internalType":"bytes32"},{"name":"time","type":"uint64","internalType":"uint64"},{"name":"expirationTime","type":"uint64","internalType":"uint64"},{"name":"revocationTime","type":"uint64","internalType":"uint64"},{"name":"refUID","type":"bytes32","internalType":"bytes32"},{"name":"recipient","type":"address","internalType":"address"},{"name":"attester","type":"address","internalType":"address"},{"name":"revocable","type":"bool","internalType":"bool"},{"name":"data","type":"bytes","internalType":"bytes"}]},{"name":"demand","type":"bytes","internalType":"bytes"},{"name":"counteroffer","type":"bytes32","internalType":"bytes32"}],"outputs":[{"name":"","type":"bool","internalType":"bool"}],"stateMutability":"view"},{"type":"function","name":"getSchema","inputs":[],"outputs":[{"name":"","type":"tuple","internalType":"struct SchemaRecord","components":[{"name":"uid","type":"bytes32","internalType":"bytes32"},{"name":"resolver","type":"address","internalType":"contract ISchemaResolver"},{"name":"revocable","type":"bool","internalType":"bool"},{"name":"schema","type":"string","internalType":"string"}]}],"stateMutability":"view"},{"type":"function","name":"getStatement","inputs":[{"name":"uid","type":"bytes32","internalType":"bytes32"}],"outputs":[{"name":"","type":"tuple","internalType":"struct Attestation","components":[{"name":"uid","type":"bytes32","internalType":"bytes32"},{"name":"schema","type":"bytes32","internalType":"bytes32"},{"name":"time","type":"uint64","internalType":"uint64"},{"name":"expirationTime","type":"uint64","internalType":"uint64"},{"name":"revocationTime","type":"uint64","internalType":"uint64"},{"name":"refUID","type":"bytes32","internalType":"bytes32"},{"name":"recipient","type":"address","internalType":"address"},{"name":"attester","type":"address","internalType":"address"},{"name":"revocable","type":"bool","internalType":"bool"},{"name":"data","type":"bytes","internalType":"bytes"}]}],"stateMutability":"view"},{"type":"function","name":"isPayable","inputs":[],"outputs":[{"name":"","type":"bool","internalType":"bool"}],"stateMutability":"pure"},{"type":"function","name":"mediate","inputs":[{"name":"validationUID","type":"bytes32","internalType":"bytes32"}],"outputs":[{"name":"success_","type":"bool","internalType":"bool"}],"stateMutability":"nonpayable"},{"type":"function","name":"multiAttest","inputs":[{"name":"attestations","type":"tuple[]","internalType":"struct Attestation[]","components":[{"name":"uid","type":"bytes32","internalType":"bytes32"},{"name":"schema","type":"bytes32","internalType":"bytes32"},{"name":"time","type":"uint64","internalType":"uint64"},{"name":"expirationTime","type":"uint64","internalType":"uint64"},{"name":"revocationTime","type":"uint64","internalType":"uint64"},{"name":"refUID","type":"bytes32","internalType":"bytes32"},{"name":"recipient","type":"address","internalType":"address"},{"name":"attester","type":"address","internalType":"address"},{"name":"revocable","type":"bool","internalType":"bool"},{"name":"data","type":"bytes","internalType":"bytes"}]},{"name":"values","type":"uint256[]","internalType":"uint256[]"}],"outputs":[{"name":"","type":"bool","internalType":"bool"}],"stateMutability":"payable"},{"type":"function","name":"multiRevoke","inputs":[{"name":"attestations","type":"tuple[]","internalType":"struct Attestation[]","components":[{"name":"uid","type":"bytes32","internalType":"bytes32"},{"name":"schema","type":"bytes32","internalType":"bytes32"},{"name":"time","type":"uint64","internalType":"uint64"},{"name":"expirationTime","type":"uint64","internalType":"uint64"},{"name":"revocationTime","type":"uint64","internalType":"uint64"},{"name":"refUID","type":"bytes32","internalType":"bytes32"},{"name":"recipient","type":"address","internalType":"address"},{"name":"attester","type":"address","internalType":"address"},{"name":"revocable","type":"bool","internalType":"bool"},{"name":"data","type":"bytes","internalType":"bytes"}]},{"name":"values","type":"uint256[]","internalType":"uint256[]"}],"outputs":[{"name":"","type":"bool","internalType":"bool"}],"stateMutability":"payable"},{"type":"function","name":"resultStatement","inputs":[],"outputs":[{"name":"","type":"address","internalType":"contract StringResultObligation"}],"stateMutability":"view"},{"type":"function","name":"revoke","inputs":[{"name":"attestation","type":"tuple","internalType":"struct Attestation","components":[{"name":"uid","type":"bytes32","internalType":"bytes32"},{"name":"schema","type":"bytes32","internalType":"bytes32"},{"name":"time","type":"uint64","internalType":"uint64"},{"name":"expirationTime","type":"uint64","internalType":"uint64"},{"name":"revocationTime","type":"uint64","internalType":"uint64"},{"name":"refUID","type":"bytes32","internalType":"bytes32"},{"name":"recipient","type":"address","internalType":"address"},{"name":"attester","type":"address","internalType":"address"},{"name":"revocable","type":"bool","internalType":"bool"},{"name":"data","type":"bytes","internalType":"bytes"}]}],"outputs":[{"name":"","type":"bool","internalType":"bool"}],"stateMutability":"payable"},{"type":"function","name":"startValidation","inputs":[{"name":"resultUID","type":"bytes32","internalType":"bytes32"},{"name":"validationData","type":"tuple","internalType":"struct OptimisticStringValidator.ValidationData","components":[{"name":"query","type":"string","internalType":"string"},{"name":"mediationPeriod","type":"uint64","internalType":"uint64"}]}],"outputs":[{"name":"validationUID_","type":"bytes32","internalType":"bytes32"}],"stateMutability":"nonpayable"},{"type":"function","name":"version","inputs":[],"outputs":[{"name":"","type":"string","internalType":"string"}],"stateMutability":"view"},{"type":"event","name":"MediationRequested","inputs":[{"name":"validationUID","type":"bytes32","indexed":true,"internalType":"bytes32"},{"name":"success_","type":"bool","indexed":false,"internalType":"bool"}],"anonymous":false},{"type":"event","name":"ValidationStarted","inputs":[{"name":"validationUID","type":"bytes32","indexed":true,"internalType":"bytes32"},{"name":"resultUID","type":"bytes32","indexed":true,"internalType":"bytes32"},{"name":"query","type":"string","indexed":false,"internalType":"string"}],"anonymous":false},{"type":"error","name":"AccessDenied","inputs":[]},{"type":"error","name":"AttestationRevoked","inputs":[]},{"type":"error","name":"DeadlineExpired","inputs":[]},{"type":"error","name":"InsufficientValue","inputs":[]},{"type":"error","name":"InvalidEAS","inputs":[]},{"type":"error","name":"InvalidLength","inputs":[]},{"type":"error","name":"InvalidStatement","inputs":[]},{"type":"error","name":"InvalidValidation","inputs":[]},{"type":"error","name":"MediationPeriodExpired","inputs":[]},{"type":"error","name":"NotFromStatement","inputs":[]},{"type":"error","name":"NotPayable","inputs":[]}],"bytecode":{"object":"0x610180806040523461020c576060816119ad80380380916100208285610246565b83398101031261020c5780516001600160a01b0381169081810361020c5760208301516001600160a01b0381169390929084840361020c5760400151936001600160a01b038516850361020c57604051606081016001600160401b03811182821017610232576040526024815260208101927f737472696e672071756572792c2075696e743634206d6564696174696f6e50658452631c9a5bd960e21b60408301526001608052600360a0525f60c05215610223576084948460209560e05261012052610100525f604051958680958194630c1af44f60e31b8352606060048401525180918160648501528484015e818101830184905230602483015260016044830152601f01601f191681010301925af1908115610218575f916101e2575b506101405261016052604051611743908161026a823960805181610aa6015260a05181610ad1015260c05181610afc015260e051816116b50152610100518161047d0152610120518181816101910152818161060f01528181610730015261120b0152610140518181816101da0152818161044b01528181610647015281816106c301526108bd01526101605181818160d50152818161078b01526112cf0152f35b90506020813d602011610210575b816101fd60209383610246565b8101031261020c57515f610140565b5f80fd5b3d91506101f0565b6040513d5f823e3d90fd5b6341bc07ff60e11b5f5260045ffd5b634e487b7160e01b5f52604160045260245ffd5b601f909101601f19168101906001600160401b038211908210176102325760405256fe6080806040526004361015610029575b50361561001a575f80fd5b631574f9f360e01b5f5260045ffd5b5f905f3560e01c9081631272ff8b14610b895750806354fd4d5014610a8757806356655cd8146106e65780635bf2f20d146106ac5780635cc02d2f146105955780636b122fe01461040c57806383b1b4251461016757806388e5b2d91461014857806391db0b7e14610148578063ce46e0461461012c578063e49617e114610107578063e60c3505146101075763fa2387d10361000f57346101045780600319360112610104576040517f00000000000000000000000000000000000000000000000000000000000000006001600160a01b03168152602090f35b80fd5b602061012261011536610efd565b61011d6116b3565b6116f4565b6040519015158152f35b5034610104578060031936011261010457602090604051908152f35b602061012261015636610ead565b926101629291926116b3565b6113b5565b346103ac5760203660031901126103ac576040516328c44a9960e21b8152600480359082018190527f00000000000000000000000000000000000000000000000000000000000000006001600160a01b031691905f82602481865afa9182156103a1575f926103f0575b506020820151917f00000000000000000000000000000000000000000000000000000000000000008093036103e15761021861012082015160208082518301019101610f95565b906001600160401b03610238816040840151168260208601511690610ffa565b1642116103d25760a00151604051906328c44a9960e21b825260048201525f81602481885afa80156103a157610120915f916103b0575b5001519081518201916020818403126103ac576020810151906001600160401b0382116103ac5701906020828403126103ac57604051916102af83610cf2565b6020810151906001600160401b0382116103ac5760206102d792816102e09701920101610f67565b809252516115d7565b159182159261031f575b602083837faf33a44ccaf05c95bd4abeab9d83d5c8d2650a30414cb5a7976e4fe80fb95b4a83604051848152a2604051908152f35b60405161032b81610cbc565b8281525f60208201526040519161034183610cbc565b825260208201908152843b156103ac5760645f92836020976040519889958694634692626760e01b86525160048601525180516024860152015160448401525af19283156103a157602093156102ea575f61039b91610d0d565b5f6102ea565b6040513d5f823e3d90fd5b5f80fd5b6103cc91503d805f833e6103c48183610d0d565b81019061104f565b8661026f565b6316deec4960e31b5f5260045ffd5b634af2691560e01b5f5260045ffd5b6104059192503d805f833e6103c48183610d0d565b90836101d1565b346103ac575f3660031901126103ac5760608060405161042b81610cd7565b5f81525f60208201525f604082015201526040516351753e3760e11b81527f000000000000000000000000000000000000000000000000000000000000000060048201525f8160248160018060a01b037f0000000000000000000000000000000000000000000000000000000000000000165afa80156103a1575f906104f6575b6060906104f2604051928392602084528051602085015260018060a01b0360208201511660408501526040810151151582850152015160808084015260a0830190610db7565b0390f35b503d805f833e6105068183610d0d565b8101906020818303126103ac578051906001600160401b0382116103ac57016080818303126103ac576040519061053c82610cd7565b8051825260208101516001600160a01b03811681036103ac57602083015261056660408201611042565b60408301526060810151926001600160401b0384116103ac5760609361058c9201610f67565b828201526104ac565b346103ac5760203660031901126103ac5760606101206040516105b781610ca0565b5f81525f60208201525f60408201525f838201525f60808201525f60a08201525f60c08201525f60e08201525f61010082015201526040516328c44a9960e21b815260043560048201525f8160248160018060a01b037f0000000000000000000000000000000000000000000000000000000000000000165afa9081156103a1575f91610692575b5060208101517f000000000000000000000000000000000000000000000000000000000000000003610683576104f290604051918291602083526020830190610ddb565b63295d5f3960e01b5f5260045ffd5b6106a691503d805f833e6103c48183610d0d565b8161063f565b346103ac575f3660031901126103ac5760206040517f00000000000000000000000000000000000000000000000000000000000000008152f35b346103ac5760403660031901126103ac576004356024356001600160401b0381116103ac5780360360406003198201126103ac576040516328c44a9960e21b8152600481018490527f00000000000000000000000000000000000000000000000000000000000000006001600160a01b031692905f81602481875afa9081156103a1575f91610a6d575b50602081810151604051635bf2f20d60e01b815291826004817f00000000000000000000000000000000000000000000000000000000000000006001600160a01b03165afa9182156103a1575f92610a39575b5003610a2a576001600160401b03608082015116610a2a5760c001516001600160a01b03163303610a2a5760405160208082015292600482013592602219018312156103ac578183016024600482013591016001600160401b0382116103ac5781360381136103ac57610845869161086d936040808501526080840191611395565b6001600160401b0361085960248701610d2e565b16606083015203601f198101865285610d0d565b60405160c08101918183106001600160401b03841117610a16575f9560209360405233835286848401526001604084015287606084015260808301528560a08301526040516108bb81610cbc565b7f0000000000000000000000000000000000000000000000000000000000000000815283810192835260405196878094819363f17325e760e01b8352876004840152516024830152516040604483015260018060a01b0381511660648301526001600160401b03878201511660848301526040810151151560a4830152606081015160c483015260a061095e608083015160c060e4860152610124850190610db7565b91015161010483015203925af19283156103a1575f936109e2575b5001916004830135926001600160401b0384116103ac5760240183360381136103ac577f1f4e65c8d65752aaf1006ce8ad2020525d85dd74cc03520fda4b283739c3d1a283916020956109d760405192839289845289840191611395565b0390a3604051908152f35b9092506020813d602011610a0e575b816109fe60209383610d0d565b810103126103ac57519184610979565b3d91506109f1565b634e487b7160e01b5f52604160045260245ffd5b63090bd44d60e31b5f5260045ffd5b9091506020813d602011610a65575b81610a5560209383610d0d565b810103126103ac575190876107c3565b3d9150610a48565b610a8191503d805f833e6103c48183610d0d565b85610770565b346103ac575f3660031901126103ac576104f26020610b756001610aca7f0000000000000000000000000000000000000000000000000000000000000000611459565b8184610af57f0000000000000000000000000000000000000000000000000000000000000000611459565b8180610b207f0000000000000000000000000000000000000000000000000000000000000000611459565b9260405199878b985191829101848a015e870190601760f91b83830152805192839101602183015e010190601760f91b84830152805192839101600283015e01015f838201520301601f198101835282610d0d565b604051918291602083526020830190610db7565b346103ac5760603660031901126103ac576004356001600160401b0381116103ac5761014060031982360301126103ac57610bc382610ca0565b8060040135825260248101356020830152610be060448201610d2e565b6040830152610bf160648201610d2e565b6060830152610c0260848201610d2e565b608083015260a481013560a0830152610c1d60c48201610d42565b60c0830152610c2e60e48201610d42565b60e083015261010481013580151581036103ac57610100830152610124810135906001600160401b0382116103ac576004610c6c9236920101610d71565b6101208201526024356001600160401b0381116103ac57602091610c97610122923690600401610d71565b6044359161113d565b61014081019081106001600160401b03821117610a1657604052565b604081019081106001600160401b03821117610a1657604052565b608081019081106001600160401b03821117610a1657604052565b602081019081106001600160401b03821117610a1657604052565b90601f801991011681019081106001600160401b03821117610a1657604052565b35906001600160401b03821682036103ac57565b35906001600160a01b03821682036103ac57565b6001600160401b038111610a1657601f01601f191660200190565b81601f820112156103ac57803590610d8882610d56565b92610d966040519485610d0d565b828452602083830101116103ac57815f926020809301838601378301015290565b805180835260209291819084018484015e5f828201840152601f01601f1916010190565b90610140610120610e7a9380518452602081015160208501526001600160401b0360408201511660408501526001600160401b0360608201511660608501526001600160401b03608082015116608085015260a081015160a085015260018060a01b0360c08201511660c085015260018060a01b0360e08201511660e08501526101008101511515610100850152015191816101208201520190610db7565b90565b9181601f840112156103ac578235916001600160401b0383116103ac576020808501948460051b0101116103ac57565b60406003198201126103ac576004356001600160401b0381116103ac5781610ed791600401610e7d565b92909291602435906001600160401b0382116103ac57610ef991600401610e7d565b9091565b60206003198201126103ac57600435906001600160401b0382116103ac576101409082900360031901126103ac5760040190565b929192610f3d82610d56565b91610f4b6040519384610d0d565b8294818452818301116103ac578281602093845f96015e010152565b9080601f830112156103ac578151610e7a92602001610f31565b51906001600160401b03821682036103ac57565b6020818303126103ac578051906001600160401b0382116103ac57016040818303126103ac5760405191610fc883610cbc565b8151916001600160401b0383116103ac57610fea602092610ff2948301610f67565b845201610f81565b602082015290565b906001600160401b03809116911601906001600160401b03821161101a57565b634e487b7160e01b5f52601160045260245ffd5b51906001600160a01b03821682036103ac57565b519081151582036103ac57565b6020818303126103ac578051906001600160401b0382116103ac570190610140828203126103ac576040519161108483610ca0565b805183526020810151602084015261109e60408201610f81565b60408401526110af60608201610f81565b60608401526110c060808201610f81565b608084015260a081015160a08401526110db60c0820161102e565b60c08401526110ec60e0820161102e565b60e08401526110fe6101008201611042565b610100840152610120810151906001600160401b0382116103ac57019080601f830112156103ac57815161113492602001610f31565b61012082015290565b906001600160401b03606083015116801515908161138b575b5061137c576001600160401b0360808301511661136d578060208061118093518301019101610f95565b9061119961012082015160208082518301019101610f95565b9182516020815191012081516020815191012003611365576001600160401b036020818186015116920151168103611365576111e36001600160401b039182604085015116610ffa565b1642111561135e5760a001516040516328c44a9960e21b815260048101919091525f816024817f00000000000000000000000000000000000000000000000000000000000000006001600160a01b03165afa80156103a15761127d936020936112b1935f9361133e575b505160405161128b9161125f82610cf2565b81526040519687918780840152518760408401526060830190610db7565b03601f198101875286610d0d565b6112c36040519586948594631272ff8b60e01b8652606060048701526064860190610ddb565b84810360031901602486015290610db7565b604483019190915203817f00000000000000000000000000000000000000000000000000000000000000006001600160a01b03165afa9081156103a1575f9161130a575090565b90506020813d602011611336575b8161132560209383610d0d565b810103126103ac57610e7a90611042565b3d9150611318565b61128b919350611357903d805f833e6103c48183610d0d565b929061124d565b5050505f90565b505050505f90565b637b6227e960e11b5f5260045ffd5b631ab7da6b60e01b5f5260045ffd5b905042115f611156565b908060209392818452848401375f828201840152601f01601f1916010190565b92909281840361144a575f91345b8584101561143f578184101561142b578360051b808601359082821161141c5784013561013e19853603018112156103ac576114009085016116f4565b1561141157600191039301926113c3565b505050505050505f90565b63044044a560e21b5f5260045ffd5b634e487b7160e01b5f52603260045260245ffd5b505050505050600190565b63251f56a160e21b5f5260045ffd5b805f9172184f03e93ff9f4daa797ed6e38ed64bf6a1f0160401b8210156115a3575b806d04ee2d6d415b85acef8100000000600a921015611588575b662386f26fc10000811015611574575b6305f5e100811015611563575b612710811015611554575b6064811015611546575b101561153b575b600a602160018401936114e085610d56565b946114ee6040519687610d0d565b8086526114fd601f1991610d56565b013660208701378401015b5f1901916f181899199a1a9b1b9c1cb0b131b232b360811b8282061a835304801561153657600a9091611508565b505090565b6001909101906114ce565b6064600291049301926114c7565b612710600491049301926114bd565b6305f5e100600891049301926114b2565b662386f26fc10000601091049301926114a5565b6d04ee2d6d415b85acef810000000060209104930192611495565b506040915072184f03e93ff9f4daa797ed6e38ed64bf6a1f0160401b810461147b565b90815181101561142b570160200190565b80518251036116ad575f5b81518110156116a557606160f81b6001600160f81b031961160383856115c6565b5116101580611683575b1561164c5761161c81846115c6565b5160f81c601f1961162d83856115c6565b5160f81c0160ff811161101a5760ff160361135e576001905b016115e2565b6001600160f81b031961165f82856115c6565b51166001600160f81b031961167483856115c6565b51160361135e57600190611646565b50603d60f91b6001600160f81b031961169c83856115c6565b5116111561160d565b505050600190565b50505f90565b7f00000000000000000000000000000000000000000000000000000000000000006001600160a01b031633036116e557565b634ca8886760e01b5f5260045ffd5b60e0013560018060a01b0381168091036103ac5730149056fea264697066735822122021132c420b1925dcc75dedbf3685a31432cf421940ae9ec5b585bbcb16a065c364736f6c634300081b0033","linkReferences":{}},"methodIdentifiers":{"ATTESTATION_SCHEMA()":"5bf2f20d","attest((bytes32,bytes32,uint64,uint64,uint64,bytes32,address,address,bool,bytes))":"e60c3505","checkStatement((bytes32,bytes32,uint64,uint64,uint64,bytes32,address,address,bool,bytes),bytes,bytes32)":"1272ff8b","getSchema()":"6b122fe0","getStatement(bytes32)":"5cc02d2f","isPayable()":"ce46e046","mediate(bytes32)":"83b1b425","multiAttest((bytes32,bytes32,uint64,uint64,uint64,bytes32,address,address,bool,bytes)[],uint256[])":"91db0b7e","multiRevoke((bytes32,bytes32,uint64,uint64,uint64,bytes32,address,address,bool,bytes)[],uint256[])":"88e5b2d9","resultStatement()":"fa2387d1","revoke((bytes32,bytes32,uint64,uint64,uint64,bytes32,address,address,bool,bytes))":"e49617e1","startValidation(bytes32,(string,uint64))":"56655cd8","version()":"54fd4d50"},"id":71}