{"abi":[{"type":"constructor","inputs":[{"name":"_eas","type":"address","internalType":"contract IEAS"},{"name":"_erc20Escrow","type":"address","internalType":"contract ERC20EscrowObligation"},{"name":"_erc20Payment","type":"address","internalType":"contract ERC20PaymentObligation"},{"name":"_erc721Escrow","type":"address","internalType":"contract ERC721EscrowObligation"},{"name":"_erc721Payment","type":"address","internalType":"contract ERC721PaymentObligation"},{"name":"_erc1155Escrow","type":"address","internalType":"contract ERC1155EscrowObligation"},{"name":"_erc1155Payment","type":"address","internalType":"contract ERC1155PaymentObligation"},{"name":"_bundleEscrow","type":"address","internalType":"contract TokenBundleEscrowObligation"},{"name":"_bundlePayment","type":"address","internalType":"contract TokenBundlePaymentObligation"}],"stateMutability":"nonpayable"},{"type":"function","name":"buyBundleWithErc20","inputs":[{"name":"bidToken","type":"address","internalType":"address"},{"name":"bidAmount","type":"uint256","internalType":"uint256"},{"name":"askData","type":"tuple","internalType":"struct TokenBundlePaymentObligation.StatementData","components":[{"name":"erc20Tokens","type":"address[]","internalType":"address[]"},{"name":"erc20Amounts","type":"uint256[]","internalType":"uint256[]"},{"name":"erc721Tokens","type":"address[]","internalType":"address[]"},{"name":"erc721TokenIds","type":"uint256[]","internalType":"uint256[]"},{"name":"erc1155Tokens","type":"address[]","internalType":"address[]"},{"name":"erc1155TokenIds","type":"uint256[]","internalType":"uint256[]"},{"name":"erc1155Amounts","type":"uint256[]","internalType":"uint256[]"},{"name":"payee","type":"address","internalType":"address"}]},{"name":"expiration","type":"uint64","internalType":"uint64"}],"outputs":[{"name":"","type":"bytes32","internalType":"bytes32"}],"stateMutability":"nonpayable"},{"type":"function","name":"buyErc1155WithErc20","inputs":[{"name":"bidToken","type":"address","internalType":"address"},{"name":"bidAmount","type":"uint256","internalType":"uint256"},{"name":"askToken","type":"address","internalType":"address"},{"name":"askId","type":"uint256","internalType":"uint256"},{"name":"askAmount","type":"uint256","internalType":"uint256"},{"name":"expiration","type":"uint64","internalType":"uint64"}],"outputs":[{"name":"","type":"bytes32","internalType":"bytes32"}],"stateMutability":"nonpayable"},{"type":"function","name":"buyErc20ForErc20","inputs":[{"name":"bidToken","type":"address","internalType":"address"},{"name":"bidAmount","type":"uint256","internalType":"uint256"},{"name":"askToken","type":"address","internalType":"address"},{"name":"askAmount","type":"uint256","internalType":"uint256"},{"name":"expiration","type":"uint64","internalType":"uint64"}],"outputs":[{"name":"","type":"bytes32","internalType":"bytes32"}],"stateMutability":"nonpayable"},{"type":"function","name":"buyErc721WithErc20","inputs":[{"name":"bidToken","type":"address","internalType":"address"},{"name":"bidAmount","type":"uint256","internalType":"uint256"},{"name":"askToken","type":"address","internalType":"address"},{"name":"askId","type":"uint256","internalType":"uint256"},{"name":"expiration","type":"uint64","internalType":"uint64"}],"outputs":[{"name":"","type":"bytes32","internalType":"bytes32"}],"stateMutability":"nonpayable"},{"type":"function","name":"payErc20ForBundle","inputs":[{"name":"buyAttestation","type":"bytes32","internalType":"bytes32"}],"outputs":[{"name":"","type":"bytes32","internalType":"bytes32"}],"stateMutability":"nonpayable"},{"type":"function","name":"payErc20ForErc1155","inputs":[{"name":"buyAttestation","type":"bytes32","internalType":"bytes32"}],"outputs":[{"name":"","type":"bytes32","internalType":"bytes32"}],"stateMutability":"nonpayable"},{"type":"function","name":"payErc20ForErc20","inputs":[{"name":"buyAttestation","type":"bytes32","internalType":"bytes32"}],"outputs":[{"name":"","type":"bytes32","internalType":"bytes32"}],"stateMutability":"nonpayable"},{"type":"function","name":"payErc20ForErc721","inputs":[{"name":"buyAttestation","type":"bytes32","internalType":"bytes32"}],"outputs":[{"name":"","type":"bytes32","internalType":"bytes32"}],"stateMutability":"nonpayable"},{"type":"function","name":"permitAndBuyBundleWithErc20","inputs":[{"name":"bidToken","type":"address","internalType":"address"},{"name":"bidAmount","type":"uint256","internalType":"uint256"},{"name":"askData","type":"tuple","internalType":"struct TokenBundlePaymentObligation.StatementData","components":[{"name":"erc20Tokens","type":"address[]","internalType":"address[]"},{"name":"erc20Amounts","type":"uint256[]","internalType":"uint256[]"},{"name":"erc721Tokens","type":"address[]","internalType":"address[]"},{"name":"erc721TokenIds","type":"uint256[]","internalType":"uint256[]"},{"name":"erc1155Tokens","type":"address[]","internalType":"address[]"},{"name":"erc1155TokenIds","type":"uint256[]","internalType":"uint256[]"},{"name":"erc1155Amounts","type":"uint256[]","internalType":"uint256[]"},{"name":"payee","type":"address","internalType":"address"}]},{"name":"expiration","type":"uint64","internalType":"uint64"},{"name":"deadline","type":"uint256","internalType":"uint256"},{"name":"v","type":"uint8","internalType":"uint8"},{"name":"r","type":"bytes32","internalType":"bytes32"},{"name":"s","type":"bytes32","internalType":"bytes32"}],"outputs":[{"name":"","type":"bytes32","internalType":"bytes32"}],"stateMutability":"nonpayable"},{"type":"function","name":"permitAndBuyErc1155WithErc20","inputs":[{"name":"bidToken","type":"address","internalType":"address"},{"name":"bidAmount","type":"uint256","internalType":"uint256"},{"name":"askToken","type":"address","internalType":"address"},{"name":"askId","type":"uint256","internalType":"uint256"},{"name":"askAmount","type":"uint256","internalType":"uint256"},{"name":"expiration","type":"uint64","internalType":"uint64"},{"name":"deadline","type":"uint256","internalType":"uint256"},{"name":"v","type":"uint8","internalType":"uint8"},{"name":"r","type":"bytes32","internalType":"bytes32"},{"name":"s","type":"bytes32","internalType":"bytes32"}],"outputs":[{"name":"","type":"bytes32","internalType":"bytes32"}],"stateMutability":"nonpayable"},{"type":"function","name":"permitAndBuyErc20ForErc20","inputs":[{"name":"bidToken","type":"address","internalType":"address"},{"name":"bidAmount","type":"uint256","internalType":"uint256"},{"name":"askToken","type":"address","internalType":"address"},{"name":"askAmount","type":"uint256","internalType":"uint256"},{"name":"expiration","type":"uint64","internalType":"uint64"},{"name":"deadline","type":"uint256","internalType":"uint256"},{"name":"v","type":"uint8","internalType":"uint8"},{"name":"r","type":"bytes32","internalType":"bytes32"},{"name":"s","type":"bytes32","internalType":"bytes32"}],"outputs":[{"name":"","type":"bytes32","internalType":"bytes32"}],"stateMutability":"nonpayable"},{"type":"function","name":"permitAndBuyErc721WithErc20","inputs":[{"name":"bidToken","type":"address","internalType":"address"},{"name":"bidAmount","type":"uint256","internalType":"uint256"},{"name":"askToken","type":"address","internalType":"address"},{"name":"askId","type":"uint256","internalType":"uint256"},{"name":"expiration","type":"uint64","internalType":"uint64"},{"name":"deadline","type":"uint256","internalType":"uint256"},{"name":"v","type":"uint8","internalType":"uint8"},{"name":"r","type":"bytes32","internalType":"bytes32"},{"name":"s","type":"bytes32","internalType":"bytes32"}],"outputs":[{"name":"","type":"bytes32","internalType":"bytes32"}],"stateMutability":"nonpayable"},{"type":"function","name":"permitAndBuyWithErc20","inputs":[{"name":"token","type":"address","internalType":"address"},{"name":"amount","type":"uint256","internalType":"uint256"},{"name":"arbiter","type":"address","internalType":"address"},{"name":"demand","type":"bytes","internalType":"bytes"},{"name":"expiration","type":"uint64","internalType":"uint64"},{"name":"deadline","type":"uint256","internalType":"uint256"},{"name":"v","type":"uint8","internalType":"uint8"},{"name":"r","type":"bytes32","internalType":"bytes32"},{"name":"s","type":"bytes32","internalType":"bytes32"}],"outputs":[{"name":"","type":"bytes32","internalType":"bytes32"}],"stateMutability":"nonpayable"},{"type":"function","name":"permitAndPayErc20ForBundle","inputs":[{"name":"buyAttestation","type":"bytes32","internalType":"bytes32"},{"name":"deadline","type":"uint256","internalType":"uint256"},{"name":"v","type":"uint8","internalType":"uint8"},{"name":"r","type":"bytes32","internalType":"bytes32"},{"name":"s","type":"bytes32","internalType":"bytes32"}],"outputs":[{"name":"","type":"bytes32","internalType":"bytes32"}],"stateMutability":"nonpayable"},{"type":"function","name":"permitAndPayErc20ForErc1155","inputs":[{"name":"buyAttestation","type":"bytes32","internalType":"bytes32"},{"name":"deadline","type":"uint256","internalType":"uint256"},{"name":"v","type":"uint8","internalType":"uint8"},{"name":"r","type":"bytes32","internalType":"bytes32"},{"name":"s","type":"bytes32","internalType":"bytes32"}],"outputs":[{"name":"","type":"bytes32","internalType":"bytes32"}],"stateMutability":"nonpayable"},{"type":"function","name":"permitAndPayErc20ForErc20","inputs":[{"name":"buyAttestation","type":"bytes32","internalType":"bytes32"},{"name":"deadline","type":"uint256","internalType":"uint256"},{"name":"v","type":"uint8","internalType":"uint8"},{"name":"r","type":"bytes32","internalType":"bytes32"},{"name":"s","type":"bytes32","internalType":"bytes32"}],"outputs":[{"name":"","type":"bytes32","internalType":"bytes32"}],"stateMutability":"nonpayable"},{"type":"function","name":"permitAndPayErc20ForErc721","inputs":[{"name":"buyAttestation","type":"bytes32","internalType":"bytes32"},{"name":"deadline","type":"uint256","internalType":"uint256"},{"name":"v","type":"uint8","internalType":"uint8"},{"name":"r","type":"bytes32","internalType":"bytes32"},{"name":"s","type":"bytes32","internalType":"bytes32"}],"outputs":[{"name":"","type":"bytes32","internalType":"bytes32"}],"stateMutability":"nonpayable"},{"type":"function","name":"permitAndPayWithErc20","inputs":[{"name":"token","type":"address","internalType":"address"},{"name":"amount","type":"uint256","internalType":"uint256"},{"name":"payee","type":"address","internalType":"address"},{"name":"deadline","type":"uint256","internalType":"uint256"},{"name":"v","type":"uint8","internalType":"uint8"},{"name":"r","type":"bytes32","internalType":"bytes32"},{"name":"s","type":"bytes32","internalType":"bytes32"}],"outputs":[{"name":"","type":"bytes32","internalType":"bytes32"}],"stateMutability":"nonpayable"},{"type":"error","name":"AttestationNotFound","inputs":[{"name":"attestationId","type":"bytes32","internalType":"bytes32"}]},{"type":"error","name":"CouldntCollectPayment","inputs":[]},{"type":"error","name":"PermitFailed","inputs":[{"name":"token","type":"address","internalType":"address"},{"name":"reason","type":"string","internalType":"string"}]}],"bytecode":{"object":"0x6080346101ae57601f61227638819003918201601f19168301916001600160401b038311848410176101b257808492610120946040528339810103126101ae5780516001600160a01b03811691908290036101ae5760208101516001600160a01b038116908190036101ae5760408201516001600160a01b038116908190036101ae5760608301516001600160a01b038116908190036101ae5760808401516001600160a01b03811691908290036101ae5760a08501516001600160a01b03811693908490036101ae5760c08601516001600160a01b03811695908690036101ae5760e08701516001600160a01b03811697908890036101ae5761010001516001600160a01b03811698908990036101ae5760018060a01b03195f5416175f5560018060a01b0319600154161760015560018060a01b0319600254161760025560018060a01b0319600354161760035560018060a01b0319600454161760045560018060a01b0319600554161760055560018060a01b0319600654161760065560018060a01b0319600754161760075560018060a01b031960085416176008556040516120af90816101c78239f35b5f80fd5b634e487b7160e01b5f52604160045260245ffdfe6080806040526004361015610012575f80fd5b5f905f3560e01c9081631454e3d214610d34575080631b24bf5214610d185780632bf2ee3914610c6d5780633d94053d14610c5157806346b3aca214610c1157806367cebb7014610a9a57806372448d4d14610983578063759503f2146108d5578063a6c002e914610842578063a7a6884d146107a2578063a827053014610703578063a96addea146106a1578063ab2fc26514610609578063b56edf541461054b578063c17783891461047d578063c266137314610303578063e1982e13146101ab5763e3139e86146100e4575f80fd5b346101a8576100f236610dbf565b9160248660018060a09897981b03815416604051928380926328c44a9960e21b82528960048301525afa90811561019d5791610166602061015661012061016d97956101729b9a99978d859e9261017a575b5050015182808251830101910161174a565b015189808251830101910161118f565b95866118fc565b611fb2565b604051908152f35b61019692503d8091833e61018e8183610f0f565b810190611034565b5f80610144565b6040513d89823e3d90fd5b80fd5b50346101a8576101003660031901126101a8576101c6610deb565b906024356044356001600160401b0381116102ff5761010060031982360301126102ff576101f2610e41565b9260a43560ff811681036102fb576001546001600160a01b039081169190871690813b156102f75791839291868461024f96946040519788958694859363d505accf60e01b855260e4359260c435926084359133600489016112b2565b03925af191826102e2575b50506102c6578361026961159e565b6308c379a014610295575b6040516308f14ec160e11b81529081906102919060048301611650565b0390fd5b61029d6115b9565b90816102aa579050610274565b6102916040519283926308f14ec160e11b84526004840161162e565b9261017292916102dc6020953690600401611466565b91611eb2565b6102ed828092610f0f565b6101a8578061025a565b8380fd5b5080fd5b8280fd5b50346101a85760e03660031901126101a8578061031e610deb565b602435610329610e01565b6084359260ff84168403610479576002546001600160a01b03918216949116843b156104755761037e918691604051938492839263d505accf60e01b845260c4359160a435918a6064359133600489016112b2565b038183885af190811561046a57859161044c575b5050906020926103ed9260018060a01b036002541692604051926103b584610ed8565b8352858301526001600160a01b031660408083019190915251630fba221960e41b8152958693849283919033908190600485016118bd565b03925af19081156104405790610409575b602090604051908152f35b506020813d602011610438575b8161042360209383610f0f565b8101031261043457602090516103fe565b5f80fd5b3d9150610416565b604051903d90823e3d90fd5b8161045991949394610f0f565b6104655790835f610392565b505050fd5b6040513d87823e3d90fd5b8580fd5b8480fd5b50346101a8576101403660031901126101a857610498610deb565b602435916104a4610e01565b926104ad610e2b565b9160e43560ff811681036102fb576001546001600160a01b038681169116813b156102f7579183929183926105089560405180978195829463d505accf60e01b8452610124359161010435918d60c4359133600489016112b2565b03925af19182610536575b5050610522578261026961159e565b610172926020946084359260643592611cf9565b610541828092610f0f565b6101a85780610513565b50346101a85760203660031901126101a85760249060043561056b6111ce565b5081546040516328c44a9960e21b81526004810183905293839185919082906001600160a01b03165afa809383946105ed575b506105b6576301fb6dd160e01b825260045260249150fd5b6101726020916105e7836105d761012088015182808251830101910161174a565b015184808251830101910161118f565b90611fb2565b6106029194503d8085833e61018e8183610f0f565b925f61059e565b50346101a85761061836610f4b565b60015497999497959695929493926001600160a01b038a81169391169190833b1561047557859493926106668d9387936040519a8b988997889663d505accf60e01b885233600489016112b2565b03925af1918261068c575b5050610680578361026961159e565b60209461017294611ccc565b610697828092610f0f565b6101a85780610671565b50346101a85760803660031901126101a8576106bb610deb565b604435916001600160401b0383116101a85761010060031984360301126101a857602061017284846106f96106ee610e41565b923690600401611466565b9060243590611eb2565b50346101a85760203660031901126101a85780546040516328c44a9960e21b815260048035908201819052918390829060249082906001600160a01b03165afa9081156107975760206105d76101206101729594610776948885999261077c575b5050015182808251830101910161110f565b90611d7c565b61079092503d8091833e61018e8183610f0f565b5f80610764565b6040513d85823e3d90fd5b50346101a8576107b136610f4b565b6001549499959896979695949293926001600160a01b038088169391169190833b1561083e57869493926108008a938793604051998a988997889663d505accf60e01b885233600489016112b2565b03925af180156108335761081e575b60206101728888888888611af6565b610829828092610f0f565b6101a8578061080f565b6040513d84823e3d90fd5b8680fd5b50346101a85761085136610dbf565b9160248660018060a09897981b03815416604051928380926328c44a9960e21b82528960048301525afa90811561019d579161016660206101566101206108b597956101729b9a99978d859e926108ba575b50500151828082518301019101611218565b611c05565b6108ce92503d8091833e61018e8183610f0f565b5f806108a3565b50346101a85760203660031901126101a8576024906004356108f56111ce565b5081546040516328c44a9960e21b81526004810183905293839185919082906001600160a01b03165afa80938394610967575b50610940576301fb6dd160e01b825260045260249150fd5b610172602091610961836105d761012088015182808251830101910161110f565b906119e5565b61097c9194503d8085833e61018e8183610f0f565b925f610928565b50346101a85761099236610dbf565b85546040516328c44a9960e21b81526004810187905292969492908590829060249082906001600160a01b03165afa90811561046a576109ed6101206109fe936020938991610a80575b50015182808251830101910161110f565b01516020808251830101910161118f565b8051600254602083015192986001600160a01b03928316949190921691843b15610a7c5791610a4c8896959493928793604051998a988997889663d505accf60e01b885233600489016112b2565b03925af1801561083357610a67575b60206101728585611d7c565b610a72828092610f0f565b6101a85780610a5b565b8780fd5b610a9491503d808b833e61018e8183610f0f565b5f6109dc565b50346104345761012036600319011261043457610ab5610deb565b9060243590610ac2610e01565b6064356001600160401b0381116104345736602382011215610434578060040135610aec81610f30565b91610afa6040519384610f0f565b818352366024838301011161043457815f926024602093018386013783010152608435916001600160401b03831683036104345760c4359560ff87168703610434576001546001600160a01b03918216969116863b1561043457610b84975f91604051998a92839263d505accf60e01b8452610104359160e435918860a4359133600489016112b2565b0381838a5af1968715610c06576103ed97610bf1575b506020949560018060a01b03600154169360405193610bb885610ea9565b60018060a01b031684528684015260408301526060820152846040518097819582946307e738a360e11b84523391339160048601611317565b602095505f610bff91610f0f565b5f94610b9a565b6040513d5f823e3d90fd5b346104345760c0366003190112610434576020610172610c2f610deb565b610c37610e01565b610c3f610e2b565b91608435916064359160243590611cf9565b34610434576020610172610c6436610e57565b93929092611ccc565b3461043457602036600319011261043457600435610c896111ce565b505f80546040516328c44a9960e21b8152600481018490529190829060249082906001600160a01b03165afa5f9181610cfc575b50610cd557506301fb6dd160e01b5f5260045260245ffd5b602091610cf6836105d7610120610172950151828082518301019101611218565b90611c05565b610d119192503d805f833e61018e8183610f0f565b9083610cbd565b34610434576020610172610d2b36610e57565b93929092611af6565b3461043457610d4236610dbf565b5f80546328c44a9960e21b8852600488018790529396929593839060249082906001600160a01b03165afa948515610c0657602096610166886101566101206101729a610da0985f91610da55750015182808251830101910161110f565b6119e5565b610db991503d805f833e61018e8183610f0f565b8d6109dc565b60a090600319011261043457600435906024359060443560ff8116810361043457906064359060843590565b600435906001600160a01b038216820361043457565b604435906001600160a01b038216820361043457565b35906001600160a01b038216820361043457565b60a435906001600160401b038216820361043457565b606435906001600160401b038216820361043457565b60a0906003190112610434576004356001600160a01b03811681036104345790602435906044356001600160a01b03811681036104345790606435906084356001600160401b03811681036104345790565b608081019081106001600160401b03821117610ec457604052565b634e487b7160e01b5f52604160045260245ffd5b606081019081106001600160401b03821117610ec457604052565b61014081019081106001600160401b03821117610ec457604052565b90601f801991011681019081106001600160401b03821117610ec457604052565b6001600160401b038111610ec457601f01601f191660200190565b610120906003190112610434576004356001600160a01b03811681036104345790602435906044356001600160a01b03811681036104345790606435906084356001600160401b0381168103610434579060a4359060c43560ff81168103610434579060e435906101043590565b51906001600160401b038216820361043457565b51906001600160a01b038216820361043457565b5190811515820361043457565b81601f820112156104345780519061100582610f30565b926110136040519485610f0f565b8284526020838301011161043457815f9260208093018386015e8301015290565b602081830312610434578051906001600160401b038211610434570161014081830312610434576040519161106883610ef3565b815183526020820151602084015261108260408301610fb9565b604084015261109360608301610fb9565b60608401526110a460808301610fb9565b608084015260a082015160a08401526110bf60c08301610fcd565b60c08401526110d060e08301610fcd565b60e08401526110e26101008301610fe1565b6101008401526101208201516001600160401b038111610434576111069201610fee565b61012082015290565b602081830312610434578051906001600160401b038211610434570190608082820312610434576040519161114383610ea9565b61114c81610fcd565b835260208101516001600160401b0381116104345760609261116f918301610fee565b602084015261118060408201610fcd565b60408401520151606082015290565b90816060910312610434576111c660408051926111ab84610ed8565b6111b481610fcd565b84526020810151602085015201610fcd565b604082015290565b604051906111db82610ef3565b6060610120835f81525f60208201525f60408201525f838201525f60808201525f60a08201525f60c08201525f60e08201525f6101008201520152565b602081830312610434578051906001600160401b03821161043457019060a082820312610434576040519160a083018381106001600160401b03821117610ec45760405261126581610fcd565b835260208101516001600160401b03811161043457608092611288918301610fee565b602084015261129960408201610fcd565b6040840152606081015160608401520151608082015290565b9360c095919897969360ff9360e087019a60018060a01b0316875260018060a01b031660208701526040860152606085015216608083015260a08201520152565b805180835260209291819084018484015e5f828201840152601f01601f1916010190565b926001600160401b036060939695926080865260018060a01b038151166080870152846113546020830151608060a08a01526101008901906112f3565b6040838101516001600160a01b0390811660c08b0152929093015160e08901529890921660208701529181169185019190915216910152565b6001600160401b038111610ec45760051b60200190565b9080601f830112156104345781356113bb8161138d565b926113c96040519485610f0f565b81845260208085019260051b82010192831161043457602001905b8282106113f15750505090565b602080916113fe84610e17565b8152019101906113e4565b9080601f830112156104345781356114208161138d565b9261142e6040519485610f0f565b81845260208085019260051b82010192831161043457602001905b8282106114565750505090565b8135815260209182019101611449565b91909161010081840312610434576040519061010082018281106001600160401b03821117610ec457604052819381356001600160401b03811161043457816114b09184016113a4565b835260208201356001600160401b03811161043457816114d1918401611409565b602084015260408201356001600160401b03811161043457816114f59184016113a4565b604084015260608201356001600160401b0381116104345781611519918401611409565b606084015260808201356001600160401b038111610434578161153d9184016113a4565b608084015260a08201356001600160401b0381116104345781611561918401611409565b60a084015260c0820135906001600160401b038211610434578261158e60e0949261159994869401611409565b60c086015201610e17565b910152565b5f9060033d116115aa57565b905060045f803e5f5160e01c90565b5f60443d1061161d576040513d600319016004823e8051913d60248401116001600160401b0384111761162857828201928351916001600160401b038311611620573d84016003190185840160200111611620575061161d92910160200190610f0f565b90565b949350505050565b92915050565b6001600160a01b03909116815260406020820181905261161d929101906112f3565b6001600160a01b039091168152604060208201819052600d908201526c2ab735b737bbb71032b93937b960991b606082015260800190565b9080601f8301121561043457815161169f8161138d565b926116ad6040519485610f0f565b81845260208085019260051b82010192831161043457602001905b8282106116d55750505090565b602080916116e284610fcd565b8152019101906116c8565b9080601f830112156104345781516117048161138d565b926117126040519485610f0f565b81845260208085019260051b82010192831161043457602001905b82821061173a5750505090565b815181526020918201910161172d565b602081830312610434578051906001600160401b038211610434570161012081830312610434576040519161012083018381106001600160401b03821117610ec45760405261179882610fcd565b835260208201516001600160401b03811161043457816117b9918401610fee565b602084015260408201516001600160401b03811161043457816117dd918401611688565b604084015260608201516001600160401b03811161043457816118019184016116ed565b606084015260808201516001600160401b0381116104345781611825918401611688565b608084015260a08201516001600160401b03811161043457816118499184016116ed565b60a084015260c08201516001600160401b038111610434578161186d918401611688565b60c084015260e08201516001600160401b03811161043457816118919184016116ed565b60e08401526101008201516001600160401b038111610434576118b492016116ed565b61010082015290565b81516001600160a01b03908116825260208084015190830152604092830151811692820192909252918116606083015291909116608082015260a00190565b805160025460208301519297969495946001600160a01b039283169392909116833b15610434576119495f96928793604051998a988997889663d505accf60e01b885233600489016112b2565b03925af190816119d5575b506119d1575061196261159e565b6308c379a014611994575b516040516308f14ec160e11b8152908190610291906001600160a01b031660048301611650565b61199c6115b9565b90816119a957905061196d565b516040516308f14ec160e11b815291829161029191906001600160a01b03166004840161162e565b9050565b5f6119df91610f0f565b5f611954565b6020611a185f9360018060a01b036002541690604051958680948193630fba221960e41b835233903390600485016118bd565b03925af1918215610c06575f92611ac1575b506003546040516330088bc960e01b8152600481019290925260248201839052602090829060449082905f906001600160a01b03165af1908115610c06575f91611a87575b5015611a785790565b636c7b6f5560e11b5f5260045ffd5b90506020813d602011611ab9575b81611aa260209383610f0f565b8101031261043457611ab390610fe1565b5f611a6f565b3d9150611a95565b9091506020813d602011611aee575b81611add60209383610f0f565b810103126104345751906020611a2a565b3d9150611ad0565b600154600254604051611bc19760209790966001600160a01b0394851696949093169492611b2383610ed8565b60018060a01b0316825287820152336040820152611b6c604051918883019060409060018060a01b038151168352602081015160208401528160018060a01b0391015116910152565b60608152611b7b608082610f0f565b60405193611b8885610ea9565b84528684015260018060a01b0316604083015260608201525f6040518096819582946307e738a360e11b84523391339160048601611317565b03925af1908115610c06575f91611bd6575090565b90506020813d602011611bfd575b81611bf160209383610f0f565b81010312610434575190565b3d9150611be4565b6020611c385f9360018060a01b036002541690604051958680948193630fba221960e41b835233903390600485016118bd565b03925af1918215610c06575f92611c97575b506005546040516330088bc960e01b8152600481019290925260248201839052602090829060449082905f906001600160a01b03165af1908115610c06575f91611a87575015611a785790565b9091506020813d602011611cc4575b81611cb360209383610f0f565b810103126104345751906020611c4a565b3d9150611ca6565b600154600454604051611bc19760209790966001600160a01b0394851696949093169492611b2383610ed8565b600154600654604051611bc19860209890976001600160a01b0394851697939094169594939192606090611d2c85610ea9565b60018060a01b0316938481528a8101938452604081019283520191338352604051938a85015251604084015251606083015260018060a01b03905116608082015260808152611b7b60a082610f0f565b6020611daf5f9360018060a01b036002541690604051958680948193630fba221960e41b835233903390600485016118bd565b03925af1918215610c06575f92611e0e575b506001546040516330088bc960e01b8152600481019290925260248201839052602090829060449082905f906001600160a01b03165af1908115610c06575f91611a87575015611a785790565b9091506020813d602011611e3b575b81611e2a60209383610f0f565b810103126104345751906020611dc1565b3d9150611e1d565b90602080835192838152019201905f5b818110611e605750505090565b82516001600160a01b0316845260209384019390920191600101611e53565b90602080835192838152019201905f5b818110611e9c5750505090565b8251845260209384019390920191600101611e8f565b602092611bc1949260018060a01b03600154169260018060a01b036008541692611b7b60405180928980830152611f8e611f77611f61611f4b611f35611f1f611f09875161010060408b01526101408a0190611e43565b6020880151898203603f190160608b0152611e7f565b6040870151888203603f190160808a0152611e43565b6060860151878203603f190160a0890152611e7f565b6080850151868203603f190160c0880152611e43565b60a0840151858203603f190160e0870152611e7f565b60c0830151848203603f1901610100860152611e7f565b60e091909101516001600160a01b031661012083015203601f198101835282610f0f565b6020611fe55f9360018060a01b036002541690604051958680948193630fba221960e41b835233903390600485016118bd565b03925af1918215610c06575f92612044575b506007546040516330088bc960e01b8152600481019290925260248201839052602090829060449082905f906001600160a01b03165af1908115610c06575f91611a87575015611a785790565b9091506020813d602011612071575b8161206060209383610f0f565b810103126104345751906020611ff7565b3d915061205356fea2646970667358221220bb09ed3c96f6861f1320494d292e1dbb8a180baba3b5c7a51debd4ae2538bfe264736f6c634300081b0033","linkReferences":{}},"methodIdentifiers":{"buyBundleWithErc20(address,uint256,(address[],uint256[],address[],uint256[],address[],uint256[],uint256[],address),uint64)":"a96addea","buyErc1155WithErc20(address,uint256,address,uint256,uint256,uint64)":"46b3aca2","buyErc20ForErc20(address,uint256,address,uint256,uint64)":"1b24bf52","buyErc721WithErc20(address,uint256,address,uint256,uint64)":"3d94053d","payErc20ForBundle(bytes32)":"b56edf54","payErc20ForErc1155(bytes32)":"2bf2ee39","payErc20ForErc20(bytes32)":"a8270530","payErc20ForErc721(bytes32)":"759503f2","permitAndBuyBundleWithErc20(address,uint256,(address[],uint256[],address[],uint256[],address[],uint256[],uint256[],address),uint64,uint256,uint8,bytes32,bytes32)":"e1982e13","permitAndBuyErc1155WithErc20(address,uint256,address,uint256,uint256,uint64,uint256,uint8,bytes32,bytes32)":"c1778389","permitAndBuyErc20ForErc20(address,uint256,address,uint256,uint64,uint256,uint8,bytes32,bytes32)":"a7a6884d","permitAndBuyErc721WithErc20(address,uint256,address,uint256,uint64,uint256,uint8,bytes32,bytes32)":"ab2fc265","permitAndBuyWithErc20(address,uint256,address,bytes,uint64,uint256,uint8,bytes32,bytes32)":"67cebb70","permitAndPayErc20ForBundle(bytes32,uint256,uint8,bytes32,bytes32)":"e3139e86","permitAndPayErc20ForErc1155(bytes32,uint256,uint8,bytes32,bytes32)":"a6c002e9","permitAndPayErc20ForErc20(bytes32,uint256,uint8,bytes32,bytes32)":"72448d4d","permitAndPayErc20ForErc721(bytes32,uint256,uint8,bytes32,bytes32)":"1454e3d2","permitAndPayWithErc20(address,uint256,address,uint256,uint8,bytes32,bytes32)":"c2661373"},"id":83}