{"abi":[{"type":"function","name":"checkStatement","inputs":[{"name":"statement","type":"tuple","internalType":"struct Attestation","components":[{"name":"uid","type":"bytes32","internalType":"bytes32"},{"name":"schema","type":"bytes32","internalType":"bytes32"},{"name":"time","type":"uint64","internalType":"uint64"},{"name":"expirationTime","type":"uint64","internalType":"uint64"},{"name":"revocationTime","type":"uint64","internalType":"uint64"},{"name":"refUID","type":"bytes32","internalType":"bytes32"},{"name":"recipient","type":"address","internalType":"address"},{"name":"attester","type":"address","internalType":"address"},{"name":"revocable","type":"bool","internalType":"bool"},{"name":"data","type":"bytes","internalType":"bytes"}]},{"name":"demand","type":"bytes","internalType":"bytes"},{"name":"","type":"bytes32","internalType":"bytes32"}],"outputs":[{"name":"","type":"bool","internalType":"bool"}],"stateMutability":"pure"},{"type":"error","name":"NotDemandedAttestation","inputs":[]}],"bytecode":{"object":"0x60808060405234601557610279908161001a8239f35b5f80fdfe60806040526004361015610011575f80fd5b5f3560e01c631272ff8b14610024575f80fd5b346101ae5760603660031901126101ae5760043567ffffffffffffffff81116101ae5761014060031982360301126101ae5760405190610140820182811067ffffffffffffffff82111761019a576040528060040135825260248101356020830152610092604482016101b2565b60408301526100a3606482016101b2565b60608301526100b4608482016101b2565b608083015260a481013560a08301526100cf60c482016101c7565b60c08301526100e060e482016101c7565b60e083015261010481013580151581036101ae576101008301526101248101359067ffffffffffffffff82116101ae57600461011f92369201016101db565b61012082015260243567ffffffffffffffff81116101ae576101459036906004016101db565b906020828051810103126101ae5760405191602083019083821067ffffffffffffffff83111761019a576020916040520151809252510361018b57602060405160018152f35b631579b0f760e01b5f5260045ffd5b634e487b7160e01b5f52604160045260245ffd5b5f80fd5b359067ffffffffffffffff821682036101ae57565b35906001600160a01b03821682036101ae57565b81601f820112156101ae5780359067ffffffffffffffff821161019a5760405192601f8301601f19908116603f0116840167ffffffffffffffff81118582101761019a57604052828452602083830101116101ae57815f92602080930183860137830101529056fea2646970667358221220115828bfe2fa8d314579cc7c68c6e135a2f4fb57ba156ad7d491bfa3cd063aa464736f6c634300081b0033","linkReferences":{}},"methodIdentifiers":{"checkStatement((bytes32,bytes32,uint64,uint64,uint64,bytes32,address,address,bool,bytes),bytes,bytes32)":"1272ff8b"},"id":63}