{"abi":[{"type":"function","name":"checkStatement","inputs":[{"name":"statement","type":"tuple","internalType":"struct Attestation","components":[{"name":"uid","type":"bytes32","internalType":"bytes32"},{"name":"schema","type":"bytes32","internalType":"bytes32"},{"name":"time","type":"uint64","internalType":"uint64"},{"name":"expirationTime","type":"uint64","internalType":"uint64"},{"name":"revocationTime","type":"uint64","internalType":"uint64"},{"name":"refUID","type":"bytes32","internalType":"bytes32"},{"name":"recipient","type":"address","internalType":"address"},{"name":"attester","type":"address","internalType":"address"},{"name":"revocable","type":"bool","internalType":"bool"},{"name":"data","type":"bytes","internalType":"bytes"}]},{"name":"demand","type":"bytes","internalType":"bytes"},{"name":"","type":"bytes32","internalType":"bytes32"}],"outputs":[{"name":"","type":"bool","internalType":"bool"}],"stateMutability":"pure"},{"type":"function","name":"decodeDemandData","inputs":[{"name":"data","type":"bytes","internalType":"bytes"}],"outputs":[{"name":"","type":"tuple","internalType":"struct SpecificAttestationArbiter.DemandData","components":[{"name":"uid","type":"bytes32","internalType":"bytes32"}]}],"stateMutability":"pure"},{"type":"error","name":"NotDemandedAttestation","inputs":[]}],"bytecode":{"object":"0x6080806040523460155761030b908161001a8239f35b5f80fdfe60806040526004361015610011575f80fd5b5f3560e01c80631272ff8b146100b15763838a68d91461002f575f80fd5b346100ad5760203660031901126100ad5760043567ffffffffffffffff81116100ad57366023820112156100ad57806004013567ffffffffffffffff81116100ad5781013660248201116100ad576020905f610089610224565b52829003126100ad57602090602461009f610224565b910135809152604051908152f35b5f80fd5b346100ad5760603660031901126100ad5760043567ffffffffffffffff81116100ad5761014060031982360301126100ad5760405190610140820182811067ffffffffffffffff82111761021057604052806004013582526024810135602083015261011f60448201610244565b604083015261013060648201610244565b606083015261014160848201610244565b608083015260a481013560a083015261015c60c48201610259565b60c083015261016d60e48201610259565b60e083015261010481013580151581036100ad576101008301526101248101359067ffffffffffffffff82116100ad5760046101ac923692010161026d565b61012082015260243567ffffffffffffffff81116100ad576101d290369060040161026d565b906020828051810103126100ad5760206101ea610224565b920151809252510361020157602060405160018152f35b631579b0f760e01b5f5260045ffd5b634e487b7160e01b5f52604160045260245ffd5b604051906020820182811067ffffffffffffffff82111761021057604052565b359067ffffffffffffffff821682036100ad57565b35906001600160a01b03821682036100ad57565b81601f820112156100ad5780359067ffffffffffffffff82116102105760405192601f8301601f19908116603f0116840167ffffffffffffffff81118582101761021057604052828452602083830101116100ad57815f92602080930183860137830101529056fea26469706673582212207febc68f1e9185fbe653afc279959e8db35fd5f1a1e65e2d36d8df10022ac71f64736f6c634300081b0033","linkReferences":{}},"methodIdentifiers":{"checkStatement((bytes32,bytes32,uint64,uint64,uint64,bytes32,address,address,bool,bytes),bytes,bytes32)":"1272ff8b","decodeDemandData(bytes)":"838a68d9"},"id":75}