{"abi":[{"type":"function","name":"checkStatement","inputs":[{"name":"statement","type":"tuple","internalType":"struct Attestation","components":[{"name":"uid","type":"bytes32","internalType":"bytes32"},{"name":"schema","type":"bytes32","internalType":"bytes32"},{"name":"time","type":"uint64","internalType":"uint64"},{"name":"expirationTime","type":"uint64","internalType":"uint64"},{"name":"revocationTime","type":"uint64","internalType":"uint64"},{"name":"refUID","type":"bytes32","internalType":"bytes32"},{"name":"recipient","type":"address","internalType":"address"},{"name":"attester","type":"address","internalType":"address"},{"name":"revocable","type":"bool","internalType":"bool"},{"name":"data","type":"bytes","internalType":"bytes"}]},{"name":"demand","type":"bytes","internalType":"bytes"},{"name":"counteroffer","type":"bytes32","internalType":"bytes32"}],"outputs":[{"name":"","type":"bool","internalType":"bool"}],"stateMutability":"view"},{"type":"function","name":"decodeDemandData","inputs":[{"name":"data","type":"bytes","internalType":"bytes"}],"outputs":[{"name":"","type":"tuple","internalType":"struct TrustedPartyArbiter.DemandData","components":[{"name":"baseArbiter","type":"address","internalType":"address"},{"name":"baseDemand","type":"bytes","internalType":"bytes"},{"name":"creator","type":"address","internalType":"address"}]}],"stateMutability":"pure"},{"type":"error","name":"NotTrustedParty","inputs":[]}],"bytecode":{"object":"0x608080604052346015576105e2908161001a8239f35b5f80fdfe60806040526004361015610011575f80fd5b5f3560e01c80631272ff8b146101685763838a68d91461002f575f80fd5b34610164576020366003190112610164576004356001600160401b03811161016457366023820112156101645780600401356001600160401b038111610164578101906024820190368211610164575f6040805161008c816104af565b82815260606020820152015260206023196024838603010112610164576024810135906001600160401b0382116101645701916060908390031261016457604051906100d7826104af565b6100e3602484016104ff565b82526044830135906001600160401b0382116101645761010d606491602461011b9487010161052e565b9360208401948552016104ff565b604082019081526101506040519384936020855260018060a01b03905116602085015251606060408501526080840190610574565b90516001600160a01b031660608301520390f35b5f80fd5b34610164576060366003190112610164576004356001600160401b038111610164576101406003198236030112610164576101c06040526004810135608052602481013560a0526101bb604482016104eb565b60c0908152906101cd606482016104eb565b60e09081526101de608483016104eb565b61010090815260a48301356101209081529093906101fe60c485016104ff565b6101405261020e60e485016104ff565b6101609081529361010481013580151581036101645761018052610124810135906001600160401b03821161016457600461024c923692010161052e565b6101a0526024356001600160401b0381116101645761026f90369060040161052e565b91825183016020810193602081830312610164576020810151916001600160401b0383116101645760608284019091031261016457604051916102b1836104af565b6102bf602082840101610598565b835260408183010151906001600160401b03821161016457603f83820183010187131561016457602082828501010151926102f984610513565b97610307604051998a6104ca565b8489526040828401850186010111610164575f602085610342968280606098888801010101838d015e8a010152602085019788520101610598565b60408201819052610140516001600160a01b0390811691160361048c57519251604051631272ff8b60e01b815260606004820152608051606482015260a051608482015291516001600160401b0390811660a48401529451851660c4830152955190931660e48401525161010483015261014080516001600160a01b03908116610124850152935184166101448401526101805115156101648401526101a051610184840191909152919360209385939216918391829161041f919061040d906101a4850190610574565b83810360031901602485015290610574565b604435604483015203915afa8015610481575f90610445575b6020906040519015158152f35b506020813d602011610479575b8161045f602093836104ca565b810103126101645751801515810361016457602090610438565b3d9150610452565b6040513d5f823e3d90fd5b634673ab7b60e11b5f5260045ffd5b634e487b7160e01b5f52604160045260245ffd5b606081019081106001600160401b0382111761049b57604052565b90601f801991011681019081106001600160401b0382111761049b57604052565b35906001600160401b038216820361016457565b35906001600160a01b038216820361016457565b6001600160401b03811161049b57601f01601f191660200190565b81601f820112156101645780359061054582610513565b9261055360405194856104ca565b8284526020838301011161016457815f926020809301838601378301015290565b805180835260209291819084018484015e5f828201840152601f01601f1916010190565b51906001600160a01b03821682036101645756fea264697066735822122082a6c161d71c08dcfd20a500cc9ad30dceba48e19aed8c80e51c6dbb2a1d71ce64736f6c634300081b0033","linkReferences":{}},"methodIdentifiers":{"checkStatement((bytes32,bytes32,uint64,uint64,uint64,bytes32,address,address,bool,bytes),bytes,bytes32)":"1272ff8b","decodeDemandData(bytes)":"838a68d9"},"id":78}