{"abi":[{"type":"function","name":"checkStatement","inputs":[{"name":"statement","type":"tuple","internalType":"struct Attestation","components":[{"name":"uid","type":"bytes32","internalType":"bytes32"},{"name":"schema","type":"bytes32","internalType":"bytes32"},{"name":"time","type":"uint64","internalType":"uint64"},{"name":"expirationTime","type":"uint64","internalType":"uint64"},{"name":"revocationTime","type":"uint64","internalType":"uint64"},{"name":"refUID","type":"bytes32","internalType":"bytes32"},{"name":"recipient","type":"address","internalType":"address"},{"name":"attester","type":"address","internalType":"address"},{"name":"revocable","type":"bool","internalType":"bool"},{"name":"data","type":"bytes","internalType":"bytes"}]},{"name":"demand","type":"bytes","internalType":"bytes"},{"name":"counteroffer","type":"bytes32","internalType":"bytes32"}],"outputs":[{"name":"","type":"bool","internalType":"bool"}],"stateMutability":"view"},{"type":"error","name":"NotTrustedParty","inputs":[]}],"bytecode":{"object":"0x60808060405234601557610494908161001a8239f35b5f80fdfe60806040526004361015610011575f80fd5b5f3560e01c631272ff8b14610024575f80fd5b3461033f57606036600319011261033f5760043567ffffffffffffffff811161033f57610140600319823603011261033f576101c06040526004810135608052602481013560a0526100786044820161039b565b60c09081529061008a6064820161039b565b60e090815261009b6084830161039b565b61010090815260a48301356101209081529093906100bb60c485016103b0565b610140526100cb60e485016103b0565b61016090815293610104810135801515810361033f57610180526101248101359067ffffffffffffffff821161033f57600461010a92369201016103e0565b6101a05260243567ffffffffffffffff811161033f5761012e9036906004016103e0565b9182518301602081019360208183031261033f5760208101519067ffffffffffffffff821161033f5701906060908290031261033f576040516060810181811067ffffffffffffffff8211176103655760405261018d60208301610426565b815261019b60408301610426565b9160208201928352606081015167ffffffffffffffff811161033f57603f8282010187131561033f57602081830101516101d4816103c4565b976101e2604051998a610379565b81895260408484018301011161033f578060208080945f96010101838a015e87010152604081019485526101405190516001600160a01b0391821691160361035657519251604051631272ff8b60e01b815260606004820152608051606482015260a0516084820152915167ffffffffffffffff90811660a48401529451851660c4830152955190931660e48401525161010483015261014080516001600160a01b03908116610124850152935184166101448401526101805115156101648401526101a05161018484019190915291936020938593921691839182916102e591906102d3906101a485019061043a565b8381036003190160248501529061043a565b604435604483015203915afa801561034b575f9061030b575b6020906040519015158152f35b506020813d602011610343575b8161032560209383610379565b8101031261033f5751801515810361033f576020906102fe565b5f80fd5b3d9150610318565b6040513d5f823e3d90fd5b634673ab7b60e11b5f5260045ffd5b634e487b7160e01b5f52604160045260245ffd5b90601f8019910116810190811067ffffffffffffffff82111761036557604052565b359067ffffffffffffffff8216820361033f57565b35906001600160a01b038216820361033f57565b67ffffffffffffffff811161036557601f01601f191660200190565b81601f8201121561033f578035906103f7826103c4565b926104056040519485610379565b8284526020838301011161033f57815f926020809301838601378301015290565b51906001600160a01b038216820361033f57565b805180835260209291819084018484015e5f828201840152601f01601f191601019056fea2646970667358221220941b5be6c7f2478e2531593c75731724724ab436af7449fd6d276e42dea598f464736f6c634300081a0033","linkReferences":{}},"methodIdentifiers":{"checkStatement((bytes32,bytes32,uint64,uint64,uint64,bytes32,address,address,bool,bytes),bytes,bytes32)":"1272ff8b"},"id":46}