{"abi":[{"type":"constructor","inputs":[{"name":"_eas","type":"address","internalType":"contract IEAS"},{"name":"_erc1155Escrow","type":"address","internalType":"contract ERC1155EscrowObligation"},{"name":"_erc1155Payment","type":"address","internalType":"contract ERC1155PaymentObligation"}],"stateMutability":"nonpayable"},{"type":"function","name":"buyErc1155ForErc1155","inputs":[{"name":"bidToken","type":"address","internalType":"address"},{"name":"bidTokenId","type":"uint256","internalType":"uint256"},{"name":"bidAmount","type":"uint256","internalType":"uint256"},{"name":"askToken","type":"address","internalType":"address"},{"name":"askId","type":"uint256","internalType":"uint256"},{"name":"askAmount","type":"uint256","internalType":"uint256"},{"name":"expiration","type":"uint64","internalType":"uint64"}],"outputs":[{"name":"","type":"bytes32","internalType":"bytes32"}],"stateMutability":"nonpayable"},{"type":"function","name":"payErc1155ForErc1155","inputs":[{"name":"buyAttestation","type":"bytes32","internalType":"bytes32"}],"outputs":[{"name":"","type":"bytes32","internalType":"bytes32"}],"stateMutability":"nonpayable"},{"type":"error","name":"CouldntCollectPayment","inputs":[]}],"bytecode":{"object":"0x60803460b957601f61079e38819003918201601f19168301916001600160401b0383118484101760bd5780849260609460405283398101031260b95780516001600160a01b038116919082900360b95760208101516001600160a01b038116919082900360b957604001516001600160a01b038116929083900360b95760018060a01b03195f5416175f5560018060a01b0319600154161760015560018060a01b031960025416176002556040516106cc90816100d28239f35b5f80fd5b634e487b7160e01b5f52604160045260245ffdfe6080806040526004361015610012575f80fd5b5f3560e01c90816333666e5f1461022557506378a56f8f14610032575f80fd5b3461020e5760e036600319011261020e576004356001600160a01b0381169081900361020e576064356001600160a01b0381169081900361020e5760c4359167ffffffffffffffff831680930361020e576001546002546040516020946001600160a01b039384169391925f92610144929116906100af856105cc565b84526084358785015260a4356040850152336060850152610105604051948886019060609060018060a01b03815116835260208101516020840152604081015160408401528160018060a01b0391015116910152565b6080845261011460a0856105e8565b60405190610121826105b0565b8152868101938452604081019586528660608201986024358a526080830160443581526040519a8b998a98899663776c79a960e11b88526080600489015260018060a01b0390511660848801525160a060a48801528051958691826101248a0152018888015e8585018701889052516001600160a01b031660c48601525160e485015251610104840152602483015233604483018190526064830152601f01601f191681010301925af1801561021a575f906101e3575b602090604051908152f35b506020813d602011610212575b816101fd602093836105e8565b8101031261020e57602090516101d8565b5f80fd5b3d91506101f0565b6040513d5f823e3d90fd5b3461020e57602036600319011261020e57600435905f8160248160018060a01b038454166328c44a9960e21b82528660048301525afa801561021a575f90610495575b61012001518051810192915060208184031261020e5760208101519067ffffffffffffffff821161020e57019160a08382031261020e57604051906102ac826105b0565b6102b86020850161061f565b8252604084015167ffffffffffffffff811161020e576102e460a0916020806080950191880101610640565b948560208501526102f76060820161061f565b6040850152828101516060850152015191015260808280518101031261020e57610351608060405193610329856105cc565b6103356020820161061f565b855260408101516020860152606081015160408601520161061f565b6060830190815260025460408051632daf79cd60e01b815285516001600160a01b0390811660048301526020808801516024840152929096015160448201529251851660648401529193849160c49183915f91163360848401523360a48401525af191821561021a575f92610460575b506001546040516330088bc960e01b8152600481019290925260248201839052602090829060449082905f906001600160a01b03165af190811561021a575f91610426575b501561041757602090604051908152f35b636c7b6f5560e11b5f5260045ffd5b90506020813d602011610458575b81610441602093836105e8565b8101031261020e5761045290610633565b82610406565b3d9150610434565b9091506020813d60201161048d575b8161047c602093836105e8565b8101031261020e57519060206103c1565b3d915061046f565b503d805f833e6104a581836105e8565b81019060208183031261020e5780519067ffffffffffffffff821161020e57016101408183031261020e5760405190610140820182811067ffffffffffffffff82111761059c5760405280518252602081015160208301526105096040820161060a565b604083015261051a6060820161060a565b606083015261052b6080820161060a565b608083015260a081015160a083015261054660c0820161061f565b60c083015261055760e0820161061f565b60e08301526105696101008201610633565b6101008301526101208101519267ffffffffffffffff841161020e57610120936105939201610640565b82820152610268565b634e487b7160e01b5f52604160045260245ffd5b60a0810190811067ffffffffffffffff82111761059c57604052565b6080810190811067ffffffffffffffff82111761059c57604052565b90601f8019910116810190811067ffffffffffffffff82111761059c57604052565b519067ffffffffffffffff8216820361020e57565b51906001600160a01b038216820361020e57565b5190811515820361020e57565b81601f8201121561020e5780519067ffffffffffffffff821161059c5760405192610675601f8401601f1916602001856105e8565b8284526020838301011161020e57815f9260208093018386015e830101529056fea2646970667358221220374a455dc5593bbc1cb2e528c99a7f76abcb9d37ae5b17ff74538c8871b27b6064736f6c634300081b0033","linkReferences":{}},"methodIdentifiers":{"buyErc1155ForErc1155(address,uint256,uint256,address,uint256,uint256,uint64)":"78a56f8f","payErc1155ForErc1155(bytes32)":"33666e5f"},"id":98}