{"abi":[{"type":"constructor","inputs":[{"name":"_eas","type":"address","internalType":"contract IEAS"},{"name":"_erc1155Escrow","type":"address","internalType":"contract ERC1155EscrowObligation"},{"name":"_erc1155Payment","type":"address","internalType":"contract ERC1155PaymentObligation"}],"stateMutability":"nonpayable"},{"type":"function","name":"buyErc1155ForErc1155","inputs":[{"name":"bidToken","type":"address","internalType":"address"},{"name":"bidTokenId","type":"uint256","internalType":"uint256"},{"name":"bidAmount","type":"uint256","internalType":"uint256"},{"name":"askToken","type":"address","internalType":"address"},{"name":"askId","type":"uint256","internalType":"uint256"},{"name":"askAmount","type":"uint256","internalType":"uint256"},{"name":"expiration","type":"uint64","internalType":"uint64"}],"outputs":[{"name":"","type":"bytes32","internalType":"bytes32"}],"stateMutability":"nonpayable"},{"type":"function","name":"payErc1155ForErc1155","inputs":[{"name":"buyAttestation","type":"bytes32","internalType":"bytes32"}],"outputs":[{"name":"","type":"bytes32","internalType":"bytes32"}],"stateMutability":"nonpayable"},{"type":"error","name":"CouldntCollectPayment","inputs":[]}],"bytecode":{"object":"0x60803460b957601f61079e38819003918201601f19168301916001600160401b0383118484101760bd5780849260609460405283398101031260b95780516001600160a01b038116919082900360b95760208101516001600160a01b038116919082900360b957604001516001600160a01b038116929083900360b95760018060a01b03195f5416175f5560018060a01b0319600154161760015560018060a01b031960025416176002556040516106cc90816100d28239f35b5f80fd5b634e487b7160e01b5f52604160045260245ffdfe6080806040526004361015610012575f80fd5b5f3560e01c90816333666e5f1461022457506378a56f8f14610032575f80fd5b3461020d5760e036600319011261020d576004356001600160a01b0381169081900361020d576064356001600160a01b0381169081900361020d5760c4359067ffffffffffffffff821680920361020d5760209160018060a01b0360015416905f61014460018060a01b036002541696604051956100af876105cc565b86526084358787015260a4356040870152336060870152610105604051968888019060609060018060a01b03815116835260208101516020840152604081015160408401528160018060a01b0391015116910152565b6080865261011460a0876105e8565b60405190610121826105b0565b81528680820194602435865260408301976044358952606084019a8b52608084019081526040519a8b998a98899663797b468160e01b88526080600489015260018060a01b0390511660848801525160a48701525160c486015260018060a01b0390511660e48501525160a0610104850152805192839182610124870152018585015e848483850101526024830152336044830152336064830152601f801991011681010301925af18015610219575f906101e2575b602090604051908152f35b506020813d602011610211575b816101fc602093836105e8565b8101031261020d57602090516101d7565b5f80fd5b3d91506101ef565b6040513d5f823e3d90fd5b3461020d57602036600319011261020d57600435905f8160248160018060a01b038454166328c44a9960e21b82528660048301525afa8015610219575f90610495575b61012001518051810192915060208184031261020d5760208101519067ffffffffffffffff821161020d570160a08184031261020d57604051906102aa826105b0565b6102b66020820161061f565b825260408101516020830152606081015160408301526102d86080820161061f565b606083015260a08101519067ffffffffffffffff821161020d576020610305928160809701920101610640565b928391015260808280518101031261020d57610351608060405193610329856105cc565b6103356020820161061f565b855260408101516020860152606081015160408601520161061f565b6060830190815260025460408051632daf79cd60e01b815285516001600160a01b0390811660048301526020808801516024840152929096015160448201529251851660648401529193849160c49183915f91163360848401523360a48401525af1918215610219575f92610460575b506001546040516330088bc960e01b8152600481019290925260248201839052602090829060449082905f906001600160a01b03165af1908115610219575f91610426575b501561041757602090604051908152f35b636c7b6f5560e11b5f5260045ffd5b90506020813d602011610458575b81610441602093836105e8565b8101031261020d5761045290610633565b82610406565b3d9150610434565b9091506020813d60201161048d575b8161047c602093836105e8565b8101031261020d57519060206103c1565b3d915061046f565b503d805f833e6104a581836105e8565b81019060208183031261020d5780519067ffffffffffffffff821161020d57016101408183031261020d5760405190610140820182811067ffffffffffffffff82111761059c5760405280518252602081015160208301526105096040820161060a565b604083015261051a6060820161060a565b606083015261052b6080820161060a565b608083015260a081015160a083015261054660c0820161061f565b60c083015261055760e0820161061f565b60e08301526105696101008201610633565b6101008301526101208101519267ffffffffffffffff841161020d57610120936105939201610640565b82820152610267565b634e487b7160e01b5f52604160045260245ffd5b60a0810190811067ffffffffffffffff82111761059c57604052565b6080810190811067ffffffffffffffff82111761059c57604052565b90601f8019910116810190811067ffffffffffffffff82111761059c57604052565b519067ffffffffffffffff8216820361020d57565b51906001600160a01b038216820361020d57565b5190811515820361020d57565b81601f8201121561020d5780519067ffffffffffffffff821161059c5760405192610675601f8401601f1916602001856105e8565b8284526020838301011161020d57815f9260208093018386015e830101529056fea264697066735822122053a55a60b08aa86871dfab9683ffc9c82c1d421052604cb55106bf97f99b678264736f6c634300081a0033","linkReferences":{}},"methodIdentifiers":{"buyErc1155ForErc1155(address,uint256,uint256,address,uint256,uint256,uint64)":"78a56f8f","payErc1155ForErc1155(bytes32)":"33666e5f"},"id":67}