{"abi":[{"type":"constructor","inputs":[{"name":"_eas","type":"address","internalType":"contract IEAS"},{"name":"_bundleEscrow","type":"address","internalType":"contract TokenBundleEscrowObligation"},{"name":"_bundlePayment","type":"address","internalType":"contract TokenBundlePaymentObligation"}],"stateMutability":"nonpayable"},{"type":"function","name":"buyBundleForBundle","inputs":[{"name":"bidBundle","type":"tuple","internalType":"struct TokenBundleEscrowObligation.StatementData","components":[{"name":"erc20Tokens","type":"address[]","internalType":"address[]"},{"name":"erc20Amounts","type":"uint256[]","internalType":"uint256[]"},{"name":"erc721Tokens","type":"address[]","internalType":"address[]"},{"name":"erc721TokenIds","type":"uint256[]","internalType":"uint256[]"},{"name":"erc1155Tokens","type":"address[]","internalType":"address[]"},{"name":"erc1155TokenIds","type":"uint256[]","internalType":"uint256[]"},{"name":"erc1155Amounts","type":"uint256[]","internalType":"uint256[]"},{"name":"arbiter","type":"address","internalType":"address"},{"name":"demand","type":"bytes","internalType":"bytes"}]},{"name":"askBundle","type":"tuple","internalType":"struct TokenBundlePaymentObligation.StatementData","components":[{"name":"erc20Tokens","type":"address[]","internalType":"address[]"},{"name":"erc20Amounts","type":"uint256[]","internalType":"uint256[]"},{"name":"erc721Tokens","type":"address[]","internalType":"address[]"},{"name":"erc721TokenIds","type":"uint256[]","internalType":"uint256[]"},{"name":"erc1155Tokens","type":"address[]","internalType":"address[]"},{"name":"erc1155TokenIds","type":"uint256[]","internalType":"uint256[]"},{"name":"erc1155Amounts","type":"uint256[]","internalType":"uint256[]"},{"name":"payee","type":"address","internalType":"address"}]},{"name":"expiration","type":"uint64","internalType":"uint64"}],"outputs":[{"name":"","type":"bytes32","internalType":"bytes32"}],"stateMutability":"nonpayable"},{"type":"function","name":"payBundleForBundle","inputs":[{"name":"buyAttestation","type":"bytes32","internalType":"bytes32"}],"outputs":[{"name":"","type":"bytes32","internalType":"bytes32"}],"stateMutability":"nonpayable"},{"type":"function","name":"permitAndEscrowBundle","inputs":[{"name":"data","type":"tuple","internalType":"struct TokenBundleEscrowObligation.StatementData","components":[{"name":"erc20Tokens","type":"address[]","internalType":"address[]"},{"name":"erc20Amounts","type":"uint256[]","internalType":"uint256[]"},{"name":"erc721Tokens","type":"address[]","internalType":"address[]"},{"name":"erc721TokenIds","type":"uint256[]","internalType":"uint256[]"},{"name":"erc1155Tokens","type":"address[]","internalType":"address[]"},{"name":"erc1155TokenIds","type":"uint256[]","internalType":"uint256[]"},{"name":"erc1155Amounts","type":"uint256[]","internalType":"uint256[]"},{"name":"arbiter","type":"address","internalType":"address"},{"name":"demand","type":"bytes","internalType":"bytes"}]},{"name":"expiration","type":"uint64","internalType":"uint64"},{"name":"permits","type":"tuple[]","internalType":"struct TokenBundleBarterUtils.ERC20PermitSignature[]","components":[{"name":"v","type":"uint8","internalType":"uint8"},{"name":"r","type":"bytes32","internalType":"bytes32"},{"name":"s","type":"bytes32","internalType":"bytes32"},{"name":"deadline","type":"uint256","internalType":"uint256"}]}],"outputs":[{"name":"","type":"bytes32","internalType":"bytes32"}],"stateMutability":"nonpayable"},{"type":"function","name":"permitAndEscrowBundleForBundle","inputs":[{"name":"bidBundle","type":"tuple","internalType":"struct TokenBundleEscrowObligation.StatementData","components":[{"name":"erc20Tokens","type":"address[]","internalType":"address[]"},{"name":"erc20Amounts","type":"uint256[]","internalType":"uint256[]"},{"name":"erc721Tokens","type":"address[]","internalType":"address[]"},{"name":"erc721TokenIds","type":"uint256[]","internalType":"uint256[]"},{"name":"erc1155Tokens","type":"address[]","internalType":"address[]"},{"name":"erc1155TokenIds","type":"uint256[]","internalType":"uint256[]"},{"name":"erc1155Amounts","type":"uint256[]","internalType":"uint256[]"},{"name":"arbiter","type":"address","internalType":"address"},{"name":"demand","type":"bytes","internalType":"bytes"}]},{"name":"askBundle","type":"tuple","internalType":"struct TokenBundlePaymentObligation.StatementData","components":[{"name":"erc20Tokens","type":"address[]","internalType":"address[]"},{"name":"erc20Amounts","type":"uint256[]","internalType":"uint256[]"},{"name":"erc721Tokens","type":"address[]","internalType":"address[]"},{"name":"erc721TokenIds","type":"uint256[]","internalType":"uint256[]"},{"name":"erc1155Tokens","type":"address[]","internalType":"address[]"},{"name":"erc1155TokenIds","type":"uint256[]","internalType":"uint256[]"},{"name":"erc1155Amounts","type":"uint256[]","internalType":"uint256[]"},{"name":"payee","type":"address","internalType":"address"}]},{"name":"expiration","type":"uint64","internalType":"uint64"},{"name":"permits","type":"tuple[]","internalType":"struct TokenBundleBarterUtils.ERC20PermitSignature[]","components":[{"name":"v","type":"uint8","internalType":"uint8"},{"name":"r","type":"bytes32","internalType":"bytes32"},{"name":"s","type":"bytes32","internalType":"bytes32"},{"name":"deadline","type":"uint256","internalType":"uint256"}]}],"outputs":[{"name":"","type":"bytes32","internalType":"bytes32"}],"stateMutability":"nonpayable"},{"type":"function","name":"permitAndPayBundle","inputs":[{"name":"data","type":"tuple","internalType":"struct TokenBundlePaymentObligation.StatementData","components":[{"name":"erc20Tokens","type":"address[]","internalType":"address[]"},{"name":"erc20Amounts","type":"uint256[]","internalType":"uint256[]"},{"name":"erc721Tokens","type":"address[]","internalType":"address[]"},{"name":"erc721TokenIds","type":"uint256[]","internalType":"uint256[]"},{"name":"erc1155Tokens","type":"address[]","internalType":"address[]"},{"name":"erc1155TokenIds","type":"uint256[]","internalType":"uint256[]"},{"name":"erc1155Amounts","type":"uint256[]","internalType":"uint256[]"},{"name":"payee","type":"address","internalType":"address"}]},{"name":"permits","type":"tuple[]","internalType":"struct TokenBundleBarterUtils.ERC20PermitSignature[]","components":[{"name":"v","type":"uint8","internalType":"uint8"},{"name":"r","type":"bytes32","internalType":"bytes32"},{"name":"s","type":"bytes32","internalType":"bytes32"},{"name":"deadline","type":"uint256","internalType":"uint256"}]}],"outputs":[{"name":"","type":"bytes32","internalType":"bytes32"}],"stateMutability":"nonpayable"},{"type":"function","name":"permitAndPayBundleForBundle","inputs":[{"name":"buyAttestation","type":"bytes32","internalType":"bytes32"},{"name":"permits","type":"tuple[]","internalType":"struct TokenBundleBarterUtils.ERC20PermitSignature[]","components":[{"name":"v","type":"uint8","internalType":"uint8"},{"name":"r","type":"bytes32","internalType":"bytes32"},{"name":"s","type":"bytes32","internalType":"bytes32"},{"name":"deadline","type":"uint256","internalType":"uint256"}]}],"outputs":[{"name":"","type":"bytes32","internalType":"bytes32"}],"stateMutability":"nonpayable"},{"type":"error","name":"CouldntCollectPayment","inputs":[]},{"type":"error","name":"InvalidSignatureLength","inputs":[]}],"bytecode":{"object":"0x60803460b957601f611b0638819003918201601f19168301916001600160401b0383118484101760bd5780849260609460405283398101031260b95780516001600160a01b038116919082900360b95760208101516001600160a01b038116919082900360b957604001516001600160a01b038116929083900360b95760018060a01b03195f5416175f5560018060a01b0319600154161760015560018060a01b03196002541617600255604051611a3490816100d28239f35b5f80fd5b634e487b7160e01b5f52604160045260245ffdfe60806040526004361015610011575f80fd5b5f3560e01c80631b9e2f4414610a8a5780631f5c0228146108df57806362301052146105dc578063b7e7712e14610424578063e8be0b83146103785763eb71177f1461005b575f80fd5b346101d15760403660031901126101d1576004356001600160401b0381116101d157806004019061010060031982360301126101d1576024356001600160401b0381116101d1576100b0903690600401610b11565b926100bb81806114af565b9050840361036957602483015f5b6100d383806114af565b90508110156101d5576100e683806114af565b6001600160a01b03916100fa9184916114e4565b610103906114f4565b600254911691906001600160a01b03168161011e85876114af565b61012892916114e4565b3592610135838a89611450565b6060013590610145848b8a611450565b61014e90611460565b9461015a858c8b611450565b602001359361016a868d8c611450565b6040013590833b156101d15761019c5f969287936040519a8b988997889663d505accf60e01b8852336004890161146e565b03925af19182156101c6576001926101b6575b50016100c9565b5f6101c091610b8d565b5f6101af565b6040513d5f823e3d90fd5b5f80fd5b6102946020610275856102565f878b6102f160018060a01b0360025416956102de6102d36102b36040519c8d9b8c9a8b99631d6f87dd60e01b8b52606060048c015261024461023d8c61016461022b8c80611508565b9190926101006064820152019161153c565b9189611508565b8c83036063190160848e01529061157b565b61026360448a0188611508565b8b83036063190160a48d01529061153c565b6102826064890187611508565b8a83036063190160c48c01529061157b565b6102a16084880186611508565b8983036063190160e48b01529061153c565b6102c060a4870185611508565b888303606319016101048a01529061157b565b9160c4850190611508565b858303606319016101248701529061157b565b906001600160a01b03906103079060e401610bc5565b1661014483015233602483015233604483015203925af180156101c6575f90610336575b602090604051908152f35b506020813d602011610361575b8161035060209383610b8d565b810103126101d1576020905161032b565b3d9150610343565b634be6321b60e01b5f5260045ffd5b346101d15760203660031901126101d15760043560245f60018060a01b03815416604051928380926328c44a9960e21b82528660048301525afa9182156101c6576103f46101006103e46101206020966103fa965f91610402575b500151868082518301019101611188565b01518480825183010191016112ea565b906118dd565b604051908152f35b61041e91503d805f833e6104168183610b8d565b810190610fda565b886103d3565b346101d15760803660031901126101d1576004356001600160401b0381116101d157806004019061012060031982360301126101d157602435916001600160401b0383116101d15761010060031984360301126101d157610483610afb565b906064356001600160401b0381116101d1576104a3903690600401610b11565b9490926104b083806114af565b90508603610369579093602401905f5b6104ca84806114af565b90508110156105b757808588926104fb6104f66104e789806114af565b6001600160a01b0394916114e4565b6114f4565b6001546001600160a01b0316911661051d84610517898b6114af565b906114e4565b35606061052b868887611450565b013592604061055d87610547610542828c8b611450565b611460565b99602061055583838c611450565b013598611450565b013590833b156101d15761058d5f969287936040519a8b988997889663d505accf60e01b8852336004890161146e565b03925af19182156101c6576001926105a7575b50016104c0565b5f6105b191610b8d565b886105a0565b60206103fa83886105d66105cb368a610cb6565b913690600401610e38565b906116b7565b346101d15760603660031901126101d1576004356001600160401b0381116101d15736819003600482016101206003198301126101d157602435906001600160401b0382168092036101d1576044356001600160401b0381116101d157610647903690600401610b11565b94909261065483806114af565b905086036103695790936024850191905f5b61067085806114af565b9050811015610728578086899261068d6104f66104e78a806114af565b6001546001600160a01b031691166106a9846105178a8c6114af565b3560606106b7868887611450565b01359260406106ce87610547610542828c8b611450565b013590833b156101d1576106fe5f969287936040519a8b988997889663d505accf60e01b8852336004890161146e565b03925af19182156101c657600192610718575b5001610666565b5f61072291610b8d565b89610711565b50600492866108318661081e6102d36107fe6107de6107bf61079f60018060a01b03600154169960806040519e8f631367faa560e21b815201528d61078d6107866107738b80611508565b61012060848601526101a485019161153c565b928a611508565b9160a46083198286030191015261157b565b8c6107ad60448b0189611508565b9160c46083198286030191015261153c565b6107cc6064890187611508565b8d83036083190160e48f01529061157b565b6107eb6084880186611508565b8c8303608319016101048e01529061153c565b61080b60a4870185611508565b8b8303608319016101248d01529061157b565b888303608319016101448a01529061157b565b926001600160a01b0361084660e48401610bc5565b1661016487015261010482013590602219018112156101d1570191602460048401359301926001600160401b0381116101d15780360384136101d1576020868095938383985f9584976083198686030161018487015281855286850137858583850101526024840152336044840152336064840152601f8019910116010301925af180156101c6575f9061033657602090604051908152f35b346101d15760403660031901126101d1576004356024356001600160401b0381116101d157610912903690600401610b11565b919060245f60018060a01b03815416604051928380926328c44a9960e21b82528760048301525afa9081156101c65761096861012061097993610100935f91610a70575b50015160208082518301019101611188565b0151602080825183010191016112ea565b8051518403610369579160208301905f5b84518051821015610a64576001600160a01b03906109a9908390611428565b511690600160a01b6001900360025416818551906109c691611428565b51926109d3838a89611450565b60600135906109e3848b8a611450565b6109ec90611460565b946109f8858c8b611450565b6020013593610a08868d8c611450565b6040013590833b156101d157610a3a5f969287936040519a8b988997889663d505accf60e01b8852336004890161146e565b03925af19182156101c657600192610a54575b500161098a565b5f610a5e91610b8d565b87610a4d565b60206103fa87856118dd565b610a8491503d805f833e6104168183610b8d565b88610956565b346101d15760603660031901126101d1576004356001600160401b0381116101d15761012060031982360301126101d1576024356001600160401b0381116101d15761010060031982360301126101d1576020916103fa916105d66105cb610af0610afb565b933690600401610cb6565b604435906001600160401b03821682036101d157565b9181601f840112156101d1578235916001600160401b0383116101d1576020808501948460071b0101116101d157565b61012081019081106001600160401b03821117610b5d57604052565b634e487b7160e01b5f52604160045260245ffd5b61010081019081106001600160401b03821117610b5d57604052565b90601f801991011681019081106001600160401b03821117610b5d57604052565b6001600160401b038111610b5d5760051b60200190565b35906001600160a01b03821682036101d157565b9080601f830112156101d1578135610bf081610bae565b92610bfe6040519485610b8d565b81845260208085019260051b8201019283116101d157602001905b828210610c265750505090565b60208091610c3384610bc5565b815201910190610c19565b9080601f830112156101d1578135610c5581610bae565b92610c636040519485610b8d565b81845260208085019260051b8201019283116101d157602001905b828210610c8b5750505090565b8135815260209182019101610c7e565b6001600160401b038111610b5d57601f01601f191660200190565b9190610120838203126101d157604051610ccf81610b41565b809380356001600160401b0381116101d15783610ced918301610bd9565b825260208101356001600160401b0381116101d15783610d0e918301610c3e565b602083015260408101356001600160401b0381116101d15783610d32918301610bd9565b604083015260608101356001600160401b0381116101d15783610d56918301610c3e565b606083015260808101356001600160401b0381116101d15783610d7a918301610bd9565b608083015260a08101356001600160401b0381116101d15783610d9e918301610c3e565b60a083015260c08101356001600160401b0381116101d15783610dc2918301610c3e565b60c0830152610dd360e08201610bc5565b60e0830152610100810135906001600160401b0382116101d157019082601f830112156101d1578135610e0581610c9b565b93610e136040519586610b8d565b818552602082850101116101d1576020815f9282610100960183880137850101520152565b919091610100818403126101d15760405190610e5382610b71565b819381356001600160401b0381116101d15781610e71918401610bd9565b835260208201356001600160401b0381116101d15781610e92918401610c3e565b602084015260408201356001600160401b0381116101d15781610eb6918401610bd9565b604084015260608201356001600160401b0381116101d15781610eda918401610c3e565b606084015260808201356001600160401b0381116101d15781610efe918401610bd9565b608084015260a08201356001600160401b0381116101d15781610f22918401610c3e565b60a084015260c0820135906001600160401b0382116101d15782610f4f60e09492610f5a94869401610c3e565b60c086015201610bc5565b910152565b51906001600160401b03821682036101d157565b51906001600160a01b03821682036101d157565b519081151582036101d157565b81601f820112156101d157805190610fab82610c9b565b92610fb96040519485610b8d565b828452602083830101116101d157815f9260208093018386015e8301015290565b6020818303126101d1578051906001600160401b0382116101d15701610140818303126101d1576040519161014083018381106001600160401b03821117610b5d57604052815183526020820151602084015261103960408301610f5f565b604084015261104a60608301610f5f565b606084015261105b60808301610f5f565b608084015260a082015160a084015261107660c08301610f73565b60c084015261108760e08301610f73565b60e08401526110996101008301610f87565b6101008401526101208201516001600160401b0381116101d1576110bd9201610f94565b61012082015290565b9080601f830112156101d15781516110dd81610bae565b926110eb6040519485610b8d565b81845260208085019260051b8201019283116101d157602001905b8282106111135750505090565b6020809161112084610f73565b815201910190611106565b9080601f830112156101d157815161114281610bae565b926111506040519485610b8d565b81845260208085019260051b8201019283116101d157602001905b8282106111785750505090565b815181526020918201910161116b565b6020818303126101d1578051906001600160401b0382116101d15701610120818303126101d157604051916111bc83610b41565b81516001600160401b0381116101d157816111d89184016110c6565b835260208201516001600160401b0381116101d157816111f991840161112b565b602084015260408201516001600160401b0381116101d1578161121d9184016110c6565b604084015260608201516001600160401b0381116101d1578161124191840161112b565b606084015260808201516001600160401b0381116101d157816112659184016110c6565b608084015260a08201516001600160401b0381116101d1578161128991840161112b565b60a084015260c08201516001600160401b0381116101d157816112ad91840161112b565b60c08401526112be60e08301610f73565b60e08401526101008201516001600160401b0381116101d1576112e19201610f94565b61010082015290565b6020818303126101d1578051906001600160401b0382116101d15701610100818303126101d1576040519161131e83610b71565b81516001600160401b0381116101d1578161133a9184016110c6565b835260208201516001600160401b0381116101d1578161135b91840161112b565b602084015260408201516001600160401b0381116101d1578161137f9184016110c6565b604084015260608201516001600160401b0381116101d157816113a391840161112b565b606084015260808201516001600160401b0381116101d157816113c79184016110c6565b608084015260a08201516001600160401b0381116101d157816113eb91840161112b565b60a084015260c0820151916001600160401b0383116101d15761141560e09261142094830161112b565b60c085015201610f73565b60e082015290565b805182101561143c5760209160051b010190565b634e487b7160e01b5f52603260045260245ffd5b919081101561143c5760071b0190565b3560ff811681036101d15790565b9360c095919897969360ff9360e087019a60018060a01b0316875260018060a01b031660208701526040860152606085015216608083015260a08201520152565b903590601e19813603018212156101d157018035906001600160401b0382116101d157602001918160051b360383136101d157565b919081101561143c5760051b0190565b356001600160a01b03811681036101d15790565b9035601e19823603018112156101d15701602081359101916001600160401b0382116101d1578160051b360383136101d157565b916020908281520191905f5b8181106115555750505090565b909192602080600192838060a01b0361156d88610bc5565b168152019401929101611548565b81835290916001600160fb1b0383116101d15760209260051b809284830137010190565b90602080835192838152019201905f5b8181106115bc5750505090565b82516001600160a01b03168452602093840193909201916001016115af565b90602080835192838152019201905f5b8181106115f85750505090565b82518452602093840193909201916001016115eb565b9060e06116a461169261168061166e61165c61164a61163889516101008a526101008a019061159f565b60208a015189820360208b01526115db565b604089015188820360408a015261159f565b606088015187820360608901526115db565b6080870151868203608088015261159f565b60a086015185820360a08701526115db565b60c085015184820360c08601526115db565b928101516001600160a01b031691015290565b9091600160a01b60019003600154169180519060208101519260408201519560608301519260808101519060a08101519060c0015191600160a01b60019003600254169560405180956020820160209052604082016117159161160e565b03601f19810186526117279086610b8d565b6040519761173489610b41565b885260208801988952604088019a8b52606088019081526080880191825260a0880192835260c0880193845260e0880196875261010088019485526040519a8b998a99631367faa560e21b8b5260048b01608090525160848b0161012090526101a48b016117a19161159f565b90518a82036083190160a48c01526117b991906115db565b90518982036083190160c48b01526117d1919061159f565b90518882036083190160e48a01526117e991906115db565b905187820360831901610104890152611802919061159f565b90518682036083190161012488015261181b91906115db565b90518582036083190161014487015261183491906115db565b92516001600160a01b0316610164850152518383036083190161018485015280518084529190829060209081019085015e8183016020015f90526001600160401b03166024840152336044840152336064840152601f1990601f01160103602001815a6020945f91f19081156101c6575f916118ae575090565b90506020813d6020116118d5575b816118c960209383610b8d565b810103126101d1575190565b3d91506118bc565b60206119145f9360018060a01b036002541690604051958680948193631d6f87dd60e01b835260606004840152606483019061160e565b33602483015233604483015203925af19182156101c6575f926119c9575b506001546040516330088bc960e01b8152600481019290925260248201839052602090829060449082905f906001600160a01b03165af19081156101c6575f9161198f575b50156119805790565b636c7b6f5560e11b5f5260045ffd5b90506020813d6020116119c1575b816119aa60209383610b8d565b810103126101d1576119bb90610f87565b5f611977565b3d915061199d565b9091506020813d6020116119f6575b816119e560209383610b8d565b810103126101d15751906020611932565b3d91506119d856fea2646970667358221220bb8d3a12d2ad27fd1201c476b488f23f34fbe5d7bcbee6c3abdc7f970d89634064736f6c634300081a0033","linkReferences":{}},"methodIdentifiers":{"buyBundleForBundle((address[],uint256[],address[],uint256[],address[],uint256[],uint256[],address,bytes),(address[],uint256[],address[],uint256[],address[],uint256[],uint256[],address),uint64)":"1b9e2f44","payBundleForBundle(bytes32)":"e8be0b83","permitAndEscrowBundle((address[],uint256[],address[],uint256[],address[],uint256[],uint256[],address,bytes),uint64,(uint8,bytes32,bytes32,uint256)[])":"62301052","permitAndEscrowBundleForBundle((address[],uint256[],address[],uint256[],address[],uint256[],uint256[],address,bytes),(address[],uint256[],address[],uint256[],address[],uint256[],uint256[],address),uint64,(uint8,bytes32,bytes32,uint256)[])":"b7e7712e","permitAndPayBundle((address[],uint256[],address[],uint256[],address[],uint256[],uint256[],address),(uint8,bytes32,bytes32,uint256)[])":"eb71177f","permitAndPayBundleForBundle(bytes32,(uint8,bytes32,bytes32,uint256)[])":"1f5c0228"},"id":72}