{"abi":[{"type":"constructor","inputs":[{"name":"_eas","type":"address","internalType":"contract IEAS"},{"name":"_schemaRegistry","type":"address","internalType":"contract ISchemaRegistry"}],"stateMutability":"nonpayable"},{"type":"receive","stateMutability":"payable"},{"type":"function","name":"ATTESTATION_SCHEMA","inputs":[],"outputs":[{"name":"","type":"bytes32","internalType":"bytes32"}],"stateMutability":"view"},{"type":"function","name":"VALIDATION_SCHEMA","inputs":[],"outputs":[{"name":"","type":"bytes32","internalType":"bytes32"}],"stateMutability":"view"},{"type":"function","name":"attest","inputs":[{"name":"attestation","type":"tuple","internalType":"struct Attestation","components":[{"name":"uid","type":"bytes32","internalType":"bytes32"},{"name":"schema","type":"bytes32","internalType":"bytes32"},{"name":"time","type":"uint64","internalType":"uint64"},{"name":"expirationTime","type":"uint64","internalType":"uint64"},{"name":"revocationTime","type":"uint64","internalType":"uint64"},{"name":"refUID","type":"bytes32","internalType":"bytes32"},{"name":"recipient","type":"address","internalType":"address"},{"name":"attester","type":"address","internalType":"address"},{"name":"revocable","type":"bool","internalType":"bool"},{"name":"data","type":"bytes","internalType":"bytes"}]}],"outputs":[{"name":"","type":"bool","internalType":"bool"}],"stateMutability":"payable"},{"type":"function","name":"checkStatement","inputs":[{"name":"statement","type":"tuple","internalType":"struct Attestation","components":[{"name":"uid","type":"bytes32","internalType":"bytes32"},{"name":"schema","type":"bytes32","internalType":"bytes32"},{"name":"time","type":"uint64","internalType":"uint64"},{"name":"expirationTime","type":"uint64","internalType":"uint64"},{"name":"revocationTime","type":"uint64","internalType":"uint64"},{"name":"refUID","type":"bytes32","internalType":"bytes32"},{"name":"recipient","type":"address","internalType":"address"},{"name":"attester","type":"address","internalType":"address"},{"name":"revocable","type":"bool","internalType":"bool"},{"name":"data","type":"bytes","internalType":"bytes"}]},{"name":"demand","type":"bytes","internalType":"bytes"},{"name":"","type":"bytes32","internalType":"bytes32"}],"outputs":[{"name":"","type":"bool","internalType":"bool"}],"stateMutability":"view"},{"type":"function","name":"collectPayment","inputs":[{"name":"_escrow","type":"bytes32","internalType":"bytes32"},{"name":"_fulfillment","type":"bytes32","internalType":"bytes32"}],"outputs":[{"name":"","type":"bytes32","internalType":"bytes32"}],"stateMutability":"nonpayable"},{"type":"function","name":"decodeStatementData","inputs":[{"name":"data","type":"bytes","internalType":"bytes"}],"outputs":[{"name":"","type":"tuple","internalType":"struct AttestationEscrowObligation2.StatementData","components":[{"name":"arbiter","type":"address","internalType":"address"},{"name":"demand","type":"bytes","internalType":"bytes"},{"name":"attestationUid","type":"bytes32","internalType":"bytes32"}]}],"stateMutability":"pure"},{"type":"function","name":"getSchema","inputs":[],"outputs":[{"name":"","type":"tuple","internalType":"struct SchemaRecord","components":[{"name":"uid","type":"bytes32","internalType":"bytes32"},{"name":"resolver","type":"address","internalType":"contract ISchemaResolver"},{"name":"revocable","type":"bool","internalType":"bool"},{"name":"schema","type":"string","internalType":"string"}]}],"stateMutability":"view"},{"type":"function","name":"getStatement","inputs":[{"name":"uid","type":"bytes32","internalType":"bytes32"}],"outputs":[{"name":"","type":"tuple","internalType":"struct Attestation","components":[{"name":"uid","type":"bytes32","internalType":"bytes32"},{"name":"schema","type":"bytes32","internalType":"bytes32"},{"name":"time","type":"uint64","internalType":"uint64"},{"name":"expirationTime","type":"uint64","internalType":"uint64"},{"name":"revocationTime","type":"uint64","internalType":"uint64"},{"name":"refUID","type":"bytes32","internalType":"bytes32"},{"name":"recipient","type":"address","internalType":"address"},{"name":"attester","type":"address","internalType":"address"},{"name":"revocable","type":"bool","internalType":"bool"},{"name":"data","type":"bytes","internalType":"bytes"}]}],"stateMutability":"view"},{"type":"function","name":"getStatementData","inputs":[{"name":"uid","type":"bytes32","internalType":"bytes32"}],"outputs":[{"name":"","type":"tuple","internalType":"struct AttestationEscrowObligation2.StatementData","components":[{"name":"arbiter","type":"address","internalType":"address"},{"name":"demand","type":"bytes","internalType":"bytes"},{"name":"attestationUid","type":"bytes32","internalType":"bytes32"}]}],"stateMutability":"view"},{"type":"function","name":"isPayable","inputs":[],"outputs":[{"name":"","type":"bool","internalType":"bool"}],"stateMutability":"pure"},{"type":"function","name":"makeStatement","inputs":[{"name":"data","type":"tuple","internalType":"struct AttestationEscrowObligation2.StatementData","components":[{"name":"arbiter","type":"address","internalType":"address"},{"name":"demand","type":"bytes","internalType":"bytes"},{"name":"attestationUid","type":"bytes32","internalType":"bytes32"}]},{"name":"expirationTime","type":"uint64","internalType":"uint64"}],"outputs":[{"name":"uid_","type":"bytes32","internalType":"bytes32"}],"stateMutability":"nonpayable"},{"type":"function","name":"makeStatementFor","inputs":[{"name":"data","type":"tuple","internalType":"struct AttestationEscrowObligation2.StatementData","components":[{"name":"arbiter","type":"address","internalType":"address"},{"name":"demand","type":"bytes","internalType":"bytes"},{"name":"attestationUid","type":"bytes32","internalType":"bytes32"}]},{"name":"expirationTime","type":"uint64","internalType":"uint64"},{"name":"recipient","type":"address","internalType":"address"}],"outputs":[{"name":"uid_","type":"bytes32","internalType":"bytes32"}],"stateMutability":"nonpayable"},{"type":"function","name":"multiAttest","inputs":[{"name":"attestations","type":"tuple[]","internalType":"struct Attestation[]","components":[{"name":"uid","type":"bytes32","internalType":"bytes32"},{"name":"schema","type":"bytes32","internalType":"bytes32"},{"name":"time","type":"uint64","internalType":"uint64"},{"name":"expirationTime","type":"uint64","internalType":"uint64"},{"name":"revocationTime","type":"uint64","internalType":"uint64"},{"name":"refUID","type":"bytes32","internalType":"bytes32"},{"name":"recipient","type":"address","internalType":"address"},{"name":"attester","type":"address","internalType":"address"},{"name":"revocable","type":"bool","internalType":"bool"},{"name":"data","type":"bytes","internalType":"bytes"}]},{"name":"values","type":"uint256[]","internalType":"uint256[]"}],"outputs":[{"name":"","type":"bool","internalType":"bool"}],"stateMutability":"payable"},{"type":"function","name":"multiRevoke","inputs":[{"name":"attestations","type":"tuple[]","internalType":"struct Attestation[]","components":[{"name":"uid","type":"bytes32","internalType":"bytes32"},{"name":"schema","type":"bytes32","internalType":"bytes32"},{"name":"time","type":"uint64","internalType":"uint64"},{"name":"expirationTime","type":"uint64","internalType":"uint64"},{"name":"revocationTime","type":"uint64","internalType":"uint64"},{"name":"refUID","type":"bytes32","internalType":"bytes32"},{"name":"recipient","type":"address","internalType":"address"},{"name":"attester","type":"address","internalType":"address"},{"name":"revocable","type":"bool","internalType":"bool"},{"name":"data","type":"bytes","internalType":"bytes"}]},{"name":"values","type":"uint256[]","internalType":"uint256[]"}],"outputs":[{"name":"","type":"bool","internalType":"bool"}],"stateMutability":"payable"},{"type":"function","name":"revoke","inputs":[{"name":"attestation","type":"tuple","internalType":"struct Attestation","components":[{"name":"uid","type":"bytes32","internalType":"bytes32"},{"name":"schema","type":"bytes32","internalType":"bytes32"},{"name":"time","type":"uint64","internalType":"uint64"},{"name":"expirationTime","type":"uint64","internalType":"uint64"},{"name":"revocationTime","type":"uint64","internalType":"uint64"},{"name":"refUID","type":"bytes32","internalType":"bytes32"},{"name":"recipient","type":"address","internalType":"address"},{"name":"attester","type":"address","internalType":"address"},{"name":"revocable","type":"bool","internalType":"bool"},{"name":"data","type":"bytes","internalType":"bytes"}]}],"outputs":[{"name":"","type":"bool","internalType":"bool"}],"stateMutability":"payable"},{"type":"function","name":"version","inputs":[],"outputs":[{"name":"","type":"string","internalType":"string"}],"stateMutability":"view"},{"type":"event","name":"EscrowClaimed","inputs":[{"name":"payment","type":"bytes32","indexed":true,"internalType":"bytes32"},{"name":"fulfillment","type":"bytes32","indexed":true,"internalType":"bytes32"},{"name":"fulfiller","type":"address","indexed":true,"internalType":"address"}],"anonymous":false},{"type":"event","name":"EscrowMade","inputs":[{"name":"payment","type":"bytes32","indexed":true,"internalType":"bytes32"},{"name":"buyer","type":"address","indexed":true,"internalType":"address"}],"anonymous":false},{"type":"error","name":"AccessDenied","inputs":[]},{"type":"error","name":"AttestationRevoked","inputs":[]},{"type":"error","name":"DeadlineExpired","inputs":[]},{"type":"error","name":"InsufficientValue","inputs":[]},{"type":"error","name":"InvalidEAS","inputs":[]},{"type":"error","name":"InvalidEscrowAttestation","inputs":[]},{"type":"error","name":"InvalidFulfillment","inputs":[]},{"type":"error","name":"InvalidLength","inputs":[]},{"type":"error","name":"InvalidSchema","inputs":[]},{"type":"error","name":"NotFromStatement","inputs":[]},{"type":"error","name":"NotPayable","inputs":[]},{"type":"error","name":"UnauthorizedCall","inputs":[]}],"bytecode":{"object":"0x610180806040523461027e57604081611aed803803809161002082856102ea565b83398101031261027e578051906001600160a01b0382169081830361027e57602001516001600160a01b038116929083810361027e5760405190606082016001600160401b038111838210176102d6576040526035825260208201937f6164647265737320617262697465722c2062797465732064656d616e642c206285527f797465733332206174746573746174696f6e556964000000000000000000000060408401526001608052600360a0525f60c052156102c7578260209360e0526101205261010052608460405180948193630c1af44f60e31b8352606060048401525180918160648501528484015e5f83828401015230602483015260016044830152601f801991011681010301815f865af190811561028a575f91610295575b505f916020916101405260a460405180948193630c1af44f60e31b835260606004840152601f60648401527f627974657333322076616c6964617465644174746573746174696f6e556964006084840152306024840152600160448401525af190811561028a575f91610254575b50610160526040516117df908161030e823960805181610744015260a05181610770015260c0518161079b015260e051816117510152610100518161049801526101205181818161033b0152818161064b0152818161085301526114f301526101405181818161037b0152818161046601528181610683015281816107000152818161097d015281816110d101526114af0152610160518181816102c40152610a510152f35b90506020813d602011610282575b8161026f602093836102ea565b8101031261027e57515f6101ae565b5f80fd5b3d9150610262565b6040513d5f823e3d90fd5b90506020813d6020116102bf575b816102b0602093836102ea565b8101031261027e57515f610140565b3d91506102a3565b6341bc07ff60e11b5f5260045ffd5b634e487b7160e01b5f52604160045260245ffd5b601f909101601f19168101906001600160401b038211908210176102d65760405256fe6080806040526004361015610029575b50361561001a575f80fd5b631574f9f360e01b5f5260045ffd5b5f905f3560e01c9081631272ff8b14610bdb5750806330088bc91461082857806354fd4d50146107235780635bf2f20d146106e85780635cc02d2f146105cf5780636b122fe01461042557806388e5b2d91461040657806391db0b7e14610406578063c75c572b14610303578063ce46e046146102e7578063df61dd2c146102ac578063e112ea08146101be578063e49617e114610199578063e60c350514610199578063eda7b8481461014f5763fae692300361000f5734610148576060366003190112610148576004356001600160401b03811161014b576060600319823603011261014b57610119610dac565b604435929091906001600160a01b03841684036101485760206101408585856004016113c5565b604051908152f35b80fd5b5080fd5b503461014857604036600319011261014857600435906001600160401b03821161014857606060031983360301126101485760206101408361018f610dac565b33916004016113c5565b60206101b46101a736610fc8565b6101af61174f565b611790565b6040519015158152f35b503461014857602036600319011261014857600435906001600160401b03821161014857366023830112156101485781600401356001600160401b03811161014b5782019160248301903682116102a8576102176113a6565b506020818503126102a8576024810135906001600160401b0382116102a45701926060908490031261014b576040519161025083610d70565b61025c60248501610dd6565b83526044840135906001600160401b03821161014857509261028860649260246102a096840101610e05565b60208401520135604082015260405191829182610f91565b0390f35b8380fd5b8280fd5b503461014857806003193601126101485760206040517f00000000000000000000000000000000000000000000000000000000000000008152f35b5034610148578060031936011261014857602090604051908152f35b50346101485760203660031901126101485761031d6113a6565b506040516328c44a9960e21b815260048035908201529080826024817f00000000000000000000000000000000000000000000000000000000000000006001600160a01b03165afa9182156103f95781926103d5575b5060208201517f0000000000000000000000000000000000000000000000000000000000000000036103c6576102a06103ba61012084015160208082518301019101611060565b60405191829182610f91565b63629cd40b60e11b8152600490fd5b6103f29192503d8084833e6103ea8183610d8b565b8101906111ba565b905f610373565b50604051903d90823e3d90fd5b60206101b461041436610f41565b9261042092919261174f565b611302565b503461014857806003193601126101485760608060405161044581610d55565b8381528360208201528360408201520152604051906351753e3760e11b82527f00000000000000000000000000000000000000000000000000000000000000006004830152808260248160018060a01b037f0000000000000000000000000000000000000000000000000000000000000000165afa9081156105c357809161050e575b6060826102a0604051928392602084528051602085015260018060a01b0360208201511660408501526040810151151582850152015160808084015260a0830190610e4b565b90503d8082843e61051f8184610d8b565b82019160208184031261014b578051906001600160401b0382116102a8570190608082840312610148576040519161055683610d55565b8051835260208101516001600160a01b03811681036102a8576020840152610580604082016111ad565b60408401526060810151906001600160401b0382116102a857019083601f8301121561014857506060928160206105b993519101611010565b828201525f6104c8565b604051903d90823e3d90fd5b50346101485760203660031901126101485760606101206040516105f281610cef565b83815283602082015283604082015283838201528360808201528360a08201528360c08201528360e0820152836101008201520152604051906328c44a9960e21b82526004356004830152808260248160018060a01b037f0000000000000000000000000000000000000000000000000000000000000000165afa9182156103f95781926106cc575b5060208201517f0000000000000000000000000000000000000000000000000000000000000000036106bd57604051602080825281906102a090820185610e6f565b63295d5f3960e01b8152600490fd5b6106e19192503d8084833e6103ea8183610d8b565b905f61067b565b503461014857806003193601126101485760206040517f00000000000000000000000000000000000000000000000000000000000000008152f35b5034610148578060031936011261014857602061081460016102a0936107687f00000000000000000000000000000000000000000000000000000000000000006115e2565b9082856107947f00000000000000000000000000000000000000000000000000000000000000006115e2565b81806107bf7f00000000000000000000000000000000000000000000000000000000000000006115e2565b926040519a888c995191829101848b015e880190601760f91b83830152805192839101602183015e010190601760f91b84830152805192839101600283015e010190838201520301601f198101835282610d8b565b604051918291602083526020830190610e4b565b5034610b0b576040366003190112610b0b576040516328c44a9960e21b8152600480359082018190527f00000000000000000000000000000000000000000000000000000000000000006001600160a01b031692919060248035905f90849081885afa928315610b42575f93610bbf575b506040516328c44a9960e21b8152600481018290525f81602481895afa908115610b42575f91610ba5575b506108ce84611587565b15610b96576108eb61012085015160208082518301019101611060565b93602061093b60018060a01b0387511682880151935193604051809581948293631272ff8b60e01b845260606004850152610929606485018b610e6f565b84810360031901602486015290610e4b565b90604483015203915afa908115610b42575f91610b5c575b5015610b4d5760405161096581610d1f565b8381525f60208201526040519061097b82610d1f565b7f0000000000000000000000000000000000000000000000000000000000000000825260208201908152873b15610b0b57604051634692626760e01b81529151600483015251805160248301526020015160448201525f81606481838b5af18015610b4257610b22575b50610a92859660c06020930195604060018060a01b03885116910151604051908086830152858252610a18604083610d8b565b60405192610a2584610d3a565b83528986840152896040840152606083015260808201528760a082015260405190610a4f82610d1f565b7f000000000000000000000000000000000000000000000000000000000000000082528482015260405198898094819363f17325e760e01b835260048301611295565b03925af1928315610b17578493610ade575b6020955060018060a01b03905116917fd903ca32e81477af89f5b8a6ce888d185cc715390e49474a77b4c6846254cccd6040519580a48152f35b92506020853d602011610b0f575b81610af960209383610d8b565b81010312610b0b576020945192610aa4565b5f80fd5b3d9150610aec565b6040513d86823e3d90fd5b602091955060c096610b375f610a9293610d8b565b5f96925096506109e5565b6040513d5f823e3d90fd5b630ebe58ef60e11b5f5260045ffd5b90506020813d602011610b8e575b81610b7760209383610d8b565b81010312610b0b57610b88906111ad565b5f610953565b3d9150610b6a565b63629cd40b60e11b5f5260045ffd5b610bb991503d805f833e6103ea8183610d8b565b5f6108c4565b610bd49193503d805f833e6103ea8183610d8b565b915f610899565b34610b0b576060366003190112610b0b576004356001600160401b038111610b0b576101406003198236030112610b0b57610c1582610cef565b8060040135825260248101356020830152610c3260448201610dc2565b6040830152610c4360648201610dc2565b6060830152610c5460848201610dc2565b608083015260a481013560a0830152610c6f60c48201610dd6565b60c0830152610c8060e48201610dd6565b60e08301526101048101358015158103610b0b57610100830152610124810135906001600160401b038211610b0b576004610cbe9236920101610e05565b6101208201526024356001600160401b038111610b0b57602091610ce96101b4923690600401610e05565b906110cf565b61014081019081106001600160401b03821117610d0b57604052565b634e487b7160e01b5f52604160045260245ffd5b604081019081106001600160401b03821117610d0b57604052565b60c081019081106001600160401b03821117610d0b57604052565b608081019081106001600160401b03821117610d0b57604052565b606081019081106001600160401b03821117610d0b57604052565b90601f801991011681019081106001600160401b03821117610d0b57604052565b602435906001600160401b0382168203610b0b57565b35906001600160401b0382168203610b0b57565b35906001600160a01b0382168203610b0b57565b6001600160401b038111610d0b57601f01601f191660200190565b81601f82011215610b0b57803590610e1c82610dea565b92610e2a6040519485610d8b565b82845260208383010111610b0b57815f926020809301838601378301015290565b805180835260209291819084018484015e5f828201840152601f01601f1916010190565b90610140610120610f0e9380518452602081015160208501526001600160401b0360408201511660408501526001600160401b0360608201511660608501526001600160401b03608082015116608085015260a081015160a085015260018060a01b0360c08201511660c085015260018060a01b0360e08201511660e08501526101008101511515610100850152015191816101208201520190610e4b565b90565b9181601f84011215610b0b578235916001600160401b038311610b0b576020808501948460051b010111610b0b57565b6040600319820112610b0b576004356001600160401b038111610b0b5781610f6b91600401610f11565b92909291602435906001600160401b038211610b0b57610f8d91600401610f11565b9091565b6020815260018060a01b03825116602082015260606040610fbf602085015183838601526080850190610e4b565b93015191015290565b6020600319820112610b0b57600435906001600160401b038211610b0b57610140908290036003190112610b0b5760040190565b51906001600160a01b0382168203610b0b57565b92919261101c82610dea565b9161102a6040519384610d8b565b829481845281830111610b0b578281602093845f96015e010152565b9080601f83011215610b0b578151610f0e92602001611010565b602081830312610b0b578051906001600160401b038211610b0b570190606082820312610b0b576040519161109483610d70565b61109d81610ffc565b835260208101516001600160401b038111610b0b576040926110c0918301611046565b60208401520151604082015290565b7f000000000000000000000000000000000000000000000000000000000000000060208201510361118a5761110381611587565b156111845761112361012061113392015160208082518301019101611060565b9160208082518301019101611060565b6040820151604082015114918261116b575b8261114f57505090565b6020919250810151818151910120910151602081519101201490565b805182516001600160a01b039081169116149250611145565b50505f90565b635f9bd90760e11b5f5260045ffd5b51906001600160401b0382168203610b0b57565b51908115158203610b0b57565b602081830312610b0b578051906001600160401b038211610b0b570161014081830312610b0b57604051916111ee83610cef565b815183526020820151602084015261120860408301611199565b604084015261121960608301611199565b606084015261122a60808301611199565b608084015260a082015160a084015261124560c08301610ffc565b60c084015261125660e08301610ffc565b60e084015261126861010083016111ad565b6101008401526101208201516001600160401b038111610b0b5761128c9201611046565b61012082015290565b9060209081835280518284015201519060408082015260018060a01b0382511660608201526001600160401b0360208301511660808201526040820151151560a0820152606082015160c082015261010060a0610fbf608085015160c060e0860152610120850190610e4b565b929092818403611397575f91345b8584101561138c5781841015611378578360051b80860135908282116113695784013561013e1985360301811215610b0b5761134d908501611790565b1561135e5760019103930192611310565b505050505050505f90565b63044044a560e21b5f5260045ffd5b634e487b7160e01b5f52603260045260245ffd5b505050505050600190565b63251f56a160e21b5f5260045ffd5b604051906113b382610d70565b5f604083828152606060208201520152565b60405160208082015293926001600160a01b036113e183610dd6565b1660408601526020820135601e1983360301811215610b0b57820194602086359601956001600160401b038111610b0b578036038713610b0b5760c082826040602097611462956114ee9c6060808701528160a0870152868601375f85848601015201356080830152601f801991011681010301601f198101835282610d8b565b6001600160401b036040519261147784610d3a565b60018060a01b0316948584521683830152600160408301525f606083015260808201525f60a0820152604051906114ad82610d1f565b7f00000000000000000000000000000000000000000000000000000000000000008252828201526040518095819263f17325e760e01b835260048301611295565b03815f7f00000000000000000000000000000000000000000000000000000000000000006001600160a01b03165af1928315610b42575f93611553575b50827f8f7f2dbafd79125e808bf16a53d7fa4e17b8b6374ced76d946a45f94b7bf4d065f80a3565b9092506020813d60201161157f575b8161156f60209383610d8b565b81010312610b0b5751915f61152b565b3d9150611562565b6001600160401b0360608201511680151590816115d8575b506115c957608001516001600160401b03166115ba57600190565b637b6227e960e11b5f5260045ffd5b631ab7da6b60e01b5f5260045ffd5b905042115f61159f565b805f9172184f03e93ff9f4daa797ed6e38ed64bf6a1f0160401b82101561172c575b806d04ee2d6d415b85acef8100000000600a921015611711575b662386f26fc100008110156116fd575b6305f5e1008110156116ec575b6127108110156116dd575b60648110156116cf575b10156116c4575b600a6021600184019361166985610dea565b946116776040519687610d8b565b808652611686601f1991610dea565b013660208701378401015b5f1901916f181899199a1a9b1b9c1cb0b131b232b360811b8282061a83530480156116bf57600a9091611691565b505090565b600190910190611657565b606460029104930192611650565b61271060049104930192611646565b6305f5e1006008910493019261163b565b662386f26fc100006010910493019261162e565b6d04ee2d6d415b85acef81000000006020910493019261161e565b506040915072184f03e93ff9f4daa797ed6e38ed64bf6a1f0160401b8104611604565b7f00000000000000000000000000000000000000000000000000000000000000006001600160a01b0316330361178157565b634ca8886760e01b5f5260045ffd5b60e0013560018060a01b038116809103610b0b5730149056fea264697066735822122092f1f3f2b5634c98e66a98a0a4ddc4ca838e1702e320d8dd5981d16657f1b0d564736f6c634300081b0033","linkReferences":{}},"methodIdentifiers":{"ATTESTATION_SCHEMA()":"5bf2f20d","VALIDATION_SCHEMA()":"df61dd2c","attest((bytes32,bytes32,uint64,uint64,uint64,bytes32,address,address,bool,bytes))":"e60c3505","checkStatement((bytes32,bytes32,uint64,uint64,uint64,bytes32,address,address,bool,bytes),bytes,bytes32)":"1272ff8b","collectPayment(bytes32,bytes32)":"30088bc9","decodeStatementData(bytes)":"e112ea08","getSchema()":"6b122fe0","getStatement(bytes32)":"5cc02d2f","getStatementData(bytes32)":"c75c572b","isPayable()":"ce46e046","makeStatement((address,bytes,bytes32),uint64)":"eda7b848","makeStatementFor((address,bytes,bytes32),uint64,address)":"fae69230","multiAttest((bytes32,bytes32,uint64,uint64,uint64,bytes32,address,address,bool,bytes)[],uint256[])":"91db0b7e","multiRevoke((bytes32,bytes32,uint64,uint64,uint64,bytes32,address,address,bool,bytes)[],uint256[])":"88e5b2d9","revoke((bytes32,bytes32,uint64,uint64,uint64,bytes32,address,address,bool,bytes))":"e49617e1","version()":"54fd4d50"},"id":85}