{"abi":[{"type":"constructor","inputs":[{"name":"_eas","type":"address","internalType":"contract IEAS"},{"name":"_schemaRegistry","type":"address","internalType":"contract ISchemaRegistry"}],"stateMutability":"nonpayable"},{"type":"receive","stateMutability":"payable"},{"type":"function","name":"ATTESTATION_SCHEMA","inputs":[],"outputs":[{"name":"","type":"bytes32","internalType":"bytes32"}],"stateMutability":"view"},{"type":"function","name":"VALIDATION_SCHEMA","inputs":[],"outputs":[{"name":"","type":"bytes32","internalType":"bytes32"}],"stateMutability":"view"},{"type":"function","name":"attest","inputs":[{"name":"attestation","type":"tuple","internalType":"struct Attestation","components":[{"name":"uid","type":"bytes32","internalType":"bytes32"},{"name":"schema","type":"bytes32","internalType":"bytes32"},{"name":"time","type":"uint64","internalType":"uint64"},{"name":"expirationTime","type":"uint64","internalType":"uint64"},{"name":"revocationTime","type":"uint64","internalType":"uint64"},{"name":"refUID","type":"bytes32","internalType":"bytes32"},{"name":"recipient","type":"address","internalType":"address"},{"name":"attester","type":"address","internalType":"address"},{"name":"revocable","type":"bool","internalType":"bool"},{"name":"data","type":"bytes","internalType":"bytes"}]}],"outputs":[{"name":"","type":"bool","internalType":"bool"}],"stateMutability":"payable"},{"type":"function","name":"checkStatement","inputs":[{"name":"statement","type":"tuple","internalType":"struct Attestation","components":[{"name":"uid","type":"bytes32","internalType":"bytes32"},{"name":"schema","type":"bytes32","internalType":"bytes32"},{"name":"time","type":"uint64","internalType":"uint64"},{"name":"expirationTime","type":"uint64","internalType":"uint64"},{"name":"revocationTime","type":"uint64","internalType":"uint64"},{"name":"refUID","type":"bytes32","internalType":"bytes32"},{"name":"recipient","type":"address","internalType":"address"},{"name":"attester","type":"address","internalType":"address"},{"name":"revocable","type":"bool","internalType":"bool"},{"name":"data","type":"bytes","internalType":"bytes"}]},{"name":"demand","type":"bytes","internalType":"bytes"},{"name":"","type":"bytes32","internalType":"bytes32"}],"outputs":[{"name":"","type":"bool","internalType":"bool"}],"stateMutability":"view"},{"type":"function","name":"collectPayment","inputs":[{"name":"_escrow","type":"bytes32","internalType":"bytes32"},{"name":"_fulfillment","type":"bytes32","internalType":"bytes32"}],"outputs":[{"name":"","type":"bytes32","internalType":"bytes32"}],"stateMutability":"nonpayable"},{"type":"function","name":"getSchema","inputs":[],"outputs":[{"name":"","type":"tuple","internalType":"struct SchemaRecord","components":[{"name":"uid","type":"bytes32","internalType":"bytes32"},{"name":"resolver","type":"address","internalType":"contract ISchemaResolver"},{"name":"revocable","type":"bool","internalType":"bool"},{"name":"schema","type":"string","internalType":"string"}]}],"stateMutability":"view"},{"type":"function","name":"getStatement","inputs":[{"name":"uid","type":"bytes32","internalType":"bytes32"}],"outputs":[{"name":"","type":"tuple","internalType":"struct Attestation","components":[{"name":"uid","type":"bytes32","internalType":"bytes32"},{"name":"schema","type":"bytes32","internalType":"bytes32"},{"name":"time","type":"uint64","internalType":"uint64"},{"name":"expirationTime","type":"uint64","internalType":"uint64"},{"name":"revocationTime","type":"uint64","internalType":"uint64"},{"name":"refUID","type":"bytes32","internalType":"bytes32"},{"name":"recipient","type":"address","internalType":"address"},{"name":"attester","type":"address","internalType":"address"},{"name":"revocable","type":"bool","internalType":"bool"},{"name":"data","type":"bytes","internalType":"bytes"}]}],"stateMutability":"view"},{"type":"function","name":"isPayable","inputs":[],"outputs":[{"name":"","type":"bool","internalType":"bool"}],"stateMutability":"pure"},{"type":"function","name":"makeStatement","inputs":[{"name":"data","type":"tuple","internalType":"struct AttestationEscrowObligation2.StatementData","components":[{"name":"arbiter","type":"address","internalType":"address"},{"name":"demand","type":"bytes","internalType":"bytes"},{"name":"attestationUid","type":"bytes32","internalType":"bytes32"}]},{"name":"expirationTime","type":"uint64","internalType":"uint64"}],"outputs":[{"name":"uid_","type":"bytes32","internalType":"bytes32"}],"stateMutability":"nonpayable"},{"type":"function","name":"makeStatementFor","inputs":[{"name":"data","type":"tuple","internalType":"struct AttestationEscrowObligation2.StatementData","components":[{"name":"arbiter","type":"address","internalType":"address"},{"name":"demand","type":"bytes","internalType":"bytes"},{"name":"attestationUid","type":"bytes32","internalType":"bytes32"}]},{"name":"expirationTime","type":"uint64","internalType":"uint64"},{"name":"recipient","type":"address","internalType":"address"}],"outputs":[{"name":"uid_","type":"bytes32","internalType":"bytes32"}],"stateMutability":"nonpayable"},{"type":"function","name":"multiAttest","inputs":[{"name":"attestations","type":"tuple[]","internalType":"struct Attestation[]","components":[{"name":"uid","type":"bytes32","internalType":"bytes32"},{"name":"schema","type":"bytes32","internalType":"bytes32"},{"name":"time","type":"uint64","internalType":"uint64"},{"name":"expirationTime","type":"uint64","internalType":"uint64"},{"name":"revocationTime","type":"uint64","internalType":"uint64"},{"name":"refUID","type":"bytes32","internalType":"bytes32"},{"name":"recipient","type":"address","internalType":"address"},{"name":"attester","type":"address","internalType":"address"},{"name":"revocable","type":"bool","internalType":"bool"},{"name":"data","type":"bytes","internalType":"bytes"}]},{"name":"values","type":"uint256[]","internalType":"uint256[]"}],"outputs":[{"name":"","type":"bool","internalType":"bool"}],"stateMutability":"payable"},{"type":"function","name":"multiRevoke","inputs":[{"name":"attestations","type":"tuple[]","internalType":"struct Attestation[]","components":[{"name":"uid","type":"bytes32","internalType":"bytes32"},{"name":"schema","type":"bytes32","internalType":"bytes32"},{"name":"time","type":"uint64","internalType":"uint64"},{"name":"expirationTime","type":"uint64","internalType":"uint64"},{"name":"revocationTime","type":"uint64","internalType":"uint64"},{"name":"refUID","type":"bytes32","internalType":"bytes32"},{"name":"recipient","type":"address","internalType":"address"},{"name":"attester","type":"address","internalType":"address"},{"name":"revocable","type":"bool","internalType":"bool"},{"name":"data","type":"bytes","internalType":"bytes"}]},{"name":"values","type":"uint256[]","internalType":"uint256[]"}],"outputs":[{"name":"","type":"bool","internalType":"bool"}],"stateMutability":"payable"},{"type":"function","name":"revoke","inputs":[{"name":"attestation","type":"tuple","internalType":"struct Attestation","components":[{"name":"uid","type":"bytes32","internalType":"bytes32"},{"name":"schema","type":"bytes32","internalType":"bytes32"},{"name":"time","type":"uint64","internalType":"uint64"},{"name":"expirationTime","type":"uint64","internalType":"uint64"},{"name":"revocationTime","type":"uint64","internalType":"uint64"},{"name":"refUID","type":"bytes32","internalType":"bytes32"},{"name":"recipient","type":"address","internalType":"address"},{"name":"attester","type":"address","internalType":"address"},{"name":"revocable","type":"bool","internalType":"bool"},{"name":"data","type":"bytes","internalType":"bytes"}]}],"outputs":[{"name":"","type":"bool","internalType":"bool"}],"stateMutability":"payable"},{"type":"function","name":"version","inputs":[],"outputs":[{"name":"","type":"string","internalType":"string"}],"stateMutability":"view"},{"type":"event","name":"EscrowClaimed","inputs":[{"name":"payment","type":"bytes32","indexed":true,"internalType":"bytes32"},{"name":"fulfillment","type":"bytes32","indexed":true,"internalType":"bytes32"},{"name":"fulfiller","type":"address","indexed":true,"internalType":"address"}],"anonymous":false},{"type":"event","name":"EscrowMade","inputs":[{"name":"payment","type":"bytes32","indexed":true,"internalType":"bytes32"},{"name":"buyer","type":"address","indexed":true,"internalType":"address"}],"anonymous":false},{"type":"error","name":"AccessDenied","inputs":[]},{"type":"error","name":"AttestationRevoked","inputs":[]},{"type":"error","name":"DeadlineExpired","inputs":[]},{"type":"error","name":"InsufficientValue","inputs":[]},{"type":"error","name":"InvalidEAS","inputs":[]},{"type":"error","name":"InvalidEscrowAttestation","inputs":[]},{"type":"error","name":"InvalidFulfillment","inputs":[]},{"type":"error","name":"InvalidLength","inputs":[]},{"type":"error","name":"InvalidSchema","inputs":[]},{"type":"error","name":"NotFromStatement","inputs":[]},{"type":"error","name":"NotPayable","inputs":[]},{"type":"error","name":"UnauthorizedCall","inputs":[]}],"bytecode":{"object":"0x61018080604052346102705760408161189d803803809161002082856102dc565b833981010312610270578051906001600160a01b0382169081830361027057602001516001600160a01b03811692908381036102705760405190606082016001600160401b038111838210176102c8576040526035825260208201937f62797465733332206174746573746174696f6e5569642c20616464726573732085527f617262697465722c2062797465732064656d616e64000000000000000000000060408401526001608052600360a0525f60c052156102b9578260209360e0526101205261010052608460405180948193630c1af44f60e31b8352606060048401525180918160648501528484015e5f83828401015230602483015260016044830152601f801991011681010301815f865af190811561027c575f91610287575b505f916020916101405260a460405180948193630c1af44f60e31b835260606004840152601f60648401527f627974657333322076616c6964617465644174746573746174696f6e556964006084840152306024840152600160448401525af190811561027c575f91610246575b506101605260405161159d908161030082396080518161055a015260a05181610586015260c051816105b1015260e0518161150f0152610100518161029101526101205181818161044c0152818161066901526112b101526101405181818161025f01528181610484015281816105160152818161079301528181610ea5015261126d0152610160518181816101c001526108670152f35b90506020813d602011610274575b81610261602093836102dc565b8101031261027057515f6101ae565b5f80fd5b3d9150610254565b6040513d5f823e3d90fd5b90506020813d6020116102b1575b816102a2602093836102dc565b8101031261027057515f610140565b3d9150610295565b6341bc07ff60e11b5f5260045ffd5b634e487b7160e01b5f52604160045260245ffd5b601f909101601f19168101906001600160401b038211908210176102c85760405256fe6080806040526004361015610029575b50361561001a575f80fd5b631574f9f360e01b5f5260045ffd5b5f905f3560e01c9081631272ff8b146109f15750806330088bc91461063e57806354fd4d50146105395780635bf2f20d146104fe5780635cc02d2f146103d05780636b122fe01461021e57806388e5b2d9146101ff57806391db0b7e146101ff578063ce46e046146101e3578063df61dd2c146101a8578063e49617e114610183578063e60c350514610183578063eda7b848146101395763fae692300361000f5734610132576060366003190112610132576004356001600160401b038111610135576060600319823603011261013557610103610ba7565b604435929091906001600160a01b038416840361013257602061012a858585600401611183565b604051908152f35b80fd5b5080fd5b503461013257604036600319011261013257600435906001600160401b038211610132576060600319833603011261013257602061012a83610179610ba7565b3391600401611183565b602061019e61019136610d8c565b61019961150d565b61154e565b6040519015158152f35b503461013257806003193601126101325760206040517f00000000000000000000000000000000000000000000000000000000000000008152f35b5034610132578060031936011261013257602090604051908152f35b602061019e61020d36610d3c565b9261021992919261150d565b6110df565b503461013257806003193601126101325760608060405161023e81610b6b565b8381528360208201528360408201520152604051906351753e3760e11b82527f00000000000000000000000000000000000000000000000000000000000000006004830152808260248160018060a01b037f0000000000000000000000000000000000000000000000000000000000000000165afa9081156103c457809161030b575b606082610307604051928392602084528051602085015260018060a01b0360208201511660408501526040810151151582850152015160808084015260a0830190610c46565b0390f35b90503d8082843e61031c8184610b86565b820191602081840312610135578051906001600160401b0382116103c0570190608082840312610132576040519161035383610b6b565b8051835260208101516001600160a01b03811681036103c057602084015261037d60408201610f81565b60408401526060810151906001600160401b0382116103c057019083601f8301121561013257506060928160206103b693519101610dd4565b828201525f6102c1565b8280fd5b604051903d90823e3d90fd5b50346101325760203660031901126101325760606101206040516103f381610b05565b83815283602082015283604082015283838201528360808201528360a08201528360c08201528360e0820152836101008201520152604051906328c44a9960e21b82526004356004830152808260248160018060a01b037f0000000000000000000000000000000000000000000000000000000000000000165afa9182156104f15781926104cd575b5060208201517f0000000000000000000000000000000000000000000000000000000000000000036104be576040516020808252819061030790820185610c6a565b63295d5f3960e01b8152600490fd5b6104ea9192503d8084833e6104e28183610b86565b810190610f8e565b905f61047c565b50604051903d90823e3d90fd5b503461013257806003193601126101325760206040517f00000000000000000000000000000000000000000000000000000000000000008152f35b5034610132578060031936011261013257602061062a60016103079361057e7f00000000000000000000000000000000000000000000000000000000000000006113a0565b9082856105aa7f00000000000000000000000000000000000000000000000000000000000000006113a0565b81806105d57f00000000000000000000000000000000000000000000000000000000000000006113a0565b926040519a888c995191829101848b015e880190601760f91b83830152805192839101602183015e010190601760f91b84830152805192839101600283015e010190838201520301601f198101835282610b86565b604051918291602083526020830190610c46565b5034610921576040366003190112610921576040516328c44a9960e21b8152600480359082018190527f00000000000000000000000000000000000000000000000000000000000000006001600160a01b031692919060248035905f90849081885afa928315610958575f936109d5575b506040516328c44a9960e21b8152600481018290525f81602481895afa908115610958575f916109bb575b506106e484611345565b156109ac5761070161012085015160208082518301019101610e24565b93602061075160018060a01b0387511682880151935193604051809581948293631272ff8b60e01b84526060600485015261073f606485018b610c6a565b84810360031901602486015290610c46565b90604483015203915afa908115610958575f91610972575b50156109635760405161077b81610b35565b8381525f60208201526040519061079182610b35565b7f0000000000000000000000000000000000000000000000000000000000000000825260208201908152873b1561092157604051634692626760e01b81529151600483015251805160248301526020015160448201525f81606481838b5af1801561095857610938575b506108a8859660c06020930195604060018060a01b0388511691015160405190808683015285825261082e604083610b86565b6040519261083b84610b50565b83528986840152896040840152606083015260808201528760a08201526040519061086582610b35565b7f000000000000000000000000000000000000000000000000000000000000000082528482015260405198898094819363f17325e760e01b835260048301611069565b03925af192831561092d5784936108f4575b6020955060018060a01b03905116917fd903ca32e81477af89f5b8a6ce888d185cc715390e49474a77b4c6846254cccd6040519580a48152f35b92506020853d602011610925575b8161090f60209383610b86565b810103126109215760209451926108ba565b5f80fd5b3d9150610902565b6040513d86823e3d90fd5b602091955060c09661094d5f6108a893610b86565b5f96925096506107fb565b6040513d5f823e3d90fd5b630ebe58ef60e11b5f5260045ffd5b90506020813d6020116109a4575b8161098d60209383610b86565b810103126109215761099e90610f81565b5f610769565b3d9150610980565b63629cd40b60e11b5f5260045ffd5b6109cf91503d805f833e6104e28183610b86565b5f6106da565b6109ea9193503d805f833e6104e28183610b86565b915f6106af565b34610921576060366003190112610921576004356001600160401b03811161092157610140600319823603011261092157610a2b82610b05565b8060040135825260248101356020830152610a4860448201610bbd565b6040830152610a5960648201610bbd565b6060830152610a6a60848201610bbd565b608083015260a481013560a0830152610a8560c48201610bd1565b60c0830152610a9660e48201610bd1565b60e0830152610104810135801515810361092157610100830152610124810135906001600160401b038211610921576004610ad49236920101610c00565b6101208201526024356001600160401b03811161092157602091610aff61019e923690600401610c00565b90610ea3565b61014081019081106001600160401b03821117610b2157604052565b634e487b7160e01b5f52604160045260245ffd5b604081019081106001600160401b03821117610b2157604052565b60c081019081106001600160401b03821117610b2157604052565b608081019081106001600160401b03821117610b2157604052565b90601f801991011681019081106001600160401b03821117610b2157604052565b602435906001600160401b038216820361092157565b35906001600160401b038216820361092157565b35906001600160a01b038216820361092157565b6001600160401b038111610b2157601f01601f191660200190565b81601f8201121561092157803590610c1782610be5565b92610c256040519485610b86565b8284526020838301011161092157815f926020809301838601378301015290565b805180835260209291819084018484015e5f828201840152601f01601f1916010190565b90610140610120610d099380518452602081015160208501526001600160401b0360408201511660408501526001600160401b0360608201511660608501526001600160401b03608082015116608085015260a081015160a085015260018060a01b0360c08201511660c085015260018060a01b0360e08201511660e08501526101008101511515610100850152015191816101208201520190610c46565b90565b9181601f84011215610921578235916001600160401b038311610921576020808501948460051b01011161092157565b6040600319820112610921576004356001600160401b0381116109215781610d6691600401610d0c565b92909291602435906001600160401b03821161092157610d8891600401610d0c565b9091565b602060031982011261092157600435906001600160401b038211610921576101409082900360031901126109215760040190565b51906001600160a01b038216820361092157565b929192610de082610be5565b91610dee6040519384610b86565b829481845281830111610921578281602093845f96015e010152565b9080601f83011215610921578151610d0992602001610dd4565b602081830312610921578051906001600160401b0382116109215701906060828203126109215760405191606083018381106001600160401b03821117610b2157604052610e7181610dc0565b835260208101516001600160401b03811161092157604092610e94918301610e0a565b60208401520151604082015290565b7f0000000000000000000000000000000000000000000000000000000000000000602082015103610f5e57610ed781611345565b15610f5857610ef7610120610f0792015160208082518301019101610e24565b9160208082518301019101610e24565b60408201516040820151149182610f3f575b82610f2357505090565b6020919250810151818151910120910151602081519101201490565b805182516001600160a01b039081169116149250610f19565b50505f90565b635f9bd90760e11b5f5260045ffd5b51906001600160401b038216820361092157565b5190811515820361092157565b602081830312610921578051906001600160401b0382116109215701610140818303126109215760405191610fc283610b05565b8151835260208201516020840152610fdc60408301610f6d565b6040840152610fed60608301610f6d565b6060840152610ffe60808301610f6d565b608084015260a082015160a084015261101960c08301610dc0565b60c084015261102a60e08301610dc0565b60e084015261103c6101008301610f81565b6101008401526101208201516001600160401b038111610921576110609201610e0a565b61012082015290565b9060209081835280518284015201519060408082015260018060a01b0382511660608201526001600160401b0360208301511660808201526040820151151560a0820152606082015160c082015261010060a06110d6608085015160c060e0860152610120850190610c46565b93015191015290565b929092818403611174575f91345b858410156111695781841015611155578360051b80860135908282116111465784013561013e19853603018112156109215761112a90850161154e565b1561113b57600191039301926110ed565b505050505050505f90565b63044044a560e21b5f5260045ffd5b634e487b7160e01b5f52603260045260245ffd5b505050505050600190565b63251f56a160e21b5f5260045ffd5b60405160208082015293926001600160a01b0361119f83610bd1565b1660408601526020820135601e198336030181121561092157820194602086359601956001600160401b0381116109215780360387136109215760c082826040602097611220956112ac9c6060808701528160a0870152868601375f85848601015201356080830152601f801991011681010301601f198101835282610b86565b6001600160401b036040519261123584610b50565b60018060a01b0316948584521683830152600160408301525f606083015260808201525f60a08201526040519061126b82610b35565b7f00000000000000000000000000000000000000000000000000000000000000008252828201526040518095819263f17325e760e01b835260048301611069565b03815f7f00000000000000000000000000000000000000000000000000000000000000006001600160a01b03165af1928315610958575f93611311575b50827f8f7f2dbafd79125e808bf16a53d7fa4e17b8b6374ced76d946a45f94b7bf4d065f80a3565b9092506020813d60201161133d575b8161132d60209383610b86565b810103126109215751915f6112e9565b3d9150611320565b6001600160401b036060820151168015159081611396575b5061138757608001516001600160401b031661137857600190565b637b6227e960e11b5f5260045ffd5b631ab7da6b60e01b5f5260045ffd5b905042115f61135d565b805f9172184f03e93ff9f4daa797ed6e38ed64bf6a1f0160401b8210156114ea575b806d04ee2d6d415b85acef8100000000600a9210156114cf575b662386f26fc100008110156114bb575b6305f5e1008110156114aa575b61271081101561149b575b606481101561148d575b1015611482575b600a6021600184019361142785610be5565b946114356040519687610b86565b808652611444601f1991610be5565b013660208701378401015b5f1901916f181899199a1a9b1b9c1cb0b131b232b360811b8282061a835304801561147d57600a909161144f565b505090565b600190910190611415565b60646002910493019261140e565b61271060049104930192611404565b6305f5e100600891049301926113f9565b662386f26fc10000601091049301926113ec565b6d04ee2d6d415b85acef8100000000602091049301926113dc565b506040915072184f03e93ff9f4daa797ed6e38ed64bf6a1f0160401b81046113c2565b7f00000000000000000000000000000000000000000000000000000000000000006001600160a01b0316330361153f57565b634ca8886760e01b5f5260045ffd5b60e0013560018060a01b0381168091036109215730149056fea2646970667358221220e6c60537d3547e012dc058e15ea22258b0f17d8733527c1b48bd9a611a499efe64736f6c634300081b0033","linkReferences":{}},"methodIdentifiers":{"ATTESTATION_SCHEMA()":"5bf2f20d","VALIDATION_SCHEMA()":"df61dd2c","attest((bytes32,bytes32,uint64,uint64,uint64,bytes32,address,address,bool,bytes))":"e60c3505","checkStatement((bytes32,bytes32,uint64,uint64,uint64,bytes32,address,address,bool,bytes),bytes,bytes32)":"1272ff8b","collectPayment(bytes32,bytes32)":"30088bc9","getSchema()":"6b122fe0","getStatement(bytes32)":"5cc02d2f","isPayable()":"ce46e046","makeStatement((address,bytes,bytes32),uint64)":"eda7b848","makeStatementFor((address,bytes,bytes32),uint64,address)":"fae69230","multiAttest((bytes32,bytes32,uint64,uint64,uint64,bytes32,address,address,bool,bytes)[],uint256[])":"91db0b7e","multiRevoke((bytes32,bytes32,uint64,uint64,uint64,bytes32,address,address,bool,bytes)[],uint256[])":"88e5b2d9","revoke((bytes32,bytes32,uint64,uint64,uint64,bytes32,address,address,bool,bytes))":"e49617e1","version()":"54fd4d50"},"id":73}