{"abi":[{"type":"constructor","inputs":[{"name":"_eas","type":"address","internalType":"contract IEAS"},{"name":"_schemaRegistry","type":"address","internalType":"contract ISchemaRegistry"}],"stateMutability":"nonpayable"},{"type":"receive","stateMutability":"payable"},{"type":"function","name":"ATTESTATION_SCHEMA","inputs":[],"outputs":[{"name":"","type":"bytes32","internalType":"bytes32"}],"stateMutability":"view"},{"type":"function","name":"VALIDATION_SCHEMA","inputs":[],"outputs":[{"name":"","type":"bytes32","internalType":"bytes32"}],"stateMutability":"view"},{"type":"function","name":"attest","inputs":[{"name":"attestation","type":"tuple","internalType":"struct Attestation","components":[{"name":"uid","type":"bytes32","internalType":"bytes32"},{"name":"schema","type":"bytes32","internalType":"bytes32"},{"name":"time","type":"uint64","internalType":"uint64"},{"name":"expirationTime","type":"uint64","internalType":"uint64"},{"name":"revocationTime","type":"uint64","internalType":"uint64"},{"name":"refUID","type":"bytes32","internalType":"bytes32"},{"name":"recipient","type":"address","internalType":"address"},{"name":"attester","type":"address","internalType":"address"},{"name":"revocable","type":"bool","internalType":"bool"},{"name":"data","type":"bytes","internalType":"bytes"}]}],"outputs":[{"name":"","type":"bool","internalType":"bool"}],"stateMutability":"payable"},{"type":"function","name":"checkStatement","inputs":[{"name":"statement","type":"tuple","internalType":"struct Attestation","components":[{"name":"uid","type":"bytes32","internalType":"bytes32"},{"name":"schema","type":"bytes32","internalType":"bytes32"},{"name":"time","type":"uint64","internalType":"uint64"},{"name":"expirationTime","type":"uint64","internalType":"uint64"},{"name":"revocationTime","type":"uint64","internalType":"uint64"},{"name":"refUID","type":"bytes32","internalType":"bytes32"},{"name":"recipient","type":"address","internalType":"address"},{"name":"attester","type":"address","internalType":"address"},{"name":"revocable","type":"bool","internalType":"bool"},{"name":"data","type":"bytes","internalType":"bytes"}]},{"name":"demand","type":"bytes","internalType":"bytes"},{"name":"","type":"bytes32","internalType":"bytes32"}],"outputs":[{"name":"","type":"bool","internalType":"bool"}],"stateMutability":"view"},{"type":"function","name":"collectPayment","inputs":[{"name":"_escrow","type":"bytes32","internalType":"bytes32"},{"name":"_fulfillment","type":"bytes32","internalType":"bytes32"}],"outputs":[{"name":"","type":"bytes32","internalType":"bytes32"}],"stateMutability":"nonpayable"},{"type":"function","name":"getSchema","inputs":[],"outputs":[{"name":"","type":"tuple","internalType":"struct SchemaRecord","components":[{"name":"uid","type":"bytes32","internalType":"bytes32"},{"name":"resolver","type":"address","internalType":"contract ISchemaResolver"},{"name":"revocable","type":"bool","internalType":"bool"},{"name":"schema","type":"string","internalType":"string"}]}],"stateMutability":"view"},{"type":"function","name":"getStatement","inputs":[{"name":"uid","type":"bytes32","internalType":"bytes32"}],"outputs":[{"name":"","type":"tuple","internalType":"struct Attestation","components":[{"name":"uid","type":"bytes32","internalType":"bytes32"},{"name":"schema","type":"bytes32","internalType":"bytes32"},{"name":"time","type":"uint64","internalType":"uint64"},{"name":"expirationTime","type":"uint64","internalType":"uint64"},{"name":"revocationTime","type":"uint64","internalType":"uint64"},{"name":"refUID","type":"bytes32","internalType":"bytes32"},{"name":"recipient","type":"address","internalType":"address"},{"name":"attester","type":"address","internalType":"address"},{"name":"revocable","type":"bool","internalType":"bool"},{"name":"data","type":"bytes","internalType":"bytes"}]}],"stateMutability":"view"},{"type":"function","name":"isPayable","inputs":[],"outputs":[{"name":"","type":"bool","internalType":"bool"}],"stateMutability":"pure"},{"type":"function","name":"makeStatement","inputs":[{"name":"data","type":"tuple","internalType":"struct AttestationEscrowObligation2.StatementData","components":[{"name":"attestationUid","type":"bytes32","internalType":"bytes32"},{"name":"arbiter","type":"address","internalType":"address"},{"name":"demand","type":"bytes","internalType":"bytes"}]},{"name":"expirationTime","type":"uint64","internalType":"uint64"}],"outputs":[{"name":"uid_","type":"bytes32","internalType":"bytes32"}],"stateMutability":"nonpayable"},{"type":"function","name":"makeStatementFor","inputs":[{"name":"data","type":"tuple","internalType":"struct AttestationEscrowObligation2.StatementData","components":[{"name":"attestationUid","type":"bytes32","internalType":"bytes32"},{"name":"arbiter","type":"address","internalType":"address"},{"name":"demand","type":"bytes","internalType":"bytes"}]},{"name":"expirationTime","type":"uint64","internalType":"uint64"},{"name":"recipient","type":"address","internalType":"address"}],"outputs":[{"name":"uid_","type":"bytes32","internalType":"bytes32"}],"stateMutability":"nonpayable"},{"type":"function","name":"multiAttest","inputs":[{"name":"attestations","type":"tuple[]","internalType":"struct Attestation[]","components":[{"name":"uid","type":"bytes32","internalType":"bytes32"},{"name":"schema","type":"bytes32","internalType":"bytes32"},{"name":"time","type":"uint64","internalType":"uint64"},{"name":"expirationTime","type":"uint64","internalType":"uint64"},{"name":"revocationTime","type":"uint64","internalType":"uint64"},{"name":"refUID","type":"bytes32","internalType":"bytes32"},{"name":"recipient","type":"address","internalType":"address"},{"name":"attester","type":"address","internalType":"address"},{"name":"revocable","type":"bool","internalType":"bool"},{"name":"data","type":"bytes","internalType":"bytes"}]},{"name":"values","type":"uint256[]","internalType":"uint256[]"}],"outputs":[{"name":"","type":"bool","internalType":"bool"}],"stateMutability":"payable"},{"type":"function","name":"multiRevoke","inputs":[{"name":"attestations","type":"tuple[]","internalType":"struct Attestation[]","components":[{"name":"uid","type":"bytes32","internalType":"bytes32"},{"name":"schema","type":"bytes32","internalType":"bytes32"},{"name":"time","type":"uint64","internalType":"uint64"},{"name":"expirationTime","type":"uint64","internalType":"uint64"},{"name":"revocationTime","type":"uint64","internalType":"uint64"},{"name":"refUID","type":"bytes32","internalType":"bytes32"},{"name":"recipient","type":"address","internalType":"address"},{"name":"attester","type":"address","internalType":"address"},{"name":"revocable","type":"bool","internalType":"bool"},{"name":"data","type":"bytes","internalType":"bytes"}]},{"name":"values","type":"uint256[]","internalType":"uint256[]"}],"outputs":[{"name":"","type":"bool","internalType":"bool"}],"stateMutability":"payable"},{"type":"function","name":"revoke","inputs":[{"name":"attestation","type":"tuple","internalType":"struct Attestation","components":[{"name":"uid","type":"bytes32","internalType":"bytes32"},{"name":"schema","type":"bytes32","internalType":"bytes32"},{"name":"time","type":"uint64","internalType":"uint64"},{"name":"expirationTime","type":"uint64","internalType":"uint64"},{"name":"revocationTime","type":"uint64","internalType":"uint64"},{"name":"refUID","type":"bytes32","internalType":"bytes32"},{"name":"recipient","type":"address","internalType":"address"},{"name":"attester","type":"address","internalType":"address"},{"name":"revocable","type":"bool","internalType":"bool"},{"name":"data","type":"bytes","internalType":"bytes"}]}],"outputs":[{"name":"","type":"bool","internalType":"bool"}],"stateMutability":"payable"},{"type":"function","name":"version","inputs":[],"outputs":[{"name":"","type":"string","internalType":"string"}],"stateMutability":"view"},{"type":"event","name":"EscrowClaimed","inputs":[{"name":"payment","type":"bytes32","indexed":true,"internalType":"bytes32"},{"name":"fulfillment","type":"bytes32","indexed":true,"internalType":"bytes32"},{"name":"fulfiller","type":"address","indexed":true,"internalType":"address"}],"anonymous":false},{"type":"event","name":"EscrowMade","inputs":[{"name":"payment","type":"bytes32","indexed":true,"internalType":"bytes32"},{"name":"buyer","type":"address","indexed":true,"internalType":"address"}],"anonymous":false},{"type":"error","name":"AccessDenied","inputs":[]},{"type":"error","name":"AttestationRevoked","inputs":[]},{"type":"error","name":"DeadlineExpired","inputs":[]},{"type":"error","name":"InsufficientValue","inputs":[]},{"type":"error","name":"InvalidEAS","inputs":[]},{"type":"error","name":"InvalidEscrowAttestation","inputs":[]},{"type":"error","name":"InvalidFulfillment","inputs":[]},{"type":"error","name":"InvalidLength","inputs":[]},{"type":"error","name":"InvalidSchema","inputs":[]},{"type":"error","name":"NotFromStatement","inputs":[]},{"type":"error","name":"NotPayable","inputs":[]},{"type":"error","name":"UnauthorizedCall","inputs":[]}],"bytecode":{"object":"0x6101808060405234610270576040816118bf803803809161002082856102dc565b833981010312610270578051906001600160a01b0382169081830361027057602001516001600160a01b03811692908381036102705760405190606082016001600160401b038111838210176102c8576040526035825260208201937f62797465733332206174746573746174696f6e5569642c20616464726573732085527f617262697465722c2062797465732064656d616e64000000000000000000000060408401526001608052600360a0525f60c052156102b9578260209360e0526101205261010052608460405180948193630c1af44f60e31b8352606060048401525180918160648501528484015e5f83828401015230602483015260016044830152601f801991011681010301815f865af190811561027c575f91610287575b505f916020916101405260a460405180948193630c1af44f60e31b835260606004840152601f60648401527f627974657333322076616c6964617465644174746573746174696f6e556964006084840152306024840152600160448401525af190811561027c575f91610246575b50610160526040516115bf908161030082396080518161055a015260a05181610586015260c051816105b1015260e051816115310152610100518161029101526101205181818161044c0152818161066901526112d301526101405181818161025f01528181610484015281816105160152818161079a01528181610ea7015261128f015261016051818181610176015261086b0152f35b90506020813d602011610274575b81610261602093836102dc565b8101031261027057515f6101ae565b5f80fd5b3d9150610254565b6040513d5f823e3d90fd5b90506020813d6020116102b1575b816102a2602093836102dc565b8101031261027057515f610140565b3d9150610295565b6341bc07ff60e11b5f5260045ffd5b634e487b7160e01b5f52604160045260245ffd5b601f909101601f19168101906001600160401b038211908210176102c85760405256fe6080806040526004361015610029575b50361561001a575f80fd5b631574f9f360e01b5f5260045ffd5b5f905f3560e01c9081631272ff8b146109f55750806330088bc91461063e57806354fd4d50146105395780635bf2f20d146104fe5780635cc02d2f146103d05780636b122fe01461021e57806372e96ccc146101d457806388e5b2d9146101b557806391db0b7e146101b5578063ce46e04614610199578063df61dd2c1461015e578063e49617e114610139578063e60c3505146101395763f74acda40361000f5734610132576060366003190112610132576004356001600160401b038111610135576060600319823603011261013557610103610bab565b604435929091906001600160a01b038416840361013257602061012a8585856004016111a5565b604051908152f35b80fd5b5080fd5b602061015461014736610d90565b61014f61152f565b611570565b6040519015158152f35b503461013257806003193601126101325760206040517f00000000000000000000000000000000000000000000000000000000000000008152f35b5034610132578060031936011261013257602090604051908152f35b60206101546101c336610d40565b926101cf92919261152f565b611129565b503461013257604036600319011261013257600435906001600160401b038211610132576060600319833603011261013257602061012a83610214610bab565b33916004016111a5565b503461013257806003193601126101325760608060405161023e81610b6f565b8381528360208201528360408201520152604051906351753e3760e11b82527f00000000000000000000000000000000000000000000000000000000000000006004830152808260248160018060a01b037f0000000000000000000000000000000000000000000000000000000000000000165afa9081156103c457809161030b575b606082610307604051928392602084528051602085015260018060a01b0360208201511660408501526040810151151582850152015160808084015260a0830190610c4a565b0390f35b90503d8082843e61031c8184610b8a565b820191602081840312610135578051906001600160401b0382116103c0570190608082840312610132576040519161035383610b6f565b8051835260208101516001600160a01b03811681036103c057602084015261037d60408201610f84565b60408401526060810151906001600160401b0382116103c057019083601f8301121561013257506060928160206103b693519101610dd8565b828201525f6102c1565b8280fd5b604051903d90823e3d90fd5b50346101325760203660031901126101325760606101206040516103f381610b09565b83815283602082015283604082015283838201528360808201528360a08201528360c08201528360e0820152836101008201520152604051906328c44a9960e21b82526004356004830152808260248160018060a01b037f0000000000000000000000000000000000000000000000000000000000000000165afa9182156104f15781926104cd575b5060208201517f0000000000000000000000000000000000000000000000000000000000000000036104be576040516020808252819061030790820185610c6e565b63295d5f3960e01b8152600490fd5b6104ea9192503d8084833e6104e28183610b8a565b810190610f91565b905f61047c565b50604051903d90823e3d90fd5b503461013257806003193601126101325760206040517f00000000000000000000000000000000000000000000000000000000000000008152f35b5034610132578060031936011261013257602061062a60016103079361057e7f00000000000000000000000000000000000000000000000000000000000000006113c2565b9082856105aa7f00000000000000000000000000000000000000000000000000000000000000006113c2565b81806105d57f00000000000000000000000000000000000000000000000000000000000000006113c2565b926040519a888c995191829101848b015e880190601760f91b83830152805192839101602183015e010190601760f91b84830152805192839101600283015e010190838201520301601f198101835282610b8a565b604051918291602083526020830190610c4a565b5034610925576040366003190112610925576040516328c44a9960e21b8152600480359082018190527f00000000000000000000000000000000000000000000000000000000000000006001600160a01b031692919060248035905f90849081885afa92831561095c575f936109d9575b506040516328c44a9960e21b8152600481018290525f81602481895afa90811561095c575f916109bf575b506106e484611367565b156109b05761070161012085015160208082518301019101610e28565b60208082015160408084015197519051631272ff8b60e01b815260606004820152939784926001600160a01b031691839182919061075890610746606485018b610c6e565b84810360031901602486015290610c4a565b90604483015203915afa90811561095c575f91610976575b50156109675760405161078281610b39565b8381525f60208201526040519061079882610b39565b7f0000000000000000000000000000000000000000000000000000000000000000825260208201908152873b1561092557604051634692626760e01b81529151600483015251805160248301526020015160448201525f81606481838b5af1801561095c5761093c575b506108ac859660c0602093019560018060a01b038751169051604051908086830152858252610832604083610b8a565b6040519261083f84610b54565b83528986840152896040840152606083015260808201528760a08201526040519061086982610b39565b7f000000000000000000000000000000000000000000000000000000000000000082528482015260405198898094819363f17325e760e01b83526004830161106c565b03925af19283156109315784936108f8575b6020955060018060a01b03905116917fd903ca32e81477af89f5b8a6ce888d185cc715390e49474a77b4c6846254cccd6040519580a48152f35b92506020853d602011610929575b8161091360209383610b8a565b810103126109255760209451926108be565b5f80fd5b3d9150610906565b6040513d86823e3d90fd5b602091955060c0966109515f6108ac93610b8a565b5f9692509650610802565b6040513d5f823e3d90fd5b630ebe58ef60e11b5f5260045ffd5b90506020813d6020116109a8575b8161099160209383610b8a565b81010312610925576109a290610f84565b5f610770565b3d9150610984565b63629cd40b60e11b5f5260045ffd5b6109d391503d805f833e6104e28183610b8a565b5f6106da565b6109ee9193503d805f833e6104e28183610b8a565b915f6106af565b34610925576060366003190112610925576004356001600160401b03811161092557610140600319823603011261092557610a2f82610b09565b8060040135825260248101356020830152610a4c60448201610bc1565b6040830152610a5d60648201610bc1565b6060830152610a6e60848201610bc1565b608083015260a481013560a0830152610a8960c48201610bd5565b60c0830152610a9a60e48201610bd5565b60e0830152610104810135801515810361092557610100830152610124810135906001600160401b038211610925576004610ad89236920101610c04565b6101208201526024356001600160401b03811161092557602091610b03610154923690600401610c04565b90610ea5565b61014081019081106001600160401b03821117610b2557604052565b634e487b7160e01b5f52604160045260245ffd5b604081019081106001600160401b03821117610b2557604052565b60c081019081106001600160401b03821117610b2557604052565b608081019081106001600160401b03821117610b2557604052565b90601f801991011681019081106001600160401b03821117610b2557604052565b602435906001600160401b038216820361092557565b35906001600160401b038216820361092557565b35906001600160a01b038216820361092557565b6001600160401b038111610b2557601f01601f191660200190565b81601f8201121561092557803590610c1b82610be9565b92610c296040519485610b8a565b8284526020838301011161092557815f926020809301838601378301015290565b805180835260209291819084018484015e5f828201840152601f01601f1916010190565b90610140610120610d0d9380518452602081015160208501526001600160401b0360408201511660408501526001600160401b0360608201511660608501526001600160401b03608082015116608085015260a081015160a085015260018060a01b0360c08201511660c085015260018060a01b0360e08201511660e08501526101008101511515610100850152015191816101208201520190610c4a565b90565b9181601f84011215610925578235916001600160401b038311610925576020808501948460051b01011161092557565b6040600319820112610925576004356001600160401b0381116109255781610d6a91600401610d10565b92909291602435906001600160401b03821161092557610d8c91600401610d10565b9091565b602060031982011261092557600435906001600160401b038211610925576101409082900360031901126109255760040190565b51906001600160a01b038216820361092557565b929192610de482610be9565b91610df26040519384610b8a565b829481845281830111610925578281602093845f96015e010152565b9080601f83011215610925578151610d0d92602001610dd8565b602081830312610925578051906001600160401b03821161092557016060818303126109255760405191606083018381106001600160401b03821117610b255760405281518352610e7b60208301610dc4565b602084015260408201516001600160401b03811161092557610e9d9201610e0e565b604082015290565b7f0000000000000000000000000000000000000000000000000000000000000000602082015103610f6157610ed981611367565b15610f5b57610ef9610120610f0992015160208082518301019101610e28565b9160208082518301019101610e28565b81518151149182610f3c575b82610f1f57505090565b604091925081015160208151910120910151602081519101201490565b602080820151908301516001600160a01b039081169116149250610f15565b50505f90565b635f9bd90760e11b5f5260045ffd5b51906001600160401b038216820361092557565b5190811515820361092557565b602081830312610925578051906001600160401b0382116109255701610140818303126109255760405191610fc583610b09565b8151835260208201516020840152610fdf60408301610f70565b6040840152610ff060608301610f70565b606084015261100160808301610f70565b608084015260a082015160a084015261101c60c08301610dc4565b60c084015261102d60e08301610dc4565b60e084015261103f6101008301610f84565b6101008401526101208201516001600160401b038111610925576110639201610e0e565b61012082015290565b9060209081835280518284015201519060408082015260018060a01b0382511660608201526001600160401b0360208301511660808201526040820151151560a0820152606082015160c082015261010060a06110d9608085015160c060e0860152610120850190610c4a565b93015191015290565b91908110156110f25760051b0190565b634e487b7160e01b5f52603260045260245ffd5b91908110156110f25760051b8101359061013e1981360301821215610925570190565b92909192818303611196575f91345b84841061114a57505050505050600190565b6111558483886110e2565b358181116111875761116b61014f868887611106565b1561117c5760019103930192611138565b505050505050505f90565b63044044a560e21b5f5260045ffd5b63251f56a160e21b5f5260045ffd5b9291604051936020808601528035604086015260018060a01b036111cb60208301610bd5565b1660608601526040810135601e1982360301811215610925570190602082359201946001600160401b0383116109255782360386136109255761124260c082856020966112ce9a606060808501528160a0850152848401375f838284010152601f801991011681010301601f198101835282610b8a565b6001600160401b036040519261125784610b54565b60018060a01b0316948584521683830152600160408301525f606083015260808201525f60a08201526040519061128d82610b39565b7f00000000000000000000000000000000000000000000000000000000000000008252828201526040518095819263f17325e760e01b83526004830161106c565b03815f7f00000000000000000000000000000000000000000000000000000000000000006001600160a01b03165af192831561095c575f93611333575b50827f8f7f2dbafd79125e808bf16a53d7fa4e17b8b6374ced76d946a45f94b7bf4d065f80a3565b9092506020813d60201161135f575b8161134f60209383610b8a565b810103126109255751915f61130b565b3d9150611342565b6001600160401b0360608201511680151590816113b8575b506113a957608001516001600160401b031661139a57600190565b637b6227e960e11b5f5260045ffd5b631ab7da6b60e01b5f5260045ffd5b905042115f61137f565b805f9172184f03e93ff9f4daa797ed6e38ed64bf6a1f0160401b82101561150c575b806d04ee2d6d415b85acef8100000000600a9210156114f1575b662386f26fc100008110156114dd575b6305f5e1008110156114cc575b6127108110156114bd575b60648110156114af575b10156114a4575b600a6021600184019361144985610be9565b946114576040519687610b8a565b808652611466601f1991610be9565b013660208701378401015b5f1901916f181899199a1a9b1b9c1cb0b131b232b360811b8282061a835304801561149f57600a9091611471565b505090565b600190910190611437565b606460029104930192611430565b61271060049104930192611426565b6305f5e1006008910493019261141b565b662386f26fc100006010910493019261140e565b6d04ee2d6d415b85acef8100000000602091049301926113fe565b506040915072184f03e93ff9f4daa797ed6e38ed64bf6a1f0160401b81046113e4565b7f00000000000000000000000000000000000000000000000000000000000000006001600160a01b0316330361156157565b634ca8886760e01b5f5260045ffd5b60e0013560018060a01b0381168091036109255730149056fea2646970667358221220834fb6453c12b898c463965475b41047632a634cd58db43d36982190538d08b564736f6c634300081a0033","linkReferences":{}},"methodIdentifiers":{"ATTESTATION_SCHEMA()":"5bf2f20d","VALIDATION_SCHEMA()":"df61dd2c","attest((bytes32,bytes32,uint64,uint64,uint64,bytes32,address,address,bool,bytes))":"e60c3505","checkStatement((bytes32,bytes32,uint64,uint64,uint64,bytes32,address,address,bool,bytes),bytes,bytes32)":"1272ff8b","collectPayment(bytes32,bytes32)":"30088bc9","getSchema()":"6b122fe0","getStatement(bytes32)":"5cc02d2f","isPayable()":"ce46e046","makeStatement((bytes32,address,bytes),uint64)":"72e96ccc","makeStatementFor((bytes32,address,bytes),uint64,address)":"f74acda4","multiAttest((bytes32,bytes32,uint64,uint64,uint64,bytes32,address,address,bool,bytes)[],uint256[])":"91db0b7e","multiRevoke((bytes32,bytes32,uint64,uint64,uint64,bytes32,address,address,bool,bytes)[],uint256[])":"88e5b2d9","revoke((bytes32,bytes32,uint64,uint64,uint64,bytes32,address,address,bool,bytes))":"e49617e1","version()":"54fd4d50"},"id":53}