{"abi":[{"type":"constructor","inputs":[{"name":"_eas","type":"address","internalType":"contract IEAS"}],"stateMutability":"nonpayable"},{"type":"receive","stateMutability":"payable"},{"type":"function","name":"attest","inputs":[{"name":"attestation","type":"tuple","internalType":"struct Attestation","components":[{"name":"uid","type":"bytes32","internalType":"bytes32"},{"name":"schema","type":"bytes32","internalType":"bytes32"},{"name":"time","type":"uint64","internalType":"uint64"},{"name":"expirationTime","type":"uint64","internalType":"uint64"},{"name":"revocationTime","type":"uint64","internalType":"uint64"},{"name":"refUID","type":"bytes32","internalType":"bytes32"},{"name":"recipient","type":"address","internalType":"address"},{"name":"attester","type":"address","internalType":"address"},{"name":"revocable","type":"bool","internalType":"bool"},{"name":"data","type":"bytes","internalType":"bytes"}]}],"outputs":[{"name":"","type":"bool","internalType":"bool"}],"stateMutability":"payable"},{"type":"function","name":"isPayable","inputs":[],"outputs":[{"name":"","type":"bool","internalType":"bool"}],"stateMutability":"pure"},{"type":"function","name":"multiAttest","inputs":[{"name":"attestations","type":"tuple[]","internalType":"struct Attestation[]","components":[{"name":"uid","type":"bytes32","internalType":"bytes32"},{"name":"schema","type":"bytes32","internalType":"bytes32"},{"name":"time","type":"uint64","internalType":"uint64"},{"name":"expirationTime","type":"uint64","internalType":"uint64"},{"name":"revocationTime","type":"uint64","internalType":"uint64"},{"name":"refUID","type":"bytes32","internalType":"bytes32"},{"name":"recipient","type":"address","internalType":"address"},{"name":"attester","type":"address","internalType":"address"},{"name":"revocable","type":"bool","internalType":"bool"},{"name":"data","type":"bytes","internalType":"bytes"}]},{"name":"values","type":"uint256[]","internalType":"uint256[]"}],"outputs":[{"name":"","type":"bool","internalType":"bool"}],"stateMutability":"payable"},{"type":"function","name":"multiRevoke","inputs":[{"name":"attestations","type":"tuple[]","internalType":"struct Attestation[]","components":[{"name":"uid","type":"bytes32","internalType":"bytes32"},{"name":"schema","type":"bytes32","internalType":"bytes32"},{"name":"time","type":"uint64","internalType":"uint64"},{"name":"expirationTime","type":"uint64","internalType":"uint64"},{"name":"revocationTime","type":"uint64","internalType":"uint64"},{"name":"refUID","type":"bytes32","internalType":"bytes32"},{"name":"recipient","type":"address","internalType":"address"},{"name":"attester","type":"address","internalType":"address"},{"name":"revocable","type":"bool","internalType":"bool"},{"name":"data","type":"bytes","internalType":"bytes"}]},{"name":"values","type":"uint256[]","internalType":"uint256[]"}],"outputs":[{"name":"","type":"bool","internalType":"bool"}],"stateMutability":"payable"},{"type":"function","name":"revoke","inputs":[{"name":"attestation","type":"tuple","internalType":"struct Attestation","components":[{"name":"uid","type":"bytes32","internalType":"bytes32"},{"name":"schema","type":"bytes32","internalType":"bytes32"},{"name":"time","type":"uint64","internalType":"uint64"},{"name":"expirationTime","type":"uint64","internalType":"uint64"},{"name":"revocationTime","type":"uint64","internalType":"uint64"},{"name":"refUID","type":"bytes32","internalType":"bytes32"},{"name":"recipient","type":"address","internalType":"address"},{"name":"attester","type":"address","internalType":"address"},{"name":"revocable","type":"bool","internalType":"bool"},{"name":"data","type":"bytes","internalType":"bytes"}]}],"outputs":[{"name":"","type":"bool","internalType":"bool"}],"stateMutability":"payable"},{"type":"function","name":"version","inputs":[],"outputs":[{"name":"","type":"string","internalType":"string"}],"stateMutability":"view"},{"type":"error","name":"AccessDenied","inputs":[]},{"type":"error","name":"InsufficientValue","inputs":[]},{"type":"error","name":"InvalidEAS","inputs":[]},{"type":"error","name":"InvalidLength","inputs":[]},{"type":"error","name":"NotPayable","inputs":[]}],"bytecode":{"object":"0x610100346100a957601f61068f38819003918201601f19168301916001600160401b038311848410176100ad578084926020946040528339810103126100a957516001600160a01b0381168082036100a9576001608052600360a0525f60c0521561009a5760e0526040516105cd90816100c2823960805181610194015260a051816101c6015260c051816101f1015260e051816105580152f35b6341bc07ff60e11b5f5260045ffd5b5f80fd5b634e487b7160e01b5f52604160045260245ffdfe60806040526004361015610027575b3615610018575f80fd5b631574f9f360e01b5f5260045ffd5b5f3560e01c806354fd4d501461017f57806388e5b2d91461012357806391db0b7e146100a9578063ce46e0461461008b578063e49617e11461006e5763e60c35050361000e575b6100773661031b565b50610080610556565b602060405160018152f35b346100a5575f3660031901126100a55760206040515f8152f35b5f80fd5b6100b2366102c9565b6100bd929192610556565b808203610114575f90345b8383106100da57602060405160018152f35b6100e5838387610386565b35818111610105576001916100fb85878a6103aa565b50039201916100c8565b63044044a560e21b5f5260045ffd5b63251f56a160e21b5f5260045ffd5b61012c366102c9565b610137929192610556565b808203610114575f90345b83831061015457602060405160018152f35b61015f838387610386565b358181116101055760019161017585878a6103aa565b5003920191610142565b346100a5575f3660031901126100a5576101b87f00000000000000000000000000000000000000000000000000000000000000006103e9565b6040602061026d60016101ea7f00000000000000000000000000000000000000000000000000000000000000006103e9565b81846102157f00000000000000000000000000000000000000000000000000000000000000006103e9565b818851978895818088019c8d815192839201905e870190601760f91b83830152805192839101602183015e010190601760f91b84830152805192839101600283015e01015f838201520301601f198101835282610350565b8151928391602083525180918160208501528484015e5f828201840152601f01601f19168101030190f35b9181601f840112156100a55782359167ffffffffffffffff83116100a5576020808501948460051b0101116100a557565b60406003198201126100a55760043567ffffffffffffffff81116100a557816102f491600401610298565b929092916024359067ffffffffffffffff82116100a55761031791600401610298565b9091565b60206003198201126100a5576004359067ffffffffffffffff82116100a5576101409082900360031901126100a55760040190565b90601f8019910116810190811067ffffffffffffffff82111761037257604052565b634e487b7160e01b5f52604160045260245ffd5b91908110156103965760051b0190565b634e487b7160e01b5f52603260045260245ffd5b91908110156103965760051b8101359061013e19813603018212156100a5570190565b67ffffffffffffffff811161037257601f01601f191660200190565b805f9172184f03e93ff9f4daa797ed6e38ed64bf6a1f0160401b821015610533575b806d04ee2d6d415b85acef8100000000600a921015610518575b662386f26fc10000811015610504575b6305f5e1008110156104f3575b6127108110156104e4575b60648110156104d6575b10156104cb575b600a60216001840193610470856103cd565b9461047e6040519687610350565b80865261048d601f19916103cd565b013660208701378401015b5f1901916f181899199a1a9b1b9c1cb0b131b232b360811b8282061a83530480156104c657600a9091610498565b505090565b60019091019061045e565b606460029104930192610457565b6127106004910493019261044d565b6305f5e10060089104930192610442565b662386f26fc1000060109104930192610435565b6d04ee2d6d415b85acef810000000060209104930192610425565b506040915072184f03e93ff9f4daa797ed6e38ed64bf6a1f0160401b810461040b565b7f00000000000000000000000000000000000000000000000000000000000000006001600160a01b0316330361058857565b634ca8886760e01b5f5260045ffdfea2646970667358221220b32a3db28594493c2ac8477c69b1348a20dfd7b5d90b713739648931fc3c79fb64736f6c634300081a0033","linkReferences":{}},"methodIdentifiers":{"attest((bytes32,bytes32,uint64,uint64,uint64,bytes32,address,address,bool,bytes))":"e60c3505","isPayable()":"ce46e046","multiAttest((bytes32,bytes32,uint64,uint64,uint64,bytes32,address,address,bool,bytes)[],uint256[])":"91db0b7e","multiRevoke((bytes32,bytes32,uint64,uint64,uint64,bytes32,address,address,bool,bytes)[],uint256[])":"88e5b2d9","revoke((bytes32,bytes32,uint64,uint64,uint64,bytes32,address,address,bool,bytes))":"e49617e1","version()":"54fd4d50"},"id":128}