{"abi":[{"type":"constructor","inputs":[{"name":"_eas","type":"address","internalType":"contract IEAS"},{"name":"_schemaRegistry","type":"address","internalType":"contract ISchemaRegistry"}],"stateMutability":"nonpayable"},{"type":"receive","stateMutability":"payable"},{"type":"function","name":"ATTESTATION_SCHEMA","inputs":[],"outputs":[{"name":"","type":"bytes32","internalType":"bytes32"}],"stateMutability":"view"},{"type":"function","name":"attest","inputs":[{"name":"attestation","type":"tuple","internalType":"struct Attestation","components":[{"name":"uid","type":"bytes32","internalType":"bytes32"},{"name":"schema","type":"bytes32","internalType":"bytes32"},{"name":"time","type":"uint64","internalType":"uint64"},{"name":"expirationTime","type":"uint64","internalType":"uint64"},{"name":"revocationTime","type":"uint64","internalType":"uint64"},{"name":"refUID","type":"bytes32","internalType":"bytes32"},{"name":"recipient","type":"address","internalType":"address"},{"name":"attester","type":"address","internalType":"address"},{"name":"revocable","type":"bool","internalType":"bool"},{"name":"data","type":"bytes","internalType":"bytes"}]}],"outputs":[{"name":"","type":"bool","internalType":"bool"}],"stateMutability":"payable"},{"type":"function","name":"checkStatement","inputs":[{"name":"statement","type":"tuple","internalType":"struct Attestation","components":[{"name":"uid","type":"bytes32","internalType":"bytes32"},{"name":"schema","type":"bytes32","internalType":"bytes32"},{"name":"time","type":"uint64","internalType":"uint64"},{"name":"expirationTime","type":"uint64","internalType":"uint64"},{"name":"revocationTime","type":"uint64","internalType":"uint64"},{"name":"refUID","type":"bytes32","internalType":"bytes32"},{"name":"recipient","type":"address","internalType":"address"},{"name":"attester","type":"address","internalType":"address"},{"name":"revocable","type":"bool","internalType":"bool"},{"name":"data","type":"bytes","internalType":"bytes"}]},{"name":"demand","type":"bytes","internalType":"bytes"},{"name":"","type":"bytes32","internalType":"bytes32"}],"outputs":[{"name":"","type":"bool","internalType":"bool"}],"stateMutability":"view"},{"type":"function","name":"decodeStatementData","inputs":[{"name":"data","type":"bytes","internalType":"bytes"}],"outputs":[{"name":"","type":"tuple","internalType":"struct ERC1155PaymentObligation.StatementData","components":[{"name":"token","type":"address","internalType":"address"},{"name":"tokenId","type":"uint256","internalType":"uint256"},{"name":"amount","type":"uint256","internalType":"uint256"},{"name":"payee","type":"address","internalType":"address"}]}],"stateMutability":"pure"},{"type":"function","name":"getSchema","inputs":[],"outputs":[{"name":"","type":"tuple","internalType":"struct SchemaRecord","components":[{"name":"uid","type":"bytes32","internalType":"bytes32"},{"name":"resolver","type":"address","internalType":"contract ISchemaResolver"},{"name":"revocable","type":"bool","internalType":"bool"},{"name":"schema","type":"string","internalType":"string"}]}],"stateMutability":"view"},{"type":"function","name":"getStatement","inputs":[{"name":"uid","type":"bytes32","internalType":"bytes32"}],"outputs":[{"name":"","type":"tuple","internalType":"struct Attestation","components":[{"name":"uid","type":"bytes32","internalType":"bytes32"},{"name":"schema","type":"bytes32","internalType":"bytes32"},{"name":"time","type":"uint64","internalType":"uint64"},{"name":"expirationTime","type":"uint64","internalType":"uint64"},{"name":"revocationTime","type":"uint64","internalType":"uint64"},{"name":"refUID","type":"bytes32","internalType":"bytes32"},{"name":"recipient","type":"address","internalType":"address"},{"name":"attester","type":"address","internalType":"address"},{"name":"revocable","type":"bool","internalType":"bool"},{"name":"data","type":"bytes","internalType":"bytes"}]}],"stateMutability":"view"},{"type":"function","name":"getStatementData","inputs":[{"name":"uid","type":"bytes32","internalType":"bytes32"}],"outputs":[{"name":"","type":"tuple","internalType":"struct ERC1155PaymentObligation.StatementData","components":[{"name":"token","type":"address","internalType":"address"},{"name":"tokenId","type":"uint256","internalType":"uint256"},{"name":"amount","type":"uint256","internalType":"uint256"},{"name":"payee","type":"address","internalType":"address"}]}],"stateMutability":"view"},{"type":"function","name":"isPayable","inputs":[],"outputs":[{"name":"","type":"bool","internalType":"bool"}],"stateMutability":"pure"},{"type":"function","name":"makeStatement","inputs":[{"name":"data","type":"tuple","internalType":"struct ERC1155PaymentObligation.StatementData","components":[{"name":"token","type":"address","internalType":"address"},{"name":"tokenId","type":"uint256","internalType":"uint256"},{"name":"amount","type":"uint256","internalType":"uint256"},{"name":"payee","type":"address","internalType":"address"}]}],"outputs":[{"name":"uid_","type":"bytes32","internalType":"bytes32"}],"stateMutability":"nonpayable"},{"type":"function","name":"makeStatementFor","inputs":[{"name":"data","type":"tuple","internalType":"struct ERC1155PaymentObligation.StatementData","components":[{"name":"token","type":"address","internalType":"address"},{"name":"tokenId","type":"uint256","internalType":"uint256"},{"name":"amount","type":"uint256","internalType":"uint256"},{"name":"payee","type":"address","internalType":"address"}]},{"name":"payer","type":"address","internalType":"address"},{"name":"recipient","type":"address","internalType":"address"}],"outputs":[{"name":"uid_","type":"bytes32","internalType":"bytes32"}],"stateMutability":"nonpayable"},{"type":"function","name":"multiAttest","inputs":[{"name":"attestations","type":"tuple[]","internalType":"struct Attestation[]","components":[{"name":"uid","type":"bytes32","internalType":"bytes32"},{"name":"schema","type":"bytes32","internalType":"bytes32"},{"name":"time","type":"uint64","internalType":"uint64"},{"name":"expirationTime","type":"uint64","internalType":"uint64"},{"name":"revocationTime","type":"uint64","internalType":"uint64"},{"name":"refUID","type":"bytes32","internalType":"bytes32"},{"name":"recipient","type":"address","internalType":"address"},{"name":"attester","type":"address","internalType":"address"},{"name":"revocable","type":"bool","internalType":"bool"},{"name":"data","type":"bytes","internalType":"bytes"}]},{"name":"values","type":"uint256[]","internalType":"uint256[]"}],"outputs":[{"name":"","type":"bool","internalType":"bool"}],"stateMutability":"payable"},{"type":"function","name":"multiRevoke","inputs":[{"name":"attestations","type":"tuple[]","internalType":"struct Attestation[]","components":[{"name":"uid","type":"bytes32","internalType":"bytes32"},{"name":"schema","type":"bytes32","internalType":"bytes32"},{"name":"time","type":"uint64","internalType":"uint64"},{"name":"expirationTime","type":"uint64","internalType":"uint64"},{"name":"revocationTime","type":"uint64","internalType":"uint64"},{"name":"refUID","type":"bytes32","internalType":"bytes32"},{"name":"recipient","type":"address","internalType":"address"},{"name":"attester","type":"address","internalType":"address"},{"name":"revocable","type":"bool","internalType":"bool"},{"name":"data","type":"bytes","internalType":"bytes"}]},{"name":"values","type":"uint256[]","internalType":"uint256[]"}],"outputs":[{"name":"","type":"bool","internalType":"bool"}],"stateMutability":"payable"},{"type":"function","name":"revoke","inputs":[{"name":"attestation","type":"tuple","internalType":"struct Attestation","components":[{"name":"uid","type":"bytes32","internalType":"bytes32"},{"name":"schema","type":"bytes32","internalType":"bytes32"},{"name":"time","type":"uint64","internalType":"uint64"},{"name":"expirationTime","type":"uint64","internalType":"uint64"},{"name":"revocationTime","type":"uint64","internalType":"uint64"},{"name":"refUID","type":"bytes32","internalType":"bytes32"},{"name":"recipient","type":"address","internalType":"address"},{"name":"attester","type":"address","internalType":"address"},{"name":"revocable","type":"bool","internalType":"bool"},{"name":"data","type":"bytes","internalType":"bytes"}]}],"outputs":[{"name":"","type":"bool","internalType":"bool"}],"stateMutability":"payable"},{"type":"function","name":"version","inputs":[],"outputs":[{"name":"","type":"string","internalType":"string"}],"stateMutability":"view"},{"type":"event","name":"PaymentMade","inputs":[{"name":"payment","type":"bytes32","indexed":true,"internalType":"bytes32"},{"name":"buyer","type":"address","indexed":true,"internalType":"address"}],"anonymous":false},{"type":"error","name":"AccessDenied","inputs":[]},{"type":"error","name":"AttestationCreateFailed","inputs":[]},{"type":"error","name":"AttestationRevoked","inputs":[]},{"type":"error","name":"DeadlineExpired","inputs":[]},{"type":"error","name":"ERC1155TransferFailed","inputs":[{"name":"token","type":"address","internalType":"address"},{"name":"from","type":"address","internalType":"address"},{"name":"to","type":"address","internalType":"address"},{"name":"tokenId","type":"uint256","internalType":"uint256"},{"name":"amount","type":"uint256","internalType":"uint256"}]},{"type":"error","name":"InsufficientValue","inputs":[]},{"type":"error","name":"InvalidEAS","inputs":[]},{"type":"error","name":"InvalidLength","inputs":[]},{"type":"error","name":"InvalidPayment","inputs":[]},{"type":"error","name":"InvalidSchema","inputs":[]},{"type":"error","name":"NotFromStatement","inputs":[]},{"type":"error","name":"NotPayable","inputs":[]}],"bytecode":{"object":"0x61016080604052346101f1576040816115d48038038091610020828561022b565b8339810103126101f15780516001600160a01b038116918282036101f15760200151916001600160a01b0383168084036101f157604051606081016001600160401b0381118282101761021757604052603d815260208101927f6164647265737320746f6b656e2c2075696e7432353620746f6b656e49642c2084527f75696e7432353620616d6f756e742c206164647265737320706179656500000060408301526001608052600360a0525f60c05215610208576084948460209560e05261012052610100525f604051958680958194630c1af44f60e31b8352606060048401525180918160648501528484015e818101830184905230602483015260016044830152601f01601f191681010301925af19081156101fd575f916101c7575b5061014052604051611385908161024f823960805181610706015260a05181610731015260c0518161075c015260e051816112ee015261010051816103e3015261012051818181610256015281816105820152610eb4015261014051818181610296015281816103b1015281816105bb015281816106c4015281816109490152610e070152f35b90506020813d6020116101f5575b816101e26020938361022b565b810103126101f157515f610140565b5f80fd5b3d91506101d5565b6040513d5f823e3d90fd5b6341bc07ff60e11b5f5260045ffd5b634e487b7160e01b5f52604160045260245ffd5b601f909101601f19168101906001600160401b038211908210176102175760405256fe6080806040526004361015610029575b50361561001a575f80fd5b631574f9f360e01b5f5260045ffd5b5f3560e01c9081631272ff8b14610835575080632daf79cd146107e957806354fd4d50146106e75780635bf2f20d146106ad5780635cc02d2f146105085780636b122fe01461037257806388e5b2d91461035357806391db0b7e14610353578063c75c572b14610220578063ca1fa180146101fb578063ce46e046146101e1578063e112ea08146100f4578063e49617e1146100cf5763e60c3505146100cf575f61000f565b60206100ea6100dd36610c02565b6100e56112ec565b61132d565b6040519015158152f35b346101dd5760203660031901126101dd576004356001600160401b0381116101dd57366023820112156101dd5780600401356001600160401b0381116101dd5781013660248201116101dd5760809061014b61115b565b50829003126101dd576101d99061019260846040519261016a84610a99565b61017660248201610ae9565b8452604481013560208501526064810135604085015201610ae9565b6060820152604051918291829190916060608082019360018060a01b03815116835260208101516020840152604081015160408401528160018060a01b0391015116910152565b0390f35b5f80fd5b346101dd575f3660031901126101dd5760206040515f8152f35b346101dd5760803660031901126101dd5760206102183333610c94565b604051908152f35b346101dd5760203660031901126101dd5761023961115b565b506040516328c44a9960e21b815260048035908201525f816024817f00000000000000000000000000000000000000000000000000000000000000006001600160a01b03165afa908115610348575f91610326575b5060208101517f000000000000000000000000000000000000000000000000000000000000000003610317576102d56101206101d992015160208082518301019101610c4a565b604051918291829190916060608082019360018060a01b03815116835260208101516020840152604081015160408401528160018060a01b0391015116910152565b63078d696560e31b5f5260045ffd5b61034291503d805f833e61033a8183610ab4565b810190610fc9565b8161028e565b6040513d5f823e3d90fd5b60206100ea61036136610bb2565b9261036d9291926112ec565b6110b7565b346101dd575f3660031901126101dd5760608060405161039181610a99565b5f81525f60208201525f604082015201526040516351753e3760e11b81527f000000000000000000000000000000000000000000000000000000000000000060048201525f8160248160018060a01b037f0000000000000000000000000000000000000000000000000000000000000000165afa8015610348575f90610458575b6060906101d9604051928392602084528051602085015260018060a01b0360208201511660408501526040810151151582850152015160808084015260a0830190610b5e565b503d805f833e6104688183610ab4565b8101906020818303126101dd578051906001600160401b0382116101dd57016080818303126101dd576040519061049e82610a99565b8051825260208101516001600160a01b03811681036101dd5760208301526104c860408201610f86565b60408301526060810151906001600160401b0382116101dd570182601f820112156101dd576060928160206104ff93519101610f93565b82820152610412565b346101dd5760203660031901126101dd57606061012060405161052a81610a69565b5f81525f60208201525f60408201525f838201525f60808201525f60a08201525f60c08201525f60e08201525f61010082015201526040516328c44a9960e21b815260043560048201525f8160248160018060a01b037f0000000000000000000000000000000000000000000000000000000000000000165afa908115610348575f91610693575b506020810180517f000000000000000000000000000000000000000000000000000000000000000003610684576101d961012060405193849360208552815160208601525160408501526001600160401b0360408201511660608501526001600160401b0360608201511660808501526001600160401b0360808201511660a085015260a081015160c085015260018060a01b0360c08201511660e085015260018060a01b0360e082015116610100850152610100810151151582850152015161014080840152610160830190610b5e565b63295d5f3960e01b5f5260045ffd5b6106a791503d805f833e61033a8183610ab4565b816105b2565b346101dd575f3660031901126101dd5760206040517f00000000000000000000000000000000000000000000000000000000000000008152f35b346101dd575f3660031901126101dd576101d960206107d5600161072a7f000000000000000000000000000000000000000000000000000000000000000061117f565b81846107557f000000000000000000000000000000000000000000000000000000000000000061117f565b81806107807f000000000000000000000000000000000000000000000000000000000000000061117f565b9260405199878b985191829101848a015e870190601760f91b83830152805192839101602183015e010190601760f91b84830152805192839101600283015e01015f838201520301601f198101835282610ab4565b604051918291602083526020830190610b5e565b346101dd57366003190160c081126101dd576080136101dd576084356001600160a01b03811681036101dd5760a435906001600160a01b03821682036101dd5760209161021891610c94565b346101dd5760603660031901126101dd576004356001600160401b0381116101dd5761014060031982360301126101dd5761086f82610a69565b8060040135825260208201906024810135825261088e60448201610ad5565b604084015261089f60648201610ad5565b606084019081526108b260848301610ad5565b916080850192835260a481013560a08601526108d060c48201610ae9565b60c08601526108e160e48201610ae9565b60e086015261010481013580151581036101dd576101008601526101248101356001600160401b0381116101dd576101209160046109229236920101610b18565b94019384526024356001600160401b0381116101dd57610946903690600401610b18565b927f0000000000000000000000000000000000000000000000000000000000000000905103610a5a57516001600160401b03168015159081610a50575b50610a4157516001600160401b0316610a32576109bd6109ae60209351848082518301019101610c4a565b91838082518301019101610c4a565b815181516001600160a01b039081169116149182610a22575b82610a0e575b826109ee575b50506040519015158152f35b6060908101519101516001600160a01b03908116911614905082806109e2565b9150604082015160408201511115916109dc565b83810151828501511492506109d6565b637b6227e960e11b5f5260045ffd5b631ab7da6b60e01b5f5260045ffd5b9050421184610983565b635f9bd90760e11b5f5260045ffd5b61014081019081106001600160401b03821117610a8557604052565b634e487b7160e01b5f52604160045260245ffd5b608081019081106001600160401b03821117610a8557604052565b90601f801991011681019081106001600160401b03821117610a8557604052565b35906001600160401b03821682036101dd57565b35906001600160a01b03821682036101dd57565b6001600160401b038111610a8557601f01601f191660200190565b81601f820112156101dd57803590610b2f82610afd565b92610b3d6040519485610ab4565b828452602083830101116101dd57815f926020809301838601378301015290565b805180835260209291819084018484015e5f828201840152601f01601f1916010190565b9181601f840112156101dd578235916001600160401b0383116101dd576020808501948460051b0101116101dd57565b60406003198201126101dd576004356001600160401b0381116101dd5781610bdc91600401610b82565b92909291602435906001600160401b0382116101dd57610bfe91600401610b82565b9091565b60206003198201126101dd57600435906001600160401b0382116101dd576101409082900360031901126101dd5760040190565b51906001600160a01b03821682036101dd57565b908160809103126101dd57610c8c606060405192610c6784610a99565b610c7081610c36565b8452602081015160208501526040810151604085015201610c36565b606082015290565b90915f9260043560018060a01b038116938482141595866101dd576064359060018060a01b038216938483141596876101dd5760243596604435988a3b156101dd57604051637921219560e11b81526001600160a01b039097166004880181905260248801899052604488018a9052606488018b905260a060848901525f60a48901529680808d5a925f60c4928195f19081610f5d575b50610d635750505060a498505050506040519463334a7d1b60e21b865260048601526024850152604484015260648301526084820152fd5b955096919792999890986040519850610f595760208801526040870152606086015250610f4d57608083015260808252610d9e60a083610ab4565b6040519060c082018281106001600160401b03821117610a855760405260018060a01b0316918282528460208301526001604083015284606083015260808201528360a082015260405160408101908082106001600160401b03831117610a85576020916040527f000000000000000000000000000000000000000000000000000000000000000081528181019283526040518093819263f17325e760e01b8352846004840152516024830152516040604483015260018060a01b0381511660648301526001600160401b03848201511660848301526040810151151560a4830152606081015160c483015260a0610ea6608083015160c060e4860152610124850190610b5e565b9101516101048301520381877f00000000000000000000000000000000000000000000000000000000000000006001600160a01b03165af1849181610f21575b50610efa57634a10301360e11b8452600484fd5b7f4b5d781b1f4414459813c44d669c7821fcdec72a83b67c0303229be68d03ad05819480a3565b9091506020813d602011610f51575b81610f3d60209383610ab4565b81010312610f4d5751905f610ee6565b8480fd5b3d9150610f30565b8980fd5b610f6a9196505f90610ab4565b5f945f610d2b565b51906001600160401b03821682036101dd57565b519081151582036101dd57565b929192610f9f82610afd565b91610fad6040519384610ab4565b8294818452818301116101dd578281602093845f96015e010152565b6020818303126101dd578051906001600160401b0382116101dd570190610140828203126101dd5760405191610ffe83610a69565b805183526020810151602084015261101860408201610f72565b604084015261102960608201610f72565b606084015261103a60808201610f72565b608084015260a081015160a084015261105560c08201610c36565b60c084015261106660e08201610c36565b60e08401526110786101008201610f86565b610100840152610120810151906001600160401b0382116101dd57019080601f830112156101dd5781516110ae92602001610f93565b61012082015290565b92909281840361114c575f91345b85841015611141578184101561112d578360051b808601359082821161111e5784013561013e19853603018112156101dd5761110290850161132d565b1561111357600191039301926110c5565b505050505050505f90565b63044044a560e21b5f5260045ffd5b634e487b7160e01b5f52603260045260245ffd5b505050505050600190565b63251f56a160e21b5f5260045ffd5b6040519061116882610a99565b5f6060838281528260208201528260408201520152565b805f9172184f03e93ff9f4daa797ed6e38ed64bf6a1f0160401b8210156112c9575b806d04ee2d6d415b85acef8100000000600a9210156112ae575b662386f26fc1000081101561129a575b6305f5e100811015611289575b61271081101561127a575b606481101561126c575b1015611261575b600a6021600184019361120685610afd565b946112146040519687610ab4565b808652611223601f1991610afd565b013660208701378401015b5f1901916f181899199a1a9b1b9c1cb0b131b232b360811b8282061a835304801561125c57600a909161122e565b505090565b6001909101906111f4565b6064600291049301926111ed565b612710600491049301926111e3565b6305f5e100600891049301926111d8565b662386f26fc10000601091049301926111cb565b6d04ee2d6d415b85acef8100000000602091049301926111bb565b506040915072184f03e93ff9f4daa797ed6e38ed64bf6a1f0160401b81046111a1565b7f00000000000000000000000000000000000000000000000000000000000000006001600160a01b0316330361131e57565b634ca8886760e01b5f5260045ffd5b60e001356001600160a01b03811681036101dd576001600160a01b031630149056fea264697066735822122091710cd836c3428dc9cf0578317e3d32d98a37444af805ad8f6b89d84bba94f664736f6c634300081b0033","linkReferences":{}},"methodIdentifiers":{"ATTESTATION_SCHEMA()":"5bf2f20d","attest((bytes32,bytes32,uint64,uint64,uint64,bytes32,address,address,bool,bytes))":"e60c3505","checkStatement((bytes32,bytes32,uint64,uint64,uint64,bytes32,address,address,bool,bytes),bytes,bytes32)":"1272ff8b","decodeStatementData(bytes)":"e112ea08","getSchema()":"6b122fe0","getStatement(bytes32)":"5cc02d2f","getStatementData(bytes32)":"c75c572b","isPayable()":"ce46e046","makeStatement((address,uint256,uint256,address))":"ca1fa180","makeStatementFor((address,uint256,uint256,address),address,address)":"2daf79cd","multiAttest((bytes32,bytes32,uint64,uint64,uint64,bytes32,address,address,bool,bytes)[],uint256[])":"91db0b7e","multiRevoke((bytes32,bytes32,uint64,uint64,uint64,bytes32,address,address,bool,bytes)[],uint256[])":"88e5b2d9","revoke((bytes32,bytes32,uint64,uint64,uint64,bytes32,address,address,bool,bytes))":"e49617e1","version()":"54fd4d50"},"id":87}