{"abi":[{"type":"constructor","inputs":[{"name":"_eas","type":"address","internalType":"contract IEAS"},{"name":"_schemaRegistry","type":"address","internalType":"contract ISchemaRegistry"}],"stateMutability":"nonpayable"},{"type":"receive","stateMutability":"payable"},{"type":"function","name":"ATTESTATION_SCHEMA","inputs":[],"outputs":[{"name":"","type":"bytes32","internalType":"bytes32"}],"stateMutability":"view"},{"type":"function","name":"attest","inputs":[{"name":"attestation","type":"tuple","internalType":"struct Attestation","components":[{"name":"uid","type":"bytes32","internalType":"bytes32"},{"name":"schema","type":"bytes32","internalType":"bytes32"},{"name":"time","type":"uint64","internalType":"uint64"},{"name":"expirationTime","type":"uint64","internalType":"uint64"},{"name":"revocationTime","type":"uint64","internalType":"uint64"},{"name":"refUID","type":"bytes32","internalType":"bytes32"},{"name":"recipient","type":"address","internalType":"address"},{"name":"attester","type":"address","internalType":"address"},{"name":"revocable","type":"bool","internalType":"bool"},{"name":"data","type":"bytes","internalType":"bytes"}]}],"outputs":[{"name":"","type":"bool","internalType":"bool"}],"stateMutability":"payable"},{"type":"function","name":"checkStatement","inputs":[{"name":"statement","type":"tuple","internalType":"struct Attestation","components":[{"name":"uid","type":"bytes32","internalType":"bytes32"},{"name":"schema","type":"bytes32","internalType":"bytes32"},{"name":"time","type":"uint64","internalType":"uint64"},{"name":"expirationTime","type":"uint64","internalType":"uint64"},{"name":"revocationTime","type":"uint64","internalType":"uint64"},{"name":"refUID","type":"bytes32","internalType":"bytes32"},{"name":"recipient","type":"address","internalType":"address"},{"name":"attester","type":"address","internalType":"address"},{"name":"revocable","type":"bool","internalType":"bool"},{"name":"data","type":"bytes","internalType":"bytes"}]},{"name":"demand","type":"bytes","internalType":"bytes"},{"name":"","type":"bytes32","internalType":"bytes32"}],"outputs":[{"name":"","type":"bool","internalType":"bool"}],"stateMutability":"view"},{"type":"function","name":"collectExpired","inputs":[{"name":"uid","type":"bytes32","internalType":"bytes32"}],"outputs":[{"name":"","type":"bool","internalType":"bool"}],"stateMutability":"nonpayable"},{"type":"function","name":"collectPayment","inputs":[{"name":"_payment","type":"bytes32","internalType":"bytes32"},{"name":"_fulfillment","type":"bytes32","internalType":"bytes32"}],"outputs":[{"name":"","type":"bool","internalType":"bool"}],"stateMutability":"nonpayable"},{"type":"function","name":"getSchema","inputs":[],"outputs":[{"name":"","type":"tuple","internalType":"struct SchemaRecord","components":[{"name":"uid","type":"bytes32","internalType":"bytes32"},{"name":"resolver","type":"address","internalType":"contract ISchemaResolver"},{"name":"revocable","type":"bool","internalType":"bool"},{"name":"schema","type":"string","internalType":"string"}]}],"stateMutability":"view"},{"type":"function","name":"getStatement","inputs":[{"name":"uid","type":"bytes32","internalType":"bytes32"}],"outputs":[{"name":"","type":"tuple","internalType":"struct Attestation","components":[{"name":"uid","type":"bytes32","internalType":"bytes32"},{"name":"schema","type":"bytes32","internalType":"bytes32"},{"name":"time","type":"uint64","internalType":"uint64"},{"name":"expirationTime","type":"uint64","internalType":"uint64"},{"name":"revocationTime","type":"uint64","internalType":"uint64"},{"name":"refUID","type":"bytes32","internalType":"bytes32"},{"name":"recipient","type":"address","internalType":"address"},{"name":"attester","type":"address","internalType":"address"},{"name":"revocable","type":"bool","internalType":"bool"},{"name":"data","type":"bytes","internalType":"bytes"}]}],"stateMutability":"view"},{"type":"function","name":"isPayable","inputs":[],"outputs":[{"name":"","type":"bool","internalType":"bool"}],"stateMutability":"pure"},{"type":"function","name":"makeStatement","inputs":[{"name":"data","type":"tuple","internalType":"struct ERC1155EscrowObligation.StatementData","components":[{"name":"token","type":"address","internalType":"address"},{"name":"tokenId","type":"uint256","internalType":"uint256"},{"name":"amount","type":"uint256","internalType":"uint256"},{"name":"arbiter","type":"address","internalType":"address"},{"name":"demand","type":"bytes","internalType":"bytes"}]},{"name":"expirationTime","type":"uint64","internalType":"uint64"}],"outputs":[{"name":"uid_","type":"bytes32","internalType":"bytes32"}],"stateMutability":"nonpayable"},{"type":"function","name":"makeStatementFor","inputs":[{"name":"data","type":"tuple","internalType":"struct ERC1155EscrowObligation.StatementData","components":[{"name":"token","type":"address","internalType":"address"},{"name":"tokenId","type":"uint256","internalType":"uint256"},{"name":"amount","type":"uint256","internalType":"uint256"},{"name":"arbiter","type":"address","internalType":"address"},{"name":"demand","type":"bytes","internalType":"bytes"}]},{"name":"expirationTime","type":"uint64","internalType":"uint64"},{"name":"payer","type":"address","internalType":"address"},{"name":"recipient","type":"address","internalType":"address"}],"outputs":[{"name":"uid_","type":"bytes32","internalType":"bytes32"}],"stateMutability":"nonpayable"},{"type":"function","name":"multiAttest","inputs":[{"name":"attestations","type":"tuple[]","internalType":"struct Attestation[]","components":[{"name":"uid","type":"bytes32","internalType":"bytes32"},{"name":"schema","type":"bytes32","internalType":"bytes32"},{"name":"time","type":"uint64","internalType":"uint64"},{"name":"expirationTime","type":"uint64","internalType":"uint64"},{"name":"revocationTime","type":"uint64","internalType":"uint64"},{"name":"refUID","type":"bytes32","internalType":"bytes32"},{"name":"recipient","type":"address","internalType":"address"},{"name":"attester","type":"address","internalType":"address"},{"name":"revocable","type":"bool","internalType":"bool"},{"name":"data","type":"bytes","internalType":"bytes"}]},{"name":"values","type":"uint256[]","internalType":"uint256[]"}],"outputs":[{"name":"","type":"bool","internalType":"bool"}],"stateMutability":"payable"},{"type":"function","name":"multiRevoke","inputs":[{"name":"attestations","type":"tuple[]","internalType":"struct Attestation[]","components":[{"name":"uid","type":"bytes32","internalType":"bytes32"},{"name":"schema","type":"bytes32","internalType":"bytes32"},{"name":"time","type":"uint64","internalType":"uint64"},{"name":"expirationTime","type":"uint64","internalType":"uint64"},{"name":"revocationTime","type":"uint64","internalType":"uint64"},{"name":"refUID","type":"bytes32","internalType":"bytes32"},{"name":"recipient","type":"address","internalType":"address"},{"name":"attester","type":"address","internalType":"address"},{"name":"revocable","type":"bool","internalType":"bool"},{"name":"data","type":"bytes","internalType":"bytes"}]},{"name":"values","type":"uint256[]","internalType":"uint256[]"}],"outputs":[{"name":"","type":"bool","internalType":"bool"}],"stateMutability":"payable"},{"type":"function","name":"onERC1155BatchReceived","inputs":[{"name":"","type":"address","internalType":"address"},{"name":"","type":"address","internalType":"address"},{"name":"","type":"uint256[]","internalType":"uint256[]"},{"name":"","type":"uint256[]","internalType":"uint256[]"},{"name":"","type":"bytes","internalType":"bytes"}],"outputs":[{"name":"","type":"bytes4","internalType":"bytes4"}],"stateMutability":"nonpayable"},{"type":"function","name":"onERC1155Received","inputs":[{"name":"","type":"address","internalType":"address"},{"name":"","type":"address","internalType":"address"},{"name":"","type":"uint256","internalType":"uint256"},{"name":"","type":"uint256","internalType":"uint256"},{"name":"","type":"bytes","internalType":"bytes"}],"outputs":[{"name":"","type":"bytes4","internalType":"bytes4"}],"stateMutability":"nonpayable"},{"type":"function","name":"revoke","inputs":[{"name":"attestation","type":"tuple","internalType":"struct Attestation","components":[{"name":"uid","type":"bytes32","internalType":"bytes32"},{"name":"schema","type":"bytes32","internalType":"bytes32"},{"name":"time","type":"uint64","internalType":"uint64"},{"name":"expirationTime","type":"uint64","internalType":"uint64"},{"name":"revocationTime","type":"uint64","internalType":"uint64"},{"name":"refUID","type":"bytes32","internalType":"bytes32"},{"name":"recipient","type":"address","internalType":"address"},{"name":"attester","type":"address","internalType":"address"},{"name":"revocable","type":"bool","internalType":"bool"},{"name":"data","type":"bytes","internalType":"bytes"}]}],"outputs":[{"name":"","type":"bool","internalType":"bool"}],"stateMutability":"payable"},{"type":"function","name":"supportsInterface","inputs":[{"name":"interfaceId","type":"bytes4","internalType":"bytes4"}],"outputs":[{"name":"","type":"bool","internalType":"bool"}],"stateMutability":"view"},{"type":"function","name":"version","inputs":[],"outputs":[{"name":"","type":"string","internalType":"string"}],"stateMutability":"view"},{"type":"event","name":"EscrowClaimed","inputs":[{"name":"payment","type":"bytes32","indexed":true,"internalType":"bytes32"},{"name":"fulfillment","type":"bytes32","indexed":true,"internalType":"bytes32"},{"name":"fulfiller","type":"address","indexed":true,"internalType":"address"}],"anonymous":false},{"type":"event","name":"EscrowMade","inputs":[{"name":"payment","type":"bytes32","indexed":true,"internalType":"bytes32"},{"name":"buyer","type":"address","indexed":true,"internalType":"address"}],"anonymous":false},{"type":"error","name":"AccessDenied","inputs":[]},{"type":"error","name":"AttestationRevoked","inputs":[]},{"type":"error","name":"DeadlineExpired","inputs":[]},{"type":"error","name":"InsufficientValue","inputs":[]},{"type":"error","name":"InvalidEAS","inputs":[]},{"type":"error","name":"InvalidEscrow","inputs":[]},{"type":"error","name":"InvalidEscrowAttestation","inputs":[]},{"type":"error","name":"InvalidFulfillment","inputs":[]},{"type":"error","name":"InvalidLength","inputs":[]},{"type":"error","name":"InvalidSchema","inputs":[]},{"type":"error","name":"NotFromStatement","inputs":[]},{"type":"error","name":"NotPayable","inputs":[]},{"type":"error","name":"UnauthorizedCall","inputs":[]}],"bytecode":{"object":"0x610160806040523461020e57604081611c0d80380380916100208285610248565b83398101031261020e5780516001600160a01b0381169182820361020e5760200151916001600160a01b03831680840361020e57604051608081016001600160401b0381118282101761023457604052604d815260208101927f6164647265737320746f6b656e2c2075696e7432353620746f6b656e49642c2084527f75696e7432353620616d6f756e742c206164647265737320617262697465722c60408301526c08189e5d195cc819195b585b99609a1b60608301526001608052600360a0525f60c05215610225576084948460209560e05261012052610100525f604051958680958194630c1af44f60e31b8352606060048401525180918160648501528484015e818101830184905230602483015260016044830152601f01601f191681010301925af190811561021a575f916101e4575b50610140526040516119a1908161026c8239608051816107a1015260a051816107cd015260c051816107f8015260e0518161192c015261010051816104e00152610120518181816102af0152818161069b015281816108b001526115d00152610140518181816104ae015281816106d30152818161075d015281816109df0152818161115b01526115230152f35b90506020813d602011610212575b816101ff60209383610248565b8101031261020e57515f610156565b5f80fd5b3d91506101f2565b6040513d5f823e3d90fd5b6341bc07ff60e11b5f5260045ffd5b634e487b7160e01b5f52604160045260245ffd5b601f909101601f19168101906001600160401b038211908210176102345760405256fe6080806040526004361015610029575b50361561001a575f80fd5b631574f9f360e01b5f5260045ffd5b5f905f3560e01c90816301ffc9a714610cd7575080631272ff8b14610bbf57806330088bc91461088557806354fd4d50146107805780635bf2f20d146107455780635cc02d2f1461061f5780636b122fe01461046d578063797b4681146103fb57806388e5b2d9146103d257806391db0b7e146103d2578063a84f2aa014610281578063ad43f5e31461022c578063bc197c8114610196578063ce46e0461461017a578063e49617e114610148578063e60c3505146101485763f23a6e610361000f57346101455760a036600319011261014557610105610ddb565b5061010e610df1565b506084356001600160401b0381116101415761012e903690600401610e36565b5060405163f23a6e6160e01b8152602090f35b5080fd5b80fd5b602061016660e061015836611029565b61016061192a565b01611398565b6040516001600160a01b0390911630148152f35b5034610145578060031936011261014557602090604051908152f35b50346101455760a0366003190112610145576101b0610ddb565b506101b9610df1565b506044356001600160401b038111610141576101d9903690600401610fc2565b506064356001600160401b038111610141576101f9903690600401610fc2565b506084356001600160401b03811161014157610219903690600401610e36565b5060405163bc197c8160e01b8152602090f35b503461014557604036600319011261014557600435906001600160401b0382116101455760a060031983360301126101455760206102798361026c610db1565b90339133916004016113ac565b604051908152f35b5034610145576020366003190112610145576040516328c44a9960e21b8152600480359082015281816024817f00000000000000000000000000000000000000000000000000000000000000006001600160a01b03165afa9081156103925782916103b0575b506001600160401b0360608201511642106103a15781610315610120830151602080825183010191016110c1565b805160c09093015160208201516040909201516001600160a01b03918216949092911690813b1561039d57836103639560405196879586948593637921219560e11b85523060048601611360565b03925af180156103925761037d575b602060405160018152f35b610388828092610d90565b6101455780610372565b6040513d84823e3d90fd5b8380fd5b637bf6a16f60e01b8252600482fd5b6103cc91503d8084833e6103c48183610d90565b810190611285565b5f6102e7565b60206103f16103e036610f72565b926103ec92919261192a565b6116d2565b6040519015158152f35b5034610145576080366003190112610145576004356001600160401b0381116101415760a0600319823603011261014157610434610db1565b604435916001600160a01b038316830361039d57606435936001600160a01b0385168503610145576020610279868686866004016113ac565b503461014557806003193601126101455760608060405161048d81610d75565b8381528360208201528360408201520152604051906351753e3760e11b82527f00000000000000000000000000000000000000000000000000000000000000006004830152808260248160018060a01b037f0000000000000000000000000000000000000000000000000000000000000000165afa90811561061357809161055a575b606082610556604051928392602084528051602085015260018060a01b0360208201511660408501526040810151151582850152015160808084015260a0830190610e7c565b0390f35b90503d8082843e61056b8184610d90565b820191602081840312610141578051906001600160401b03821161060f57019060808284031261014557604051916105a283610d75565b8051835260208101516001600160a01b038116810361060f5760208401526105cc60408201611278565b60408401526060810151906001600160401b03821161060f57019083601f83011215610145575060609281602061060593519101611071565b828201525f610510565b8280fd5b604051903d90823e3d90fd5b503461014557602036600319011261014557606061012060405161064281610d2a565b83815283602082015283604082015283838201528360808201528360a08201528360c08201528360e0820152836101008201520152604051906328c44a9960e21b82526004356004830152808260248160018060a01b037f0000000000000000000000000000000000000000000000000000000000000000165afa91821561073857819261071c575b5060208201517f00000000000000000000000000000000000000000000000000000000000000000361070d576040516020808252819061055690820185610ea0565b63295d5f3960e01b8152600490fd5b6107319192503d8084833e6103c48183610d90565b905f6106cb565b50604051903d90823e3d90fd5b503461014557806003193601126101455760206040517f00000000000000000000000000000000000000000000000000000000000000008152f35b503461014557806003193601126101455760206108716001610556936107c57f00000000000000000000000000000000000000000000000000000000000000006117bd565b9082856107f17f00000000000000000000000000000000000000000000000000000000000000006117bd565b818061081c7f00000000000000000000000000000000000000000000000000000000000000006117bd565b926040519a888c995191829101848b015e880190601760f91b83830152805192839101602183015e010190601760f91b84830152805192839101600283015e010190838201520301601f198101835282610d90565b604051918291602083526020830190610e7c565b5034610b2d576040366003190112610b2d576040516328c44a9960e21b8152600480359082018190527f00000000000000000000000000000000000000000000000000000000000000006001600160a01b031692916024803591905f90829081885afa908115610b22575f91610ba5575b506040516328c44a9960e21b815260048101839052945f86602481845afa958615610b22575f96610b89575b5061092c82611762565b15610b7a5761099d602061094d6101208501518280825183010191016110c1565b9360018060a01b0360608601511661098b8a6080880151935160405196879586948594631272ff8b60e01b8652606060048701526064860190610ea0565b84810360031901602486015290610e7c565b90604483015203915afa908115610b22575f91610b40575b5015610b31576040516109c781610d5a565b8481525f6020820152604051906109dd82610d5a565b7f0000000000000000000000000000000000000000000000000000000000000000825260208201908152823b15610b2d5760645f92836020956040519687958694634692626760e01b86525160048601525180516024860152015160448401525af18015610b2257610b0d575b5060c060018060a01b0382511695019460018060a01b03865116916040602082015191015192823b15610b095791610a9e939187809460405196879586948593637921219560e11b85523060048601611360565b03925af18015610afe57610ae9575b5060209360018060a01b03905116917fd903ca32e81477af89f5b8a6ce888d185cc715390e49474a77b4c6846254cccd6040519480a460018152f35b610af4848092610d90565b61060f575f610aad565b6040513d86823e3d90fd5b8680fd5b610b1a9194505f90610d90565b5f925f610a4a565b6040513d5f823e3d90fd5b5f80fd5b630ebe58ef60e11b5f5260045ffd5b90506020813d602011610b72575b81610b5b60209383610d90565b81010312610b2d57610b6c90611278565b5f6109b5565b3d9150610b4e565b63629cd40b60e11b5f5260045ffd5b610b9e9196503d805f833e6103c48183610d90565b945f610922565b610bb991503d805f833e6103c48183610d90565b5f6108f6565b34610b2d576060366003190112610b2d576004356001600160401b038111610b2d576101406003198236030112610b2d5760405190610bfd82610d2a565b8060040135825260248101356020830152610c1a60448201610dc7565b6040830152610c2b60648201610dc7565b6060830152610c3c60848201610dc7565b608083015260a481013560a0830152610c5760c48201610e07565b60c0830152610c6860e48201610e07565b60e08301526101048101358015158103610b2d57610100830152610124810135906001600160401b038211610b2d576004610ca69236920101610e36565b6101208201526024356001600160401b038111610b2d57602091610cd16103f1923690600401610e36565b90611159565b34610b2d576020366003190112610b2d576004359063ffffffff60e01b8216809203610b2d57602091630271189760e51b8114908115610d19575b5015158152f35b6301ffc9a760e01b14905083610d12565b61014081019081106001600160401b03821117610d4657604052565b634e487b7160e01b5f52604160045260245ffd5b604081019081106001600160401b03821117610d4657604052565b608081019081106001600160401b03821117610d4657604052565b90601f801991011681019081106001600160401b03821117610d4657604052565b602435906001600160401b0382168203610b2d57565b35906001600160401b0382168203610b2d57565b600435906001600160a01b0382168203610b2d57565b602435906001600160a01b0382168203610b2d57565b35906001600160a01b0382168203610b2d57565b6001600160401b038111610d4657601f01601f191660200190565b81601f82011215610b2d57803590610e4d82610e1b565b92610e5b6040519485610d90565b82845260208383010111610b2d57815f926020809301838601378301015290565b805180835260209291819084018484015e5f828201840152601f01601f1916010190565b90610140610120610f3f9380518452602081015160208501526001600160401b0360408201511660408501526001600160401b0360608201511660608501526001600160401b03608082015116608085015260a081015160a085015260018060a01b0360c08201511660c085015260018060a01b0360e08201511660e08501526101008101511515610100850152015191816101208201520190610e7c565b90565b9181601f84011215610b2d578235916001600160401b038311610b2d576020808501948460051b010111610b2d57565b6040600319820112610b2d576004356001600160401b038111610b2d5781610f9c91600401610f42565b92909291602435906001600160401b038211610b2d57610fbe91600401610f42565b9091565b9080601f83011215610b2d578135916001600160401b038311610d46578260051b9060405193610ff56020840186610d90565b8452602080850192820101928311610b2d57602001905b8282106110195750505090565b813581526020918201910161100c565b6020600319820112610b2d57600435906001600160401b038211610b2d57610140908290036003190112610b2d5760040190565b51906001600160a01b0382168203610b2d57565b92919261107d82610e1b565b9161108b6040519384610d90565b829481845281830111610b2d578281602093845f96015e010152565b9080601f83011215610b2d578151610f3f92602001611071565b602081830312610b2d578051906001600160401b038211610b2d570160a081830312610b2d576040519160a083018381106001600160401b03821117610d465760405261110d8261105d565b8352602082015160208401526040820151604084015261112f6060830161105d565b606084015260808201516001600160401b038111610b2d5761115192016110a7565b608082015290565b7f00000000000000000000000000000000000000000000000000000000000000006020820151036112555761118d81611762565b1561124f576111ad6101206111bd920151602080825183010191016110c1565b91602080825183010191016110c1565b815181516001600160a01b03908116911614918261123c575b82611228575b82611209575b826111ec57505090565b608091925081015160208151910120910151602081519101201490565b606080820151908301516001600160a01b0390811691161492506111e2565b9150604082015160408201511115916111dc565b91506020820151602082015114916111d6565b50505f90565b635f9bd90760e11b5f5260045ffd5b51906001600160401b0382168203610b2d57565b51908115158203610b2d57565b602081830312610b2d578051906001600160401b038211610b2d570161014081830312610b2d57604051916112b983610d2a565b81518352602082015160208401526112d360408301611264565b60408401526112e460608301611264565b60608401526112f560808301611264565b608084015260a082015160a084015261131060c0830161105d565b60c084015261132160e0830161105d565b60e08401526113336101008301611278565b6101008401526101208201516001600160401b038111610b2d5761135792016110a7565b61012082015290565b6001600160a01b039182168152911660208201526040810191909152606081019190915260a0608082018190525f9082015260c00190565b356001600160a01b0381168103610b2d5790565b939290916113b985611398565b5f956020810135929091604083013591906001600160a01b0316803b15610b2d57825f9186836114029560405196879586948593637921219560e11b8552309060048601611360565b03925af18015610b2257611676575b50604051602080820152926001600160a01b0361142d84610e07565b1660408501526060840152608083015260018060a01b0361145060608301610e07565b1660a08301526080810135601e1982360301811215610b095701602081359101906001600160401b038111610b09578036038213610b09578281610100926114c29460a060c08501528160e08501528484013788838284010152601f801991011681010301601f198101835282610d90565b6040519160c083018381106001600160401b0382111761166257906001600160401b039160405260018060a01b0316938484521660208301526001604083015284606083015260808201528360a0820152602060405161152181610d5a565b7f000000000000000000000000000000000000000000000000000000000000000081528181019283526040518093819263f17325e760e01b8352846004840152516024830152516040604483015260018060a01b0381511660648301526001600160401b03848201511660848301526040810151151560a4830152606081015160c483015260a06115c2608083015160c060e4860152610124850190610e7c565b9101516101048301520381877f00000000000000000000000000000000000000000000000000000000000000006001600160a01b03165af1908115610afe578491611630575b507f8f7f2dbafd79125e808bf16a53d7fa4e17b8b6374ced76d946a45f94b7bf4d06819480a3565b90506020813d60201161165a575b8161164b60209383610d90565b8101031261039d57515f611608565b3d915061163e565b634e487b7160e01b87526041600452602487fd5b6116839197505f90610d90565b5f955f611411565b919081101561169b5760051b0190565b634e487b7160e01b5f52603260045260245ffd5b919081101561169b5760051b8101359061013e1981360301821215610b2d570190565b919290818103611753575f91345b8284106116f257505050505050600190565b6116fd84838861168b565b35818111611744576117108585886116af565b30906001600160a01b03906117279060e001611398565b160361173957600191039301926116e0565b505050505050505f90565b63044044a560e21b5f5260045ffd5b63251f56a160e21b5f5260045ffd5b6001600160401b0360608201511680151590816117b3575b506117a457608001516001600160401b031661179557600190565b637b6227e960e11b5f5260045ffd5b631ab7da6b60e01b5f5260045ffd5b905042115f61177a565b805f9172184f03e93ff9f4daa797ed6e38ed64bf6a1f0160401b821015611907575b806d04ee2d6d415b85acef8100000000600a9210156118ec575b662386f26fc100008110156118d8575b6305f5e1008110156118c7575b6127108110156118b8575b60648110156118aa575b101561189f575b600a6021600184019361184485610e1b565b946118526040519687610d90565b808652611861601f1991610e1b565b013660208701378401015b5f1901916f181899199a1a9b1b9c1cb0b131b232b360811b8282061a835304801561189a57600a909161186c565b505090565b600190910190611832565b60646002910493019261182b565b61271060049104930192611821565b6305f5e10060089104930192611816565b662386f26fc1000060109104930192611809565b6d04ee2d6d415b85acef8100000000602091049301926117f9565b506040915072184f03e93ff9f4daa797ed6e38ed64bf6a1f0160401b81046117df565b7f00000000000000000000000000000000000000000000000000000000000000006001600160a01b0316330361195c57565b634ca8886760e01b5f5260045ffdfea2646970667358221220712f5492adcc70671865cc4a75b8f7fceaec5ea8d14d20edb893c7eb76dc0d3464736f6c634300081a0033","linkReferences":{}},"methodIdentifiers":{"ATTESTATION_SCHEMA()":"5bf2f20d","attest((bytes32,bytes32,uint64,uint64,uint64,bytes32,address,address,bool,bytes))":"e60c3505","checkStatement((bytes32,bytes32,uint64,uint64,uint64,bytes32,address,address,bool,bytes),bytes,bytes32)":"1272ff8b","collectExpired(bytes32)":"a84f2aa0","collectPayment(bytes32,bytes32)":"30088bc9","getSchema()":"6b122fe0","getStatement(bytes32)":"5cc02d2f","isPayable()":"ce46e046","makeStatement((address,uint256,uint256,address,bytes),uint64)":"ad43f5e3","makeStatementFor((address,uint256,uint256,address,bytes),uint64,address,address)":"797b4681","multiAttest((bytes32,bytes32,uint64,uint64,uint64,bytes32,address,address,bool,bytes)[],uint256[])":"91db0b7e","multiRevoke((bytes32,bytes32,uint64,uint64,uint64,bytes32,address,address,bool,bytes)[],uint256[])":"88e5b2d9","onERC1155BatchReceived(address,address,uint256[],uint256[],bytes)":"bc197c81","onERC1155Received(address,address,uint256,uint256,bytes)":"f23a6e61","revoke((bytes32,bytes32,uint64,uint64,uint64,bytes32,address,address,bool,bytes))":"e49617e1","supportsInterface(bytes4)":"01ffc9a7","version()":"54fd4d50"},"id":54}