{"abi":[{"type":"constructor","inputs":[{"name":"_eas","type":"address","internalType":"contract IEAS"},{"name":"_schemaRegistry","type":"address","internalType":"contract ISchemaRegistry"}],"stateMutability":"nonpayable"},{"type":"receive","stateMutability":"payable"},{"type":"function","name":"ATTESTATION_SCHEMA","inputs":[],"outputs":[{"name":"","type":"bytes32","internalType":"bytes32"}],"stateMutability":"view"},{"type":"function","name":"attest","inputs":[{"name":"attestation","type":"tuple","internalType":"struct Attestation","components":[{"name":"uid","type":"bytes32","internalType":"bytes32"},{"name":"schema","type":"bytes32","internalType":"bytes32"},{"name":"time","type":"uint64","internalType":"uint64"},{"name":"expirationTime","type":"uint64","internalType":"uint64"},{"name":"revocationTime","type":"uint64","internalType":"uint64"},{"name":"refUID","type":"bytes32","internalType":"bytes32"},{"name":"recipient","type":"address","internalType":"address"},{"name":"attester","type":"address","internalType":"address"},{"name":"revocable","type":"bool","internalType":"bool"},{"name":"data","type":"bytes","internalType":"bytes"}]}],"outputs":[{"name":"","type":"bool","internalType":"bool"}],"stateMutability":"payable"},{"type":"function","name":"checkStatement","inputs":[{"name":"statement","type":"tuple","internalType":"struct Attestation","components":[{"name":"uid","type":"bytes32","internalType":"bytes32"},{"name":"schema","type":"bytes32","internalType":"bytes32"},{"name":"time","type":"uint64","internalType":"uint64"},{"name":"expirationTime","type":"uint64","internalType":"uint64"},{"name":"revocationTime","type":"uint64","internalType":"uint64"},{"name":"refUID","type":"bytes32","internalType":"bytes32"},{"name":"recipient","type":"address","internalType":"address"},{"name":"attester","type":"address","internalType":"address"},{"name":"revocable","type":"bool","internalType":"bool"},{"name":"data","type":"bytes","internalType":"bytes"}]},{"name":"demand","type":"bytes","internalType":"bytes"},{"name":"","type":"bytes32","internalType":"bytes32"}],"outputs":[{"name":"","type":"bool","internalType":"bool"}],"stateMutability":"view"},{"type":"function","name":"collectExpired","inputs":[{"name":"uid","type":"bytes32","internalType":"bytes32"}],"outputs":[{"name":"","type":"bool","internalType":"bool"}],"stateMutability":"nonpayable"},{"type":"function","name":"collectPayment","inputs":[{"name":"_payment","type":"bytes32","internalType":"bytes32"},{"name":"_fulfillment","type":"bytes32","internalType":"bytes32"}],"outputs":[{"name":"","type":"bool","internalType":"bool"}],"stateMutability":"nonpayable"},{"type":"function","name":"getSchema","inputs":[],"outputs":[{"name":"","type":"tuple","internalType":"struct SchemaRecord","components":[{"name":"uid","type":"bytes32","internalType":"bytes32"},{"name":"resolver","type":"address","internalType":"contract ISchemaResolver"},{"name":"revocable","type":"bool","internalType":"bool"},{"name":"schema","type":"string","internalType":"string"}]}],"stateMutability":"view"},{"type":"function","name":"getStatement","inputs":[{"name":"uid","type":"bytes32","internalType":"bytes32"}],"outputs":[{"name":"","type":"tuple","internalType":"struct Attestation","components":[{"name":"uid","type":"bytes32","internalType":"bytes32"},{"name":"schema","type":"bytes32","internalType":"bytes32"},{"name":"time","type":"uint64","internalType":"uint64"},{"name":"expirationTime","type":"uint64","internalType":"uint64"},{"name":"revocationTime","type":"uint64","internalType":"uint64"},{"name":"refUID","type":"bytes32","internalType":"bytes32"},{"name":"recipient","type":"address","internalType":"address"},{"name":"attester","type":"address","internalType":"address"},{"name":"revocable","type":"bool","internalType":"bool"},{"name":"data","type":"bytes","internalType":"bytes"}]}],"stateMutability":"view"},{"type":"function","name":"isPayable","inputs":[],"outputs":[{"name":"","type":"bool","internalType":"bool"}],"stateMutability":"pure"},{"type":"function","name":"makeStatement","inputs":[{"name":"data","type":"tuple","internalType":"struct ERC1155EscrowObligation.StatementData","components":[{"name":"arbiter","type":"address","internalType":"address"},{"name":"demand","type":"bytes","internalType":"bytes"},{"name":"token","type":"address","internalType":"address"},{"name":"tokenId","type":"uint256","internalType":"uint256"},{"name":"amount","type":"uint256","internalType":"uint256"}]},{"name":"expirationTime","type":"uint64","internalType":"uint64"}],"outputs":[{"name":"uid_","type":"bytes32","internalType":"bytes32"}],"stateMutability":"nonpayable"},{"type":"function","name":"makeStatementFor","inputs":[{"name":"data","type":"tuple","internalType":"struct ERC1155EscrowObligation.StatementData","components":[{"name":"arbiter","type":"address","internalType":"address"},{"name":"demand","type":"bytes","internalType":"bytes"},{"name":"token","type":"address","internalType":"address"},{"name":"tokenId","type":"uint256","internalType":"uint256"},{"name":"amount","type":"uint256","internalType":"uint256"}]},{"name":"expirationTime","type":"uint64","internalType":"uint64"},{"name":"payer","type":"address","internalType":"address"},{"name":"recipient","type":"address","internalType":"address"}],"outputs":[{"name":"uid_","type":"bytes32","internalType":"bytes32"}],"stateMutability":"nonpayable"},{"type":"function","name":"multiAttest","inputs":[{"name":"attestations","type":"tuple[]","internalType":"struct Attestation[]","components":[{"name":"uid","type":"bytes32","internalType":"bytes32"},{"name":"schema","type":"bytes32","internalType":"bytes32"},{"name":"time","type":"uint64","internalType":"uint64"},{"name":"expirationTime","type":"uint64","internalType":"uint64"},{"name":"revocationTime","type":"uint64","internalType":"uint64"},{"name":"refUID","type":"bytes32","internalType":"bytes32"},{"name":"recipient","type":"address","internalType":"address"},{"name":"attester","type":"address","internalType":"address"},{"name":"revocable","type":"bool","internalType":"bool"},{"name":"data","type":"bytes","internalType":"bytes"}]},{"name":"values","type":"uint256[]","internalType":"uint256[]"}],"outputs":[{"name":"","type":"bool","internalType":"bool"}],"stateMutability":"payable"},{"type":"function","name":"multiRevoke","inputs":[{"name":"attestations","type":"tuple[]","internalType":"struct Attestation[]","components":[{"name":"uid","type":"bytes32","internalType":"bytes32"},{"name":"schema","type":"bytes32","internalType":"bytes32"},{"name":"time","type":"uint64","internalType":"uint64"},{"name":"expirationTime","type":"uint64","internalType":"uint64"},{"name":"revocationTime","type":"uint64","internalType":"uint64"},{"name":"refUID","type":"bytes32","internalType":"bytes32"},{"name":"recipient","type":"address","internalType":"address"},{"name":"attester","type":"address","internalType":"address"},{"name":"revocable","type":"bool","internalType":"bool"},{"name":"data","type":"bytes","internalType":"bytes"}]},{"name":"values","type":"uint256[]","internalType":"uint256[]"}],"outputs":[{"name":"","type":"bool","internalType":"bool"}],"stateMutability":"payable"},{"type":"function","name":"onERC1155BatchReceived","inputs":[{"name":"","type":"address","internalType":"address"},{"name":"","type":"address","internalType":"address"},{"name":"","type":"uint256[]","internalType":"uint256[]"},{"name":"","type":"uint256[]","internalType":"uint256[]"},{"name":"","type":"bytes","internalType":"bytes"}],"outputs":[{"name":"","type":"bytes4","internalType":"bytes4"}],"stateMutability":"nonpayable"},{"type":"function","name":"onERC1155Received","inputs":[{"name":"","type":"address","internalType":"address"},{"name":"","type":"address","internalType":"address"},{"name":"","type":"uint256","internalType":"uint256"},{"name":"","type":"uint256","internalType":"uint256"},{"name":"","type":"bytes","internalType":"bytes"}],"outputs":[{"name":"","type":"bytes4","internalType":"bytes4"}],"stateMutability":"nonpayable"},{"type":"function","name":"revoke","inputs":[{"name":"attestation","type":"tuple","internalType":"struct Attestation","components":[{"name":"uid","type":"bytes32","internalType":"bytes32"},{"name":"schema","type":"bytes32","internalType":"bytes32"},{"name":"time","type":"uint64","internalType":"uint64"},{"name":"expirationTime","type":"uint64","internalType":"uint64"},{"name":"revocationTime","type":"uint64","internalType":"uint64"},{"name":"refUID","type":"bytes32","internalType":"bytes32"},{"name":"recipient","type":"address","internalType":"address"},{"name":"attester","type":"address","internalType":"address"},{"name":"revocable","type":"bool","internalType":"bool"},{"name":"data","type":"bytes","internalType":"bytes"}]}],"outputs":[{"name":"","type":"bool","internalType":"bool"}],"stateMutability":"payable"},{"type":"function","name":"supportsInterface","inputs":[{"name":"interfaceId","type":"bytes4","internalType":"bytes4"}],"outputs":[{"name":"","type":"bool","internalType":"bool"}],"stateMutability":"view"},{"type":"function","name":"version","inputs":[],"outputs":[{"name":"","type":"string","internalType":"string"}],"stateMutability":"view"},{"type":"event","name":"EscrowClaimed","inputs":[{"name":"payment","type":"bytes32","indexed":true,"internalType":"bytes32"},{"name":"fulfillment","type":"bytes32","indexed":true,"internalType":"bytes32"},{"name":"fulfiller","type":"address","indexed":true,"internalType":"address"}],"anonymous":false},{"type":"event","name":"EscrowMade","inputs":[{"name":"payment","type":"bytes32","indexed":true,"internalType":"bytes32"},{"name":"buyer","type":"address","indexed":true,"internalType":"address"}],"anonymous":false},{"type":"error","name":"AccessDenied","inputs":[]},{"type":"error","name":"AttestationRevoked","inputs":[]},{"type":"error","name":"DeadlineExpired","inputs":[]},{"type":"error","name":"InsufficientValue","inputs":[]},{"type":"error","name":"InvalidEAS","inputs":[]},{"type":"error","name":"InvalidEscrow","inputs":[]},{"type":"error","name":"InvalidEscrowAttestation","inputs":[]},{"type":"error","name":"InvalidFulfillment","inputs":[]},{"type":"error","name":"InvalidLength","inputs":[]},{"type":"error","name":"InvalidSchema","inputs":[]},{"type":"error","name":"NotFromStatement","inputs":[]},{"type":"error","name":"NotPayable","inputs":[]},{"type":"error","name":"UnauthorizedCall","inputs":[]}],"bytecode":{"object":"0x610160806040523461020e57604081611bf180380380916100208285610248565b83398101031261020e5780516001600160a01b0381169182820361020e5760200151916001600160a01b03831680840361020e57604051608081016001600160401b0381118282101761023457604052604d815260208101927f6164647265737320746f6b656e2c2075696e7432353620746f6b656e49642c2084527f75696e7432353620616d6f756e742c206164647265737320617262697465722c60408301526c08189e5d195cc819195b585b99609a1b60608301526001608052600360a0525f60c05215610225576084948460209560e05261012052610100525f604051958680958194630c1af44f60e31b8352606060048401525180918160648501528484015e818101830184905230602483015260016044830152601f01601f191681010301925af190811561021a575f916101e4575b5061014052604051611985908161026c823960805181610755015260a05181610781015260c051816107ac015260e05181611910015261010051816104940152610120518181816102d60152818161064f01528181610864015261168701526101405181818161046201528181610687015281816107110152818161098f0152818161115b01526115da0152f35b90506020813d602011610212575b816101ff60209383610248565b8101031261020e57515f610156565b5f80fd5b3d91506101f2565b6040513d5f823e3d90fd5b6341bc07ff60e11b5f5260045ffd5b634e487b7160e01b5f52604160045260245ffd5b601f909101601f19168101906001600160401b038211908210176102345760405256fe6080806040526004361015610029575b50361561001a575f80fd5b631574f9f360e01b5f5260045ffd5b5f905f3560e01c90816301ffc9a714610cd5575080630b0f07d514610c8a5780631272ff8b14610b7257806330088bc91461083957806354fd4d50146107345780635bf2f20d146106f95780635cc02d2f146105d35780636b122fe01461042157806388e5b2d9146103f857806391db0b7e146103f8578063a84f2aa0146102a8578063bc197c8114610212578063ce46e046146101f6578063e49617e1146101c4578063e60c3505146101c4578063eed8f352146101465763f23a6e610361000f57346101435760a036600319011261014357610105610dd9565b5061010e610def565b506084356001600160401b0381116101415761012e903690600401610e34565b5060405163f23a6e6160e01b8152602090f35b505b80fd5b5034610143576080366003190112610143576004356001600160401b0381116101415760a060031982360301126101415761017f610d28565b604435916001600160a01b03831683036101c057606435936001600160a01b03851685036101435760206101b88686868660040161145e565b604051908152f35b8380fd5b60206101e260e06101d436611027565b6101dc61190e565b0161144a565b6040516001600160a01b0390911630148152f35b5034610143578060031936011261014357602090604051908152f35b50346101435760a03660031901126101435761022c610dd9565b50610235610def565b506044356001600160401b03811161014157610255903690600401610fc0565b506064356001600160401b03811161014157610275903690600401610fc0565b506084356001600160401b03811161014157610295903690600401610e34565b5060405163bc197c8160e01b8152602090f35b5034610143576020366003190112610143576040516328c44a9960e21b8152600480359082015281816024817f00000000000000000000000000000000000000000000000000000000000000006001600160a01b03165afa9081156103bc5782916103d6575b506001600160401b0360608201511642106103c7578161033c610120830151602080825183010191016110bf565b604081015160c09093015160608201516080909201516001600160a01b03918216949092911690813b156101c0578361038d9560405196879586948593637921219560e11b8552306004860161135f565b03925af180156103bc576103a7575b602060405160018152f35b6103b2828092610db8565b610143578061039c565b6040513d84823e3d90fd5b637bf6a16f60e01b8252600482fd5b6103f291503d8084833e6103ea8183610db8565b810190611284565b5f61030e565b602061041761040636610f70565b9261041292919261190e565b611397565b6040519015158152f35b503461014357806003193601126101435760608060405161044181610d9d565b8381528360208201528360408201520152604051906351753e3760e11b82527f00000000000000000000000000000000000000000000000000000000000000006004830152808260248160018060a01b037f0000000000000000000000000000000000000000000000000000000000000000165afa9081156105c757809161050e575b60608261050a604051928392602084528051602085015260018060a01b0360208201511660408501526040810151151582850152015160808084015260a0830190610e7a565b0390f35b90503d8082843e61051f8184610db8565b820191602081840312610141578051906001600160401b0382116105c3570190608082840312610143576040519161055683610d9d565b8051835260208101516001600160a01b03811681036105c357602084015261058060408201611277565b60408401526060810151906001600160401b0382116105c357019083601f8301121561014357506060928160206105b99351910161106f565b828201525f6104c4565b8280fd5b604051903d90823e3d90fd5b50346101435760203660031901126101435760606101206040516105f681610d52565b83815283602082015283604082015283838201528360808201528360a08201528360c08201528360e0820152836101008201520152604051906328c44a9960e21b82526004356004830152808260248160018060a01b037f0000000000000000000000000000000000000000000000000000000000000000165afa9182156106ec5781926106d0575b5060208201517f0000000000000000000000000000000000000000000000000000000000000000036106c1576040516020808252819061050a90820185610e9e565b63295d5f3960e01b8152600490fd5b6106e59192503d8084833e6103ea8183610db8565b905f61067f565b50604051903d90823e3d90fd5b503461014357806003193601126101435760206040517f00000000000000000000000000000000000000000000000000000000000000008152f35b50346101435780600319360112610143576020610825600161050a936107797f00000000000000000000000000000000000000000000000000000000000000006117a1565b9082856107a57f00000000000000000000000000000000000000000000000000000000000000006117a1565b81806107d07f00000000000000000000000000000000000000000000000000000000000000006117a1565b926040519a888c995191829101848b015e880190601760f91b83830152805192839101602183015e010190601760f91b84830152805192839101600283015e010190838201520301601f198101835282610db8565b604051918291602083526020830190610e7a565b5034610ae0576040366003190112610ae0576040516328c44a9960e21b8152600480359082018190527f00000000000000000000000000000000000000000000000000000000000000006001600160a01b031692916024803591905f90829081885afa908115610ad5575f91610b58575b506040516328c44a9960e21b815260048101839052945f86602481845afa958615610ad5575f96610b3c575b506108e082611746565b15610b2d5761094d60206109016101208501518280825183010191016110bf565b9360018060a01b0385511661093b8a84880151935160405196879586948594631272ff8b60e01b8652606060048701526064860190610e9e565b84810360031901602486015290610e7a565b90604483015203915afa908115610ad5575f91610af3575b5015610ae45760405161097781610d82565b8481525f60208201526040519061098d82610d82565b7f0000000000000000000000000000000000000000000000000000000000000000825260208201908152823b15610ae05760645f92836020956040519687958694634692626760e01b86525160048601525180516024860152015160448401525af18015610ad557610ac0575b5060c060018060a01b0360408301511695019460018060a01b03865116916080606082015191015192823b15610abc5791610a51939187809460405196879586948593637921219560e11b8552306004860161135f565b03925af18015610ab157610a9c575b5060209360018060a01b03905116917fd903ca32e81477af89f5b8a6ce888d185cc715390e49474a77b4c6846254cccd6040519480a460018152f35b610aa7848092610db8565b6105c3575f610a60565b6040513d86823e3d90fd5b8680fd5b610acd9194505f90610db8565b5f925f6109fa565b6040513d5f823e3d90fd5b5f80fd5b630ebe58ef60e11b5f5260045ffd5b90506020813d602011610b25575b81610b0e60209383610db8565b81010312610ae057610b1f90611277565b5f610965565b3d9150610b01565b63629cd40b60e11b5f5260045ffd5b610b519196503d805f833e6103ea8183610db8565b945f6108d6565b610b6c91503d805f833e6103ea8183610db8565b5f6108aa565b34610ae0576060366003190112610ae0576004356001600160401b038111610ae0576101406003198236030112610ae05760405190610bb082610d52565b8060040135825260248101356020830152610bcd60448201610d3e565b6040830152610bde60648201610d3e565b6060830152610bef60848201610d3e565b608083015260a481013560a0830152610c0a60c48201610e05565b60c0830152610c1b60e48201610e05565b60e08301526101048101358015158103610ae057610100830152610124810135906001600160401b038211610ae0576004610c599236920101610e34565b6101208201526024356001600160401b038111610ae057602091610c84610417923690600401610e34565b90611159565b34610ae0576040366003190112610ae0576004356001600160401b038111610ae05760a06003198236030112610ae0576101b8602091610cc8610d28565b903391339160040161145e565b34610ae0576020366003190112610ae0576004359063ffffffff60e01b8216809203610ae057602091630271189760e51b8114908115610d17575b5015158152f35b6301ffc9a760e01b14905083610d10565b602435906001600160401b0382168203610ae057565b35906001600160401b0382168203610ae057565b61014081019081106001600160401b03821117610d6e57604052565b634e487b7160e01b5f52604160045260245ffd5b604081019081106001600160401b03821117610d6e57604052565b608081019081106001600160401b03821117610d6e57604052565b90601f801991011681019081106001600160401b03821117610d6e57604052565b600435906001600160a01b0382168203610ae057565b602435906001600160a01b0382168203610ae057565b35906001600160a01b0382168203610ae057565b6001600160401b038111610d6e57601f01601f191660200190565b81601f82011215610ae057803590610e4b82610e19565b92610e596040519485610db8565b82845260208383010111610ae057815f926020809301838601378301015290565b805180835260209291819084018484015e5f828201840152601f01601f1916010190565b90610140610120610f3d9380518452602081015160208501526001600160401b0360408201511660408501526001600160401b0360608201511660608501526001600160401b03608082015116608085015260a081015160a085015260018060a01b0360c08201511660c085015260018060a01b0360e08201511660e08501526101008101511515610100850152015191816101208201520190610e7a565b90565b9181601f84011215610ae0578235916001600160401b038311610ae0576020808501948460051b010111610ae057565b6040600319820112610ae0576004356001600160401b038111610ae05781610f9a91600401610f40565b92909291602435906001600160401b038211610ae057610fbc91600401610f40565b9091565b9080601f83011215610ae0578135916001600160401b038311610d6e578260051b9060405193610ff36020840186610db8565b8452602080850192820101928311610ae057602001905b8282106110175750505090565b813581526020918201910161100a565b6020600319820112610ae057600435906001600160401b038211610ae057610140908290036003190112610ae05760040190565b51906001600160a01b0382168203610ae057565b92919261107b82610e19565b916110896040519384610db8565b829481845281830111610ae0578281602093845f96015e010152565b9080601f83011215610ae0578151610f3d9260200161106f565b602081830312610ae0578051906001600160401b038211610ae057019060a082820312610ae0576040519160a083018381106001600160401b03821117610d6e5760405261110c8161105b565b835260208101516001600160401b038111610ae05760809261112f9183016110a5565b60208401526111406040820161105b565b6040840152606081015160608401520151608082015290565b7f00000000000000000000000000000000000000000000000000000000000000006020820151036112545761118d81611746565b1561124e576111ad6101206111bd920151602080825183010191016110bf565b91602080825183010191016110bf565b604082810151908201516001600160a01b03908116911614918261123b575b82611227575b8261120e575b826111f257505090565b6020919250810151818151910120910151602081519101201490565b805182516001600160a01b0390811691161492506111e8565b9150608082015160808201511115916111e2565b91506060820151606082015114916111dc565b50505f90565b635f9bd90760e11b5f5260045ffd5b51906001600160401b0382168203610ae057565b51908115158203610ae057565b602081830312610ae0578051906001600160401b038211610ae0570161014081830312610ae057604051916112b883610d52565b81518352602082015160208401526112d260408301611263565b60408401526112e360608301611263565b60608401526112f460808301611263565b608084015260a082015160a084015261130f60c0830161105b565b60c084015261132060e0830161105b565b60e08401526113326101008301611277565b6101008401526101208201516001600160401b038111610ae05761135692016110a5565b61012082015290565b6001600160a01b039182168152911660208201526040810191909152606081019190915260a0608082018190525f9082015260c00190565b92909281840361143b575f91345b85841015611430578184101561141c578360051b808601359082821161140d5784013561013e1985360301811215610ae05730906001600160a01b03906113f090870160e00161144a565b160361140257600191039301926113a5565b505050505050505f90565b63044044a560e21b5f5260045ffd5b634e487b7160e01b5f52603260045260245ffd5b505050505050600190565b63251f56a160e21b5f5260045ffd5b356001600160a01b0381168103610ae05790565b604081019493919261146f8661144a565b5f966060840135929091608085013591906001600160a01b0316803b15610ae057825f9186836114b89560405196879586948593637921219560e11b855230906004860161135f565b03925af18015610ad557611731575b50604051602080820152936001600160a01b036114e382610e05565b1660408601526020810135601e198236030181121561172d5701602081359101916001600160401b03821161172d57813603831361172d57611579946101009483889560a060608801528160e08801528787013784840186018c90526001600160a01b039061155190610e05565b16608085015260a084015260c0830152601f801991011681010301601f198101835282610db8565b6040519160c083018381106001600160401b0382111761171957906001600160401b039160405260018060a01b0316938484521660208301526001604083015284606083015260808201528360a082015260206040516115d881610d82565b7f000000000000000000000000000000000000000000000000000000000000000081528181019283526040518093819263f17325e760e01b8352846004840152516024830152516040604483015260018060a01b0381511660648301526001600160401b03848201511660848301526040810151151560a4830152606081015160c483015260a0611679608083015160c060e4860152610124850190610e7a565b9101516101048301520381877f00000000000000000000000000000000000000000000000000000000000000006001600160a01b03165af1908115610ab15784916116e7575b507f8f7f2dbafd79125e808bf16a53d7fa4e17b8b6374ced76d946a45f94b7bf4d06819480a3565b90506020813d602011611711575b8161170260209383610db8565b810103126101c057515f6116bf565b3d91506116f5565b634e487b7160e01b87526041600452602487fd5b8980fd5b61173e9198505f90610db8565b5f965f6114c7565b6001600160401b036060820151168015159081611797575b5061178857608001516001600160401b031661177957600190565b637b6227e960e11b5f5260045ffd5b631ab7da6b60e01b5f5260045ffd5b905042115f61175e565b805f9172184f03e93ff9f4daa797ed6e38ed64bf6a1f0160401b8210156118eb575b806d04ee2d6d415b85acef8100000000600a9210156118d0575b662386f26fc100008110156118bc575b6305f5e1008110156118ab575b61271081101561189c575b606481101561188e575b1015611883575b600a6021600184019361182885610e19565b946118366040519687610db8565b808652611845601f1991610e19565b013660208701378401015b5f1901916f181899199a1a9b1b9c1cb0b131b232b360811b8282061a835304801561187e57600a9091611850565b505090565b600190910190611816565b60646002910493019261180f565b61271060049104930192611805565b6305f5e100600891049301926117fa565b662386f26fc10000601091049301926117ed565b6d04ee2d6d415b85acef8100000000602091049301926117dd565b506040915072184f03e93ff9f4daa797ed6e38ed64bf6a1f0160401b81046117c3565b7f00000000000000000000000000000000000000000000000000000000000000006001600160a01b0316330361194057565b634ca8886760e01b5f5260045ffdfea26469706673582212206ad24f574715f7fd49e0e8cf5e966f6f9c489e6c4041555c0d18032aefe9335664736f6c634300081b0033","linkReferences":{}},"methodIdentifiers":{"ATTESTATION_SCHEMA()":"5bf2f20d","attest((bytes32,bytes32,uint64,uint64,uint64,bytes32,address,address,bool,bytes))":"e60c3505","checkStatement((bytes32,bytes32,uint64,uint64,uint64,bytes32,address,address,bool,bytes),bytes,bytes32)":"1272ff8b","collectExpired(bytes32)":"a84f2aa0","collectPayment(bytes32,bytes32)":"30088bc9","getSchema()":"6b122fe0","getStatement(bytes32)":"5cc02d2f","isPayable()":"ce46e046","makeStatement((address,bytes,address,uint256,uint256),uint64)":"0b0f07d5","makeStatementFor((address,bytes,address,uint256,uint256),uint64,address,address)":"eed8f352","multiAttest((bytes32,bytes32,uint64,uint64,uint64,bytes32,address,address,bool,bytes)[],uint256[])":"91db0b7e","multiRevoke((bytes32,bytes32,uint64,uint64,uint64,bytes32,address,address,bool,bytes)[],uint256[])":"88e5b2d9","onERC1155BatchReceived(address,address,uint256[],uint256[],bytes)":"bc197c81","onERC1155Received(address,address,uint256,uint256,bytes)":"f23a6e61","revoke((bytes32,bytes32,uint64,uint64,uint64,bytes32,address,address,bool,bytes))":"e49617e1","supportsInterface(bytes4)":"01ffc9a7","version()":"54fd4d50"},"id":74}