{"abi":[{"type":"constructor","inputs":[{"name":"_eas","type":"address","internalType":"contract IEAS"},{"name":"_erc721Escrow","type":"address","internalType":"contract ERC721EscrowObligation"},{"name":"_erc721Payment","type":"address","internalType":"contract ERC721PaymentObligation"}],"stateMutability":"nonpayable"},{"type":"function","name":"buyErc721ForErc721","inputs":[{"name":"bidToken","type":"address","internalType":"address"},{"name":"bidTokenId","type":"uint256","internalType":"uint256"},{"name":"askToken","type":"address","internalType":"address"},{"name":"askTokenId","type":"uint256","internalType":"uint256"},{"name":"expiration","type":"uint64","internalType":"uint64"}],"outputs":[{"name":"","type":"bytes32","internalType":"bytes32"}],"stateMutability":"nonpayable"},{"type":"function","name":"payErc721ForErc721","inputs":[{"name":"buyAttestation","type":"bytes32","internalType":"bytes32"}],"outputs":[{"name":"","type":"bytes32","internalType":"bytes32"}],"stateMutability":"nonpayable"},{"type":"error","name":"CouldntCollectPayment","inputs":[]}],"bytecode":{"object":"0x60803460b957601f61075d38819003918201601f19168301916001600160401b0383118484101760bd5780849260609460405283398101031260b95780516001600160a01b038116919082900360b95760208101516001600160a01b038116919082900360b957604001516001600160a01b038116929083900360b95760018060a01b03195f5416175f5560018060a01b0319600154161760015560018060a01b0319600254161760025560405161068b90816100d28239f35b5f80fd5b634e487b7160e01b5f52604160045260245ffdfe6080806040526004361015610012575f80fd5b5f3560e01c908163ebb48d90146103b2575063eff69b5e14610032575f80fd5b3461024b57602036600319011261024b5760043560245f60018060a01b03815416604051928380926328c44a9960e21b82528660048301525afa8015610257575f90610297575b61012001518051810192915060208184031261024b5760208101519067ffffffffffffffff821161024b570160808184031261024b57604051906100bc8261058b565b6100c8602082016105de565b8252604081015160208301526100e0606082016105de565b604083015260808101519067ffffffffffffffff821161024b57602061010d9281606097019201016105ff565b928391015260608280518101031261024b5761014f6060604051936101318561056f565b61013d602082016105de565b855260408101516020860152016105de565b60408381019182526002549051630fba221960e41b815284516001600160a01b03908116600483015260209586015160248301529251831660448201529391849160a49183915f91163360648401523360848401525af1918215610257575f92610262575b506001546040516330088bc960e01b8152600481019290925260248201839052602090829060449082905f906001600160a01b03165af1908115610257575f91610219575b501561020a57602090604051908152f35b636c7b6f5560e11b5f5260045ffd5b90506020813d60201161024f575b81610234602093836105a7565b8101031261024b57610245906105f2565b5f6101f9565b5f80fd5b3d9150610227565b6040513d5f823e3d90fd5b9091506020813d60201161028f575b8161027e602093836105a7565b8101031261024b57519060206101b4565b3d9150610271565b503d805f833e6102a781836105a7565b81019060208183031261024b5780519067ffffffffffffffff821161024b57016101408183031261024b5760405190610140820182811067ffffffffffffffff82111761039e57604052805182526020810151602083015261030b604082016105c9565b604083015261031c606082016105c9565b606083015261032d608082016105c9565b608083015260a081015160a083015261034860c082016105de565b60c083015261035960e082016105de565b60e083015261036b61010082016105f2565b6101008301526101208101519267ffffffffffffffff841161024b576101209361039592016105ff565b82820152610079565b634e487b7160e01b5f52604160045260245ffd5b3461024b5760a036600319011261024b576004356001600160a01b0381169081900361024b576044356001600160a01b0381169081900361024b576084359167ffffffffffffffff831680930361024b576020925f61012460018060a01b03600154169360018060a01b03600254169561042b8961056f565b88526064358789015233604089015261046f60405198888a019060409060018060a01b038151168352602081015160208401528160018060a01b0391015116910152565b6060885261047e6080896105a7565b6040519061048b8261058b565b8152602435878201908152604080830197885260608301998a5251636b72870760e01b815260806004820181905292516001600160a01b039081166084830152915160a482015296511660c4870152965160e486019790975286516101048601819052949687958694859282908a018585015e848483850101526024830152336044830152336064830152601f801991011681010301925af18015610257575f9061053c575b602090604051908152f35b506020813d602011610567575b81610556602093836105a7565b8101031261024b5760209051610531565b3d9150610549565b6060810190811067ffffffffffffffff82111761039e57604052565b6080810190811067ffffffffffffffff82111761039e57604052565b90601f8019910116810190811067ffffffffffffffff82111761039e57604052565b519067ffffffffffffffff8216820361024b57565b51906001600160a01b038216820361024b57565b5190811515820361024b57565b81601f8201121561024b5780519067ffffffffffffffff821161039e5760405192610634601f8401601f1916602001856105a7565b8284526020838301011161024b57815f9260208093018386015e830101529056fea26469706673582212204385524f660b3424dda8b6268d42f4e79b47899d9c2e96a8e076dd7be5bcd83c64736f6c634300081a0033","linkReferences":{}},"methodIdentifiers":{"buyErc721ForErc721(address,uint256,address,uint256,uint64)":"ebb48d90","payErc721ForErc721(bytes32)":"eff69b5e"},"id":71}