{"abi":[{"type":"constructor","inputs":[{"name":"_eas","type":"address","internalType":"contract IEAS"},{"name":"_erc721Escrow","type":"address","internalType":"contract ERC721EscrowObligation"},{"name":"_erc721Payment","type":"address","internalType":"contract ERC721PaymentObligation"}],"stateMutability":"nonpayable"},{"type":"function","name":"buyErc721ForErc721","inputs":[{"name":"bidToken","type":"address","internalType":"address"},{"name":"bidTokenId","type":"uint256","internalType":"uint256"},{"name":"askToken","type":"address","internalType":"address"},{"name":"askTokenId","type":"uint256","internalType":"uint256"},{"name":"expiration","type":"uint64","internalType":"uint64"}],"outputs":[{"name":"","type":"bytes32","internalType":"bytes32"}],"stateMutability":"nonpayable"},{"type":"function","name":"payErc721ForErc721","inputs":[{"name":"buyAttestation","type":"bytes32","internalType":"bytes32"}],"outputs":[{"name":"","type":"bytes32","internalType":"bytes32"}],"stateMutability":"nonpayable"},{"type":"error","name":"CouldntCollectPayment","inputs":[]}],"bytecode":{"object":"0x60803460b957601f61076038819003918201601f19168301916001600160401b0383118484101760bd5780849260609460405283398101031260b95780516001600160a01b038116919082900360b95760208101516001600160a01b038116919082900360b957604001516001600160a01b038116929083900360b95760018060a01b03195f5416175f5560018060a01b0319600154161760015560018060a01b0319600254161760025560405161068e90816100d28239f35b5f80fd5b634e487b7160e01b5f52604160045260245ffdfe6080806040526004361015610012575f80fd5b5f3560e01c908163ebb48d90146103b1575063eff69b5e14610032575f80fd5b3461024a57602036600319011261024a5760043560245f60018060a01b03815416604051928380926328c44a9960e21b82528660048301525afa8015610256575f90610296575b61012001518051810192915060208184031261024a5760208101519067ffffffffffffffff821161024a57019160808382031261024a57604051906100bd8261058e565b6100c9602085016105e1565b8252604084015167ffffffffffffffff811161024a576100f56080916020806060950191880101610602565b948560208501526101078382016105e1565b6040850152015191015260608280518101031261024a5761014e60606040519361013085610572565b61013c602082016105e1565b855260408101516020860152016105e1565b60408381019182526002549051630fba221960e41b815284516001600160a01b03908116600483015260209586015160248301529251831660448201529391849160a49183915f91163360648401523360848401525af1918215610256575f92610261575b506001546040516330088bc960e01b8152600481019290925260248201839052602090829060449082905f906001600160a01b03165af1908115610256575f91610218575b501561020957602090604051908152f35b636c7b6f5560e11b5f5260045ffd5b90506020813d60201161024e575b81610233602093836105aa565b8101031261024a57610244906105f5565b5f6101f8565b5f80fd5b3d9150610226565b6040513d5f823e3d90fd5b9091506020813d60201161028e575b8161027d602093836105aa565b8101031261024a57519060206101b3565b3d9150610270565b503d805f833e6102a681836105aa565b81019060208183031261024a5780519067ffffffffffffffff821161024a57016101408183031261024a5760405190610140820182811067ffffffffffffffff82111761039d57604052805182526020810151602083015261030a604082016105cc565b604083015261031b606082016105cc565b606083015261032c608082016105cc565b608083015260a081015160a083015261034760c082016105e1565b60c083015261035860e082016105e1565b60e083015261036a61010082016105f5565b6101008301526101208101519267ffffffffffffffff841161024a57610120936103949201610602565b82820152610079565b634e487b7160e01b5f52604160045260245ffd5b3461024a5760a036600319011261024a576004356001600160a01b038116919082900361024a576044356001600160a01b038116929083900361024a576084359267ffffffffffffffff841680940361024a576001546002546020946001600160a01b039283169390925f926101249291169061042d85610572565b845260643587850152336040850152610471604051948886019060409060018060a01b038151168352602081015160208401528160018060a01b0391015116910152565b606084526104806080856105aa565b6040519061048d8261058e565b8152868101938452604081019586528660608201986024358a52604051998a98899788956307e738a360e11b87526080600488015260018060a01b03905116608487015251608060a4870152805194859182610104890152018787015e8484018601879052516001600160a01b031660c48501525160e4840152602483015233604483018190526064830152601f01601f191681010301925af18015610256575f9061053f575b602090604051908152f35b506020813d60201161056a575b81610559602093836105aa565b8101031261024a5760209051610534565b3d915061054c565b6060810190811067ffffffffffffffff82111761039d57604052565b6080810190811067ffffffffffffffff82111761039d57604052565b90601f8019910116810190811067ffffffffffffffff82111761039d57604052565b519067ffffffffffffffff8216820361024a57565b51906001600160a01b038216820361024a57565b5190811515820361024a57565b81601f8201121561024a5780519067ffffffffffffffff821161039d5760405192610637601f8401601f1916602001856105aa565b8284526020838301011161024a57815f9260208093018386015e830101529056fea2646970667358221220e92dc52fdb2b770fd4d5ca32ecb0b23653e5487e19b12cec5ff9a58d7ca86d5564736f6c634300081b0033","linkReferences":{}},"methodIdentifiers":{"buyErc721ForErc721(address,uint256,address,uint256,uint64)":"ebb48d90","payErc721ForErc721(bytes32)":"eff69b5e"},"id":102}