{"abi":[{"type":"constructor","inputs":[{"name":"_eas","type":"address","internalType":"contract IEAS"},{"name":"_erc20Escrow","type":"address","internalType":"contract ERC20EscrowObligation"},{"name":"_erc20Payment","type":"address","internalType":"contract ERC20PaymentObligation"},{"name":"_erc721Escrow","type":"address","internalType":"contract ERC721EscrowObligation"},{"name":"_erc721Payment","type":"address","internalType":"contract ERC721PaymentObligation"},{"name":"_erc1155Escrow","type":"address","internalType":"contract ERC1155EscrowObligation"},{"name":"_erc1155Payment","type":"address","internalType":"contract ERC1155PaymentObligation"},{"name":"_bundleEscrow","type":"address","internalType":"contract TokenBundleEscrowObligation"},{"name":"_bundlePayment","type":"address","internalType":"contract TokenBundlePaymentObligation"}],"stateMutability":"nonpayable"},{"type":"function","name":"buyBundleWithErc1155","inputs":[{"name":"bidToken","type":"address","internalType":"address"},{"name":"bidTokenId","type":"uint256","internalType":"uint256"},{"name":"bidAmount","type":"uint256","internalType":"uint256"},{"name":"askData","type":"tuple","internalType":"struct TokenBundlePaymentObligation.StatementData","components":[{"name":"erc20Tokens","type":"address[]","internalType":"address[]"},{"name":"erc20Amounts","type":"uint256[]","internalType":"uint256[]"},{"name":"erc721Tokens","type":"address[]","internalType":"address[]"},{"name":"erc721TokenIds","type":"uint256[]","internalType":"uint256[]"},{"name":"erc1155Tokens","type":"address[]","internalType":"address[]"},{"name":"erc1155TokenIds","type":"uint256[]","internalType":"uint256[]"},{"name":"erc1155Amounts","type":"uint256[]","internalType":"uint256[]"},{"name":"payee","type":"address","internalType":"address"}]},{"name":"expiration","type":"uint64","internalType":"uint64"}],"outputs":[{"name":"","type":"bytes32","internalType":"bytes32"}],"stateMutability":"nonpayable"},{"type":"function","name":"buyErc1155ForErc1155","inputs":[{"name":"bidToken","type":"address","internalType":"address"},{"name":"bidTokenId","type":"uint256","internalType":"uint256"},{"name":"bidAmount","type":"uint256","internalType":"uint256"},{"name":"askToken","type":"address","internalType":"address"},{"name":"askId","type":"uint256","internalType":"uint256"},{"name":"askAmount","type":"uint256","internalType":"uint256"},{"name":"expiration","type":"uint64","internalType":"uint64"}],"outputs":[{"name":"","type":"bytes32","internalType":"bytes32"}],"stateMutability":"nonpayable"},{"type":"function","name":"buyErc20WithErc1155","inputs":[{"name":"bidToken","type":"address","internalType":"address"},{"name":"bidTokenId","type":"uint256","internalType":"uint256"},{"name":"bidAmount","type":"uint256","internalType":"uint256"},{"name":"askToken","type":"address","internalType":"address"},{"name":"askAmount","type":"uint256","internalType":"uint256"},{"name":"expiration","type":"uint64","internalType":"uint64"}],"outputs":[{"name":"","type":"bytes32","internalType":"bytes32"}],"stateMutability":"nonpayable"},{"type":"function","name":"buyErc721WithErc1155","inputs":[{"name":"bidToken","type":"address","internalType":"address"},{"name":"bidTokenId","type":"uint256","internalType":"uint256"},{"name":"bidAmount","type":"uint256","internalType":"uint256"},{"name":"askToken","type":"address","internalType":"address"},{"name":"askTokenId","type":"uint256","internalType":"uint256"},{"name":"expiration","type":"uint64","internalType":"uint64"}],"outputs":[{"name":"","type":"bytes32","internalType":"bytes32"}],"stateMutability":"nonpayable"},{"type":"function","name":"payErc1155ForBundle","inputs":[{"name":"buyAttestation","type":"bytes32","internalType":"bytes32"}],"outputs":[{"name":"","type":"bytes32","internalType":"bytes32"}],"stateMutability":"nonpayable"},{"type":"function","name":"payErc1155ForErc1155","inputs":[{"name":"buyAttestation","type":"bytes32","internalType":"bytes32"}],"outputs":[{"name":"","type":"bytes32","internalType":"bytes32"}],"stateMutability":"nonpayable"},{"type":"function","name":"payErc1155ForErc20","inputs":[{"name":"buyAttestation","type":"bytes32","internalType":"bytes32"}],"outputs":[{"name":"","type":"bytes32","internalType":"bytes32"}],"stateMutability":"nonpayable"},{"type":"function","name":"payErc1155ForErc721","inputs":[{"name":"buyAttestation","type":"bytes32","internalType":"bytes32"}],"outputs":[{"name":"","type":"bytes32","internalType":"bytes32"}],"stateMutability":"nonpayable"},{"type":"error","name":"CouldntCollectPayment","inputs":[]}],"bytecode":{"object":"0x6080346101ae57601f61145938819003918201601f19168301916001600160401b038311848410176101b257808492610120946040528339810103126101ae5780516001600160a01b03811691908290036101ae5760208101516001600160a01b038116908190036101ae5760408201516001600160a01b038116908190036101ae5760608301516001600160a01b03811691908290036101ae5760808401516001600160a01b03811693908490036101ae5760a08501516001600160a01b038116908190036101ae5760c08601516001600160a01b03811691908290036101ae5760e08701516001600160a01b03811697908890036101ae5761010001516001600160a01b03811698908990036101ae5760018060a01b03195f5416175f5560018060a01b0319600154161760015560018060a01b0319600254161760025560018060a01b0319600454161760045560018060a01b0319600354161760035560018060a01b0319600554161760055560018060a01b0319600654161760065560018060a01b0319600754161760075560018060a01b0319600854161760085560405161129290816101c78239f35b5f80fd5b634e487b7160e01b5f52604160045260245ffdfe6080806040526004361015610012575f80fd5b5f3560e01c90816301d71c0f14610bc2575080631fa56b2014610b8457806333666e5f14610a1557806336bdb00c1461087a5780636d1d261f1461079957806378a56f8f14610627578063af808a2a146104805763d7452d9014610074575f80fd5b346103fe5760203660031901126103fe5760043560245f60018060a01b03815416604051928380926328c44a9960e21b82528660048301525afa801561040a576101206100d6916020935f9161045e575b500151828082518301019101610edd565b0151908151820160208101926020818303126103fe576020810151906001600160401b0382116103fe57019061010090829003126103fe5760405161010081018181106001600160401b0382111761044a5760405260208201516001600160401b0381116103fe5784602061014d9285010161112b565b815260408201516001600160401b0381116103fe5784602061017192850101611190565b906020810191825260608301516001600160401b0381116103fe5785602061019b9286010161112b565b946040820195865260808401516001600160401b0381116103fe578160206101c592870101611190565b936060830194855260a08101516001600160401b0381116103fe578260206101ef9284010161112b565b916080840192835260c08201516001600160401b0381116103fe5781602061021992850101611190565b9060a0850191825260e08301516001600160401b0381116103fe5783016020019061024391611190565b9160c085019283526101000161025890610d7b565b9260e08501938452600160a01b600190036008541696604051998a978897631d6f87dd60e01b895260048901606090525160648901610100905261016489016102a0916111ed565b90518882036063190160848a01526102b89190611229565b90518782036063190160a48901526102d091906111ed565b90518682036063190160c48801526102e89190611229565b90518582036063190160e487015261030091906111ed565b9051848203606319016101048601526103199190611229565b9051838203606319016101248501526103329190611229565b90516001600160a01b03166101448301523360248301819052604483015203815a6020945f91f191821561040a575f92610415575b506001546040516330088bc960e01b8152600481019290925260248201839052602090829060449082905f906001600160a01b03165af190811561040a575f916103cc575b50156103bd57602090604051908152f35b636c7b6f5560e11b5f5260045ffd5b90506020813d602011610402575b816103e760209383610d46565b810103126103fe576103f890610d8f565b5f6103ac565b5f80fd5b3d91506103da565b6040513d5f823e3d90fd5b9091506020813d602011610442575b8161043160209383610d46565b810103126103fe5751906020610367565b3d9150610424565b634e487b7160e01b5f52604160045260245ffd5b61047a91503d805f833e6104728183610d46565b810190610df1565b5f6100c5565b346103fe5760203660031901126103fe5760043560245f60018060a01b03815416604051928380926328c44a9960e21b82528660048301525afa801561040a576101206104e1916020935f9161060d57500151828082518301019101610edd565b015190815182016060838203126103fe576105376105075f946020808095019101610f67565b600354604051630fba221960e41b81529586936001600160a01b0390921692849283913390819060048501610fa7565b03925af191821561040a575f926105d8575b506001546040516330088bc960e01b8152600481019290925260248201839052602090829060449082905f906001600160a01b03165af190811561040a575f9161059e5750156103bd57602090604051908152f35b90506020813d6020116105d0575b816105b960209383610d46565b810103126103fe576105ca90610d8f565b826103ac565b3d91506105ac565b9091506020813d602011610605575b816105f460209383610d46565b810103126103fe5751906020610549565b3d91506105e7565b61062191503d805f833e6104728183610d46565b856100c5565b346103fe5760e03660031901126103fe57610640610c75565b6064356001600160a01b038116908190036103fe5760c4356001600160401b03811681036103fe5760015460025460405161074a956020956001600160a01b03948516949093169290919061069482610d2b565b81526084358682015260a43560408201523360608201526106ea604051918783019060609060018060a01b03815116835260208101516020840152604081015160408401528160018060a01b0391015116910152565b608081526106f960a082610d46565b6040519261070684610d10565b83528583015260018060a01b03166040820152602435606082015260443560808201525f60405180968195829463776c79a960e11b84523391339160048601610fe6565b03925af1801561040a575f90610766575b602090604051908152f35b506020813d602011610791575b8161078060209383610d46565b810103126103fe576020905161075b565b3d9150610773565b346103fe5761074a60206107ac36610c9f565b60015460035460405192976001600160a01b039283169792909116959491939092916107d783610cf5565b60018060a01b0316825288820152336040820152610820604051918983019060409060018060a01b038151168352602081015160208401528160018060a01b0391015116910152565b6060815261082f608082610d46565b6040519461083c86610d10565b85528785015260018060a01b03166040840152606083015260808201525f60405180968195829463776c79a960e11b84523391339160048601610fe6565b346103fe5760a03660031901126103fe57610893610c75565b606435906001600160401b0382116103fe578160040161010060031984360301126103fe57608435906001600160401b03821682036103fe5761074a936020936109ea6106f960018060a01b03600154169460018060a01b0360085416946040519384928a808501526109d76109cc6109ad61098e61096f6109506109318a60406101006109218b8061107d565b92909301526101408d01916110b1565b61093e60248b018961107d565b8c8303603f190160608e0152906110f0565b61095d60448a018861107d565b8b8303603f190160808d0152906110b1565b61097c606489018761107d565b8a8303603f190160a08c0152906110f0565b61099b608488018661107d565b898303603f190160c08b0152906110b1565b6109ba60a487018561107d565b888303603f190160e08a0152906110f0565b9160c485019061107d565b858303603f1901610100870152906110f0565b906001600160a01b0390610a009060e401610c8b565b1661012083015203601f198101835282610d46565b346103fe5760203660031901126103fe5760043560245f60018060a01b03815416604051928380926328c44a9960e21b82528660048301525afa801561040a57610120610a76916020935f9161060d57500151828082518301019101610edd565b0151906080828051810103126103fe57610ac0608060405193610a9885610d2b565b610aa460208201610d7b565b8552604081015160208601526060810151604086015201610d7b565b6060830190815260025460408051632daf79cd60e01b815285516001600160a01b0390811660048301526020808801516024840152929096015160448201529251851660648401529193849160c49183915f91163360848401523360a48401525af191821561040a575f926105d857506001546040516330088bc960e01b8152600481019290925260248201839052602090829060449082905f906001600160a01b03165af190811561040a575f9161059e5750156103bd57602090604051908152f35b346103fe5761074a6020610b9736610c9f565b60015460065460405192976001600160a01b039283169792909116959491939092916107d783610cf5565b346103fe5760203660031901126103fe57600435905f8160248160018060a01b038454166328c44a9960e21b82528660048301525afa801561040a57610120610c1f916020935f9161060d57500151828082518301019101610edd565b015190815182016060838203126103fe57610537610c455f946020808095019101610f67565b600654604051630fba221960e41b81529586936001600160a01b0390921692849283913390819060048501610fa7565b600435906001600160a01b03821682036103fe57565b35906001600160a01b03821682036103fe57565b60c09060031901126103fe576004356001600160a01b03811681036103fe579060243590604435906064356001600160a01b03811681036103fe57906084359060a4356001600160401b03811681036103fe5790565b606081019081106001600160401b0382111761044a57604052565b60a081019081106001600160401b0382111761044a57604052565b608081019081106001600160401b0382111761044a57604052565b90601f801991011681019081106001600160401b0382111761044a57604052565b51906001600160401b03821682036103fe57565b51906001600160a01b03821682036103fe57565b519081151582036103fe57565b81601f820112156103fe578051906001600160401b03821161044a5760405192610dd0601f8401601f191660200185610d46565b828452602083830101116103fe57815f9260208093018386015e8301015290565b6020818303126103fe578051906001600160401b0382116103fe5701610140818303126103fe576040519161014083018381106001600160401b0382111761044a576040528151835260208201516020840152610e5060408301610d67565b6040840152610e6160608301610d67565b6060840152610e7260808301610d67565b608084015260a082015160a0840152610e8d60c08301610d7b565b60c0840152610e9e60e08301610d7b565b60e0840152610eb06101008301610d8f565b6101008401526101208201516001600160401b0381116103fe57610ed49201610d9c565b61012082015290565b6020818303126103fe578051906001600160401b0382116103fe57019060a0828203126103fe5760405191610f1183610d10565b610f1a81610d7b565b835260208101516001600160401b0381116103fe57608092610f3d918301610d9c565b6020840152610f4e60408201610d7b565b6040840152606081015160608401520151608082015290565b91908260609103126103fe57604051610f7f81610cf5565b6040610fa2818395610f9081610d7b565b85526020810151602086015201610d7b565b910152565b81516001600160a01b03908116825260208084015190830152604092830151811692820192909252918116606083015291909116608082015260a00190565b926001600160401b036101406020608060609699989581895260018060a01b03815116828a01528281015160a0808b01528051938491826101208d015201858b015e5f84848b01015260018060a01b0360408201511660c08a01528781015160e08a01520151610100880152601f80199101168601019616602085015260018060a01b0316604084015260018060a01b0316910152565b9035601e19823603018112156103fe5701602081359101916001600160401b0382116103fe578160051b360383136103fe57565b916020908281520191905f5b8181106110ca5750505090565b909192602080600192838060a01b036110e288610c8b565b1681520194019291016110bd565b81835290916001600160fb1b0383116103fe5760209260051b809284830137010190565b6001600160401b03811161044a5760051b60200190565b9080601f830112156103fe57815161114281611114565b926111506040519485610d46565b81845260208085019260051b8201019283116103fe57602001905b8282106111785750505090565b6020809161118584610d7b565b81520191019061116b565b9080601f830112156103fe5781516111a781611114565b926111b56040519485610d46565b81845260208085019260051b8201019283116103fe57602001905b8282106111dd5750505090565b81518152602091820191016111d0565b90602080835192838152019201905f5b81811061120a5750505090565b82516001600160a01b03168452602093840193909201916001016111fd565b90602080835192838152019201905f5b8181106112465750505090565b825184526020938401939092019160010161123956fea2646970667358221220731812eae6496e14b456b309a04486b4551c8c046a84a5bbf8f86d8a5b69002464736f6c634300081b0033","linkReferences":{}},"methodIdentifiers":{"buyBundleWithErc1155(address,uint256,uint256,(address[],uint256[],address[],uint256[],address[],uint256[],uint256[],address),uint64)":"36bdb00c","buyErc1155ForErc1155(address,uint256,uint256,address,uint256,uint256,uint64)":"78a56f8f","buyErc20WithErc1155(address,uint256,uint256,address,uint256,uint64)":"6d1d261f","buyErc721WithErc1155(address,uint256,uint256,address,uint256,uint64)":"1fa56b20","payErc1155ForBundle(bytes32)":"d7452d90","payErc1155ForErc1155(bytes32)":"33666e5f","payErc1155ForErc20(bytes32)":"af808a2a","payErc1155ForErc721(bytes32)":"01d71c0f"},"id":103}