{"abi":[{"type":"constructor","inputs":[{"name":"_eas","type":"address","internalType":"contract IEAS"},{"name":"_schemaRegistry","type":"address","internalType":"contract ISchemaRegistry"}],"stateMutability":"nonpayable"},{"type":"receive","stateMutability":"payable"},{"type":"function","name":"ATTESTATION_SCHEMA","inputs":[],"outputs":[{"name":"","type":"bytes32","internalType":"bytes32"}],"stateMutability":"view"},{"type":"function","name":"attest","inputs":[{"name":"attestation","type":"tuple","internalType":"struct Attestation","components":[{"name":"uid","type":"bytes32","internalType":"bytes32"},{"name":"schema","type":"bytes32","internalType":"bytes32"},{"name":"time","type":"uint64","internalType":"uint64"},{"name":"expirationTime","type":"uint64","internalType":"uint64"},{"name":"revocationTime","type":"uint64","internalType":"uint64"},{"name":"refUID","type":"bytes32","internalType":"bytes32"},{"name":"recipient","type":"address","internalType":"address"},{"name":"attester","type":"address","internalType":"address"},{"name":"revocable","type":"bool","internalType":"bool"},{"name":"data","type":"bytes","internalType":"bytes"}]}],"outputs":[{"name":"","type":"bool","internalType":"bool"}],"stateMutability":"payable"},{"type":"function","name":"checkStatement","inputs":[{"name":"statement","type":"tuple","internalType":"struct Attestation","components":[{"name":"uid","type":"bytes32","internalType":"bytes32"},{"name":"schema","type":"bytes32","internalType":"bytes32"},{"name":"time","type":"uint64","internalType":"uint64"},{"name":"expirationTime","type":"uint64","internalType":"uint64"},{"name":"revocationTime","type":"uint64","internalType":"uint64"},{"name":"refUID","type":"bytes32","internalType":"bytes32"},{"name":"recipient","type":"address","internalType":"address"},{"name":"attester","type":"address","internalType":"address"},{"name":"revocable","type":"bool","internalType":"bool"},{"name":"data","type":"bytes","internalType":"bytes"}]},{"name":"demand","type":"bytes","internalType":"bytes"},{"name":"counteroffer","type":"bytes32","internalType":"bytes32"}],"outputs":[{"name":"","type":"bool","internalType":"bool"}],"stateMutability":"view"},{"type":"function","name":"getSchema","inputs":[],"outputs":[{"name":"","type":"tuple","internalType":"struct SchemaRecord","components":[{"name":"uid","type":"bytes32","internalType":"bytes32"},{"name":"resolver","type":"address","internalType":"contract ISchemaResolver"},{"name":"revocable","type":"bool","internalType":"bool"},{"name":"schema","type":"string","internalType":"string"}]}],"stateMutability":"view"},{"type":"function","name":"getStatement","inputs":[{"name":"uid","type":"bytes32","internalType":"bytes32"}],"outputs":[{"name":"","type":"tuple","internalType":"struct Attestation","components":[{"name":"uid","type":"bytes32","internalType":"bytes32"},{"name":"schema","type":"bytes32","internalType":"bytes32"},{"name":"time","type":"uint64","internalType":"uint64"},{"name":"expirationTime","type":"uint64","internalType":"uint64"},{"name":"revocationTime","type":"uint64","internalType":"uint64"},{"name":"refUID","type":"bytes32","internalType":"bytes32"},{"name":"recipient","type":"address","internalType":"address"},{"name":"attester","type":"address","internalType":"address"},{"name":"revocable","type":"bool","internalType":"bool"},{"name":"data","type":"bytes","internalType":"bytes"}]}],"stateMutability":"view"},{"type":"function","name":"isPayable","inputs":[],"outputs":[{"name":"","type":"bool","internalType":"bool"}],"stateMutability":"pure"},{"type":"function","name":"makeStatement","inputs":[{"name":"data","type":"tuple","internalType":"struct StringResultObligation.StatementData","components":[{"name":"result","type":"string","internalType":"string"}]},{"name":"refUID","type":"bytes32","internalType":"bytes32"}],"outputs":[{"name":"","type":"bytes32","internalType":"bytes32"}],"stateMutability":"nonpayable"},{"type":"function","name":"multiAttest","inputs":[{"name":"attestations","type":"tuple[]","internalType":"struct Attestation[]","components":[{"name":"uid","type":"bytes32","internalType":"bytes32"},{"name":"schema","type":"bytes32","internalType":"bytes32"},{"name":"time","type":"uint64","internalType":"uint64"},{"name":"expirationTime","type":"uint64","internalType":"uint64"},{"name":"revocationTime","type":"uint64","internalType":"uint64"},{"name":"refUID","type":"bytes32","internalType":"bytes32"},{"name":"recipient","type":"address","internalType":"address"},{"name":"attester","type":"address","internalType":"address"},{"name":"revocable","type":"bool","internalType":"bool"},{"name":"data","type":"bytes","internalType":"bytes"}]},{"name":"values","type":"uint256[]","internalType":"uint256[]"}],"outputs":[{"name":"","type":"bool","internalType":"bool"}],"stateMutability":"payable"},{"type":"function","name":"multiRevoke","inputs":[{"name":"attestations","type":"tuple[]","internalType":"struct Attestation[]","components":[{"name":"uid","type":"bytes32","internalType":"bytes32"},{"name":"schema","type":"bytes32","internalType":"bytes32"},{"name":"time","type":"uint64","internalType":"uint64"},{"name":"expirationTime","type":"uint64","internalType":"uint64"},{"name":"revocationTime","type":"uint64","internalType":"uint64"},{"name":"refUID","type":"bytes32","internalType":"bytes32"},{"name":"recipient","type":"address","internalType":"address"},{"name":"attester","type":"address","internalType":"address"},{"name":"revocable","type":"bool","internalType":"bool"},{"name":"data","type":"bytes","internalType":"bytes"}]},{"name":"values","type":"uint256[]","internalType":"uint256[]"}],"outputs":[{"name":"","type":"bool","internalType":"bool"}],"stateMutability":"payable"},{"type":"function","name":"revoke","inputs":[{"name":"attestation","type":"tuple","internalType":"struct Attestation","components":[{"name":"uid","type":"bytes32","internalType":"bytes32"},{"name":"schema","type":"bytes32","internalType":"bytes32"},{"name":"time","type":"uint64","internalType":"uint64"},{"name":"expirationTime","type":"uint64","internalType":"uint64"},{"name":"revocationTime","type":"uint64","internalType":"uint64"},{"name":"refUID","type":"bytes32","internalType":"bytes32"},{"name":"recipient","type":"address","internalType":"address"},{"name":"attester","type":"address","internalType":"address"},{"name":"revocable","type":"bool","internalType":"bool"},{"name":"data","type":"bytes","internalType":"bytes"}]}],"outputs":[{"name":"","type":"bool","internalType":"bool"}],"stateMutability":"payable"},{"type":"function","name":"version","inputs":[],"outputs":[{"name":"","type":"string","internalType":"string"}],"stateMutability":"view"},{"type":"error","name":"AccessDenied","inputs":[]},{"type":"error","name":"AttestationRevoked","inputs":[]},{"type":"error","name":"DeadlineExpired","inputs":[]},{"type":"error","name":"InsufficientValue","inputs":[]},{"type":"error","name":"InvalidDemand","inputs":[]},{"type":"error","name":"InvalidEAS","inputs":[]},{"type":"error","name":"InvalidLength","inputs":[]},{"type":"error","name":"InvalidResultAttestation","inputs":[]},{"type":"error","name":"NotFromStatement","inputs":[]},{"type":"error","name":"NotPayable","inputs":[]}],"bytecode":{"object":"0x61016080604052346101a6576040816111c2803803809161002082856101e0565b8339810103126101a65780516001600160a01b038116918282036101a65760200151916001600160a01b0383168084036101a657604080519081016001600160401b038111828210176101cc57604052600d815260208101926c1cdd1c9a5b99c81c995cdd5b1d609a1b84526001608052600360a0525f60c052156101bd576084948460209560e05261012052610100525f604051958680958194630c1af44f60e31b8352606060048401525180918160648501528484015e818101830184905230602483015260016044830152601f01601f191681010301925af19081156101b2575f9161017c575b5061014052604051610fbe908161020482396080518161058d015260a051816105b8015260c051816105e3015260e05181610f300152610100518161018101526101205181818161031e015261082601526101405181818161014f015281816103570152818161054b01526107790152f35b90506020813d6020116101aa575b81610197602093836101e0565b810103126101a657515f61010a565b5f80fd5b3d915061018a565b6040513d5f823e3d90fd5b6341bc07ff60e11b5f5260045ffd5b634e487b7160e01b5f52604160045260245ffd5b601f909101601f19168101906001600160401b038211908210176101cc5760405256fe6080806040526004361015610029575b50361561001a575f80fd5b631574f9f360e01b5f5260045ffd5b5f3560e01c9081631272ff8b146108af57508063455577cc1461067057806354fd4d501461056e5780635bf2f20d146105345780635cc02d2f146102a45780636b122fe01461011057806388e5b2d9146100f157806391db0b7e146100f1578063ce46e046146100d3578063e49617e1146100ae5763e60c3505146100ae575f61000f565b60206100c96100bc36610b4b565b6100c4610f2e565b610f6f565b6040519015158152f35b346100ed575f3660031901126100ed5760206040515f8152f35b5f80fd5b60206100c96100ff36610afb565b9261010b929192610f2e565b610d1d565b346100ed575f3660031901126100ed5760608060405161012f816109e2565b5f81525f60208201525f604082015201526040516351753e3760e11b81527f000000000000000000000000000000000000000000000000000000000000000060048201525f8160248160018060a01b037f0000000000000000000000000000000000000000000000000000000000000000165afa8015610299575f906101fa575b6060906101f6604051928392602084528051602085015260018060a01b0360208201511660408501526040810151151582850152015160808084015260a0830190610aa7565b0390f35b503d805f833e61020a81836109fd565b8101906020818303126100ed578051906001600160401b0382116100ed57016080818303126100ed5760405190610240826109e2565b8051825260208101516001600160a01b03811681036100ed57602083015261026a60408201610d10565b60408301526060810151926001600160401b0384116100ed576060936102909201610bb5565b828201526101b0565b6040513d5f823e3d90fd5b346100ed5760203660031901126100ed5760606101206040516102c6816109c6565b5f81525f60208201525f60408201525f838201525f60808201525f60a08201525f60c08201525f60e08201525f61010082015201526040516328c44a9960e21b815260043560048201525f8160248160018060a01b037f0000000000000000000000000000000000000000000000000000000000000000165afa908115610299575f9161042f575b506020810180517f000000000000000000000000000000000000000000000000000000000000000003610420576101f661012060405193849360208552815160208601525160408501526001600160401b0360408201511660608501526001600160401b0360608201511660808501526001600160401b0360808201511660a085015260a081015160c085015260018060a01b0360c08201511660e085015260018060a01b0360e082015116610100850152610100810151151582850152015161014080840152610160830190610aa7565b63295d5f3960e01b5f5260045ffd5b90503d805f833e61044081836109fd565b8101906020818303126100ed578051906001600160401b0382116100ed570190610140828203126100ed5760405191610478836109c6565b805183526020810151602084015261049260408201610ce8565b60408401526104a360608201610ce8565b60608401526104b460808201610ce8565b608084015260a081015160a08401526104cf60c08201610cfc565b60c08401526104e060e08201610cfc565b60e08401526104f26101008201610d10565b610100840152610120810151906001600160401b0382116100ed57019080601f830112156100ed57815161052892602001610b7f565b6101208201528161034e565b346100ed575f3660031901126100ed5760206040517f00000000000000000000000000000000000000000000000000000000000000008152f35b346100ed575f3660031901126100ed576101f6602061065c60016105b17f0000000000000000000000000000000000000000000000000000000000000000610dc1565b81846105dc7f0000000000000000000000000000000000000000000000000000000000000000610dc1565b81806106077f0000000000000000000000000000000000000000000000000000000000000000610dc1565b9260405199878b985191829101848a015e870190601760f91b83830152805192839101602183015e010190601760f91b84830152805192839101600283015e01015f838201520301601f1981018352826109fd565b604051918291602083526020830190610aa7565b346100ed5760403660031901126100ed576004356001600160401b0381116100ed578036039060206003198301126100ed5760405160208082015291600482013590602219018112156100ed5701602460048201359101906001600160401b0381116100ed5780360382136100ed5782816080926107189460206040850152816060850152848401375f838284010152601f801991011681010301601f1981018352826109fd565b6040519060c082018281106001600160401b0382111761089b576040523382525f60208301525f6040830152602435606083015260808201525f60a082015260405160408101908082106001600160401b0383111761089b576020916040527f000000000000000000000000000000000000000000000000000000000000000081528181019283526040518093819263f17325e760e01b8352846004840152516024830152516040604483015260018060a01b0381511660648301526001600160401b03848201511660848301526040810151151560a4830152606081015160c483015260a0610818608083015160c060e4860152610124850190610aa7565b91015161010483015203815f7f00000000000000000000000000000000000000000000000000000000000000006001600160a01b03165af18015610299575f90610868575b602090604051908152f35b506020813d602011610893575b81610882602093836109fd565b810103126100ed576020905161085d565b3d9150610875565b634e487b7160e01b5f52604160045260245ffd5b346100ed5760603660031901126100ed576004356001600160401b0381116100ed5761014060031982360301126100ed576108e9826109c6565b806004013582526024810135602083015261090660448201610a1e565b604083015261091760648201610a1e565b606083015261092860848201610a1e565b608083015260a481013560a083015261094360c48201610a32565b60c083015261095460e48201610a32565b60e083015261010481013580151581036100ed57610100830152610124810135906001600160401b0382116100ed5760046109929236920101610a61565b6101208201526024356001600160401b0381116100ed576020916109bd6100c9923690600401610a61565b60443591610c34565b61014081019081106001600160401b0382111761089b57604052565b608081019081106001600160401b0382111761089b57604052565b90601f801991011681019081106001600160401b0382111761089b57604052565b35906001600160401b03821682036100ed57565b35906001600160a01b03821682036100ed57565b6001600160401b03811161089b57601f01601f191660200190565b81601f820112156100ed57803590610a7882610a46565b92610a8660405194856109fd565b828452602083830101116100ed57815f926020809301838601378301015290565b805180835260209291819084018484015e5f828201840152601f01601f1916010190565b9181601f840112156100ed578235916001600160401b0383116100ed576020808501948460051b0101116100ed57565b60406003198201126100ed576004356001600160401b0381116100ed5781610b2591600401610acb565b92909291602435906001600160401b0382116100ed57610b4791600401610acb565b9091565b60206003198201126100ed57600435906001600160401b0382116100ed576101409082900360031901126100ed5760040190565b929192610b8b82610a46565b91610b9960405193846109fd565b8294818452818301116100ed578281602093845f96015e010152565b9080601f830112156100ed578151610bcf92602001610b7f565b90565b6020818303126100ed578051906001600160401b0382116100ed57016020818303126100ed5760405191602083018381106001600160401b0382111761089b5760405281516001600160401b0381116100ed57610c2f9201610bb5565b815290565b90916001600160401b036060830151168015159081610cde575b50610ccf576001600160401b03608083015116610cc05760a0820151908115159182610cb5575b5050610caf57610c96610120610ca692015160208082518301019101610bd2565b9160208082518301019101610bd2565b51519051511490565b50505f90565b141590505f80610c75565b637b6227e960e11b5f5260045ffd5b631ab7da6b60e01b5f5260045ffd5b905042115f610c4e565b51906001600160401b03821682036100ed57565b51906001600160a01b03821682036100ed57565b519081151582036100ed57565b929092818403610db2575f91345b85841015610da75781841015610d93578360051b8086013590828211610d845784013561013e19853603018112156100ed57610d68908501610f6f565b15610d795760019103930192610d2b565b505050505050505f90565b63044044a560e21b5f5260045ffd5b634e487b7160e01b5f52603260045260245ffd5b505050505050600190565b63251f56a160e21b5f5260045ffd5b805f9172184f03e93ff9f4daa797ed6e38ed64bf6a1f0160401b821015610f0b575b806d04ee2d6d415b85acef8100000000600a921015610ef0575b662386f26fc10000811015610edc575b6305f5e100811015610ecb575b612710811015610ebc575b6064811015610eae575b1015610ea3575b600a60216001840193610e4885610a46565b94610e5660405196876109fd565b808652610e65601f1991610a46565b013660208701378401015b5f1901916f181899199a1a9b1b9c1cb0b131b232b360811b8282061a8353048015610e9e57600a9091610e70565b505090565b600190910190610e36565b606460029104930192610e2f565b61271060049104930192610e25565b6305f5e10060089104930192610e1a565b662386f26fc1000060109104930192610e0d565b6d04ee2d6d415b85acef810000000060209104930192610dfd565b506040915072184f03e93ff9f4daa797ed6e38ed64bf6a1f0160401b8104610de3565b7f00000000000000000000000000000000000000000000000000000000000000006001600160a01b03163303610f6057565b634ca8886760e01b5f5260045ffd5b60e0013560018060a01b0381168091036100ed5730149056fea2646970667358221220c45f42f18c20f6ea43e0ccd020a512cf95ff1e963134ea27feba483dec623d0964736f6c634300081b0033","linkReferences":{}},"methodIdentifiers":{"ATTESTATION_SCHEMA()":"5bf2f20d","attest((bytes32,bytes32,uint64,uint64,uint64,bytes32,address,address,bool,bytes))":"e60c3505","checkStatement((bytes32,bytes32,uint64,uint64,uint64,bytes32,address,address,bool,bytes),bytes,bytes32)":"1272ff8b","getSchema()":"6b122fe0","getStatement(bytes32)":"5cc02d2f","isPayable()":"ce46e046","makeStatement((string),bytes32)":"455577cc","multiAttest((bytes32,bytes32,uint64,uint64,uint64,bytes32,address,address,bool,bytes)[],uint256[])":"91db0b7e","multiRevoke((bytes32,bytes32,uint64,uint64,uint64,bytes32,address,address,bool,bytes)[],uint256[])":"88e5b2d9","revoke((bytes32,bytes32,uint64,uint64,uint64,bytes32,address,address,bool,bytes))":"e49617e1","version()":"54fd4d50"},"id":84}