{"abi":[{"type":"constructor","inputs":[{"name":"_eas","type":"address","internalType":"contract IEAS"},{"name":"_schemaRegistry","type":"address","internalType":"contract ISchemaRegistry"}],"stateMutability":"nonpayable"},{"type":"receive","stateMutability":"payable"},{"type":"function","name":"ATTESTATION_SCHEMA","inputs":[],"outputs":[{"name":"","type":"bytes32","internalType":"bytes32"}],"stateMutability":"view"},{"type":"function","name":"attest","inputs":[{"name":"attestation","type":"tuple","internalType":"struct Attestation","components":[{"name":"uid","type":"bytes32","internalType":"bytes32"},{"name":"schema","type":"bytes32","internalType":"bytes32"},{"name":"time","type":"uint64","internalType":"uint64"},{"name":"expirationTime","type":"uint64","internalType":"uint64"},{"name":"revocationTime","type":"uint64","internalType":"uint64"},{"name":"refUID","type":"bytes32","internalType":"bytes32"},{"name":"recipient","type":"address","internalType":"address"},{"name":"attester","type":"address","internalType":"address"},{"name":"revocable","type":"bool","internalType":"bool"},{"name":"data","type":"bytes","internalType":"bytes"}]}],"outputs":[{"name":"","type":"bool","internalType":"bool"}],"stateMutability":"payable"},{"type":"function","name":"checkStatement","inputs":[{"name":"statement","type":"tuple","internalType":"struct Attestation","components":[{"name":"uid","type":"bytes32","internalType":"bytes32"},{"name":"schema","type":"bytes32","internalType":"bytes32"},{"name":"time","type":"uint64","internalType":"uint64"},{"name":"expirationTime","type":"uint64","internalType":"uint64"},{"name":"revocationTime","type":"uint64","internalType":"uint64"},{"name":"refUID","type":"bytes32","internalType":"bytes32"},{"name":"recipient","type":"address","internalType":"address"},{"name":"attester","type":"address","internalType":"address"},{"name":"revocable","type":"bool","internalType":"bool"},{"name":"data","type":"bytes","internalType":"bytes"}]},{"name":"demand","type":"bytes","internalType":"bytes"},{"name":"","type":"bytes32","internalType":"bytes32"}],"outputs":[{"name":"","type":"bool","internalType":"bool"}],"stateMutability":"view"},{"type":"function","name":"collectExpired","inputs":[{"name":"uid","type":"bytes32","internalType":"bytes32"}],"outputs":[{"name":"","type":"bool","internalType":"bool"}],"stateMutability":"nonpayable"},{"type":"function","name":"collectPayment","inputs":[{"name":"_payment","type":"bytes32","internalType":"bytes32"},{"name":"_fulfillment","type":"bytes32","internalType":"bytes32"}],"outputs":[{"name":"","type":"bool","internalType":"bool"}],"stateMutability":"nonpayable"},{"type":"function","name":"decodeStatementData","inputs":[{"name":"data","type":"bytes","internalType":"bytes"}],"outputs":[{"name":"","type":"tuple","internalType":"struct ERC721EscrowObligation.StatementData","components":[{"name":"arbiter","type":"address","internalType":"address"},{"name":"demand","type":"bytes","internalType":"bytes"},{"name":"token","type":"address","internalType":"address"},{"name":"tokenId","type":"uint256","internalType":"uint256"}]}],"stateMutability":"pure"},{"type":"function","name":"getSchema","inputs":[],"outputs":[{"name":"","type":"tuple","internalType":"struct SchemaRecord","components":[{"name":"uid","type":"bytes32","internalType":"bytes32"},{"name":"resolver","type":"address","internalType":"contract ISchemaResolver"},{"name":"revocable","type":"bool","internalType":"bool"},{"name":"schema","type":"string","internalType":"string"}]}],"stateMutability":"view"},{"type":"function","name":"getStatement","inputs":[{"name":"uid","type":"bytes32","internalType":"bytes32"}],"outputs":[{"name":"","type":"tuple","internalType":"struct Attestation","components":[{"name":"uid","type":"bytes32","internalType":"bytes32"},{"name":"schema","type":"bytes32","internalType":"bytes32"},{"name":"time","type":"uint64","internalType":"uint64"},{"name":"expirationTime","type":"uint64","internalType":"uint64"},{"name":"revocationTime","type":"uint64","internalType":"uint64"},{"name":"refUID","type":"bytes32","internalType":"bytes32"},{"name":"recipient","type":"address","internalType":"address"},{"name":"attester","type":"address","internalType":"address"},{"name":"revocable","type":"bool","internalType":"bool"},{"name":"data","type":"bytes","internalType":"bytes"}]}],"stateMutability":"view"},{"type":"function","name":"getStatementData","inputs":[{"name":"uid","type":"bytes32","internalType":"bytes32"}],"outputs":[{"name":"","type":"tuple","internalType":"struct ERC721EscrowObligation.StatementData","components":[{"name":"arbiter","type":"address","internalType":"address"},{"name":"demand","type":"bytes","internalType":"bytes"},{"name":"token","type":"address","internalType":"address"},{"name":"tokenId","type":"uint256","internalType":"uint256"}]}],"stateMutability":"view"},{"type":"function","name":"isPayable","inputs":[],"outputs":[{"name":"","type":"bool","internalType":"bool"}],"stateMutability":"pure"},{"type":"function","name":"makeStatement","inputs":[{"name":"data","type":"tuple","internalType":"struct ERC721EscrowObligation.StatementData","components":[{"name":"arbiter","type":"address","internalType":"address"},{"name":"demand","type":"bytes","internalType":"bytes"},{"name":"token","type":"address","internalType":"address"},{"name":"tokenId","type":"uint256","internalType":"uint256"}]},{"name":"expirationTime","type":"uint64","internalType":"uint64"}],"outputs":[{"name":"uid_","type":"bytes32","internalType":"bytes32"}],"stateMutability":"nonpayable"},{"type":"function","name":"makeStatementFor","inputs":[{"name":"data","type":"tuple","internalType":"struct ERC721EscrowObligation.StatementData","components":[{"name":"arbiter","type":"address","internalType":"address"},{"name":"demand","type":"bytes","internalType":"bytes"},{"name":"token","type":"address","internalType":"address"},{"name":"tokenId","type":"uint256","internalType":"uint256"}]},{"name":"expirationTime","type":"uint64","internalType":"uint64"},{"name":"payer","type":"address","internalType":"address"},{"name":"recipient","type":"address","internalType":"address"}],"outputs":[{"name":"uid_","type":"bytes32","internalType":"bytes32"}],"stateMutability":"nonpayable"},{"type":"function","name":"multiAttest","inputs":[{"name":"attestations","type":"tuple[]","internalType":"struct Attestation[]","components":[{"name":"uid","type":"bytes32","internalType":"bytes32"},{"name":"schema","type":"bytes32","internalType":"bytes32"},{"name":"time","type":"uint64","internalType":"uint64"},{"name":"expirationTime","type":"uint64","internalType":"uint64"},{"name":"revocationTime","type":"uint64","internalType":"uint64"},{"name":"refUID","type":"bytes32","internalType":"bytes32"},{"name":"recipient","type":"address","internalType":"address"},{"name":"attester","type":"address","internalType":"address"},{"name":"revocable","type":"bool","internalType":"bool"},{"name":"data","type":"bytes","internalType":"bytes"}]},{"name":"values","type":"uint256[]","internalType":"uint256[]"}],"outputs":[{"name":"","type":"bool","internalType":"bool"}],"stateMutability":"payable"},{"type":"function","name":"multiRevoke","inputs":[{"name":"attestations","type":"tuple[]","internalType":"struct Attestation[]","components":[{"name":"uid","type":"bytes32","internalType":"bytes32"},{"name":"schema","type":"bytes32","internalType":"bytes32"},{"name":"time","type":"uint64","internalType":"uint64"},{"name":"expirationTime","type":"uint64","internalType":"uint64"},{"name":"revocationTime","type":"uint64","internalType":"uint64"},{"name":"refUID","type":"bytes32","internalType":"bytes32"},{"name":"recipient","type":"address","internalType":"address"},{"name":"attester","type":"address","internalType":"address"},{"name":"revocable","type":"bool","internalType":"bool"},{"name":"data","type":"bytes","internalType":"bytes"}]},{"name":"values","type":"uint256[]","internalType":"uint256[]"}],"outputs":[{"name":"","type":"bool","internalType":"bool"}],"stateMutability":"payable"},{"type":"function","name":"revoke","inputs":[{"name":"attestation","type":"tuple","internalType":"struct Attestation","components":[{"name":"uid","type":"bytes32","internalType":"bytes32"},{"name":"schema","type":"bytes32","internalType":"bytes32"},{"name":"time","type":"uint64","internalType":"uint64"},{"name":"expirationTime","type":"uint64","internalType":"uint64"},{"name":"revocationTime","type":"uint64","internalType":"uint64"},{"name":"refUID","type":"bytes32","internalType":"bytes32"},{"name":"recipient","type":"address","internalType":"address"},{"name":"attester","type":"address","internalType":"address"},{"name":"revocable","type":"bool","internalType":"bool"},{"name":"data","type":"bytes","internalType":"bytes"}]}],"outputs":[{"name":"","type":"bool","internalType":"bool"}],"stateMutability":"payable"},{"type":"function","name":"version","inputs":[],"outputs":[{"name":"","type":"string","internalType":"string"}],"stateMutability":"view"},{"type":"event","name":"EscrowClaimed","inputs":[{"name":"payment","type":"bytes32","indexed":true,"internalType":"bytes32"},{"name":"fulfillment","type":"bytes32","indexed":true,"internalType":"bytes32"},{"name":"fulfiller","type":"address","indexed":true,"internalType":"address"}],"anonymous":false},{"type":"event","name":"EscrowMade","inputs":[{"name":"payment","type":"bytes32","indexed":true,"internalType":"bytes32"},{"name":"buyer","type":"address","indexed":true,"internalType":"address"}],"anonymous":false},{"type":"error","name":"AccessDenied","inputs":[]},{"type":"error","name":"AttestationCreateFailed","inputs":[]},{"type":"error","name":"AttestationNotFound","inputs":[{"name":"attestationId","type":"bytes32","internalType":"bytes32"}]},{"type":"error","name":"AttestationRevoked","inputs":[]},{"type":"error","name":"DeadlineExpired","inputs":[]},{"type":"error","name":"ERC721TransferFailed","inputs":[{"name":"token","type":"address","internalType":"address"},{"name":"from","type":"address","internalType":"address"},{"name":"to","type":"address","internalType":"address"},{"name":"tokenId","type":"uint256","internalType":"uint256"}]},{"type":"error","name":"InsufficientValue","inputs":[]},{"type":"error","name":"InvalidEAS","inputs":[]},{"type":"error","name":"InvalidEscrow","inputs":[]},{"type":"error","name":"InvalidEscrowAttestation","inputs":[]},{"type":"error","name":"InvalidFulfillment","inputs":[]},{"type":"error","name":"InvalidLength","inputs":[]},{"type":"error","name":"InvalidSchema","inputs":[]},{"type":"error","name":"NotFromStatement","inputs":[]},{"type":"error","name":"NotPayable","inputs":[]},{"type":"error","name":"RevocationFailed","inputs":[{"name":"attestationId","type":"bytes32","internalType":"bytes32"}]},{"type":"error","name":"UnauthorizedCall","inputs":[]}],"bytecode":{"object":"0x610160806040523461020657604081611d5180380380916100208285610240565b8339810103126102065780516001600160a01b038116918282036102065760200151916001600160a01b03831680840361020657604051606081016001600160401b0381118282101761022c57604052603d815260208101927f6164647265737320617262697465722c2062797465732064656d616e642c206184527f64647265737320746f6b656e2c2075696e7432353620746f6b656e496400000060408301526001608052600360a0525f60c0521561021d576084948460209560e05261012052610100525f604051958680958194630c1af44f60e31b8352606060048401525180918160648501528484015e818101830184905230602483015260016044830152601f01601f191681010301925af1908115610212575f916101dc575b5061014052604051611aed9081610264823960805181610839015260a05181610865015260c05181610890015260e05181611a78015261010051816105cc015261012051818181610268015281816103c10152818161073a0152818161095e01526113eb0152610140518181816102a80152818161059a0152818161077a015281816107f601528181610aa80152818161133e01526115a30152f35b90506020813d60201161020a575b816101f760209383610240565b8101031261020657515f610140565b5f80fd5b3d91506101ea565b6040513d5f823e3d90fd5b6341bc07ff60e11b5f5260045ffd5b634e487b7160e01b5f52604160045260245ffd5b601f909101601f19168101906001600160401b0382119082101761022c5760405256fe60806040526004361015610027575b3615610018575f80fd5b631574f9f360e01b5f5260045ffd5b5f5f3560e01c9081630fce714614610df75781631272ff8b14610cdf57816330088bc91461091d57816354fd4d50146108195781635bf2f20d146107df5781635cc02d2f146107035781636b122fe01461055a57816388e5b2d91461053157816391db0b7e14610531578163a84f2aa014610387578163b8b0e3fc14610333578163c75c572b14610231578163ce46e04614610216578163e112ea081461011157508063e49617e1146100df5763e60c35050361000e575b60206100fd60e06100ef3661111c565b6100f7611a76565b01611150565b6040516001600160a01b0390911630148152f35b3461020757602036600319011261020757600435906001600160401b03821161020757366023830112156102075781600401356001600160401b03811161020a5782019160248301903682116102125761016961188a565b50602081850312610212576024810135906001600160401b03821161020e5701926080908490031261020a57604051916101a283610eef565b6101ae60248501610e90565b83526044840135906001600160401b0382116102075750926101da608492602461020396840101610f46565b60208401526101eb60648201610e90565b604084015201356060820152604051918291826110d2565b0390f35b80fd5b5080fd5b8380fd5b8280fd5b34610207578060031936011261020757602090604051908152f35b346102075760203660031901126102075761024a61188a565b506040516328c44a9960e21b815260048035908201529080826024817f00000000000000000000000000000000000000000000000000000000000000006001600160a01b03165afa918215610326578192610302575b5060208201517f0000000000000000000000000000000000000000000000000000000000000000036102f3576102036102e761012084015160208082518301019101611521565b604051918291826110d2565b63629cd40b60e11b8152600490fd5b61031f9192503d8084833e6103178183610f0a565b8101906116fc565b90826102a0565b50604051903d90823e3d90fd5b3461020757604036600319011261020757600435906001600160401b038211610207576080600319833603011261020757602061037f83610372610e66565b903391339160040161118f565b604051908152f35b3461020757602036600319011261020757600435906103a4611691565b506040516328c44a9960e21b8152600481018390529181836024817f00000000000000000000000000000000000000000000000000000000000000006001600160a01b03165afa80938394610515575b5061040c576301fb6dd160e01b825260045260249150fd5b506001600160401b0360608301511642106105065761043961012083015160208082518301019101611521565b90604082019060c060018060a01b03835116940192606060018060a01b03855116910194855191813b1561020e576040516323b872dd60e01b81523060048201526001600160a01b03919091166024820152604481019290925290919081908390606490829084905af191826104f1575b50506104e657519051915160405163045b391760e01b81529283926104e292916001600160a01b039081169130911660048601611164565b0390fd5b602060405160018152f35b6104fc828092610f0a565b61020757806104aa565b637bf6a16f60e01b8152600490fd5b61052a9194503d8085833e6103178183610f0a565b92846103f4565b602061055061053f36611082565b9261054b929192611a76565b6117d7565b6040519015158152f35b3461020757806003193601126102075760608060405161057981610eef565b8381528360208201528360408201520152604051906351753e3760e11b82527f00000000000000000000000000000000000000000000000000000000000000006004830152808260248160018060a01b037f0000000000000000000000000000000000000000000000000000000000000000165afa9081156106f7578091610642575b606082610203604051928392602084528051602085015260018060a01b0360208201511660408501526040810151151582850152015160808084015260a0830190610f8c565b90503d8082843e6106538184610f0a565b82019160208184031261020a578051906001600160401b038211610212570190608082840312610207576040519161068a83610eef565b8051835260208101516001600160a01b03811681036102125760208401526106b4604082016116ef565b60408401526060810151906001600160401b03821161021257019083601f8301121561020757506060928160206106ed935191016114d1565b82820152826105fc565b604051903d90823e3d90fd5b346102075760203660031901126102075761071c611691565b506040516328c44a9960e21b815260048035908201529080826024817f00000000000000000000000000000000000000000000000000000000000000006001600160a01b03165afa9182156103265781926107c3575b5060208201517f0000000000000000000000000000000000000000000000000000000000000000036107b4576040516020808252819061020390820185610fb0565b63295d5f3960e01b8152600490fd5b6107d89192503d8084833e6103178183610f0a565b9082610772565b3461020757806003193601126102075760206040517f00000000000000000000000000000000000000000000000000000000000000008152f35b34610207578060031936011261020757602061090960016102039361085d7f0000000000000000000000000000000000000000000000000000000000000000611909565b9082856108897f0000000000000000000000000000000000000000000000000000000000000000611909565b81806108b47f0000000000000000000000000000000000000000000000000000000000000000611909565b926040519a888c995191829101848b015e880190601760f91b83830152805192839101602183015e010190601760f91b84830152805192839101600283015e010190838201520301601f198101835282610f0a565b604051918291602083526020830190610f8c565b34610c40576040366003190112610c4057600435906024359061093e611691565b50610947611691565b506040516328c44a9960e21b8152600481018490527f00000000000000000000000000000000000000000000000000000000000000006001600160a01b031691905f81602481865afa5f9181610cc3575b506109b057846301fb6dd160e01b5f5260045260245ffd5b84906040516328c44a9960e21b81528560048201525f81602481885afa5f9181610ca7575b506109ed57856301fb6dd160e01b5f5260045260245ffd5b8590946109f9836118ae565b15610c9857610a666020610a1a610120860151828082518301019101611521565b9460018060a01b03865116610a548a84890151935160405196879586948594631272ff8b60e01b8652606060048701526064860190610fb0565b84810360031901602486015290610f8c565b90604483015203915afa908115610c8d575f91610c53575b5015610c4457604051610a9081610ed4565b8481525f602082015260405190610aa682610ed4565b7f0000000000000000000000000000000000000000000000000000000000000000825260208201908152823b15610c405760645f92836020956040519687958694634692626760e01b86525160048601525180516024860152015160448401525af19081610c2b575b50610b285763614cf93960e01b84526004839052602484fd5b838593604084019260c060018060a01b03855116960194606060018060a01b03875116910196875191813b15610c27576040516323b872dd60e01b81523060048201526001600160a01b039190911660248201526044810192909252849081908390606490829084905af19182610c12575b5050610bd557505090519151925160405163045b391760e01b81529384936104e293506001600160a01b039182169130911660048601611164565b602093508460018060a01b03905116917fd903ca32e81477af89f5b8a6ce888d185cc715390e49474a77b4c6846254cccd6040519480a460018152f35b81610c1c91610f0a565b61020e578388610b9a565b8580fd5b610c389195505f90610f0a565b5f9386610b0f565b5f80fd5b630ebe58ef60e11b5f5260045ffd5b90506020813d602011610c85575b81610c6e60209383610f0a565b81010312610c4057610c7f906116ef565b87610a7e565b3d9150610c61565b6040513d5f823e3d90fd5b63629cd40b60e11b5f5260045ffd5b610cbc9192503d805f833e6103178183610f0a565b90876109d5565b610cd89192503d805f833e6103178183610f0a565b9086610998565b34610c40576060366003190112610c40576004356001600160401b038111610c40576101406003198236030112610c405760405190610d1d82610ea4565b8060040135825260248101356020830152610d3a60448201610e7c565b6040830152610d4b60648201610e7c565b6060830152610d5c60848201610e7c565b608083015260a481013560a0830152610d7760c48201610e90565b60c0830152610d8860e48201610e90565b60e08301526101048101358015158103610c4057610100830152610124810135906001600160401b038211610c40576004610dc69236920101610f46565b6101208201526024356001600160401b038111610c4057602091610df1610550923690600401610f46565b906115a1565b34610c40576080366003190112610c40576004356001600160401b038111610c405760806003198236030112610c4057610e2f610e66565b906044356001600160a01b0381168103610c4057606435906001600160a01b0382168203610c405760209361037f9360040161118f565b602435906001600160401b0382168203610c4057565b35906001600160401b0382168203610c4057565b35906001600160a01b0382168203610c4057565b61014081019081106001600160401b03821117610ec057604052565b634e487b7160e01b5f52604160045260245ffd5b604081019081106001600160401b03821117610ec057604052565b608081019081106001600160401b03821117610ec057604052565b90601f801991011681019081106001600160401b03821117610ec057604052565b6001600160401b038111610ec057601f01601f191660200190565b81601f82011215610c4057803590610f5d82610f2b565b92610f6b6040519485610f0a565b82845260208383010111610c4057815f926020809301838601378301015290565b805180835260209291819084018484015e5f828201840152601f01601f1916010190565b9061014061012061104f9380518452602081015160208501526001600160401b0360408201511660408501526001600160401b0360608201511660608501526001600160401b03608082015116608085015260a081015160a085015260018060a01b0360c08201511660c085015260018060a01b0360e08201511660e08501526101008101511515610100850152015191816101208201520190610f8c565b90565b9181601f84011215610c40578235916001600160401b038311610c40576020808501948460051b010111610c4057565b6040600319820112610c40576004356001600160401b038111610c4057816110ac91600401611052565b92909291602435906001600160401b038211610c40576110ce91600401611052565b9091565b6020815260018060a01b03825116602082015260806060611101602085015183604086015260a0850190610f8c565b60408501516001600160a01b03168483015293015191015290565b6020600319820112610c4057600435906001600160401b038211610c4057610140908290036003190112610c405760040190565b356001600160a01b0381168103610c405790565b6001600160a01b03918216815291811660208301529091166040820152606081019190915260800190565b93919260408501925f9290916001600160a01b036111ac86611150565b1696606081013597803b15610c40576040516323b872dd60e01b81526001600160a01b0389166004820152306024820152604481018a9052905f908290606490829084905af190816114a8575b506112285787876104e261120c89611150565b9260405193849363045b391760e01b8552309160048601611164565b60405160208082015294979396509194909392916001600160a01b0361124d82610e90565b1660408501526020810135601e19823603018112156114a45701602081359101906001600160401b0381116114a45780360382136114a4576112dd9360e093828794608060608701528160c08701528686013783830185018b90526001600160a01b03906112ba90610e90565b16608084015260a0830152601f801991011681010301601f198101835282610f0a565b6040519160c083018381106001600160401b0382111761149057906001600160401b039160405260018060a01b0316938484521660208301526001604083015284606083015260808201528360a0820152602060405161133c81610ed4565b7f000000000000000000000000000000000000000000000000000000000000000081528181019283526040518093819263f17325e760e01b8352846004840152516024830152516040604483015260018060a01b0381511660648301526001600160401b03848201511660848301526040810151151560a4830152606081015160c483015260a06113dd608083015160c060e4860152610124850190610f8c565b9101516101048301520381877f00000000000000000000000000000000000000000000000000000000000000006001600160a01b03165af1849181611458575b5061143157634a10301360e11b8452600484fd5b7f8f7f2dbafd79125e808bf16a53d7fa4e17b8b6374ced76d946a45f94b7bf4d06819480a3565b9091506020813d602011611488575b8161147460209383610f0a565b810103126114845751905f61141d565b8480fd5b3d9150611467565b634e487b7160e01b87526041600452602487fd5b8880fd5b6114b59196505f90610f0a565b5f945f6111f9565b51906001600160a01b0382168203610c4057565b9291926114dd82610f2b565b916114eb6040519384610f0a565b829481845281830111610c40578281602093845f96015e010152565b9080601f83011215610c4057815161104f926020016114d1565b602081830312610c40578051906001600160401b038211610c40570190608082820312610c40576040519161155583610eef565b61155e816114bd565b835260208101516001600160401b038111610c4057606092611581918301611507565b6020840152611592604082016114bd565b60408401520151606082015290565b7f0000000000000000000000000000000000000000000000000000000000000000602082015103611682576115d5816118ae565b1561167c576115f561012061160592015160208082518301019101611521565b9160208082518301019101611521565b604082810151908201516001600160a01b039081169116149182611669575b82611650575b8261163457505090565b6020919250810151818151910120910151602081519101201490565b805182516001600160a01b03908116911614925061162a565b9150606082015160608201511491611624565b50505f90565b635f9bd90760e11b5f5260045ffd5b6040519061169e82610ea4565b6060610120835f81525f60208201525f60408201525f838201525f60808201525f60a08201525f60c08201525f60e08201525f6101008201520152565b51906001600160401b0382168203610c4057565b51908115158203610c4057565b602081830312610c40578051906001600160401b038211610c40570161014081830312610c40576040519161173083610ea4565b815183526020820151602084015261174a604083016116db565b604084015261175b606083016116db565b606084015261176c608083016116db565b608084015260a082015160a084015261178760c083016114bd565b60c084015261179860e083016114bd565b60e08401526117aa61010083016116ef565b6101008401526101208201516001600160401b038111610c40576117ce9201611507565b61012082015290565b92909281840361187b575f91345b85841015611870578184101561185c578360051b808601359082821161184d5784013561013e1985360301811215610c405730906001600160a01b039061183090870160e001611150565b160361184257600191039301926117e5565b505050505050505f90565b63044044a560e21b5f5260045ffd5b634e487b7160e01b5f52603260045260245ffd5b505050505050600190565b63251f56a160e21b5f5260045ffd5b6040519061189782610eef565b5f6060838281528160208201528260408201520152565b6001600160401b0360608201511680151590816118ff575b506118f057608001516001600160401b03166118e157600190565b637b6227e960e11b5f5260045ffd5b631ab7da6b60e01b5f5260045ffd5b905042115f6118c6565b805f9172184f03e93ff9f4daa797ed6e38ed64bf6a1f0160401b821015611a53575b806d04ee2d6d415b85acef8100000000600a921015611a38575b662386f26fc10000811015611a24575b6305f5e100811015611a13575b612710811015611a04575b60648110156119f6575b10156119eb575b600a6021600184019361199085610f2b565b9461199e6040519687610f0a565b8086526119ad601f1991610f2b565b013660208701378401015b5f1901916f181899199a1a9b1b9c1cb0b131b232b360811b8282061a83530480156119e657600a90916119b8565b505090565b60019091019061197e565b606460029104930192611977565b6127106004910493019261196d565b6305f5e10060089104930192611962565b662386f26fc1000060109104930192611955565b6d04ee2d6d415b85acef810000000060209104930192611945565b506040915072184f03e93ff9f4daa797ed6e38ed64bf6a1f0160401b810461192b565b7f00000000000000000000000000000000000000000000000000000000000000006001600160a01b03163303611aa857565b634ca8886760e01b5f5260045ffdfea2646970667358221220ef9dbc4973e3c5e46ae134ae96480f1ec22127934f83d9758f071283032b2bd664736f6c634300081b0033","linkReferences":{}},"methodIdentifiers":{"ATTESTATION_SCHEMA()":"5bf2f20d","attest((bytes32,bytes32,uint64,uint64,uint64,bytes32,address,address,bool,bytes))":"e60c3505","checkStatement((bytes32,bytes32,uint64,uint64,uint64,bytes32,address,address,bool,bytes),bytes,bytes32)":"1272ff8b","collectExpired(bytes32)":"a84f2aa0","collectPayment(bytes32,bytes32)":"30088bc9","decodeStatementData(bytes)":"e112ea08","getSchema()":"6b122fe0","getStatement(bytes32)":"5cc02d2f","getStatementData(bytes32)":"c75c572b","isPayable()":"ce46e046","makeStatement((address,bytes,address,uint256),uint64)":"b8b0e3fc","makeStatementFor((address,bytes,address,uint256),uint64,address,address)":"0fce7146","multiAttest((bytes32,bytes32,uint64,uint64,uint64,bytes32,address,address,bool,bytes)[],uint256[])":"91db0b7e","multiRevoke((bytes32,bytes32,uint64,uint64,uint64,bytes32,address,address,bool,bytes)[],uint256[])":"88e5b2d9","revoke((bytes32,bytes32,uint64,uint64,uint64,bytes32,address,address,bool,bytes))":"e49617e1","version()":"54fd4d50"},"id":90}