{"abi":[{"type":"constructor","inputs":[{"name":"_eas","type":"address","internalType":"contract IEAS"},{"name":"_schemaRegistry","type":"address","internalType":"contract ISchemaRegistry"}],"stateMutability":"nonpayable"},{"type":"receive","stateMutability":"payable"},{"type":"function","name":"ATTESTATION_SCHEMA","inputs":[],"outputs":[{"name":"","type":"bytes32","internalType":"bytes32"}],"stateMutability":"view"},{"type":"function","name":"attest","inputs":[{"name":"attestation","type":"tuple","internalType":"struct Attestation","components":[{"name":"uid","type":"bytes32","internalType":"bytes32"},{"name":"schema","type":"bytes32","internalType":"bytes32"},{"name":"time","type":"uint64","internalType":"uint64"},{"name":"expirationTime","type":"uint64","internalType":"uint64"},{"name":"revocationTime","type":"uint64","internalType":"uint64"},{"name":"refUID","type":"bytes32","internalType":"bytes32"},{"name":"recipient","type":"address","internalType":"address"},{"name":"attester","type":"address","internalType":"address"},{"name":"revocable","type":"bool","internalType":"bool"},{"name":"data","type":"bytes","internalType":"bytes"}]}],"outputs":[{"name":"","type":"bool","internalType":"bool"}],"stateMutability":"payable"},{"type":"function","name":"checkStatement","inputs":[{"name":"statement","type":"tuple","internalType":"struct Attestation","components":[{"name":"uid","type":"bytes32","internalType":"bytes32"},{"name":"schema","type":"bytes32","internalType":"bytes32"},{"name":"time","type":"uint64","internalType":"uint64"},{"name":"expirationTime","type":"uint64","internalType":"uint64"},{"name":"revocationTime","type":"uint64","internalType":"uint64"},{"name":"refUID","type":"bytes32","internalType":"bytes32"},{"name":"recipient","type":"address","internalType":"address"},{"name":"attester","type":"address","internalType":"address"},{"name":"revocable","type":"bool","internalType":"bool"},{"name":"data","type":"bytes","internalType":"bytes"}]},{"name":"demand","type":"bytes","internalType":"bytes"},{"name":"","type":"bytes32","internalType":"bytes32"}],"outputs":[{"name":"","type":"bool","internalType":"bool"}],"stateMutability":"view"},{"type":"function","name":"collectExpired","inputs":[{"name":"uid","type":"bytes32","internalType":"bytes32"}],"outputs":[{"name":"","type":"bool","internalType":"bool"}],"stateMutability":"nonpayable"},{"type":"function","name":"collectPayment","inputs":[{"name":"_payment","type":"bytes32","internalType":"bytes32"},{"name":"_fulfillment","type":"bytes32","internalType":"bytes32"}],"outputs":[{"name":"","type":"bool","internalType":"bool"}],"stateMutability":"nonpayable"},{"type":"function","name":"getSchema","inputs":[],"outputs":[{"name":"","type":"tuple","internalType":"struct SchemaRecord","components":[{"name":"uid","type":"bytes32","internalType":"bytes32"},{"name":"resolver","type":"address","internalType":"contract ISchemaResolver"},{"name":"revocable","type":"bool","internalType":"bool"},{"name":"schema","type":"string","internalType":"string"}]}],"stateMutability":"view"},{"type":"function","name":"getStatement","inputs":[{"name":"uid","type":"bytes32","internalType":"bytes32"}],"outputs":[{"name":"","type":"tuple","internalType":"struct Attestation","components":[{"name":"uid","type":"bytes32","internalType":"bytes32"},{"name":"schema","type":"bytes32","internalType":"bytes32"},{"name":"time","type":"uint64","internalType":"uint64"},{"name":"expirationTime","type":"uint64","internalType":"uint64"},{"name":"revocationTime","type":"uint64","internalType":"uint64"},{"name":"refUID","type":"bytes32","internalType":"bytes32"},{"name":"recipient","type":"address","internalType":"address"},{"name":"attester","type":"address","internalType":"address"},{"name":"revocable","type":"bool","internalType":"bool"},{"name":"data","type":"bytes","internalType":"bytes"}]}],"stateMutability":"view"},{"type":"function","name":"isPayable","inputs":[],"outputs":[{"name":"","type":"bool","internalType":"bool"}],"stateMutability":"pure"},{"type":"function","name":"makeStatement","inputs":[{"name":"data","type":"tuple","internalType":"struct ERC721EscrowObligation.StatementData","components":[{"name":"arbiter","type":"address","internalType":"address"},{"name":"demand","type":"bytes","internalType":"bytes"},{"name":"token","type":"address","internalType":"address"},{"name":"tokenId","type":"uint256","internalType":"uint256"}]},{"name":"expirationTime","type":"uint64","internalType":"uint64"}],"outputs":[{"name":"uid_","type":"bytes32","internalType":"bytes32"}],"stateMutability":"nonpayable"},{"type":"function","name":"makeStatementFor","inputs":[{"name":"data","type":"tuple","internalType":"struct ERC721EscrowObligation.StatementData","components":[{"name":"arbiter","type":"address","internalType":"address"},{"name":"demand","type":"bytes","internalType":"bytes"},{"name":"token","type":"address","internalType":"address"},{"name":"tokenId","type":"uint256","internalType":"uint256"}]},{"name":"expirationTime","type":"uint64","internalType":"uint64"},{"name":"payer","type":"address","internalType":"address"},{"name":"recipient","type":"address","internalType":"address"}],"outputs":[{"name":"uid_","type":"bytes32","internalType":"bytes32"}],"stateMutability":"nonpayable"},{"type":"function","name":"multiAttest","inputs":[{"name":"attestations","type":"tuple[]","internalType":"struct Attestation[]","components":[{"name":"uid","type":"bytes32","internalType":"bytes32"},{"name":"schema","type":"bytes32","internalType":"bytes32"},{"name":"time","type":"uint64","internalType":"uint64"},{"name":"expirationTime","type":"uint64","internalType":"uint64"},{"name":"revocationTime","type":"uint64","internalType":"uint64"},{"name":"refUID","type":"bytes32","internalType":"bytes32"},{"name":"recipient","type":"address","internalType":"address"},{"name":"attester","type":"address","internalType":"address"},{"name":"revocable","type":"bool","internalType":"bool"},{"name":"data","type":"bytes","internalType":"bytes"}]},{"name":"values","type":"uint256[]","internalType":"uint256[]"}],"outputs":[{"name":"","type":"bool","internalType":"bool"}],"stateMutability":"payable"},{"type":"function","name":"multiRevoke","inputs":[{"name":"attestations","type":"tuple[]","internalType":"struct Attestation[]","components":[{"name":"uid","type":"bytes32","internalType":"bytes32"},{"name":"schema","type":"bytes32","internalType":"bytes32"},{"name":"time","type":"uint64","internalType":"uint64"},{"name":"expirationTime","type":"uint64","internalType":"uint64"},{"name":"revocationTime","type":"uint64","internalType":"uint64"},{"name":"refUID","type":"bytes32","internalType":"bytes32"},{"name":"recipient","type":"address","internalType":"address"},{"name":"attester","type":"address","internalType":"address"},{"name":"revocable","type":"bool","internalType":"bool"},{"name":"data","type":"bytes","internalType":"bytes"}]},{"name":"values","type":"uint256[]","internalType":"uint256[]"}],"outputs":[{"name":"","type":"bool","internalType":"bool"}],"stateMutability":"payable"},{"type":"function","name":"revoke","inputs":[{"name":"attestation","type":"tuple","internalType":"struct Attestation","components":[{"name":"uid","type":"bytes32","internalType":"bytes32"},{"name":"schema","type":"bytes32","internalType":"bytes32"},{"name":"time","type":"uint64","internalType":"uint64"},{"name":"expirationTime","type":"uint64","internalType":"uint64"},{"name":"revocationTime","type":"uint64","internalType":"uint64"},{"name":"refUID","type":"bytes32","internalType":"bytes32"},{"name":"recipient","type":"address","internalType":"address"},{"name":"attester","type":"address","internalType":"address"},{"name":"revocable","type":"bool","internalType":"bool"},{"name":"data","type":"bytes","internalType":"bytes"}]}],"outputs":[{"name":"","type":"bool","internalType":"bool"}],"stateMutability":"payable"},{"type":"function","name":"version","inputs":[],"outputs":[{"name":"","type":"string","internalType":"string"}],"stateMutability":"view"},{"type":"event","name":"EscrowClaimed","inputs":[{"name":"payment","type":"bytes32","indexed":true,"internalType":"bytes32"},{"name":"fulfillment","type":"bytes32","indexed":true,"internalType":"bytes32"},{"name":"fulfiller","type":"address","indexed":true,"internalType":"address"}],"anonymous":false},{"type":"event","name":"EscrowMade","inputs":[{"name":"payment","type":"bytes32","indexed":true,"internalType":"bytes32"},{"name":"buyer","type":"address","indexed":true,"internalType":"address"}],"anonymous":false},{"type":"error","name":"AccessDenied","inputs":[]},{"type":"error","name":"AttestationCreateFailed","inputs":[]},{"type":"error","name":"AttestationNotFound","inputs":[{"name":"attestationId","type":"bytes32","internalType":"bytes32"}]},{"type":"error","name":"AttestationRevoked","inputs":[]},{"type":"error","name":"DeadlineExpired","inputs":[]},{"type":"error","name":"ERC721TransferFailed","inputs":[{"name":"token","type":"address","internalType":"address"},{"name":"from","type":"address","internalType":"address"},{"name":"to","type":"address","internalType":"address"},{"name":"tokenId","type":"uint256","internalType":"uint256"}]},{"type":"error","name":"InsufficientValue","inputs":[]},{"type":"error","name":"InvalidEAS","inputs":[]},{"type":"error","name":"InvalidEscrow","inputs":[]},{"type":"error","name":"InvalidEscrowAttestation","inputs":[]},{"type":"error","name":"InvalidFulfillment","inputs":[]},{"type":"error","name":"InvalidLength","inputs":[]},{"type":"error","name":"InvalidSchema","inputs":[]},{"type":"error","name":"NotFromStatement","inputs":[]},{"type":"error","name":"NotPayable","inputs":[]},{"type":"error","name":"RevocationFailed","inputs":[{"name":"attestationId","type":"bytes32","internalType":"bytes32"}]},{"type":"error","name":"UnauthorizedCall","inputs":[]}],"bytecode":{"object":"0x61016080604052346101f857604081611ae080380380916100208285610232565b8339810103126101f85780516001600160a01b038116918282036101f85760200151916001600160a01b0383168084036101f857604051606081016001600160401b0381118282101761021e57604052603d815260208101927f6164647265737320746f6b656e2c2075696e7432353620746f6b656e49642c2084527f6164647265737320617262697465722c2062797465732064656d616e6400000060408301526001608052600360a0525f60c0521561020f576084948460209560e05261012052610100525f604051958680958194630c1af44f60e31b8352606060048401525180918160648501528484015e818101830184905230602483015260016044830152601f01601f191681010301925af1908115610204575f916101ce575b506101405260405161188a9081610256823960805181610644015260a05181610670015260c0518161069b015260e05181611815015261010051816103be0152610120518181816101a7015281816105380152818161076901526111ac01526101405181818161038c0152818161057801528181610601015281816108b3015281816110ff01526113640152f35b90506020813d6020116101fc575b816101e960209383610232565b810103126101f857515f610140565b5f80fd5b3d91506101dc565b6040513d5f823e3d90fd5b6341bc07ff60e11b5f5260045ffd5b634e487b7160e01b5f52604160045260245ffd5b601f909101601f19168101906001600160401b0382119082101761021e5760405256fe60806040526004361015610027575b3615610018575f80fd5b631574f9f360e01b5f5260045ffd5b5f5f3560e01c9081630fce714614610c025781631272ff8b14610aea57816330088bc91461072857816354fd4d50146106245781635bf2f20d146105ea5781635cc02d2f146105015781636b122fe01461034c57816388e5b2d91461032357816391db0b7e14610323578163a84f2aa01461016d578163b8b0e3fc14610119578163ce46e046146100fb57508063e49617e1146100c95763e60c35050361000e575b60206100e760e06100d936610edd565b6100e1611813565b01610f11565b6040516001600160a01b0390911630148152f35b34610116578060031936011261011657602090604051908152f35b80fd5b3461011657604036600319011261011657600435906001600160401b038211610116576080600319833603011261011657602061016583610158610c71565b9033913391600401610f50565b604051908152f35b34610116576020366003190112610116576004359061018a611452565b506040516328c44a9960e21b8152600481018390529181836024817f00000000000000000000000000000000000000000000000000000000000000006001600160a01b03165afa809383946102ff575b506101f2576301fb6dd160e01b825260045260249150fd5b506001600160401b0360608301511642106102f05761021f610120830151602080825183010191016112e2565b90604082019060c060018060a01b03835116940192606060018060a01b03855116910194855191813b156102ec576040516323b872dd60e01b81523060048201526001600160a01b03919091166024820152604481019290925290919081908390606490829084905af191826102d7575b50506102cc57519051915160405163045b391760e01b81529283926102c892916001600160a01b039081169130911660048601610f25565b0390fd5b602060405160018152f35b6102e2828092610d15565b6101165780610290565b8380fd5b637bf6a16f60e01b8152600490fd5b61031c9194503d8085833e6103148183610d15565b8101906114bd565b92846101da565b602061034261033136610e8d565b9261033d929192611813565b611598565b6040519015158152f35b3461011657806003193601126101165760608060405161036b81610cfa565b8381528360208201528360408201520152604051906351753e3760e11b82527f00000000000000000000000000000000000000000000000000000000000000006004830152808260248160018060a01b037f0000000000000000000000000000000000000000000000000000000000000000165afa9081156104f5578091610438575b606082610434604051928392602084528051602085015260018060a01b0360208201511660408501526040810151151582850152015160808084015260a0830190610d97565b0390f35b90503d8082843e6104498184610d15565b8201916020818403126104f1578051906001600160401b0382116104ed570190608082840312610116576040519161048083610cfa565b8051835260208101516001600160a01b03811681036104ed5760208401526104aa604082016114b0565b60408401526060810151906001600160401b0382116104ed57019083601f8301121561011657506060928160206104e393519101611292565b82820152826103ee565b8280fd5b5080fd5b604051903d90823e3d90fd5b346101165760203660031901126101165761051a611452565b506040516328c44a9960e21b815260048035908201529080826024817f00000000000000000000000000000000000000000000000000000000000000006001600160a01b03165afa9182156105dd5781926105c1575b5060208201517f0000000000000000000000000000000000000000000000000000000000000000036105b2576040516020808252819061043490820185610dbb565b63295d5f3960e01b8152600490fd5b6105d69192503d8084833e6103148183610d15565b9082610570565b50604051903d90823e3d90fd5b3461011657806003193601126101165760206040517f00000000000000000000000000000000000000000000000000000000000000008152f35b3461011657806003193601126101165760206107146001610434936106687f00000000000000000000000000000000000000000000000000000000000000006116a6565b9082856106947f00000000000000000000000000000000000000000000000000000000000000006116a6565b81806106bf7f00000000000000000000000000000000000000000000000000000000000000006116a6565b926040519a888c995191829101848b015e880190601760f91b83830152805192839101602183015e010190601760f91b84830152805192839101600283015e010190838201520301601f198101835282610d15565b604051918291602083526020830190610d97565b34610a4b576040366003190112610a4b576004359060243590610749611452565b50610752611452565b506040516328c44a9960e21b8152600481018490527f00000000000000000000000000000000000000000000000000000000000000006001600160a01b031691905f81602481865afa5f9181610ace575b506107bb57846301fb6dd160e01b5f5260045260245ffd5b84906040516328c44a9960e21b81528560048201525f81602481885afa5f9181610ab2575b506107f857856301fb6dd160e01b5f5260045260245ffd5b8590946108048361164b565b15610aa35761087160206108256101208601518280825183010191016112e2565b9460018060a01b0386511661085f8a84890151935160405196879586948594631272ff8b60e01b8652606060048701526064860190610dbb565b84810360031901602486015290610d97565b90604483015203915afa908115610a98575f91610a5e575b5015610a4f5760405161089b81610cdf565b8481525f6020820152604051906108b182610cdf565b7f0000000000000000000000000000000000000000000000000000000000000000825260208201908152823b15610a4b5760645f92836020956040519687958694634692626760e01b86525160048601525180516024860152015160448401525af19081610a36575b506109335763614cf93960e01b84526004839052602484fd5b838593604084019260c060018060a01b03855116960194606060018060a01b03875116910196875191813b15610a32576040516323b872dd60e01b81523060048201526001600160a01b039190911660248201526044810192909252849081908390606490829084905af19182610a1d575b50506109e057505090519151925160405163045b391760e01b81529384936102c893506001600160a01b039182169130911660048601610f25565b602093508460018060a01b03905116917fd903ca32e81477af89f5b8a6ce888d185cc715390e49474a77b4c6846254cccd6040519480a460018152f35b81610a2791610d15565b6102ec5783886109a5565b8580fd5b610a439195505f90610d15565b5f938661091a565b5f80fd5b630ebe58ef60e11b5f5260045ffd5b90506020813d602011610a90575b81610a7960209383610d15565b81010312610a4b57610a8a906114b0565b87610889565b3d9150610a6c565b6040513d5f823e3d90fd5b63629cd40b60e11b5f5260045ffd5b610ac79192503d805f833e6103148183610d15565b90876107e0565b610ae39192503d805f833e6103148183610d15565b90866107a3565b34610a4b576060366003190112610a4b576004356001600160401b038111610a4b576101406003198236030112610a4b5760405190610b2882610caf565b8060040135825260248101356020830152610b4560448201610c87565b6040830152610b5660648201610c87565b6060830152610b6760848201610c87565b608083015260a481013560a0830152610b8260c48201610c9b565b60c0830152610b9360e48201610c9b565b60e08301526101048101358015158103610a4b57610100830152610124810135906001600160401b038211610a4b576004610bd19236920101610d51565b6101208201526024356001600160401b038111610a4b57602091610bfc610342923690600401610d51565b90611362565b34610a4b576080366003190112610a4b576004356001600160401b038111610a4b5760806003198236030112610a4b57610c3a610c71565b906044356001600160a01b0381168103610a4b57606435906001600160a01b0382168203610a4b5760209361016593600401610f50565b602435906001600160401b0382168203610a4b57565b35906001600160401b0382168203610a4b57565b35906001600160a01b0382168203610a4b57565b61014081019081106001600160401b03821117610ccb57604052565b634e487b7160e01b5f52604160045260245ffd5b604081019081106001600160401b03821117610ccb57604052565b608081019081106001600160401b03821117610ccb57604052565b90601f801991011681019081106001600160401b03821117610ccb57604052565b6001600160401b038111610ccb57601f01601f191660200190565b81601f82011215610a4b57803590610d6882610d36565b92610d766040519485610d15565b82845260208383010111610a4b57815f926020809301838601378301015290565b805180835260209291819084018484015e5f828201840152601f01601f1916010190565b90610140610120610e5a9380518452602081015160208501526001600160401b0360408201511660408501526001600160401b0360608201511660608501526001600160401b03608082015116608085015260a081015160a085015260018060a01b0360c08201511660c085015260018060a01b0360e08201511660e08501526101008101511515610100850152015191816101208201520190610d97565b90565b9181601f84011215610a4b578235916001600160401b038311610a4b576020808501948460051b010111610a4b57565b6040600319820112610a4b576004356001600160401b038111610a4b5781610eb791600401610e5d565b92909291602435906001600160401b038211610a4b57610ed991600401610e5d565b9091565b6020600319820112610a4b57600435906001600160401b038211610a4b57610140908290036003190112610a4b5760040190565b356001600160a01b0381168103610a4b5790565b6001600160a01b03918216815291811660208301529091166040820152606081019190915260800190565b93919260408501925f9290916001600160a01b03610f6d86610f11565b1696606081013597803b15610a4b576040516323b872dd60e01b81526001600160a01b0389166004820152306024820152604481018a9052905f908290606490829084905af19081611269575b50610fe95787876102c8610fcd89610f11565b9260405193849363045b391760e01b8552309160048601610f25565b60405160208082015294979396509194909392916001600160a01b0361100e82610c9b565b1660408501526020810135601e19823603018112156112655701602081359101906001600160401b0381116112655780360382136112655761109e9360e093828794608060608701528160c08701528686013783830185018b90526001600160a01b039061107b90610c9b565b16608084015260a0830152601f801991011681010301601f198101835282610d15565b6040519160c083018381106001600160401b0382111761125157906001600160401b039160405260018060a01b0316938484521660208301526001604083015284606083015260808201528360a082015260206040516110fd81610cdf565b7f000000000000000000000000000000000000000000000000000000000000000081528181019283526040518093819263f17325e760e01b8352846004840152516024830152516040604483015260018060a01b0381511660648301526001600160401b03848201511660848301526040810151151560a4830152606081015160c483015260a061119e608083015160c060e4860152610124850190610d97565b9101516101048301520381877f00000000000000000000000000000000000000000000000000000000000000006001600160a01b03165af1849181611219575b506111f257634a10301360e11b8452600484fd5b7f8f7f2dbafd79125e808bf16a53d7fa4e17b8b6374ced76d946a45f94b7bf4d06819480a3565b9091506020813d602011611249575b8161123560209383610d15565b810103126112455751905f6111de565b8480fd5b3d9150611228565b634e487b7160e01b87526041600452602487fd5b8880fd5b6112769196505f90610d15565b5f945f610fba565b51906001600160a01b0382168203610a4b57565b92919261129e82610d36565b916112ac6040519384610d15565b829481845281830111610a4b578281602093845f96015e010152565b9080601f83011215610a4b578151610e5a92602001611292565b602081830312610a4b578051906001600160401b038211610a4b570190608082820312610a4b576040519161131683610cfa565b61131f8161127e565b835260208101516001600160401b038111610a4b576060926113429183016112c8565b60208401526113536040820161127e565b60408401520151606082015290565b7f0000000000000000000000000000000000000000000000000000000000000000602082015103611443576113968161164b565b1561143d576113b66101206113c6920151602080825183010191016112e2565b91602080825183010191016112e2565b604082810151908201516001600160a01b03908116911614918261142a575b82611411575b826113f557505090565b6020919250810151818151910120910151602081519101201490565b805182516001600160a01b0390811691161492506113eb565b91506060820151606082015114916113e5565b50505f90565b635f9bd90760e11b5f5260045ffd5b6040519061145f82610caf565b6060610120835f81525f60208201525f60408201525f838201525f60808201525f60a08201525f60c08201525f60e08201525f6101008201520152565b51906001600160401b0382168203610a4b57565b51908115158203610a4b57565b602081830312610a4b578051906001600160401b038211610a4b570161014081830312610a4b57604051916114f183610caf565b815183526020820151602084015261150b6040830161149c565b604084015261151c6060830161149c565b606084015261152d6080830161149c565b608084015260a082015160a084015261154860c0830161127e565b60c084015261155960e0830161127e565b60e084015261156b61010083016114b0565b6101008401526101208201516001600160401b038111610a4b5761158f92016112c8565b61012082015290565b92909281840361163c575f91345b85841015611631578184101561161d578360051b808601359082821161160e5784013561013e1985360301811215610a4b5730906001600160a01b03906115f190870160e001610f11565b160361160357600191039301926115a6565b505050505050505f90565b63044044a560e21b5f5260045ffd5b634e487b7160e01b5f52603260045260245ffd5b505050505050600190565b63251f56a160e21b5f5260045ffd5b6001600160401b03606082015116801515908161169c575b5061168d57608001516001600160401b031661167e57600190565b637b6227e960e11b5f5260045ffd5b631ab7da6b60e01b5f5260045ffd5b905042115f611663565b805f9172184f03e93ff9f4daa797ed6e38ed64bf6a1f0160401b8210156117f0575b806d04ee2d6d415b85acef8100000000600a9210156117d5575b662386f26fc100008110156117c1575b6305f5e1008110156117b0575b6127108110156117a1575b6064811015611793575b1015611788575b600a6021600184019361172d85610d36565b9461173b6040519687610d15565b80865261174a601f1991610d36565b013660208701378401015b5f1901916f181899199a1a9b1b9c1cb0b131b232b360811b8282061a835304801561178357600a9091611755565b505090565b60019091019061171b565b606460029104930192611714565b6127106004910493019261170a565b6305f5e100600891049301926116ff565b662386f26fc10000601091049301926116f2565b6d04ee2d6d415b85acef8100000000602091049301926116e2565b506040915072184f03e93ff9f4daa797ed6e38ed64bf6a1f0160401b81046116c8565b7f00000000000000000000000000000000000000000000000000000000000000006001600160a01b0316330361184557565b634ca8886760e01b5f5260045ffdfea26469706673582212202cab5951347f55c1276ec0a1861eb633b1d1fe8bd398eb4ac4c36b5f6b1191b264736f6c634300081b0033","linkReferences":{}},"methodIdentifiers":{"ATTESTATION_SCHEMA()":"5bf2f20d","attest((bytes32,bytes32,uint64,uint64,uint64,bytes32,address,address,bool,bytes))":"e60c3505","checkStatement((bytes32,bytes32,uint64,uint64,uint64,bytes32,address,address,bool,bytes),bytes,bytes32)":"1272ff8b","collectExpired(bytes32)":"a84f2aa0","collectPayment(bytes32,bytes32)":"30088bc9","getSchema()":"6b122fe0","getStatement(bytes32)":"5cc02d2f","isPayable()":"ce46e046","makeStatement((address,bytes,address,uint256),uint64)":"b8b0e3fc","makeStatementFor((address,bytes,address,uint256),uint64,address,address)":"0fce7146","multiAttest((bytes32,bytes32,uint64,uint64,uint64,bytes32,address,address,bool,bytes)[],uint256[])":"91db0b7e","multiRevoke((bytes32,bytes32,uint64,uint64,uint64,bytes32,address,address,bool,bytes)[],uint256[])":"88e5b2d9","revoke((bytes32,bytes32,uint64,uint64,uint64,bytes32,address,address,bool,bytes))":"e49617e1","version()":"54fd4d50"},"id":96}