{"abi":[{"type":"constructor","inputs":[{"name":"_eas","type":"address","internalType":"contract IEAS"},{"name":"_schemaRegistry","type":"address","internalType":"contract ISchemaRegistry"}],"stateMutability":"nonpayable"},{"type":"receive","stateMutability":"payable"},{"type":"function","name":"ATTESTATION_SCHEMA","inputs":[],"outputs":[{"name":"","type":"bytes32","internalType":"bytes32"}],"stateMutability":"view"},{"type":"function","name":"attest","inputs":[{"name":"attestation","type":"tuple","internalType":"struct Attestation","components":[{"name":"uid","type":"bytes32","internalType":"bytes32"},{"name":"schema","type":"bytes32","internalType":"bytes32"},{"name":"time","type":"uint64","internalType":"uint64"},{"name":"expirationTime","type":"uint64","internalType":"uint64"},{"name":"revocationTime","type":"uint64","internalType":"uint64"},{"name":"refUID","type":"bytes32","internalType":"bytes32"},{"name":"recipient","type":"address","internalType":"address"},{"name":"attester","type":"address","internalType":"address"},{"name":"revocable","type":"bool","internalType":"bool"},{"name":"data","type":"bytes","internalType":"bytes"}]}],"outputs":[{"name":"","type":"bool","internalType":"bool"}],"stateMutability":"payable"},{"type":"function","name":"checkStatement","inputs":[{"name":"statement","type":"tuple","internalType":"struct Attestation","components":[{"name":"uid","type":"bytes32","internalType":"bytes32"},{"name":"schema","type":"bytes32","internalType":"bytes32"},{"name":"time","type":"uint64","internalType":"uint64"},{"name":"expirationTime","type":"uint64","internalType":"uint64"},{"name":"revocationTime","type":"uint64","internalType":"uint64"},{"name":"refUID","type":"bytes32","internalType":"bytes32"},{"name":"recipient","type":"address","internalType":"address"},{"name":"attester","type":"address","internalType":"address"},{"name":"revocable","type":"bool","internalType":"bool"},{"name":"data","type":"bytes","internalType":"bytes"}]},{"name":"demand","type":"bytes","internalType":"bytes"},{"name":"","type":"bytes32","internalType":"bytes32"}],"outputs":[{"name":"","type":"bool","internalType":"bool"}],"stateMutability":"view"},{"type":"function","name":"collectExpired","inputs":[{"name":"uid","type":"bytes32","internalType":"bytes32"}],"outputs":[{"name":"","type":"bool","internalType":"bool"}],"stateMutability":"nonpayable"},{"type":"function","name":"collectPayment","inputs":[{"name":"_payment","type":"bytes32","internalType":"bytes32"},{"name":"_fulfillment","type":"bytes32","internalType":"bytes32"}],"outputs":[{"name":"","type":"bool","internalType":"bool"}],"stateMutability":"nonpayable"},{"type":"function","name":"decodeStatementData","inputs":[{"name":"data","type":"bytes","internalType":"bytes"}],"outputs":[{"name":"","type":"tuple","internalType":"struct TokenBundleEscrowObligation.StatementData","components":[{"name":"arbiter","type":"address","internalType":"address"},{"name":"demand","type":"bytes","internalType":"bytes"},{"name":"erc20Tokens","type":"address[]","internalType":"address[]"},{"name":"erc20Amounts","type":"uint256[]","internalType":"uint256[]"},{"name":"erc721Tokens","type":"address[]","internalType":"address[]"},{"name":"erc721TokenIds","type":"uint256[]","internalType":"uint256[]"},{"name":"erc1155Tokens","type":"address[]","internalType":"address[]"},{"name":"erc1155TokenIds","type":"uint256[]","internalType":"uint256[]"},{"name":"erc1155Amounts","type":"uint256[]","internalType":"uint256[]"}]}],"stateMutability":"pure"},{"type":"function","name":"getSchema","inputs":[],"outputs":[{"name":"","type":"tuple","internalType":"struct SchemaRecord","components":[{"name":"uid","type":"bytes32","internalType":"bytes32"},{"name":"resolver","type":"address","internalType":"contract ISchemaResolver"},{"name":"revocable","type":"bool","internalType":"bool"},{"name":"schema","type":"string","internalType":"string"}]}],"stateMutability":"view"},{"type":"function","name":"getStatement","inputs":[{"name":"uid","type":"bytes32","internalType":"bytes32"}],"outputs":[{"name":"","type":"tuple","internalType":"struct Attestation","components":[{"name":"uid","type":"bytes32","internalType":"bytes32"},{"name":"schema","type":"bytes32","internalType":"bytes32"},{"name":"time","type":"uint64","internalType":"uint64"},{"name":"expirationTime","type":"uint64","internalType":"uint64"},{"name":"revocationTime","type":"uint64","internalType":"uint64"},{"name":"refUID","type":"bytes32","internalType":"bytes32"},{"name":"recipient","type":"address","internalType":"address"},{"name":"attester","type":"address","internalType":"address"},{"name":"revocable","type":"bool","internalType":"bool"},{"name":"data","type":"bytes","internalType":"bytes"}]}],"stateMutability":"view"},{"type":"function","name":"getStatementData","inputs":[{"name":"uid","type":"bytes32","internalType":"bytes32"}],"outputs":[{"name":"","type":"tuple","internalType":"struct TokenBundleEscrowObligation.StatementData","components":[{"name":"arbiter","type":"address","internalType":"address"},{"name":"demand","type":"bytes","internalType":"bytes"},{"name":"erc20Tokens","type":"address[]","internalType":"address[]"},{"name":"erc20Amounts","type":"uint256[]","internalType":"uint256[]"},{"name":"erc721Tokens","type":"address[]","internalType":"address[]"},{"name":"erc721TokenIds","type":"uint256[]","internalType":"uint256[]"},{"name":"erc1155Tokens","type":"address[]","internalType":"address[]"},{"name":"erc1155TokenIds","type":"uint256[]","internalType":"uint256[]"},{"name":"erc1155Amounts","type":"uint256[]","internalType":"uint256[]"}]}],"stateMutability":"view"},{"type":"function","name":"isPayable","inputs":[],"outputs":[{"name":"","type":"bool","internalType":"bool"}],"stateMutability":"pure"},{"type":"function","name":"makeStatement","inputs":[{"name":"data","type":"tuple","internalType":"struct TokenBundleEscrowObligation.StatementData","components":[{"name":"arbiter","type":"address","internalType":"address"},{"name":"demand","type":"bytes","internalType":"bytes"},{"name":"erc20Tokens","type":"address[]","internalType":"address[]"},{"name":"erc20Amounts","type":"uint256[]","internalType":"uint256[]"},{"name":"erc721Tokens","type":"address[]","internalType":"address[]"},{"name":"erc721TokenIds","type":"uint256[]","internalType":"uint256[]"},{"name":"erc1155Tokens","type":"address[]","internalType":"address[]"},{"name":"erc1155TokenIds","type":"uint256[]","internalType":"uint256[]"},{"name":"erc1155Amounts","type":"uint256[]","internalType":"uint256[]"}]},{"name":"expirationTime","type":"uint64","internalType":"uint64"}],"outputs":[{"name":"uid_","type":"bytes32","internalType":"bytes32"}],"stateMutability":"nonpayable"},{"type":"function","name":"makeStatementFor","inputs":[{"name":"data","type":"tuple","internalType":"struct TokenBundleEscrowObligation.StatementData","components":[{"name":"arbiter","type":"address","internalType":"address"},{"name":"demand","type":"bytes","internalType":"bytes"},{"name":"erc20Tokens","type":"address[]","internalType":"address[]"},{"name":"erc20Amounts","type":"uint256[]","internalType":"uint256[]"},{"name":"erc721Tokens","type":"address[]","internalType":"address[]"},{"name":"erc721TokenIds","type":"uint256[]","internalType":"uint256[]"},{"name":"erc1155Tokens","type":"address[]","internalType":"address[]"},{"name":"erc1155TokenIds","type":"uint256[]","internalType":"uint256[]"},{"name":"erc1155Amounts","type":"uint256[]","internalType":"uint256[]"}]},{"name":"expirationTime","type":"uint64","internalType":"uint64"},{"name":"payer","type":"address","internalType":"address"},{"name":"recipient","type":"address","internalType":"address"}],"outputs":[{"name":"uid_","type":"bytes32","internalType":"bytes32"}],"stateMutability":"nonpayable"},{"type":"function","name":"multiAttest","inputs":[{"name":"attestations","type":"tuple[]","internalType":"struct Attestation[]","components":[{"name":"uid","type":"bytes32","internalType":"bytes32"},{"name":"schema","type":"bytes32","internalType":"bytes32"},{"name":"time","type":"uint64","internalType":"uint64"},{"name":"expirationTime","type":"uint64","internalType":"uint64"},{"name":"revocationTime","type":"uint64","internalType":"uint64"},{"name":"refUID","type":"bytes32","internalType":"bytes32"},{"name":"recipient","type":"address","internalType":"address"},{"name":"attester","type":"address","internalType":"address"},{"name":"revocable","type":"bool","internalType":"bool"},{"name":"data","type":"bytes","internalType":"bytes"}]},{"name":"values","type":"uint256[]","internalType":"uint256[]"}],"outputs":[{"name":"","type":"bool","internalType":"bool"}],"stateMutability":"payable"},{"type":"function","name":"multiRevoke","inputs":[{"name":"attestations","type":"tuple[]","internalType":"struct Attestation[]","components":[{"name":"uid","type":"bytes32","internalType":"bytes32"},{"name":"schema","type":"bytes32","internalType":"bytes32"},{"name":"time","type":"uint64","internalType":"uint64"},{"name":"expirationTime","type":"uint64","internalType":"uint64"},{"name":"revocationTime","type":"uint64","internalType":"uint64"},{"name":"refUID","type":"bytes32","internalType":"bytes32"},{"name":"recipient","type":"address","internalType":"address"},{"name":"attester","type":"address","internalType":"address"},{"name":"revocable","type":"bool","internalType":"bool"},{"name":"data","type":"bytes","internalType":"bytes"}]},{"name":"values","type":"uint256[]","internalType":"uint256[]"}],"outputs":[{"name":"","type":"bool","internalType":"bool"}],"stateMutability":"payable"},{"type":"function","name":"onERC1155BatchReceived","inputs":[{"name":"","type":"address","internalType":"address"},{"name":"","type":"address","internalType":"address"},{"name":"","type":"uint256[]","internalType":"uint256[]"},{"name":"","type":"uint256[]","internalType":"uint256[]"},{"name":"","type":"bytes","internalType":"bytes"}],"outputs":[{"name":"","type":"bytes4","internalType":"bytes4"}],"stateMutability":"nonpayable"},{"type":"function","name":"onERC1155Received","inputs":[{"name":"","type":"address","internalType":"address"},{"name":"","type":"address","internalType":"address"},{"name":"","type":"uint256","internalType":"uint256"},{"name":"","type":"uint256","internalType":"uint256"},{"name":"","type":"bytes","internalType":"bytes"}],"outputs":[{"name":"","type":"bytes4","internalType":"bytes4"}],"stateMutability":"nonpayable"},{"type":"function","name":"revoke","inputs":[{"name":"attestation","type":"tuple","internalType":"struct Attestation","components":[{"name":"uid","type":"bytes32","internalType":"bytes32"},{"name":"schema","type":"bytes32","internalType":"bytes32"},{"name":"time","type":"uint64","internalType":"uint64"},{"name":"expirationTime","type":"uint64","internalType":"uint64"},{"name":"revocationTime","type":"uint64","internalType":"uint64"},{"name":"refUID","type":"bytes32","internalType":"bytes32"},{"name":"recipient","type":"address","internalType":"address"},{"name":"attester","type":"address","internalType":"address"},{"name":"revocable","type":"bool","internalType":"bool"},{"name":"data","type":"bytes","internalType":"bytes"}]}],"outputs":[{"name":"","type":"bool","internalType":"bool"}],"stateMutability":"payable"},{"type":"function","name":"supportsInterface","inputs":[{"name":"interfaceId","type":"bytes4","internalType":"bytes4"}],"outputs":[{"name":"","type":"bool","internalType":"bool"}],"stateMutability":"view"},{"type":"function","name":"version","inputs":[],"outputs":[{"name":"","type":"string","internalType":"string"}],"stateMutability":"view"},{"type":"event","name":"EscrowClaimed","inputs":[{"name":"payment","type":"bytes32","indexed":true,"internalType":"bytes32"},{"name":"fulfillment","type":"bytes32","indexed":true,"internalType":"bytes32"},{"name":"fulfiller","type":"address","indexed":true,"internalType":"address"}],"anonymous":false},{"type":"event","name":"EscrowMade","inputs":[{"name":"payment","type":"bytes32","indexed":true,"internalType":"bytes32"},{"name":"buyer","type":"address","indexed":true,"internalType":"address"}],"anonymous":false},{"type":"error","name":"AccessDenied","inputs":[]},{"type":"error","name":"ArrayLengthMismatch","inputs":[]},{"type":"error","name":"AttestationCreateFailed","inputs":[]},{"type":"error","name":"AttestationNotFound","inputs":[{"name":"attestationId","type":"bytes32","internalType":"bytes32"}]},{"type":"error","name":"AttestationRevoked","inputs":[]},{"type":"error","name":"DeadlineExpired","inputs":[]},{"type":"error","name":"ERC1155TransferFailed","inputs":[{"name":"token","type":"address","internalType":"address"},{"name":"from","type":"address","internalType":"address"},{"name":"to","type":"address","internalType":"address"},{"name":"tokenId","type":"uint256","internalType":"uint256"},{"name":"amount","type":"uint256","internalType":"uint256"}]},{"type":"error","name":"ERC20TransferFailed","inputs":[{"name":"token","type":"address","internalType":"address"},{"name":"from","type":"address","internalType":"address"},{"name":"to","type":"address","internalType":"address"},{"name":"amount","type":"uint256","internalType":"uint256"}]},{"type":"error","name":"ERC721TransferFailed","inputs":[{"name":"token","type":"address","internalType":"address"},{"name":"from","type":"address","internalType":"address"},{"name":"to","type":"address","internalType":"address"},{"name":"tokenId","type":"uint256","internalType":"uint256"}]},{"type":"error","name":"InsufficientValue","inputs":[]},{"type":"error","name":"InvalidEAS","inputs":[]},{"type":"error","name":"InvalidEscrowAttestation","inputs":[]},{"type":"error","name":"InvalidFulfillment","inputs":[]},{"type":"error","name":"InvalidLength","inputs":[]},{"type":"error","name":"InvalidSchema","inputs":[]},{"type":"error","name":"InvalidTransfer","inputs":[]},{"type":"error","name":"NotFromStatement","inputs":[]},{"type":"error","name":"NotPayable","inputs":[]},{"type":"error","name":"RevocationFailed","inputs":[{"name":"attestationId","type":"bytes32","internalType":"bytes32"}]},{"type":"error","name":"UnauthorizedCall","inputs":[]}],"bytecode":{"object":"0x61016080604052346102b457604081612cfe803803809161002082856102ee565b8339810103126102b45780516001600160a01b038116918282036102b45760200151916001600160a01b0383168084036102b45760405161010081016001600160401b038111828210176102da5760405260cc815260208101927f6164647265737320617262697465722c2062797465732064656d616e642c206184527f6464726573735b5d206572633230546f6b656e732c2075696e743235365b5d2060408301527f6572633230416d6f756e74732c20616464726573735b5d20657263373231546f60608301527f6b656e732c2075696e743235365b5d20657263373231546f6b656e4964732c2060808301527f616464726573735b5d2065726331313535546f6b656e732c2075696e7432353660a08301527f5b5d2065726331313535546f6b656e4964732c2075696e743235365b5d20657260c08301526b6331313535416d6f756e747360a01b60e08301526001608052600360a0525f60c052156102cb576084948460209560e05261012052610100525f604051958680958194630c1af44f60e31b8352606060048401525180918160648501528484015e818101830184905230602483015260016044830152601f01601f191681010301925af19081156102c0575f9161028a575b50610140526040516129ec9081610312823960805181610946015260a05181610972015260c0518161099d015260e05181612977015261010051816106d60152610120518181816103d7015281816105730152818161084501528181610ac20152611e7f015261014051818181610417015281816106a4015281816108850152818161090201528181610c0d015281816116a80152611dd20152f35b90506020813d6020116102b8575b816102a5602093836102ee565b810103126102b457515f6101ee565b5f80fd5b3d9150610298565b6040513d5f823e3d90fd5b6341bc07ff60e11b5f5260045ffd5b634e487b7160e01b5f52604160045260245ffd5b601f909101601f19168101906001600160401b038211908210176102da5760405256fe6080806040526004361015610029575b50361561001a575f80fd5b631574f9f360e01b5f5260045ffd5b5f905f3560e01c90816301ffc9a714610f1f575080631272ff8b14610e075780631396883714610d9757806330088bc914610a8057806353d4329814610a2a57806354fd4d50146109255780635bf2f20d146108ea5780635cc02d2f1461080d5780636b122fe01461066357806388e5b2d91461063a57806391db0b7e1461063a578063a84f2aa014610538578063bc197c81146104a2578063c75c572b1461039f578063ce46e04614610383578063e112ea081461018e578063e49617e11461015c578063e60c35051461015c5763f23a6e610361000f57346101595760a03660031901126101595761011b61103f565b50610124611055565b506084356001600160401b0381116101575761014490369060040161109a565b5060405163f23a6e6160e01b8152602090f35b505b80fd5b602061017a60e061016c366113ea565b610174612975565b01612436565b6040516001600160a01b0390911630148152f35b503461015957602036600319011261015957600435906001600160401b03821161015957366023830112156101595781600401356001600160401b038111610157578201906024820192368411610157576101e761215c565b50602081840312610157576024810135906001600160401b03821161037f5701916101209083900312610159576040519161022183610fd8565b61022d6024820161106b565b835260448101356001600160401b03811161037f578460246102519284010161109a565b602084015260648101356001600160401b03811161037f578460246102789284010161219f565b604084015260848101356001600160401b03811161037f5784602461029f9284010161123d565b606084015260a48101356001600160401b03811161037f578460246102c69284010161219f565b608084015260c48101356001600160401b03811161037f578460246102ed9284010161123d565b60a084015260e48101356001600160401b03811161037f578460246103149284010161219f565b60c08401526101048101356001600160401b03811161037f5784602461033c9284010161123d565b60e0840152610124810135916001600160401b03831161015957509260246103699261037b95010161123d565b61010082015260405191829182611309565b0390f35b8280fd5b5034610159578060031936011261015957602090604051908152f35b5034610159576020366003190112610159576103b961215c565b506040516328c44a9960e21b815260048035908201529080826024817f00000000000000000000000000000000000000000000000000000000000000006001600160a01b03165afa918215610495578192610471575b5060208201517f0000000000000000000000000000000000000000000000000000000000000000036104625761037b61045661012084015160208082518301019101611544565b60405191829182611309565b63629cd40b60e11b8152600490fd5b61048e9192503d8084833e6104868183610ff4565b810190611fbf565b905f61040f565b50604051903d90823e3d90fd5b50346101595760a0366003190112610159576104bc61103f565b506104c5611055565b506044356001600160401b038111610157576104e590369060040161123d565b506064356001600160401b0381116101575761050590369060040161123d565b506084356001600160401b0381116101575761052590369060040161109a565b5060405163bc197c8160e01b8152602090f35b50346101595760203660031901126101595760043590610556611f54565b506040516328c44a9960e21b8152600481018390529181836024817f00000000000000000000000000000000000000000000000000000000000000006001600160a01b03165afa8093839461061e575b506105be576301fb6dd160e01b825260045260249150fd5b506001600160401b03606083015116421061060f57610604826105ef61012082015160208082518301019101611544565b60c0909101516001600160a01b0316906124d0565b602060405160018152f35b637bf6a16f60e01b8152600490fd5b6106339194503d8085833e6104868183610ff4565b925f6105a6565b6020610659610648366111d6565b92610654929192612975565b6120be565b6040519015158152f35b503461015957806003193601126101595760608060405161068381610fbd565b8381528360208201528360408201520152604051906351753e3760e11b82527f00000000000000000000000000000000000000000000000000000000000000006004830152808260248160018060a01b037f0000000000000000000000000000000000000000000000000000000000000000165afa90811561080157809161074c575b60608261037b604051928392602084528051602085015260018060a01b0360208201511660408501526040810151151582850152015160808084015260a08301906110e0565b90503d8082843e61075d8184610ff4565b820191602081840312610157578051906001600160401b03821161037f570190608082840312610159576040519161079483610fbd565b8051835260208101516001600160a01b038116810361037f5760208401526107be60408201611fb2565b60408401526060810151906001600160401b03821161037f57019083601f8301121561015957506060928160206107f793519101611432565b828201525f610706565b604051903d90823e3d90fd5b503461015957602036600319011261015957610827611f54565b506040516328c44a9960e21b815260048035908201529080826024817f00000000000000000000000000000000000000000000000000000000000000006001600160a01b03165afa9182156104955781926108ce575b5060208201517f0000000000000000000000000000000000000000000000000000000000000000036108bf576040516020808252819061037b90820185611104565b63295d5f3960e01b8152600490fd5b6108e39192503d8084833e6104868183610ff4565b905f61087d565b503461015957806003193601126101595760206040517f00000000000000000000000000000000000000000000000000000000000000008152f35b50346101595780600319360112610159576020610a16600161037b9361096a7f0000000000000000000000000000000000000000000000000000000000000000612808565b9082856109967f0000000000000000000000000000000000000000000000000000000000000000612808565b81806109c17f0000000000000000000000000000000000000000000000000000000000000000612808565b926040519a888c995191829101848b015e880190601760f91b83830152805192839101602183015e010190601760f91b84830152805192839101600283015e010190838201520301601f198101835282610ff4565b6040519182916020835260208301906110e0565b503461015957604036600319011261015957600435906001600160401b038211610159576101206003198336030112610159576020610a7883610a6b611015565b9033913391600401611806565b604051908152f35b5034610cf8576040366003190112610cf8576004359060243590610aa2611f54565b50610aab611f54565b506040516328c44a9960e21b8152600481018490527f00000000000000000000000000000000000000000000000000000000000000006001600160a01b031691905f81602481865afa5f9181610d7b575b50610b1457846301fb6dd160e01b5f5260045260245ffd5b84906040516328c44a9960e21b81528560048201525f81602481885afa5f9181610d5f575b50610b5157856301fb6dd160e01b5f5260045260245ffd5b90859194610b5e82612475565b15610d5057610bcb6020610b7f610120850151828082518301019101611544565b9360018060a01b03855116610bb98a84880151935160405196879586948594631272ff8b60e01b8652606060048701526064860190611104565b848103600319016024860152906110e0565b90604483015203915afa908115610d45575f91610d0b575b5015610cfc57604051610bf581610fa2565b8481525f602082015260405190610c0b82610fa2565b7f0000000000000000000000000000000000000000000000000000000000000000825260208201908152823b15610cf85760645f92836020956040519687958694634692626760e01b86525160048601525180516024860152015160448401525af19081610ce3575b50610c8d5763614cf93960e01b84526004839052602484fd5b60c0949094018051602095610cab916001600160a01b0316906124d0565b60018060a01b03905116917fd903ca32e81477af89f5b8a6ce888d185cc715390e49474a77b4c6846254cccd6040519480a460018152f35b610cf09195505f90610ff4565b5f9386610c74565b5f80fd5b630ebe58ef60e11b5f5260045ffd5b90506020813d602011610d3d575b81610d2660209383610ff4565b81010312610cf857610d3790611fb2565b87610be3565b3d9150610d19565b6040513d5f823e3d90fd5b63629cd40b60e11b5f5260045ffd5b610d749192503d805f833e6104868183610ff4565b9087610b39565b610d909192503d805f833e6104868183610ff4565b905f610afc565b34610cf8576080366003190112610cf8576004356001600160401b038111610cf8576101206003198236030112610cf857610dd0611015565b906044356001600160a01b0381168103610cf857606435906001600160a01b0382168203610cf857602093610a7893600401611806565b34610cf8576060366003190112610cf8576004356001600160401b038111610cf8576101406003198236030112610cf85760405190610e4582610f72565b8060040135825260248101356020830152610e626044820161102b565b6040830152610e736064820161102b565b6060830152610e846084820161102b565b608083015260a481013560a0830152610e9f60c4820161106b565b60c0830152610eb060e4820161106b565b60e08301526101048101358015158103610cf857610100830152610124810135906001600160401b038211610cf8576004610eee923692010161109a565b6101208201526024356001600160401b038111610cf857602091610f1961065992369060040161109a565b906116a6565b34610cf8576020366003190112610cf8576004359063ffffffff60e01b8216809203610cf857602091630271189760e51b8114908115610f61575b5015158152f35b6301ffc9a760e01b14905083610f5a565b61014081019081106001600160401b03821117610f8e57604052565b634e487b7160e01b5f52604160045260245ffd5b604081019081106001600160401b03821117610f8e57604052565b608081019081106001600160401b03821117610f8e57604052565b61012081019081106001600160401b03821117610f8e57604052565b90601f801991011681019081106001600160401b03821117610f8e57604052565b602435906001600160401b0382168203610cf857565b35906001600160401b0382168203610cf857565b600435906001600160a01b0382168203610cf857565b602435906001600160a01b0382168203610cf857565b35906001600160a01b0382168203610cf857565b6001600160401b038111610f8e57601f01601f191660200190565b81601f82011215610cf8578035906110b18261107f565b926110bf6040519485610ff4565b82845260208383010111610cf857815f926020809301838601378301015290565b805180835260209291819084018484015e5f828201840152601f01601f1916010190565b906101406101206111a39380518452602081015160208501526001600160401b0360408201511660408501526001600160401b0360608201511660608501526001600160401b03608082015116608085015260a081015160a085015260018060a01b0360c08201511660c085015260018060a01b0360e08201511660e085015261010081015115156101008501520151918161012082015201906110e0565b90565b9181601f84011215610cf8578235916001600160401b038311610cf8576020808501948460051b010111610cf857565b6040600319820112610cf8576004356001600160401b038111610cf85781611200916004016111a6565b92909291602435906001600160401b038211610cf857611222916004016111a6565b9091565b6001600160401b038111610f8e5760051b60200190565b9080601f83011215610cf857813561125481611226565b926112626040519485610ff4565b81845260208085019260051b820101928311610cf857602001905b82821061128a5750505090565b813581526020918201910161127d565b90602080835192838152019201905f5b8181106112b75750505090565b82516001600160a01b03168452602093840193909201916001016112aa565b90602080835192838152019201905f5b8181106112f35750505090565b82518452602093840193909201916001016112e6565b906111a3916020815260018060a01b0382511660208201526101006113d46113bf6113a961139361137d61136761135160208a015161012060408b01526101408a01906110e0565b60408a0151898203601f190160608b015261129a565b6060890151888203601f190160808a01526112d6565b6080880151878203601f190160a089015261129a565b60a0870151868203601f190160c08801526112d6565b60c0860151858203601f190160e087015261129a565b60e0850151848203601f1901848601526112d6565b92015190610120601f19828503019101526112d6565b6020600319820112610cf857600435906001600160401b038211610cf857610140908290036003190112610cf85760040190565b51906001600160a01b0382168203610cf857565b92919261143e8261107f565b9161144c6040519384610ff4565b829481845281830111610cf8578281602093845f96015e010152565b9080601f83011215610cf85781516111a392602001611432565b9080601f83011215610cf857815161149981611226565b926114a76040519485610ff4565b81845260208085019260051b820101928311610cf857602001905b8282106114cf5750505090565b602080916114dc8461141e565b8152019101906114c2565b9080601f83011215610cf85781516114fe81611226565b9261150c6040519485610ff4565b81845260208085019260051b820101928311610cf857602001905b8282106115345750505090565b8151815260209182019101611527565b602081830312610cf8578051906001600160401b038211610cf8570161012081830312610cf8576040519161157883610fd8565b6115818261141e565b835260208201516001600160401b038111610cf857816115a2918401611468565b602084015260408201516001600160401b038111610cf857816115c6918401611482565b604084015260608201516001600160401b038111610cf857816115ea9184016114e7565b606084015260808201516001600160401b038111610cf8578161160e918401611482565b608084015260a08201516001600160401b038111610cf857816116329184016114e7565b60a084015260c08201516001600160401b038111610cf85781611656918401611482565b60c084015260e08201516001600160401b038111610cf8578161167a9184016114e7565b60e08401526101008201516001600160401b038111610cf85761169d92016114e7565b61010082015290565b7f0000000000000000000000000000000000000000000000000000000000000000602082015103611760576116da81612475565b1561175a576116fa61012061170a92015160208082518301019101611544565b9160208082518301019101611544565b6117148183612218565b9182611741575b8261172557505090565b6020919250810151818151910120910151602081519101201490565b805182516001600160a01b03908116911614925061171b565b50505f90565b635f9bd90760e11b5f5260045ffd5b9035601e1982360301811215610cf85701602081359101916001600160401b038211610cf8578160051b36038313610cf857565b916020908281520191905f5b8181106117bc5750505090565b909192602080600192838060a01b036117d48861106b565b1681520194019291016117af565b81835290916001600160fb1b038311610cf85760209260051b809284830137010190565b93909260408501906118188287612401565b606088019491506118298589612401565b91905003611f205760808701906118408289612401565b60a08a01949150611851858b612401565b91905003611f205760c0890190611868828b612401565b60e08c01949150611879858d612401565b91905014801590611f2f575b611f20575f5b8b6118968982612401565b90508210156119c057602061191a916118e0846118da8e828f6118ce6118bf6118d39289612401565b6001600160a01b03949161209a565b612436565b1694612401565b9061209a565b6040516323b872dd60e01b81526001600160a01b038f166004820152306024820152903560448201529283919082905f9082906064820190565b03925af15f9181611985575b5061198057505f5b1561193b5760010161188b565b8b8a61197c611960846118da8e61195a8f846118da6118ce928b612401565b96612401565b35604051938493634a73404560e11b855230916004860161244a565b0390fd5b61192e565b9091506020813d82116119b8575b816119a060209383610ff4565b81010312610cf8576119b190611fb2565b905f611926565b3d9150611993565b50509897989692939594965f985b6119d8888d612401565b90508a1015611a9e578b6119fc8b6118da8c826118d36118ce8f6118bf9089612401565b3590803b15610cf8576040516323b872dd60e01b81526001600160a01b038e16600482015230602482015260448101929092525f908290606490829084905af19081611a8e575b50611a83578b8b61197c611a678d6118da8e61195a8f846118da6118ce928b612401565b3560405193849363045b391760e01b855230916004860161244a565b6001909901986119ce565b5f611a9891610ff4565b5f611a43565b9193949a985091949695965f976101008a01975b611abc888c612401565b90508a1015611bf5578c8b611af78c6118da8d611af0838f81611ae86118ce6118bf6118da948c612401565b169888612401565b3594612401565b35823b15610cf857611b5b928f925f809460405196879586948593637921219560e11b855230906004860192909160c0949260018060a01b0316845260018060a01b031660208401526040830152606082015260a060808201525f60a08201520190565b03925af19081611be5575b50611bda578c8c61197c8d611b998e6118da8f8f836118da611b926118ce836118da611af0968c612401565b9a88612401565b60405163334a7d1b60e21b81526001600160a01b039586166004820152949093166024850152306044850152606484015290356084830152819060a4820190565b600190990198611ab2565b5f611bef91610ff4565b5f611b66565b939a50949095969198939a9750604051976020808a015260018060a01b03611c1c8661106b565b1660408a01526020850135601e1986360301811215610cf857850191602083359301926001600160401b038111610cf8578036038413610cf857611d7199611d2a611d23611d50988e611d11611d0a829f611d639f8f9190611cf2611d3d9c611cf29f611cd9611cf895611cd99f611cc1815f6101808f948581611ce09a6101206060869a01528161016084015284830137010152601f01601f19168d01928a61176f565b603f198e850384010160808f015291909201916117a3565b918661176f565b898303603f190160a08b0152906117e2565b9261176f565b858303603f190160c0870152906117a3565b928d61176f565b9160e0603f19828603019101526117e2565b918961176f565b8b8303603f19016101008d0152906117a3565b888303603f19016101208a0152906117e2565b848303603f1901610140860152906117e2565b03601f198101835282610ff4565b6040519360c08501908582106001600160401b03831117610f8e576001600160401b039160405260018060a01b031692838652166020850152600160408501525f606085015260808401525f60a08401526020604051611dd081610fa2565b7f000000000000000000000000000000000000000000000000000000000000000081528181019485526040518095819263f17325e760e01b8352846004840152516024830152516040604483015260018060a01b0381511660648301526001600160401b03848201511660848301526040810151151560a4830152606081015160c483015260a0611e71608083015160c060e48601526101248501906110e0565b91015161010483015203815f7f00000000000000000000000000000000000000000000000000000000000000006001600160a01b03165af15f9381611eec575b50611ec557634a10301360e11b5f5260045ffd5b827f8f7f2dbafd79125e808bf16a53d7fa4e17b8b6374ced76d946a45f94b7bf4d065f80a3565b9093506020813d602011611f18575b81611f0860209383610ff4565b81010312610cf85751925f611eb1565b3d9150611efb565b63512509d360e11b5f5260045ffd5b50611f3a838c612401565b9050611f4a6101008d018d612401565b9190501415611885565b60405190611f6182610f72565b6060610120835f81525f60208201525f60408201525f838201525f60808201525f60a08201525f60c08201525f60e08201525f6101008201520152565b51906001600160401b0382168203610cf857565b51908115158203610cf857565b602081830312610cf8578051906001600160401b038211610cf8570161014081830312610cf85760405191611ff383610f72565b815183526020820151602084015261200d60408301611f9e565b604084015261201e60608301611f9e565b606084015261202f60808301611f9e565b608084015260a082015160a084015261204a60c0830161141e565b60c084015261205b60e0830161141e565b60e084015261206d6101008301611fb2565b6101008401526101208201516001600160401b038111610cf8576120919201611468565b61012082015290565b91908110156120aa5760051b0190565b634e487b7160e01b5f52603260045260245ffd5b91909280840361214d575f91345b85841015612142576120df84848461209a565b35818111612133578460051b86013561013e1987360301811215610cf85730906001600160a01b039061211690890160e001612436565b160361212857600191039301926120cc565b505050505050505f90565b63044044a560e21b5f5260045ffd5b505050505050600190565b63251f56a160e21b5f5260045ffd5b6040519061216982610fd8565b6060610100835f815282602082015282604082015282808201528260808201528260a08201528260c08201528260e08201520152565b9080601f83011215610cf85781356121b681611226565b926121c46040519485610ff4565b81845260208085019260051b820101928311610cf857602001905b8282106121ec5750505090565b602080916121f98461106b565b8152019101906121df565b80518210156120aa5760209160051b010190565b60408101918251516040820190815151116123f9575f5b8151518110156122a85784516001600160a01b039061224f908390612204565b511660018060a01b03612263838551612204565b511614801590612283575b61227a5760010161222f565b50505050505f90565b50612292816060860151612204565b516122a1826060860151612204565b511161226e565b5050915060808101918251516080820190815151116123f9575f5b8151518110156123345784516001600160a01b03906122e3908390612204565b511660018060a01b036122f7838551612204565b51161480159061230e575b61227a576001016122c3565b5061231d8160a0860151612204565b5161232c8260a0860151612204565b511415612302565b5050915060c08101918251519260c0820193845151116123f9575f5b8451518110156123ef5781516001600160a01b0390612370908390612204565b511660018060a01b03612384838851612204565b5116148015906123c9575b80156123a2575b61227a57600101612350565b506123b281610100860151612204565b516123c282610100860151612204565b5111612396565b506123d88160e0860151612204565b516123e78260e0860151612204565b51141561238f565b5050505050600190565b505050505f90565b903590601e1981360301821215610cf857018035906001600160401b038211610cf857602001918160051b36038313610cf857565b356001600160a01b0381168103610cf85790565b6001600160a01b03918216815291811660208301529091166040820152606081019190915260800190565b6001600160401b0360608201511680151590816124c6575b506124b757608001516001600160401b03166124a857600190565b637b6227e960e11b5f5260045ffd5b631ab7da6b60e01b5f5260045ffd5b905042115f61248d565b9190915f5b60408201805180518310156125dc576001600160a01b03906124f8908490612204565b5116905f602060608601936044612510878751612204565b5160405163a9059cbb60e01b81526001600160a01b038c16600482015260248101919091529384928391905af15f91816125a1575b5061259c57505f5b1561255c5750506001016124d5565b6125808361197c92612577899660018060a01b039251612204565b51169351612204565b51604051634a73404560e11b815293849330906004860161244a565b61254d565b9091506020813d82116125d4575b816125bc60209383610ff4565b81010312610cf8576125cd90611fb2565b905f612545565b3d91506125af565b5050505f905b6080810190815180518410156126bf576001600160a01b0390612606908590612204565b51169360a0820194612619858751612204565b5190803b15610cf8576040516323b872dd60e01b81523060048201526001600160a01b038916602482015260448101929092525f908290606490829084905af190816126af575b506126a05750505161197c91612684916001600160a01b0390612577908390612204565b5160405163045b391760e01b815293849330906004860161244a565b935060019092019190506125e2565b5f6126b991610ff4565b5f612660565b50929150505f5b60c0830180518051831015612800576001600160a01b03906126e9908490612204565b51169260e08501946126fc848751612204565b519461010082019561270f868851612204565b51823b15610cf857604051637921219560e11b81523060048201526001600160a01b038b1660248201526044810192909252606482015260a060848201525f60a482018190529091829060c490829084905af190816127f0575b506127e357505081612798816127a09361278f61197c979660018060a01b039251612204565b51169651612204565b519251612204565b5160405163334a7d1b60e21b81526001600160a01b03948516600482015230602482015294909316604485015260648401526084830191909152819060a4820190565b94509250506001016126c6565b5f6127fa91610ff4565b5f612769565b505050915050565b805f9172184f03e93ff9f4daa797ed6e38ed64bf6a1f0160401b821015612952575b806d04ee2d6d415b85acef8100000000600a921015612937575b662386f26fc10000811015612923575b6305f5e100811015612912575b612710811015612903575b60648110156128f5575b10156128ea575b600a6021600184019361288f8561107f565b9461289d6040519687610ff4565b8086526128ac601f199161107f565b013660208701378401015b5f1901916f181899199a1a9b1b9c1cb0b131b232b360811b8282061a83530480156128e557600a90916128b7565b505090565b60019091019061287d565b606460029104930192612876565b6127106004910493019261286c565b6305f5e10060089104930192612861565b662386f26fc1000060109104930192612854565b6d04ee2d6d415b85acef810000000060209104930192612844565b506040915072184f03e93ff9f4daa797ed6e38ed64bf6a1f0160401b810461282a565b7f00000000000000000000000000000000000000000000000000000000000000006001600160a01b031633036129a757565b634ca8886760e01b5f5260045ffdfea2646970667358221220e1056050ba8df3b5a24b4f0cbc8aa501ef140abff0e9fbf826e98287a3a7a66e64736f6c634300081b0033","linkReferences":{}},"methodIdentifiers":{"ATTESTATION_SCHEMA()":"5bf2f20d","attest((bytes32,bytes32,uint64,uint64,uint64,bytes32,address,address,bool,bytes))":"e60c3505","checkStatement((bytes32,bytes32,uint64,uint64,uint64,bytes32,address,address,bool,bytes),bytes,bytes32)":"1272ff8b","collectExpired(bytes32)":"a84f2aa0","collectPayment(bytes32,bytes32)":"30088bc9","decodeStatementData(bytes)":"e112ea08","getSchema()":"6b122fe0","getStatement(bytes32)":"5cc02d2f","getStatementData(bytes32)":"c75c572b","isPayable()":"ce46e046","makeStatement((address,bytes,address[],uint256[],address[],uint256[],address[],uint256[],uint256[]),uint64)":"53d43298","makeStatementFor((address,bytes,address[],uint256[],address[],uint256[],address[],uint256[],uint256[]),uint64,address,address)":"13968837","multiAttest((bytes32,bytes32,uint64,uint64,uint64,bytes32,address,address,bool,bytes)[],uint256[])":"91db0b7e","multiRevoke((bytes32,bytes32,uint64,uint64,uint64,bytes32,address,address,bool,bytes)[],uint256[])":"88e5b2d9","onERC1155BatchReceived(address,address,uint256[],uint256[],bytes)":"bc197c81","onERC1155Received(address,address,uint256,uint256,bytes)":"f23a6e61","revoke((bytes32,bytes32,uint64,uint64,uint64,bytes32,address,address,bool,bytes))":"e49617e1","supportsInterface(bytes4)":"01ffc9a7","version()":"54fd4d50"},"id":93}