{"abi":[{"type":"function","name":"arbitrate","inputs":[{"name":"statement","type":"bytes32","internalType":"bytes32"},{"name":"decision","type":"bool","internalType":"bool"}],"outputs":[],"stateMutability":"nonpayable"},{"type":"function","name":"checkStatement","inputs":[{"name":"statement","type":"tuple","internalType":"struct Attestation","components":[{"name":"uid","type":"bytes32","internalType":"bytes32"},{"name":"schema","type":"bytes32","internalType":"bytes32"},{"name":"time","type":"uint64","internalType":"uint64"},{"name":"expirationTime","type":"uint64","internalType":"uint64"},{"name":"revocationTime","type":"uint64","internalType":"uint64"},{"name":"refUID","type":"bytes32","internalType":"bytes32"},{"name":"recipient","type":"address","internalType":"address"},{"name":"attester","type":"address","internalType":"address"},{"name":"revocable","type":"bool","internalType":"bool"},{"name":"data","type":"bytes","internalType":"bytes"}]},{"name":"demand","type":"bytes","internalType":"bytes"},{"name":"","type":"bytes32","internalType":"bytes32"}],"outputs":[{"name":"","type":"bool","internalType":"bool"}],"stateMutability":"view"},{"type":"function","name":"decodeDemandData","inputs":[{"name":"data","type":"bytes","internalType":"bytes"}],"outputs":[{"name":"","type":"tuple","internalType":"struct TrustedOracleArbiter.DemandData","components":[{"name":"oracle","type":"address","internalType":"address"},{"name":"data","type":"bytes","internalType":"bytes"}]}],"stateMutability":"pure"},{"type":"event","name":"ArbitrationMade","inputs":[{"name":"oracle","type":"address","indexed":true,"internalType":"address"},{"name":"statement","type":"bytes32","indexed":true,"internalType":"bytes32"},{"name":"decision","type":"bool","indexed":false,"internalType":"bool"}],"anonymous":false}],"bytecode":{"object":"0x608080604052346015576104cc908161001a8239f35b5f80fdfe60806040526004361015610011575f80fd5b5f3560e01c80631272ff8b146101c1578063838a68d9146100af57638c08667e1461003a575f80fd5b346100ab5760403660031901126100ab576004356024358015158091036100ab57335f525f60205260405f20825f5260205260405f2060ff1981541660ff83161790556040519081527f9346ce217f0c6f917b386e18e80c7cdd51b3f0ae86b7f48f79a0114ebfa9455d60203392a3005b5f80fd5b346100ab5760203660031901126100ab576004356001600160401b0381116100ab57366023820112156100ab5780600401356001600160401b0381116100ab57810160248101913683116100ab57606060206101096103d3565b5f815201526020818303126100ab576024810135906001600160401b0382116100ab570190604090829003126100ab576101416103d3565b9161014e6024830161042b565b83526044820135906001600160401b0382116100ab57602461017492608094010161045a565b9160208101928352602060405193849282845260018060a01b0390511682840152516040808401528051918291826060860152018484015e5f828201840152601f01601f19168101030190f35b346100ab5760603660031901126100ab576004356001600160401b0381116100ab5761014060031982360301126100ab576040519061014082018281106001600160401b038211176103bf57604052806004013582526024810135602083015261022d60448201610417565b604083015261023e60648201610417565b606083015261024f60848201610417565b608083015260a481013560a083015261026a60c4820161042b565b60c083015261027b60e4820161042b565b60e083015261010481013580151581036100ab57610100830152610124810135906001600160401b0382116100ab5760046102b9923692010161045a565b6101208201526024356001600160401b0381116100ab576102de90369060040161045a565b805181019060208201906020818403126100ab576020810151906001600160401b0382116100ab570191604090839003126100ab5761031b6103d3565b60208301519092906001600160a01b03811681036100ab57835260408101516001600160401b0381116100ab57602091010181601f820112156100ab5780519061036c6103678361043f565b6103f2565b92828452602083830101116100ab57815f9260208093018386015e83010152602082015260018060a01b039051165f525f60205260405f2090515f52602052602060ff60405f2054166040519015158152f35b634e487b7160e01b5f52604160045260245ffd5b60405190604082018281106001600160401b038211176103bf57604052565b6040519190601f01601f191682016001600160401b038111838210176103bf57604052565b35906001600160401b03821682036100ab57565b35906001600160a01b03821682036100ab57565b6001600160401b0381116103bf57601f01601f191660200190565b81601f820112156100ab578035906104746103678361043f565b92828452602083830101116100ab57815f92602080930183860137830101529056fea26469706673582212207415611150f1542c3313a14ad9220a6d6cfbb2e821299987766fc57a0c669e9764736f6c634300081b0033","linkReferences":{}},"methodIdentifiers":{"arbitrate(bytes32,bool)":"8c08667e","checkStatement((bytes32,bytes32,uint64,uint64,uint64,bytes32,address,address,bool,bytes),bytes,bytes32)":"1272ff8b","decodeDemandData(bytes)":"838a68d9"},"id":26}