{"abi":[{"type":"function","name":"arbitrate","inputs":[{"name":"statement","type":"bytes32","internalType":"bytes32"},{"name":"decision","type":"bool","internalType":"bool"}],"outputs":[],"stateMutability":"nonpayable"},{"type":"function","name":"checkStatement","inputs":[{"name":"statement","type":"tuple","internalType":"struct Attestation","components":[{"name":"uid","type":"bytes32","internalType":"bytes32"},{"name":"schema","type":"bytes32","internalType":"bytes32"},{"name":"time","type":"uint64","internalType":"uint64"},{"name":"expirationTime","type":"uint64","internalType":"uint64"},{"name":"revocationTime","type":"uint64","internalType":"uint64"},{"name":"refUID","type":"bytes32","internalType":"bytes32"},{"name":"recipient","type":"address","internalType":"address"},{"name":"attester","type":"address","internalType":"address"},{"name":"revocable","type":"bool","internalType":"bool"},{"name":"data","type":"bytes","internalType":"bytes"}]},{"name":"demand","type":"bytes","internalType":"bytes"},{"name":"","type":"bytes32","internalType":"bytes32"}],"outputs":[{"name":"","type":"bool","internalType":"bool"}],"stateMutability":"view"},{"type":"function","name":"decodeDemandData","inputs":[{"name":"data","type":"bytes","internalType":"bytes"}],"outputs":[{"name":"","type":"tuple","internalType":"struct TrustedOracleArbiter.DemandData","components":[{"name":"oracle","type":"address","internalType":"address"}]}],"stateMutability":"pure"},{"type":"event","name":"ArbitrationMade","inputs":[{"name":"oracle","type":"address","indexed":true,"internalType":"address"},{"name":"statement","type":"bytes32","indexed":true,"internalType":"bytes32"},{"name":"decision","type":"bool","indexed":false,"internalType":"bool"}],"anonymous":false}],"bytecode":{"object":"0x608080604052346015576103ad908161001a8239f35b5f80fdfe60806040526004361015610011575f80fd5b5f3560e01c80631272ff8b1461013f578063838a68d9146100af57638c08667e1461003a575f80fd5b346100ab5760403660031901126100ab576004356024358015158091036100ab57335f525f60205260405f20825f5260205260405f2060ff1981541660ff83161790556040519081527f9346ce217f0c6f917b386e18e80c7cdd51b3f0ae86b7f48f79a0114ebfa9455d60203392a3005b5f80fd5b346100ab5760203660031901126100ab5760043567ffffffffffffffff81116100ab57366023820112156100ab57806004013567ffffffffffffffff81116100ab5781013660248201116100ab576020905f6101096102c6565b52829003126100ab5760209061012960246101226102c6565b92016102fb565b908190526040516001600160a01b039091168152f35b346100ab5760603660031901126100ab5760043567ffffffffffffffff81116100ab5761014060031982360301126100ab5760405190610140820182811067ffffffffffffffff8211176102b25760405280600401358252602481013560208301526101ad604482016102e6565b60408301526101be606482016102e6565b60608301526101cf608482016102e6565b608083015260a481013560a08301526101ea60c482016102fb565b60c08301526101fb60e482016102fb565b60e083015261010481013580151581036100ab576101008301526101248101359067ffffffffffffffff82116100ab57600461023a923692010161030f565b61012082015260243567ffffffffffffffff81116100ab5761026090369060040161030f565b6020818051810103126100ab5760206102776102c6565b9101516001600160a01b038116918282036100ab57525f525f60205260405f2090515f52602052602060ff60405f2054166040519015158152f35b634e487b7160e01b5f52604160045260245ffd5b604051906020820182811067ffffffffffffffff8211176102b257604052565b359067ffffffffffffffff821682036100ab57565b35906001600160a01b03821682036100ab57565b81601f820112156100ab5780359067ffffffffffffffff82116102b25760405192601f8301601f19908116603f0116840167ffffffffffffffff8111858210176102b257604052828452602083830101116100ab57815f92602080930183860137830101529056fea264697066735822122004d2943d3e32cc1850f49142c75ed65f820c13dd831ceeb47c0276a4d5e3576264736f6c634300081b0033","linkReferences":{}},"methodIdentifiers":{"arbitrate(bytes32,bool)":"8c08667e","checkStatement((bytes32,bytes32,uint64,uint64,uint64,bytes32,address,address,bool,bytes),bytes,bytes32)":"1272ff8b","decodeDemandData(bytes)":"838a68d9"},"id":77}