{"abi":[{"type":"function","name":"arbitrate","inputs":[{"name":"statement","type":"bytes32","internalType":"bytes32"},{"name":"decision","type":"bool","internalType":"bool"}],"outputs":[],"stateMutability":"nonpayable"},{"type":"function","name":"checkStatement","inputs":[{"name":"statement","type":"tuple","internalType":"struct Attestation","components":[{"name":"uid","type":"bytes32","internalType":"bytes32"},{"name":"schema","type":"bytes32","internalType":"bytes32"},{"name":"time","type":"uint64","internalType":"uint64"},{"name":"expirationTime","type":"uint64","internalType":"uint64"},{"name":"revocationTime","type":"uint64","internalType":"uint64"},{"name":"refUID","type":"bytes32","internalType":"bytes32"},{"name":"recipient","type":"address","internalType":"address"},{"name":"attester","type":"address","internalType":"address"},{"name":"revocable","type":"bool","internalType":"bool"},{"name":"data","type":"bytes","internalType":"bytes"}]},{"name":"demand","type":"bytes","internalType":"bytes"},{"name":"","type":"bytes32","internalType":"bytes32"}],"outputs":[{"name":"","type":"bool","internalType":"bool"}],"stateMutability":"view"},{"type":"event","name":"ArbitrationMade","inputs":[{"name":"oracle","type":"address","indexed":true,"internalType":"address"},{"name":"statement","type":"bytes32","indexed":true,"internalType":"bytes32"},{"name":"decision","type":"bool","indexed":false,"internalType":"bool"}],"anonymous":false}],"bytecode":{"object":"0x6080806040523460155761030b908161001a8239f35b5f80fdfe60806040526004361015610011575f80fd5b5f3560e01c80631272ff8b146100a457638c08667e1461002f575f80fd5b346100a05760403660031901126100a0576004356024358015158091036100a057335f525f60205260405f20825f5260205260405f2060ff1981541660ff83161790556040519081527f9346ce217f0c6f917b386e18e80c7cdd51b3f0ae86b7f48f79a0114ebfa9455d60203392a3005b5f80fd5b346100a05760603660031901126100a05760043567ffffffffffffffff81116100a05761014060031982360301126100a05760405190610140820182811067ffffffffffffffff82111761023057604052806004013582526024810135602083015261011260448201610244565b604083015261012360648201610244565b606083015261013460848201610244565b608083015260a481013560a083015261014f60c48201610259565b60c083015261016060e48201610259565b60e083015261010481013580151581036100a0576101008301526101248101359067ffffffffffffffff82116100a057600461019f923692010161026d565b61012082015260243567ffffffffffffffff81116100a0576101c590369060040161026d565b6020818051810103126100a05760405190602082019082821067ffffffffffffffff83111761023057604091909152602001516001600160a01b038116918282036100a057525f525f60205260405f2090515f52602052602060ff60405f2054166040519015158152f35b634e487b7160e01b5f52604160045260245ffd5b359067ffffffffffffffff821682036100a057565b35906001600160a01b03821682036100a057565b81601f820112156100a05780359067ffffffffffffffff82116102305760405192601f8301601f19908116603f0116840167ffffffffffffffff81118582101761023057604052828452602083830101116100a057815f92602080930183860137830101529056fea2646970667358221220073a9c1fa5c8130a4f5d43c53dcdbccf65733d621351a98742750aa9d834a3d164736f6c634300081b0033","linkReferences":{}},"methodIdentifiers":{"arbitrate(bytes32,bool)":"8c08667e","checkStatement((bytes32,bytes32,uint64,uint64,uint64,bytes32,address,address,bool,bytes),bytes,bytes32)":"1272ff8b"},"id":83}