{"abi":[{"type":"constructor","inputs":[{"name":"registry","type":"address","internalType":"contract ISchemaRegistry"}],"stateMutability":"nonpayable"},{"type":"function","name":"attest","inputs":[{"name":"request","type":"tuple","internalType":"struct AttestationRequest","components":[{"name":"schema","type":"bytes32","internalType":"bytes32"},{"name":"data","type":"tuple","internalType":"struct AttestationRequestData","components":[{"name":"recipient","type":"address","internalType":"address"},{"name":"expirationTime","type":"uint64","internalType":"uint64"},{"name":"revocable","type":"bool","internalType":"bool"},{"name":"refUID","type":"bytes32","internalType":"bytes32"},{"name":"data","type":"bytes","internalType":"bytes"},{"name":"value","type":"uint256","internalType":"uint256"}]}]}],"outputs":[{"name":"","type":"bytes32","internalType":"bytes32"}],"stateMutability":"payable"},{"type":"function","name":"attestByDelegation","inputs":[{"name":"delegatedRequest","type":"tuple","internalType":"struct DelegatedAttestationRequest","components":[{"name":"schema","type":"bytes32","internalType":"bytes32"},{"name":"data","type":"tuple","internalType":"struct AttestationRequestData","components":[{"name":"recipient","type":"address","internalType":"address"},{"name":"expirationTime","type":"uint64","internalType":"uint64"},{"name":"revocable","type":"bool","internalType":"bool"},{"name":"refUID","type":"bytes32","internalType":"bytes32"},{"name":"data","type":"bytes","internalType":"bytes"},{"name":"value","type":"uint256","internalType":"uint256"}]},{"name":"signature","type":"tuple","internalType":"struct Signature","components":[{"name":"v","type":"uint8","internalType":"uint8"},{"name":"r","type":"bytes32","internalType":"bytes32"},{"name":"s","type":"bytes32","internalType":"bytes32"}]},{"name":"attester","type":"address","internalType":"address"},{"name":"deadline","type":"uint64","internalType":"uint64"}]}],"outputs":[{"name":"","type":"bytes32","internalType":"bytes32"}],"stateMutability":"payable"},{"type":"function","name":"eip712Domain","inputs":[],"outputs":[{"name":"fields","type":"bytes1","internalType":"bytes1"},{"name":"name","type":"string","internalType":"string"},{"name":"version","type":"string","internalType":"string"},{"name":"chainId","type":"uint256","internalType":"uint256"},{"name":"verifyingContract","type":"address","internalType":"address"},{"name":"salt","type":"bytes32","internalType":"bytes32"},{"name":"extensions","type":"uint256[]","internalType":"uint256[]"}],"stateMutability":"view"},{"type":"function","name":"getAttestTypeHash","inputs":[],"outputs":[{"name":"","type":"bytes32","internalType":"bytes32"}],"stateMutability":"pure"},{"type":"function","name":"getAttestation","inputs":[{"name":"uid","type":"bytes32","internalType":"bytes32"}],"outputs":[{"name":"","type":"tuple","internalType":"struct Attestation","components":[{"name":"uid","type":"bytes32","internalType":"bytes32"},{"name":"schema","type":"bytes32","internalType":"bytes32"},{"name":"time","type":"uint64","internalType":"uint64"},{"name":"expirationTime","type":"uint64","internalType":"uint64"},{"name":"revocationTime","type":"uint64","internalType":"uint64"},{"name":"refUID","type":"bytes32","internalType":"bytes32"},{"name":"recipient","type":"address","internalType":"address"},{"name":"attester","type":"address","internalType":"address"},{"name":"revocable","type":"bool","internalType":"bool"},{"name":"data","type":"bytes","internalType":"bytes"}]}],"stateMutability":"view"},{"type":"function","name":"getDomainSeparator","inputs":[],"outputs":[{"name":"","type":"bytes32","internalType":"bytes32"}],"stateMutability":"view"},{"type":"function","name":"getName","inputs":[],"outputs":[{"name":"","type":"string","internalType":"string"}],"stateMutability":"view"},{"type":"function","name":"getNonce","inputs":[{"name":"account","type":"address","internalType":"address"}],"outputs":[{"name":"","type":"uint256","internalType":"uint256"}],"stateMutability":"view"},{"type":"function","name":"getRevokeOffchain","inputs":[{"name":"revoker","type":"address","internalType":"address"},{"name":"data","type":"bytes32","internalType":"bytes32"}],"outputs":[{"name":"","type":"uint64","internalType":"uint64"}],"stateMutability":"view"},{"type":"function","name":"getRevokeTypeHash","inputs":[],"outputs":[{"name":"","type":"bytes32","internalType":"bytes32"}],"stateMutability":"pure"},{"type":"function","name":"getSchemaRegistry","inputs":[],"outputs":[{"name":"","type":"address","internalType":"contract ISchemaRegistry"}],"stateMutability":"view"},{"type":"function","name":"getTimestamp","inputs":[{"name":"data","type":"bytes32","internalType":"bytes32"}],"outputs":[{"name":"","type":"uint64","internalType":"uint64"}],"stateMutability":"view"},{"type":"function","name":"increaseNonce","inputs":[{"name":"newNonce","type":"uint256","internalType":"uint256"}],"outputs":[],"stateMutability":"nonpayable"},{"type":"function","name":"isAttestationValid","inputs":[{"name":"uid","type":"bytes32","internalType":"bytes32"}],"outputs":[{"name":"","type":"bool","internalType":"bool"}],"stateMutability":"view"},{"type":"function","name":"multiAttest","inputs":[{"name":"multiRequests","type":"tuple[]","internalType":"struct MultiAttestationRequest[]","components":[{"name":"schema","type":"bytes32","internalType":"bytes32"},{"name":"data","type":"tuple[]","internalType":"struct AttestationRequestData[]","components":[{"name":"recipient","type":"address","internalType":"address"},{"name":"expirationTime","type":"uint64","internalType":"uint64"},{"name":"revocable","type":"bool","internalType":"bool"},{"name":"refUID","type":"bytes32","internalType":"bytes32"},{"name":"data","type":"bytes","internalType":"bytes"},{"name":"value","type":"uint256","internalType":"uint256"}]}]}],"outputs":[{"name":"","type":"bytes32[]","internalType":"bytes32[]"}],"stateMutability":"payable"},{"type":"function","name":"multiAttestByDelegation","inputs":[{"name":"multiDelegatedRequests","type":"tuple[]","internalType":"struct MultiDelegatedAttestationRequest[]","components":[{"name":"schema","type":"bytes32","internalType":"bytes32"},{"name":"data","type":"tuple[]","internalType":"struct AttestationRequestData[]","components":[{"name":"recipient","type":"address","internalType":"address"},{"name":"expirationTime","type":"uint64","internalType":"uint64"},{"name":"revocable","type":"bool","internalType":"bool"},{"name":"refUID","type":"bytes32","internalType":"bytes32"},{"name":"data","type":"bytes","internalType":"bytes"},{"name":"value","type":"uint256","internalType":"uint256"}]},{"name":"signatures","type":"tuple[]","internalType":"struct Signature[]","components":[{"name":"v","type":"uint8","internalType":"uint8"},{"name":"r","type":"bytes32","internalType":"bytes32"},{"name":"s","type":"bytes32","internalType":"bytes32"}]},{"name":"attester","type":"address","internalType":"address"},{"name":"deadline","type":"uint64","internalType":"uint64"}]}],"outputs":[{"name":"","type":"bytes32[]","internalType":"bytes32[]"}],"stateMutability":"payable"},{"type":"function","name":"multiRevoke","inputs":[{"name":"multiRequests","type":"tuple[]","internalType":"struct MultiRevocationRequest[]","components":[{"name":"schema","type":"bytes32","internalType":"bytes32"},{"name":"data","type":"tuple[]","internalType":"struct RevocationRequestData[]","components":[{"name":"uid","type":"bytes32","internalType":"bytes32"},{"name":"value","type":"uint256","internalType":"uint256"}]}]}],"outputs":[],"stateMutability":"payable"},{"type":"function","name":"multiRevokeByDelegation","inputs":[{"name":"multiDelegatedRequests","type":"tuple[]","internalType":"struct MultiDelegatedRevocationRequest[]","components":[{"name":"schema","type":"bytes32","internalType":"bytes32"},{"name":"data","type":"tuple[]","internalType":"struct RevocationRequestData[]","components":[{"name":"uid","type":"bytes32","internalType":"bytes32"},{"name":"value","type":"uint256","internalType":"uint256"}]},{"name":"signatures","type":"tuple[]","internalType":"struct Signature[]","components":[{"name":"v","type":"uint8","internalType":"uint8"},{"name":"r","type":"bytes32","internalType":"bytes32"},{"name":"s","type":"bytes32","internalType":"bytes32"}]},{"name":"revoker","type":"address","internalType":"address"},{"name":"deadline","type":"uint64","internalType":"uint64"}]}],"outputs":[],"stateMutability":"payable"},{"type":"function","name":"multiRevokeOffchain","inputs":[{"name":"data","type":"bytes32[]","internalType":"bytes32[]"}],"outputs":[{"name":"","type":"uint64","internalType":"uint64"}],"stateMutability":"nonpayable"},{"type":"function","name":"multiTimestamp","inputs":[{"name":"data","type":"bytes32[]","internalType":"bytes32[]"}],"outputs":[{"name":"","type":"uint64","internalType":"uint64"}],"stateMutability":"nonpayable"},{"type":"function","name":"revoke","inputs":[{"name":"request","type":"tuple","internalType":"struct RevocationRequest","components":[{"name":"schema","type":"bytes32","internalType":"bytes32"},{"name":"data","type":"tuple","internalType":"struct RevocationRequestData","components":[{"name":"uid","type":"bytes32","internalType":"bytes32"},{"name":"value","type":"uint256","internalType":"uint256"}]}]}],"outputs":[],"stateMutability":"payable"},{"type":"function","name":"revokeByDelegation","inputs":[{"name":"delegatedRequest","type":"tuple","internalType":"struct DelegatedRevocationRequest","components":[{"name":"schema","type":"bytes32","internalType":"bytes32"},{"name":"data","type":"tuple","internalType":"struct RevocationRequestData","components":[{"name":"uid","type":"bytes32","internalType":"bytes32"},{"name":"value","type":"uint256","internalType":"uint256"}]},{"name":"signature","type":"tuple","internalType":"struct Signature","components":[{"name":"v","type":"uint8","internalType":"uint8"},{"name":"r","type":"bytes32","internalType":"bytes32"},{"name":"s","type":"bytes32","internalType":"bytes32"}]},{"name":"revoker","type":"address","internalType":"address"},{"name":"deadline","type":"uint64","internalType":"uint64"}]}],"outputs":[],"stateMutability":"payable"},{"type":"function","name":"revokeOffchain","inputs":[{"name":"data","type":"bytes32","internalType":"bytes32"}],"outputs":[{"name":"","type":"uint64","internalType":"uint64"}],"stateMutability":"nonpayable"},{"type":"function","name":"timestamp","inputs":[{"name":"data","type":"bytes32","internalType":"bytes32"}],"outputs":[{"name":"","type":"uint64","internalType":"uint64"}],"stateMutability":"nonpayable"},{"type":"function","name":"version","inputs":[],"outputs":[{"name":"","type":"string","internalType":"string"}],"stateMutability":"view"},{"type":"event","name":"Attested","inputs":[{"name":"recipient","type":"address","indexed":true,"internalType":"address"},{"name":"attester","type":"address","indexed":true,"internalType":"address"},{"name":"uid","type":"bytes32","indexed":false,"internalType":"bytes32"},{"name":"schemaUID","type":"bytes32","indexed":true,"internalType":"bytes32"}],"anonymous":false},{"type":"event","name":"EIP712DomainChanged","inputs":[],"anonymous":false},{"type":"event","name":"NonceIncreased","inputs":[{"name":"oldNonce","type":"uint256","indexed":false,"internalType":"uint256"},{"name":"newNonce","type":"uint256","indexed":false,"internalType":"uint256"}],"anonymous":false},{"type":"event","name":"Revoked","inputs":[{"name":"recipient","type":"address","indexed":true,"internalType":"address"},{"name":"attester","type":"address","indexed":true,"internalType":"address"},{"name":"uid","type":"bytes32","indexed":false,"internalType":"bytes32"},{"name":"schemaUID","type":"bytes32","indexed":true,"internalType":"bytes32"}],"anonymous":false},{"type":"event","name":"RevokedOffchain","inputs":[{"name":"revoker","type":"address","indexed":true,"internalType":"address"},{"name":"data","type":"bytes32","indexed":true,"internalType":"bytes32"},{"name":"timestamp","type":"uint64","indexed":true,"internalType":"uint64"}],"anonymous":false},{"type":"event","name":"Timestamped","inputs":[{"name":"data","type":"bytes32","indexed":true,"internalType":"bytes32"},{"name":"timestamp","type":"uint64","indexed":true,"internalType":"uint64"}],"anonymous":false},{"type":"error","name":"AccessDenied","inputs":[]},{"type":"error","name":"AlreadyRevoked","inputs":[]},{"type":"error","name":"AlreadyRevokedOffchain","inputs":[]},{"type":"error","name":"AlreadyTimestamped","inputs":[]},{"type":"error","name":"DeadlineExpired","inputs":[]},{"type":"error","name":"FailedCall","inputs":[]},{"type":"error","name":"InsufficientBalance","inputs":[{"name":"balance","type":"uint256","internalType":"uint256"},{"name":"needed","type":"uint256","internalType":"uint256"}]},{"type":"error","name":"InsufficientValue","inputs":[]},{"type":"error","name":"InvalidAttestation","inputs":[]},{"type":"error","name":"InvalidAttestations","inputs":[]},{"type":"error","name":"InvalidExpirationTime","inputs":[]},{"type":"error","name":"InvalidLength","inputs":[]},{"type":"error","name":"InvalidNonce","inputs":[]},{"type":"error","name":"InvalidOffset","inputs":[]},{"type":"error","name":"InvalidRegistry","inputs":[]},{"type":"error","name":"InvalidRevocation","inputs":[]},{"type":"error","name":"InvalidRevocations","inputs":[]},{"type":"error","name":"InvalidSchema","inputs":[]},{"type":"error","name":"InvalidShortString","inputs":[]},{"type":"error","name":"InvalidSignature","inputs":[]},{"type":"error","name":"InvalidVerifier","inputs":[]},{"type":"error","name":"Irrevocable","inputs":[]},{"type":"error","name":"NotFound","inputs":[]},{"type":"error","name":"NotPayable","inputs":[]},{"type":"error","name":"StringTooLong","inputs":[{"name":"str","type":"string","internalType":"string"}]},{"type":"error","name":"WrongSchema","inputs":[]}],"bytecode":{"object":"0x6101e080604052346103335760208161436d80380380916100208285610337565b83398101031261033357516001600160a01b03811690818103610333576040519161004c604084610337565b60038352602083016245415360e81b81526040519061006c604083610337565b600582526020820190640312e332e360dc1b82526001608052600360a0525f60c0526100978661035a565b610180526100a4836104dc565b6101a05285519020918261014052519020806101605246610100526040519060208201927f8b73c3c69bb8fe3d512ecc4cf759cc79239f7b179b0ffacaa9a75d522b39400f8452604083015260608201524660808201523060a082015260a0815261011060c082610337565b51902060e052306101205282516001600160401b03811161031f57600254600181811c91168015610315575b602082101461030157601f811161029e575b506020601f821160011461023b57819293945f92610230575b50508160011b915f199060031b1c1916176002555b15610221576101c052604051613d589081610615823960805181610df0015260a05181610e1b015260c05181610e46015260e0518161339f0152610100518161345c01526101205181613369015261014051816133ee0152610160518161341401526101805181610ca401526101a05181610cd001526101c0518181816101cf015281816107a0015281816111e5015281816125ff015281816127ee0152612ba40152f35b6311a1e69760e01b5f5260045ffd5b015190505f80610167565b601f1982169060025f52805f20915f5b8181106102865750958360019596971061026e575b505050811b0160025561017c565b01515f1960f88460031b161c191690555f8080610260565b9192602060018192868b01518155019401920161024b565b60025f527f405787fa12a823e0f2b7631cc41b3ba8828b3321ca811111fa75cd3aa3bb5ace601f830160051c810191602084106102f7575b601f0160051c01905b8181106102ec575061014e565b5f81556001016102df565b90915081906102d6565b634e487b7160e01b5f52602260045260245ffd5b90607f169061013c565b634e487b7160e01b5f52604160045260245ffd5b5f80fd5b601f909101601f19168101906001600160401b0382119082101761031f57604052565b908151602081105f146103d4575090601f815111610394576020815191015160208210610385571790565b5f198260200360031b1b161790565b604460209160405192839163305a27a960e01b83528160048401528051918291826024860152018484015e5f828201840152601f01601f19168101030190fd5b6001600160401b03811161031f575f54600181811c911680156104d2575b602082101461030157601f81116104a0575b50602092601f821160011461044157928192935f92610436575b50508160011b915f199060031b1c1916175f5560ff90565b015190505f8061041e565b601f198216935f8052805f20915f5b8681106104885750836001959610610470575b505050811b015f5560ff90565b01515f1960f88460031b161c191690555f8080610463565b91926020600181928685015181550194019201610450565b5f8052601f60205f20910160051c810190601f830160051c015b8181106104c75750610404565b5f81556001016104ba565b90607f16906103f2565b908151602081105f14610507575090601f815111610394576020815191015160208210610385571790565b6001600160401b03811161031f57600154600181811c9116801561060a575b602082101461030157601f81116105d7575b50602092601f821160011461057657928192935f9261056b575b50508160011b915f199060031b1c19161760015560ff90565b015190505f80610552565b601f1982169360015f52805f20915f5b8681106105bf57508360019596106105a7575b505050811b0160015560ff90565b01515f1960f88460031b161c191690555f8080610599565b91926020600181928685015181550194019201610586565b60015f52601f60205f20910160051c810190601f830160051c015b8181106105ff5750610538565b5f81556001016105f2565b90607f169061052656fe6101206040526004361015610012575f80fd5b5f3560e01c80630eabf660146118d457806312b11a171461189a57806313893f611461182b57806317d7de7c146117615780632d0335ab146117295780633c042715146110cb57806344adc90e14610fed5780634692626714610fad5780634cb7e9e514610efc5780634d00307014610ed357806354fd4d5014610dd157806379f7573a14610d5957806384b0196e14610c8c5780639541152514610a99578063a3112a6414610a4e578063a6d4dbc714610977578063b469318d1461092a578063b83010d3146108f0578063cf190f34146108c6578063d45c443514610893578063e30bb5631461085f578063e71ff365146107f1578063ed24911d146107cf578063f10b5cc81461078b5763f17325e71461012d575f80fd5b6020366003190112610787576004356001600160401b038111610787578060040190604060031982360301126107875761017c61016861200e565b91610177602436920185612073565b611f52565b61018582611e2c565b5261018f81611e2c565b50610198612b3b565b508051906101a4612b3b565b926101ae836121f3565b60208501526040516351753e3760e11b815281356004820152925f846024817f00000000000000000000000000000000000000000000000000000000000000006001600160a01b03165afa93841561077c575f94610758575b508351156107495761021c8195949395612593565b90610226816121f3565b925f965b82881061025857602061024f81896102466001348b8b8e6137da565b81520151611e2c565b51604051908152f35b610269888299979498939699611e39565b519260208401976001600160401b038951168015159081610735575b506107265760408201511580610719575b61070a57606085015198518551604080880151608089015191519c9193901515926001600160a01b031691906001600160401b03168d6102d581611cef565b5f90528d8c3590602001528d426001600160401b031660408201526060015260808d015f905260a08d015260c08c01523360e08c01526101008b01526101208a01525f5b60208a01518a6103e96004609960c0840151602060e086015195604081015190606081015161010082015115159061012060a0840151930151936040519a8b978789019d8e526001600160601b03199060601b1660408901526001600160601b03199060601b1660548801526001600160401b0360c01b9060c01b1660688701526001600160401b0360c01b9060c01b16607086015260f81b607885015260798401528051918291018484015e810163ffffffff60e01b8860e01b16838201520301601b19810184520182611d0b565b519020805f52600460205260405f20541561040d575060010163ffffffff16610319565b91969795905099979198929399818452815f52600460205260405f2084518155602085015160018201556104bb600282016001600160401b0380604089015116166001600160401b0319825416178155606087015167ffffffffffffffff60401b82549160401b169067ffffffffffffffff60401b19161781556001600160401b036080880151168154906001600160401b0360801b9060801b16906001600160401b0360801b1916179055565b60a085810151600383015560c08601516004830180546001600160a01b0319166001600160a01b0392831617905560e08701516005840180546101008a01516001600160a81b0319909116929093169190911791151590921b60ff60a01b161790556101208501518051906001600160401b0382116106f6576105416006840154611e7e565b601f81116106b2575b50602090601f831160011461064757600692915f918361063c575b50508160011b915f199060031b1c1916179101555b8a88606083015180610608575b5084602085936105a8838560019b6105a2836105c199611e39565b52611e39565b508d6105b98460a089015192611e39565b520151611e39565b52838060a01b03905116906040519081528535917f8bf46bf4cfd674fa735a3d63ec1c9ad4153f033c290341f3a588b75685141b3560203393a4019695949392919061022a565b905061062091505f52600460205260405f2054151590565b1561062d578a885f610587565b63c5723b5160e01b5f5260045ffd5b015190505f80610565565b90600684015f52805f20915f5b601f198516811061069a5750918391600193600695601f19811610610682575b505050811b0191015561057a565b01515f1960f88460031b161c191690555f8080610674565b91926020600181928685015181550194019201610654565b600684015f5260205f20601f840160051c8101602085106106ef575b601f830160051c820181106106e457505061054a565b5f81556001016106ce565b50806106ce565b634e487b7160e01b5f52604160045260245ffd5b63157bd4c360e01b5f5260045ffd5b5060408501511515610296565b6308e8b93760e01b5f5260045ffd5b90506001600160401b03421610155f610285565b635f9bd90760e11b5f5260045ffd5b6107759194503d805f833e61076d8183611d0b565b8101906124c0565b925f610207565b6040513d5f823e3d90fd5b5f80fd5b34610787575f366003190112610787576040517f00000000000000000000000000000000000000000000000000000000000000006001600160a01b03168152602090f35b34610787575f3660031901126107875760206107e9613366565b604051908152f35b34610787576020366003190112610787576004356001600160401b03811161078757610821903690600401611ad5565b906001600160401b034216915f5b81811061084157602084604051908152f35b80610859856108536001948688611e6e565b35613187565b0161082f565b346107875760203660031901126107875760206108896004355f52600460205260405f2054151590565b6040519015158152f35b34610787576020366003190112610787576004355f52600560205260206001600160401b0360405f205416604051908152f35b346107875760203660031901126107875760206001600160401b0342166107e9816004353361298f565b34610787575f3660031901126107875760206040517fb5d556f07587ec0f08cf386545cc4362c702a001650c2058002615ee5c9d1e758152f35b34610787576040366003190112610787576001600160a01b0361094b611b29565b165f52600660205260405f206024355f5260205260206001600160401b0360405f205416604051908152f35b6101003660031901126107875760405161099081611c83565b60043580825261099f36611d43565b60208301526060366063190112610787576040516109bc81611cb9565b60643560ff81168103610787578152608435602082015260a43560408083019190915283015260c4356001600160a01b03811681036107875780606084015260e4356001600160401b03811681036107875783610a20916080610a4c960152612358565b610a286121a7565b610a3136611d43565b610a3a82611e2c565b52610a4481611e2c565b5034926125e2565b005b3461078757602036600319011261078757610a6761225a565b506004355f526004602052610a95610a8160405f206122a4565b604051918291602083526020830190611bbf565b0390f35b6020366003190112610787576004356001600160401b03811161078757610ac4903690600401611ad5565b610acd8161209c565b5f9290915f198101913491855b818110610afa57610a95610aee888861311f565b60405191829182611b53565b610b0981838598969798611c61565b96610b176020890189612107565b92909183158015610c74575b610c655789965f98959895604089019560608a019a60808b359b0135996001600160401b038b16809b1415995b83811015610bf7578f90610b738b610b6d8360051b8d018d612073565b93612225565b821015610be3578f610b858e91612088565b90610787578f908f90610bc2610bdd94610bb160019860405196610ba888611c83565b87523690611f52565b602086015236906060880201611dda565b6040840152858060a01b031660608301526080820152612a13565b01610b50565b634e487b7160e01b5f52603260045260245ffd5b509a8d9e50839a50610c33949c939291995060019850610c2d610c3c9698889f610c259060209a1496612088565b93369161213c565b90612b54565b95865190611e4d565b94018051610c4a8989611e39565b52610c558888611e39565b5051510196949592939201610ada565b63251f56a160e21b5f5260045ffd5b50610c8260408b018b612225565b9050841415610b23565b34610787575f36600319011261078757610d2b610cc87f0000000000000000000000000000000000000000000000000000000000000000613981565b610a95610cf47f00000000000000000000000000000000000000000000000000000000000000006139e0565b610d3960405191610d06602084611d0b565b5f83525f368137604051958695600f60f81b875260e0602088015260e0870190611b05565b908582036040870152611b05565b904660608501523060808501525f60a085015283820360c0850152611b8c565b3461078757602036600319011261078757600435335f52600360205260405f20549081811115610dc2577f57b09af877df9068fd60a69d7b21f5576b8b38955812d6ae4ac52942f1e38fb791604091335f52600360205280835f205582519182526020820152a1005b633ab3447f60e11b5f5260045ffd5b34610787575f36600319011261078757610a956020610ebf6001610e147f00000000000000000000000000000000000000000000000000000000000000006131f9565b8184610e3f7f00000000000000000000000000000000000000000000000000000000000000006131f9565b8180610e6a7f00000000000000000000000000000000000000000000000000000000000000006131f9565b9260405199878b985191829101848a015e870190601760f91b83830152805192839101602183015e010190601760f91b84830152805192839101600283015e01015f838201520301601f198101835282611d0b565b604051918291602083526020830190611b05565b346107875760203660031901126107875760206001600160401b0342166107e981600435613187565b6020366003190112610787576004356001600160401b03811161078757610f27903690600401611ad5565b5f19810191905f90345b818310610f3a57005b610f458383866120e5565b6020810135601e1982360301811215610787578101918235926001600160401b03841161078757602001928060061b360384136107875760019382610f9f92610fa595610f988c8b149433933691611d6b565b90356127cd565b90611e4d565b920191610f31565b606036600319011261078757610a4c610fc46121a7565b610fcd36611d43565b610fd682611e2c565b52610fe081611e2c565b50349033906004356125e2565b6020366003190112610787576004356001600160401b03811161078757611018903690600401611ad5565b906110228261209c565b915f9134905f925f198101905b80851061104357610a95610aee878961311f565b90919293946110538683866120e5565b9060208201916110638382612107565b905015610c65576110a361109a8989888561109361108560019a602099612107565b93909514943393369161213c565b9035612b54565b97885190611e4d565b960180516110b1898b611e39565b526110bc888a611e39565b5051510195019392919061102f565b6020366003190112610787576004356001600160401b038111610787578060040160e060031983360301126107875760405161110681611c83565b81358152602483019283356001600160401b038111610787576111a5926111366111759260043691860101611f52565b60208201526111483660448501611dda565b604082015261116b60c460a485019461116086611b3f565b606085015201611e18565b6080820152612a13565b61118c61118061200e565b94610177369186612073565b61119585611e2c565b5261119f84611e2c565b50612088565b916111ae612b3b565b508051916111ba612b3b565b926111c4816121f3565b60208501526040516351753e3760e11b815282356004820152945f866024817f00000000000000000000000000000000000000000000000000000000000000006001600160a01b03165afa95861561077c575f9661170d575b508551156107495792859361123183612593565b9261123b816121f3565b945f935b82851061125c57602061024f818b61024660018d8d8d34926137da565b61126e85829a9496989395979a611e39565b519760208901956001600160401b0387511680151590816116f9575b5061072657604082015115806116ec575b61070a576001600160401b0360608b01519751169660018060a01b038b511660408c015115159060808d0151926040519a6112d58c611cef565b5f8c528a3560208d01526001600160401b03421660408d015260608c01525f60808c015260a08b015260c08a015260018060a01b038a1660e08a01526101008901526101208801525f5b6020880151886113ef6004609960c0840151602060e086015195604081015190606081015161010082015115159061012060a0840151930151936040519a8b978789019d8e526001600160601b03199060601b1660408901526001600160601b03199060601b1660548801526001600160401b0360c01b9060c01b1660688701526001600160401b0360c01b9060c01b16607086015260f81b607885015260798401528051918291018484015e810163ffffffff60e01b8860e01b16838201520301601b19810184520182611d0b565b519020805f52600460205260405f205415611413575060010163ffffffff1661131f565b9197939499929b9896959a9050818452815f52600460205260405f2084518155602085015160018201556114c1600282016001600160401b0380604089015116166001600160401b0319825416178155606087015167ffffffffffffffff60401b82549160401b169067ffffffffffffffff60401b19161781556001600160401b036080880151168154906001600160401b0360801b9060801b16906001600160401b0360801b1916179055565b60a085810151600383015560c08601516004830180546001600160a01b0319166001600160a01b0392831617905560e08701516005840180546101008a01516001600160a81b0319909116929093169190911791151590921b60ff60a01b161790556101208501518051906001600160401b0382116106f6576115476006840154611e7e565b601f81116116a2575b50602090601f831160011461163757600692915f918361162c575b50508160011b915f199060031b1c1916179101555b8a8a8a606084015180611605575b50602085936115ba936115aa898560019c6105a2838099611e39565b506105b98460a089015192611e39565b525160405191825285359160a085901b8590038881169216907f8bf46bf4cfd674fa735a3d63ec1c9ad4153f033c290341f3a588b75685141b3590602090a40193919097969761123f565b91505061161e91505f52600460205260405f2054151590565b1561062d578a8a8a8f61158e565b015190505f8061156b565b90600684015f52805f20915f5b601f198516811061168a5750918391600193600695601f19811610611672575b505050811b01910155611580565b01515f1960f88460031b161c191690555f8080611664565b91926020600181928685015181550194019201611644565b9d9e9d600684015f5260205f20601f840160051c8101602085106116e5575b601f830160051c820181106116da5750509e9d9e611550565b5f81556001016116c1565b50806116c1565b5060408a0151151561129b565b90506001600160401b03421610158c61128a565b6117229196503d805f833e61076d8183611d0b565b948661121d565b34610787576020366003190112610787576001600160a01b0361174a611b29565b165f526003602052602060405f2054604051908152f35b34610787575f366003190112610787576040515f60025461178181611e7e565b808452906001811690811561180757506001146117a9575b610a9583610ebf81850382611d0b565b60025f9081527f405787fa12a823e0f2b7631cc41b3ba8828b3321ca811111fa75cd3aa3bb5ace939250905b8082106117ed57509091508101602001610ebf611799565b9192600181602092548385880101520191019092916117d5565b60ff191660208086019190915291151560051b84019091019150610ebf9050611799565b34610787576020366003190112610787576004356001600160401b0381116107875761185b903690600401611ad5565b906001600160401b034216915f5b81811061187b57602084604051908152f35b806118948561188d6001948688611e6e565b353361298f565b01611869565b34610787575f3660031901126107875760206040517ffeb2925a02bae3dae48d424a0437a2b6ac939aa9230ddc55a1a76f065d9880768152f35b6020366003190112610787576004356001600160401b038111610787576118ff903690600401611ad5565b5f198101915f91345b81841061191157005b61191c848385611c61565b60a0813603126107875760405161193281611c83565b8135815260208201356001600160401b03811161078757820136601f8201121561078757611967903690602081359101611d6b565b906020810191825260408301356001600160401b03811161078757830136601f820112156107875780359061199b82611d2c565b916119a96040519384611d0b565b8083526020606081850192028301019136831161078757602001905b828210611abb57505050604082018181526119f560806119e760608801611b3f565b966060860197885201611e18565b936080840194855251938451928315908115611aaf575b50610c65575f5b838110611a4c57505091519351600195611a44959094610f9f94508a8c14935085926001600160a01b0316916127cd565b930192611908565b600190611aa98651611a5e838a611e39565b51611a6a848851611e39565b51858060a01b038c5116906001600160401b038851169260405194611a8e86611c83565b85526020850152604084015260608301526080820152612358565b01611a13565b9050518314158c611a0c565b6020606091611aca3685611dda565b8152019101906119c5565b9181601f84011215610787578235916001600160401b038311610787576020808501948460051b01011161078757565b805180835260209291819084018484015e5f828201840152601f01601f1916010190565b600435906001600160a01b038216820361078757565b35906001600160a01b038216820361078757565b60206040818301928281528451809452019201905f5b818110611b765750505090565b8251845260209384019390920191600101611b69565b90602080835192838152019201905f5b818110611ba95750505090565b8251845260209384019390920191600101611b9c565b90610140610120611c5e9380518452602081015160208501526001600160401b0360408201511660408501526001600160401b0360608201511660608501526001600160401b03608082015116608085015260a081015160a085015260018060a01b0360c08201511660c085015260018060a01b0360e08201511660e08501526101008101511515610100850152015191816101208201520190611b05565b90565b9190811015610be35760051b81013590609e1981360301821215610787570190565b60a081019081106001600160401b038211176106f657604052565b604081019081106001600160401b038211176106f657604052565b606081019081106001600160401b038211176106f657604052565b60c081019081106001600160401b038211176106f657604052565b61014081019081106001600160401b038211176106f657604052565b90601f801991011681019081106001600160401b038211176106f657604052565b6001600160401b0381116106f65760051b60200190565b60409060231901126107875760405190611d5c82611c9e565b60243582526044356020830152565b929192611d7782611d2c565b93611d856040519586611d0b565b602085848152019260061b82019181831161078757925b828410611da95750505050565b6040848303126107875760206040918251611dc381611c9e565b863581528287013583820152815201930192611d9c565b919082606091031261078757604051611df281611cb9565b8092803560ff811681036107875760409182918452602081013560208501520135910152565b35906001600160401b038216820361078757565b805115610be35760200190565b8051821015610be35760209160051b010190565b91908203918211611e5a57565b634e487b7160e01b5f52601160045260245ffd5b9190811015610be35760051b0190565b90600182811c92168015611eac575b6020831014611e9857565b634e487b7160e01b5f52602260045260245ffd5b91607f1691611e8d565b5f9291815491611ec583611e7e565b8083529260018116908115611f1a5750600114611ee157505050565b5f9081526020812093945091925b838310611f00575060209250010190565b600181602092949394548385870101520191019190611eef565b915050602093945060ff929192191683830152151560051b010190565b6001600160401b0381116106f657601f01601f191660200190565b919060c0838203126107875760405190611f6b82611cd4565b8193611f7681611b3f565b8352611f8460208201611e18565b6020840152604081013580151581036107875760408401526060810135606084015260808101356001600160401b0381116107875781019082601f8301121561078757813592611fd384611f37565b90611fe16040519283611d0b565b84825260208585010111610787575f60208560a09682889701838601378301015260808501520135910152565b6040805190919061201f8382611d0b565b6001815291601f1901825f5b82811061203757505050565b60209060405161204681611cd4565b5f81525f838201525f60408201525f6060820152606060808201525f60a08201528282850101520161202b565b90359060be1981360301821215610787570190565b356001600160a01b03811681036107875790565b906120a682611d2c565b6120b36040519182611d0b565b82815280926120c4601f1991611d2c565b01905f5b8281106120d457505050565b8060606020809385010152016120c8565b9190811015610be35760051b81013590603e1981360301821215610787570190565b903590601e198136030182121561078757018035906001600160401b03821161078757602001918160051b3603831361078757565b92919061214881611d2c565b936121566040519586611d0b565b602085838152019160051b8101918383116107875781905b83821061217c575050505050565b81356001600160401b0381116107875760209161219c8784938701611f52565b81520191019061216e565b604080519091906121b88382611d0b565b6001815291601f1901825f5b8281106121d057505050565b6020906040516121df81611c9e565b5f81525f83820152828285010152016121c4565b906121fd82611d2c565b61220a6040519182611d0b565b828152809261221b601f1991611d2c565b0190602036910137565b903590601e198136030182121561078757018035906001600160401b0382116107875760200191606082023603831361078757565b6040519061226782611cef565b6060610120835f81525f60208201525f60408201525f838201525f60808201525f60a08201525f60c08201525f60e08201525f6101008201520152565b9060066101206040516122b681611cef565b612346819580548352600181015460208401526001600160401b0360028201548181166040860152818160401c16606086015260801c166080840152600381015460a084015260018060a01b0360048201541660c084015260ff600582015460018060a01b03811660e086015260a01c16151561010084015261233f6040518096819301611eb6565b0384611d0b565b0152565b5f198114611e5a5760010190565b608081016001600160401b0381511680151590816124a0575b50612491578161242a602061247b94015191604081015193606082019360018060a01b0385511692519160208251920151845f5260036020526001600160401b0360405f20928354936123c38561234a565b90555116926040519460208601967fb5d556f07587ec0f08cf386545cc4362c702a001650c2058002615ee5c9d1e75885260408701526060860152608085015260a084015260c083015260e082015260e0815261242261010082611d0b565b519020613482565b9051602083810151604080860151955181519384019290925282019490945260f89390931b6001600160f81b0319166060840152604183526001600160a01b0316612476606184611d0b565b6134a8565b1561248257565b638baa579f60e01b5f5260045ffd5b631ab7da6b60e01b5f5260045ffd5b90506001600160401b034216115f612371565b5190811515820361078757565b602081830312610787578051906001600160401b0382116107875701906080828203126107875760405191608083018381106001600160401b038211176106f6576040528051835260208101516001600160a01b038116810361078757602084015261252e604082016124b3565b60408401526060810151906001600160401b038211610787570181601f820112156107875780519061255f82611f37565b9261256d6040519485611d0b565b8284526020838301011161078757815f9260208093018386015e83010152606082015290565b9061259d82611d2c565b6125aa6040519182611d0b565b82815280926125bb601f1991611d2c565b01905f5b8281106125cb57505050565b6020906125d661225a565b828285010152016125bf565b6040516351753e3760e11b81526004810182905290915f826024817f00000000000000000000000000000000000000000000000000000000000000006001600160a01b03165afa91821561077c575f926127b1575b5081511561074957805161264a81612593565b93612654826121f3565b95426001600160401b0316935f5b84811061267d5750505050505091611c5e93916001936135f0565b6126878183611e39565b519081515f52600460205260405f209182541561062d57856001840154036107495760058301546001600160a01b03868116919081168290036127a25760a01c60ff161561070a5760028401916001600160401b03835460801c1661279357825467ffffffffffffffff60801b191660808b901b67ffffffffffffffff60801b16179092556001938792908c9061272e908690612728906122a4565b6122a4565b92611e39565b52612739848d611e39565b506020810151612749858f611e39565b527ff930a6e2523c9cc298691873087a740550b8fc85a0680830414c148ed927f61560208d60c0612780888a8060a01b0393611e39565b510151169251604051908152a401612662565b63905e710760e01b5f5260045ffd5b634ca8886760e01b5f5260045ffd5b6127c69192503d805f833e61076d8183611d0b565b905f612637565b6040516351753e3760e11b8152600481018290529195949392915f816024817f00000000000000000000000000000000000000000000000000000000000000006001600160a01b03165afa90811561077c575f91612975575b5080511561074957865161283981612593565b92612843826121f3565b945f996001600160401b0342169a5b848110612869575050505050611c5e9596506135f0565b6128738183611e39565b519081515f52600460205260405f209182541561062d57856001840154036107495760058301546001600160a01b03868116919081168290036127a25760a01c60ff161561070a5760028401916001600160401b03835460801c16612793578f600195612723612906928b96908154906001600160401b0360801b9060801b16906001600160401b0360801b1916179055565b612910858d611e39565b5261291b848c611e39565b50602081015161292b858e611e39565b527ff930a6e2523c9cc298691873087a740550b8fc85a0680830414c148ed927f61560208c60c0612962888a8060a01b0393611e39565b510151169251604051908152a401612852565b61298991503d805f833e61076d8183611d0b565b5f612826565b60018060a01b031691825f52600660205260405f2090825f52816020526001600160401b0360405f205416612a04576001600160401b0391835f5260205260405f20828216831982541617905516917f92a1f7a41a7c585a8b09e25b195e225b1d43248daca46b0faf9e0792777a22295f80a4565b63ec9d6eeb60e01b5f5260045ffd5b608081016001600160401b038151168015159081612b28575b50612491578161242a602061247b94015191604081015193606082019360018060a01b0385511692519160018060a01b03825116916001600160401b03602082015116906040810151151560608201519060a060808401516020815191012093015193885f5260036020526001600160401b0360405f2096875497612ab08961234a565b90555116966040519860208a019a7ffeb2925a02bae3dae48d424a0437a2b6ac939aa9230ddc55a1a76f065d9880768c5260408b015260608a0152608089015260a088015260c087015260e0860152610100850152610120840152610140830152610160820152610160815261242261018082611d0b565b90506001600160401b034216115f612a2c565b60405190612b4882611c9e565b60606020835f81520152565b919293909360c05260e052612b67612b3b565b50825190612b73612b3b565b61010052612b80826121f3565b61010051602001526040516351753e3760e11b815260048101829052935f856024817f00000000000000000000000000000000000000000000000000000000000000006001600160a01b03165afa94851561077c575f95613103575b508451156107495790612bee83612593565b608052612bfa836121f3565b60a0525f915b838310612c31575050505050612c259060e0519060c0519060a05190608051906137da565b61010051526101005190565b909294919395612c418583611e39565b519260208401966001600160401b0388511680151590816130ef575b5061072657604082015115806130e2575b61070a57606085015197518551604080880151608089015191519b9193901515926001600160a01b031691906001600160401b03168a60208e612cb081611cef565b5f815201528c60406001600160401b03421691015260608d01525f60808d015260a08c015260c08b015260018060a01b038b1660e08b01526101008a01526101208901525f5b602089015189612dc66004609960c0840151602060e086015195604081015190606081015161010082015115159061012060a0840151930151936040519a8b978789019d8e526001600160601b03199060601b1660408901526001600160601b03199060601b1660548801526001600160401b0360c01b9060c01b1660688701526001600160401b0360c01b9060c01b16607086015260f81b607885015260798401528051918291018484015e810163ffffffff60e01b8860e01b16838201520301601b19810184520182611d0b565b519020805f52600460205260405f205415612dea575060010163ffffffff16612cf6565b9050989691979095949298808252805f52600460205260405f20918051835560208101516001840155612e97600284016001600160401b0380604085015116166001600160401b0319825416178155606083015167ffffffffffffffff60401b82549160401b169067ffffffffffffffff60401b19161781556001600160401b036080840151168154906001600160401b0360801b9060801b16906001600160401b0360801b1916179055565b60a081810151600385015560c08201516004850180546001600160a01b0319166001600160a01b0392831617905560e08301516005860180546101008601516001600160a81b0319909116929093169190911791151590921b60ff60a01b1617905561012081015180519093906001600160401b0381116106f6578894612f216006840154611e7e565b601f811161308a575b50602090601f831160011461301c57600692915f9183613011575b50508160011b915f199060031b1c1916179101555b606085015180612fed575b5093600194612f7685608051611e39565b52612f8384608051611e39565b5060a0810151612f958560a051611e39565b5281612fa8856020610100510151611e39565b52848060a01b039051166040519182527f8bf46bf4cfd674fa735a3d63ec1c9ad4153f033c290341f3a588b75685141b356020868060a01b038b1693a4019190612c00565b6130049193505f52600460205260405f2054151590565b1561062d5785915f612f65565b015190505f80612f45565b90600684015f52805f20915f5b601f198516811061306f5750918391600193600695601f19811610613057575b505050811b01910155612f5a565b01515f1960f88460031b161c191690555f8080613049565b8183015184558c985060019093019260209283019201613029565b90919293949550600684015f5260205f20601f840160051c8101602085106130db575b908b979695949392915b601f830160051c820181106130cd575050612f2a565b5f81558c98506001016130b7565b50806130ad565b5060408501511515612c6e565b90506001600160401b03421610155f612c5d565b6131189195503d805f833e61076d8183611d0b565b935f612bdc565b90613129906121f3565b905f8151915f5b83811061313e575050505090565b6131488183611e39565b5180515f915b81831061316057505050600101613130565b909194600180916131718885611e39565b5161317c828c611e39565b52019501919061314e565b90815f5260056020526001600160401b0360405f2054166131ea576001600160401b0390825f52600560205260405f20828216831982541617905516907f5aafceeb1c7ad58e4a84898bdee37c02c0fc46e7d24e6b60e8209449f183459f5f80a3565b6317133ca360e11b5f5260045ffd5b805f9172184f03e93ff9f4daa797ed6e38ed64bf6a1f0160401b821015613343575b806d04ee2d6d415b85acef8100000000600a921015613328575b662386f26fc10000811015613314575b6305f5e100811015613303575b6127108110156132f4575b60648110156132e6575b10156132db575b600a6021600184019361328085611f37565b9461328e6040519687611d0b565b80865261329d601f1991611f37565b013660208701378401015b5f1901916f181899199a1a9b1b9c1cb0b131b232b360811b8282061a83530480156132d657600a90916132a8565b505090565b60019091019061326e565b606460029104930192613267565b6127106004910493019261325d565b6305f5e10060089104930192613252565b662386f26fc1000060109104930192613245565b6d04ee2d6d415b85acef810000000060209104930192613235565b506040915072184f03e93ff9f4daa797ed6e38ed64bf6a1f0160401b810461321b565b307f00000000000000000000000000000000000000000000000000000000000000006001600160a01b03161480613459575b156133c1577f000000000000000000000000000000000000000000000000000000000000000090565b60405160208101907f8b73c3c69bb8fe3d512ecc4cf759cc79239f7b179b0ffacaa9a75d522b39400f82527f000000000000000000000000000000000000000000000000000000000000000060408201527f000000000000000000000000000000000000000000000000000000000000000060608201524660808201523060a082015260a0815261345360c082611d0b565b51902090565b507f00000000000000000000000000000000000000000000000000000000000000004614613398565b60429061348d613366565b906040519161190160f01b8352600283015260228201522090565b9190823b6134f757906134ba91613a46565b5060048110156134e3571591826134d057505090565b6001600160a01b03918216911614919050565b634e487b7160e01b5f52602160045260245ffd5b915f9261352d61353b85946040519283916020830195630b135d3f60e11b87526024840152604060448401526064830190611b05565b03601f198101835282611d0b565b51915afa613547613a17565b81613575575b81613556575090565b90506020818051810103126107875760200151630b135d3f60e11b1490565b90506020815110159061354d565b929160408401936040815282518095526060810194602060608260051b8401019401905f5b8181106135c557505050611c5e9394506020818403910152611b8c565b9091946020806135e1600193605f19888203018c528951611bbf565b970198019101969190966135a8565b939190805194600186146137b457602001516001600160a01b031690811561377557604051636723702360e11b81525f9690602081600481875afa90811561077c575f9161373b575b50905f915b8183106136df575050509160209161366d93876040518096819582946388e5b2d960e01b845260048401613583565b03925af190811561077c575f916136a5575b50156136965761368d575090565b611c5e90613c54565b63bf2f3a8b60e01b5f5260045ffd5b90506020813d6020116136d7575b816136c060209383611d0b565b81010312610787576136d1906124b3565b5f61367f565b3d91506136b3565b909197966136ed8987611e39565b518015613730578215613721578181116137125780600192039801985b01919061363e565b63044044a560e21b5f5260045ffd5b631574f9f360e01b5f5260045ffd5b50969760019061370a565b90506020813d60201161376d575b8161375660209383611d0b565b8101031261078757613767906124b3565b5f613639565b3d9150613749565b50505f939192935b82811061379d5750505061379057505f90565b61379990613c54565b5f90565b6137a78183611e39565b516137215760010161377d565b90611c5e9550916137d36137cc600194969596611e2c565b5191611e2c565b5191613a80565b9391908051946001861461396a57602001516001600160a01b031690811561393857604051636723702360e11b81525f9690602081600481875afa90811561077c575f916138fe575b50905f915b8183106138c0575050509160209161385793876040518096819582946348ed85bf60e11b845260048401613583565b03925af190811561077c575f91613886575b50156138775761368d575090565b63e8bee83960e01b5f5260045ffd5b90506020813d6020116138b8575b816138a160209383611d0b565b81010312610787576138b2906124b3565b5f613869565b3d9150613894565b909197966138ce8987611e39565b5180156138f3578215613721578181116137125780600192039801985b019190613828565b5096976001906138eb565b90506020813d602011613930575b8161391960209383611d0b565b810103126107875761392a906124b3565b5f613823565b3d915061390c565b50505f939192935b8281106139535750505061379057505f90565b61395d8183611e39565b5161372157600101613940565b90611c5e9550916137d36137cc5f94969596611e2c565b60ff81146139c75760ff811690601f82116139b857604051916139a5604084611d0b565b6020808452838101919036833783525290565b632cd44ac360e21b5f5260045ffd5b50604051611c5e816139d9815f611eb6565b0382611d0b565b60ff8114613a045760ff811690601f82116139b857604051916139a5604084611d0b565b50604051611c5e816139d9816001611eb6565b3d15613a41573d90613a2882611f37565b91613a366040519384611d0b565b82523d5f602084013e565b606090565b8151919060418303613a7657613a6f9250602082015190606060408401519301515f1a90613ca0565b9192909190565b50505f9160029190565b6020015191949290916001600160a01b0316908115613c42579085929183613bc5575b602092919015613b3e57613ad49160405194858094819363e49617e160e01b83528760048401526024830190611bbf565b03925af190811561077c575f91613b04575b5015613af5575b61368d575090565b63ccf3bb2760e01b5f5260045ffd5b90506020813d602011613b36575b81613b1f60209383611d0b565b8101031261078757613b30906124b3565b5f613ae6565b3d9150613b12565b613b659160405194858094819363e60c350560e01b83528760048401526024830190611bbf565b03925af190811561077c575f91613b8b575b50613aed5763bd8ba84d60e01b5f5260045ffd5b90506020813d602011613bbd575b81613ba660209383611d0b565b8101031261078757613bb7906124b3565b5f613b77565b3d9150613b99565b9491909250604051636723702360e11b8152602081600481875afa90811561077c575f91613c08575b501561372157818611613712579085900393859290613aa3565b90506020813d602011613c3a575b81613c2360209383611d0b565b8101031261078757613c34906124b3565b5f613bee565b3d9150613c16565b50505090916137215761379057505f90565b80613c5c5750565b804710613c8a575f80808093335af1613c73613a17565b5015613c7b57565b63d6bda27560e01b5f5260045ffd5b4763cf47918160e01b5f5260045260245260445ffd5b91907f7fffffffffffffffffffffffffffffff5d576e7357a4501ddfe92f46681b20a08411613d17579160209360809260ff5f9560405194855216868401526040830152606082015282805260015afa1561077c575f516001600160a01b03811615613d0d57905f905f90565b505f906001905f90565b5050505f916003919056fea26469706673582212207434e34f8d53723fe7ec58b57115c7030646f1527f64e8047b00c0b759d0f67e64736f6c634300081b0033","linkReferences":{}},"methodIdentifiers":{"attest((bytes32,(address,uint64,bool,bytes32,bytes,uint256)))":"f17325e7","attestByDelegation((bytes32,(address,uint64,bool,bytes32,bytes,uint256),(uint8,bytes32,bytes32),address,uint64))":"3c042715","eip712Domain()":"84b0196e","getAttestTypeHash()":"12b11a17","getAttestation(bytes32)":"a3112a64","getDomainSeparator()":"ed24911d","getName()":"17d7de7c","getNonce(address)":"2d0335ab","getRevokeOffchain(address,bytes32)":"b469318d","getRevokeTypeHash()":"b83010d3","getSchemaRegistry()":"f10b5cc8","getTimestamp(bytes32)":"d45c4435","increaseNonce(uint256)":"79f7573a","isAttestationValid(bytes32)":"e30bb563","multiAttest((bytes32,(address,uint64,bool,bytes32,bytes,uint256)[])[])":"44adc90e","multiAttestByDelegation((bytes32,(address,uint64,bool,bytes32,bytes,uint256)[],(uint8,bytes32,bytes32)[],address,uint64)[])":"95411525","multiRevoke((bytes32,(bytes32,uint256)[])[])":"4cb7e9e5","multiRevokeByDelegation((bytes32,(bytes32,uint256)[],(uint8,bytes32,bytes32)[],address,uint64)[])":"0eabf660","multiRevokeOffchain(bytes32[])":"13893f61","multiTimestamp(bytes32[])":"e71ff365","revoke((bytes32,(bytes32,uint256)))":"46926267","revokeByDelegation((bytes32,(bytes32,uint256),(uint8,bytes32,bytes32),address,uint64))":"a6d4dbc7","revokeOffchain(bytes32)":"cf190f34","timestamp(bytes32)":"4d003070","version()":"54fd4d50"},"id":1}