{"abi":[{"type":"constructor","inputs":[{"name":"_eas","type":"address","internalType":"contract IEAS"},{"name":"_schemaRegistry","type":"address","internalType":"contract ISchemaRegistry"}],"stateMutability":"nonpayable"},{"type":"receive","stateMutability":"payable"},{"type":"function","name":"ATTESTATION_SCHEMA","inputs":[],"outputs":[{"name":"","type":"bytes32","internalType":"bytes32"}],"stateMutability":"view"},{"type":"function","name":"attest","inputs":[{"name":"attestation","type":"tuple","internalType":"struct Attestation","components":[{"name":"uid","type":"bytes32","internalType":"bytes32"},{"name":"schema","type":"bytes32","internalType":"bytes32"},{"name":"time","type":"uint64","internalType":"uint64"},{"name":"expirationTime","type":"uint64","internalType":"uint64"},{"name":"revocationTime","type":"uint64","internalType":"uint64"},{"name":"refUID","type":"bytes32","internalType":"bytes32"},{"name":"recipient","type":"address","internalType":"address"},{"name":"attester","type":"address","internalType":"address"},{"name":"revocable","type":"bool","internalType":"bool"},{"name":"data","type":"bytes","internalType":"bytes"}]}],"outputs":[{"name":"","type":"bool","internalType":"bool"}],"stateMutability":"payable"},{"type":"function","name":"checkStatement","inputs":[{"name":"statement","type":"tuple","internalType":"struct Attestation","components":[{"name":"uid","type":"bytes32","internalType":"bytes32"},{"name":"schema","type":"bytes32","internalType":"bytes32"},{"name":"time","type":"uint64","internalType":"uint64"},{"name":"expirationTime","type":"uint64","internalType":"uint64"},{"name":"revocationTime","type":"uint64","internalType":"uint64"},{"name":"refUID","type":"bytes32","internalType":"bytes32"},{"name":"recipient","type":"address","internalType":"address"},{"name":"attester","type":"address","internalType":"address"},{"name":"revocable","type":"bool","internalType":"bool"},{"name":"data","type":"bytes","internalType":"bytes"}]},{"name":"demand","type":"bytes","internalType":"bytes"},{"name":"","type":"bytes32","internalType":"bytes32"}],"outputs":[{"name":"","type":"bool","internalType":"bool"}],"stateMutability":"view"},{"type":"function","name":"getSchema","inputs":[],"outputs":[{"name":"","type":"tuple","internalType":"struct SchemaRecord","components":[{"name":"uid","type":"bytes32","internalType":"bytes32"},{"name":"resolver","type":"address","internalType":"contract ISchemaResolver"},{"name":"revocable","type":"bool","internalType":"bool"},{"name":"schema","type":"string","internalType":"string"}]}],"stateMutability":"view"},{"type":"function","name":"getStatement","inputs":[{"name":"uid","type":"bytes32","internalType":"bytes32"}],"outputs":[{"name":"","type":"tuple","internalType":"struct Attestation","components":[{"name":"uid","type":"bytes32","internalType":"bytes32"},{"name":"schema","type":"bytes32","internalType":"bytes32"},{"name":"time","type":"uint64","internalType":"uint64"},{"name":"expirationTime","type":"uint64","internalType":"uint64"},{"name":"revocationTime","type":"uint64","internalType":"uint64"},{"name":"refUID","type":"bytes32","internalType":"bytes32"},{"name":"recipient","type":"address","internalType":"address"},{"name":"attester","type":"address","internalType":"address"},{"name":"revocable","type":"bool","internalType":"bool"},{"name":"data","type":"bytes","internalType":"bytes"}]}],"stateMutability":"view"},{"type":"function","name":"isPayable","inputs":[],"outputs":[{"name":"","type":"bool","internalType":"bool"}],"stateMutability":"pure"},{"type":"function","name":"makeStatement","inputs":[{"name":"data","type":"tuple","internalType":"struct ERC20PaymentObligation.StatementData","components":[{"name":"token","type":"address","internalType":"address"},{"name":"amount","type":"uint256","internalType":"uint256"},{"name":"payee","type":"address","internalType":"address"}]}],"outputs":[{"name":"uid_","type":"bytes32","internalType":"bytes32"}],"stateMutability":"nonpayable"},{"type":"function","name":"makeStatementFor","inputs":[{"name":"data","type":"tuple","internalType":"struct ERC20PaymentObligation.StatementData","components":[{"name":"token","type":"address","internalType":"address"},{"name":"amount","type":"uint256","internalType":"uint256"},{"name":"payee","type":"address","internalType":"address"}]},{"name":"payer","type":"address","internalType":"address"},{"name":"recipient","type":"address","internalType":"address"}],"outputs":[{"name":"uid_","type":"bytes32","internalType":"bytes32"}],"stateMutability":"nonpayable"},{"type":"function","name":"multiAttest","inputs":[{"name":"attestations","type":"tuple[]","internalType":"struct Attestation[]","components":[{"name":"uid","type":"bytes32","internalType":"bytes32"},{"name":"schema","type":"bytes32","internalType":"bytes32"},{"name":"time","type":"uint64","internalType":"uint64"},{"name":"expirationTime","type":"uint64","internalType":"uint64"},{"name":"revocationTime","type":"uint64","internalType":"uint64"},{"name":"refUID","type":"bytes32","internalType":"bytes32"},{"name":"recipient","type":"address","internalType":"address"},{"name":"attester","type":"address","internalType":"address"},{"name":"revocable","type":"bool","internalType":"bool"},{"name":"data","type":"bytes","internalType":"bytes"}]},{"name":"values","type":"uint256[]","internalType":"uint256[]"}],"outputs":[{"name":"","type":"bool","internalType":"bool"}],"stateMutability":"payable"},{"type":"function","name":"multiRevoke","inputs":[{"name":"attestations","type":"tuple[]","internalType":"struct Attestation[]","components":[{"name":"uid","type":"bytes32","internalType":"bytes32"},{"name":"schema","type":"bytes32","internalType":"bytes32"},{"name":"time","type":"uint64","internalType":"uint64"},{"name":"expirationTime","type":"uint64","internalType":"uint64"},{"name":"revocationTime","type":"uint64","internalType":"uint64"},{"name":"refUID","type":"bytes32","internalType":"bytes32"},{"name":"recipient","type":"address","internalType":"address"},{"name":"attester","type":"address","internalType":"address"},{"name":"revocable","type":"bool","internalType":"bool"},{"name":"data","type":"bytes","internalType":"bytes"}]},{"name":"values","type":"uint256[]","internalType":"uint256[]"}],"outputs":[{"name":"","type":"bool","internalType":"bool"}],"stateMutability":"payable"},{"type":"function","name":"revoke","inputs":[{"name":"attestation","type":"tuple","internalType":"struct Attestation","components":[{"name":"uid","type":"bytes32","internalType":"bytes32"},{"name":"schema","type":"bytes32","internalType":"bytes32"},{"name":"time","type":"uint64","internalType":"uint64"},{"name":"expirationTime","type":"uint64","internalType":"uint64"},{"name":"revocationTime","type":"uint64","internalType":"uint64"},{"name":"refUID","type":"bytes32","internalType":"bytes32"},{"name":"recipient","type":"address","internalType":"address"},{"name":"attester","type":"address","internalType":"address"},{"name":"revocable","type":"bool","internalType":"bool"},{"name":"data","type":"bytes","internalType":"bytes"}]}],"outputs":[{"name":"","type":"bool","internalType":"bool"}],"stateMutability":"payable"},{"type":"function","name":"version","inputs":[],"outputs":[{"name":"","type":"string","internalType":"string"}],"stateMutability":"view"},{"type":"event","name":"PaymentMade","inputs":[{"name":"payment","type":"bytes32","indexed":true,"internalType":"bytes32"},{"name":"buyer","type":"address","indexed":true,"internalType":"address"}],"anonymous":false},{"type":"error","name":"AccessDenied","inputs":[]},{"type":"error","name":"AttestationRevoked","inputs":[]},{"type":"error","name":"DeadlineExpired","inputs":[]},{"type":"error","name":"InsufficientValue","inputs":[]},{"type":"error","name":"InvalidEAS","inputs":[]},{"type":"error","name":"InvalidLength","inputs":[]},{"type":"error","name":"InvalidPayment","inputs":[]},{"type":"error","name":"InvalidSchema","inputs":[]},{"type":"error","name":"NotFromStatement","inputs":[]},{"type":"error","name":"NotPayable","inputs":[]}],"bytecode":{"object":"0x61016080604052346101d25760408161130f8038038091610020828561020c565b8339810103126101d25780516001600160a01b038116918282036101d25760200151916001600160a01b0383168084036101d257604051606081016001600160401b038111828210176101f857604052602c815260208101927f6164647265737320746f6b656e2c2075696e7432353620616d6f756e742c206184526b64647265737320706179656560a01b60408301526001608052600360a0525f60c052156101e9576084948460209560e05261012052610100525f604051958680958194630c1af44f60e31b8352606060048401525180918160648501528484015e818101830184905230602483015260016044830152601f01601f191681010301925af19081156101de575f916101a8575b50610140526040516110df90816102308239608051816105fd015260a05181610628015260c05181610653015260e05181611048015261010051816101e001526101205181818161038e0152610dfc0152610140518181816101ae015281816103c7015281816105bb015281816108110152610d4f0152f35b90506020813d6020116101d6575b816101c36020938361020c565b810103126101d257515f61012f565b5f80fd5b3d91506101b6565b6040513d5f823e3d90fd5b6341bc07ff60e11b5f5260045ffd5b634e487b7160e01b5f52604160045260245ffd5b601f909101601f19168101906001600160401b038211908210176101f85760405256fe6080806040526004361015610029575b50361561001a575f80fd5b631574f9f360e01b5f5260045ffd5b5f3560e01c9081631272ff8b146106fd5750806318e9f307146106e057806354fd4d50146105de5780635bf2f20d146105a45780635cc02d2f146103145780636b122fe01461016f57806388e5b2d91461015057806391db0b7e14610150578063ce46e04614610136578063e49617e114610111578063e60c3505146101115763fba22190146100b9575f61000f565b3461010d57366003190160a0811261010d5760601361010d576064356001600160a01b038116810361010d57608435906001600160a01b038216820361010d5760209161010591610c45565b604051908152f35b5f80fd5b602061012c61011f36610ab1565b610127611046565b611087565b6040519015158152f35b3461010d575f36600319011261010d5760206040515f8152f35b602061012c61015e36610a61565b9261016a929192611046565b610ba1565b3461010d575f36600319011261010d5760608060405161018e81610948565b5f81525f60208201525f604082015201526040516351753e3760e11b81527f000000000000000000000000000000000000000000000000000000000000000060048201525f8160248160018060a01b037f0000000000000000000000000000000000000000000000000000000000000000165afa8015610309575f90610259575b606090610255604051928392602084528051602085015260018060a01b0360208201511660408501526040810151151582850152015160808084015260a0830190610a0d565b0390f35b503d805f833e6102698183610963565b81019060208183031261010d578051906001600160401b03821161010d570160808183031261010d576040519061029f82610948565b8051825260208101516001600160a01b038116810361010d5760208301526102c960408201610b5e565b60408301526060810151906001600160401b03821161010d570182601f8201121561010d5760609281602061030093519101610b6b565b8282015261020f565b6040513d5f823e3d90fd5b3461010d57602036600319011261010d57606061012060405161033681610918565b5f81525f60208201525f60408201525f838201525f60808201525f60a08201525f60c08201525f60e08201525f61010082015201526040516328c44a9960e21b815260043560048201525f8160248160018060a01b037f0000000000000000000000000000000000000000000000000000000000000000165afa908115610309575f9161049f575b506020810180517f0000000000000000000000000000000000000000000000000000000000000000036104905761025561012060405193849360208552815160208601525160408501526001600160401b0360408201511660608501526001600160401b0360608201511660808501526001600160401b0360808201511660a085015260a081015160c085015260018060a01b0360c08201511660e085015260018060a01b0360e082015116610100850152610100810151151582850152015161014080840152610160830190610a0d565b63295d5f3960e01b5f5260045ffd5b90503d805f833e6104b08183610963565b81019060208183031261010d578051906001600160401b03821161010d5701906101408282031261010d57604051916104e883610918565b805183526020810151602084015261050260408201610b4a565b604084015261051360608201610b4a565b606084015261052460808201610b4a565b608084015260a081015160a084015261053f60c08201610ae5565b60c084015261055060e08201610ae5565b60e08401526105626101008201610b5e565b610100840152610120810151906001600160401b03821161010d57019080601f8301121561010d57815161059892602001610b6b565b610120820152816103be565b3461010d575f36600319011261010d5760206040517f00000000000000000000000000000000000000000000000000000000000000008152f35b3461010d575f36600319011261010d5761025560206106cc60016106217f0000000000000000000000000000000000000000000000000000000000000000610ed9565b818461064c7f0000000000000000000000000000000000000000000000000000000000000000610ed9565b81806106777f0000000000000000000000000000000000000000000000000000000000000000610ed9565b9260405199878b985191829101848a015e870190601760f91b83830152805192839101602183015e010190601760f91b84830152805192839101600283015e01015f838201520301601f198101835282610963565b604051918291602083526020830190610a0d565b3461010d57606036600319011261010d5760206101053333610c45565b3461010d57606036600319011261010d576004356001600160401b03811161010d57610140600319823603011261010d5761073782610918565b8060040135825260208201906024810135825261075660448201610984565b604084015261076760648201610984565b6060840190815261077a60848301610984565b916080850192835260a481013560a086015261079860c48201610998565b60c08601526107a960e48201610998565b60e0860152610104810135801515810361010d576101008601526101248101356001600160401b03811161010d576101209160046107ea92369201016109c7565b94019384526024356001600160401b03811161010d5761080e9036906004016109c7565b927f000000000000000000000000000000000000000000000000000000000000000090510361090957516001600160401b031680151590816108ff575b506108f057516001600160401b03166108e15761088561087660209351848082518301019101610af9565b91838082518301019101610af9565b815181516001600160a01b0390811691161491826108d0575b826108b0575b50506040519015158152f35b6040908101519101516001600160a01b03908116911614905082806108a4565b83810151828501511115925061089e565b637b6227e960e11b5f5260045ffd5b631ab7da6b60e01b5f5260045ffd5b905042118461084b565b635f9bd90760e11b5f5260045ffd5b61014081019081106001600160401b0382111761093457604052565b634e487b7160e01b5f52604160045260245ffd5b608081019081106001600160401b0382111761093457604052565b90601f801991011681019081106001600160401b0382111761093457604052565b35906001600160401b038216820361010d57565b35906001600160a01b038216820361010d57565b6001600160401b03811161093457601f01601f191660200190565b81601f8201121561010d578035906109de826109ac565b926109ec6040519485610963565b8284526020838301011161010d57815f926020809301838601378301015290565b805180835260209291819084018484015e5f828201840152601f01601f1916010190565b9181601f8401121561010d578235916001600160401b03831161010d576020808501948460051b01011161010d57565b604060031982011261010d576004356001600160401b03811161010d5781610a8b91600401610a31565b92909291602435906001600160401b03821161010d57610aad91600401610a31565b9091565b602060031982011261010d57600435906001600160401b03821161010d5761014090829003600319011261010d5760040190565b51906001600160a01b038216820361010d57565b9081606091031261010d5760405190606082018281106001600160401b0382111761093457610b42916040918252610b3081610ae5565b84526020810151602085015201610ae5565b604082015290565b51906001600160401b038216820361010d57565b5190811515820361010d57565b929192610b77826109ac565b91610b856040519384610963565b82948184528183011161010d578281602093845f96015e010152565b929092818403610c36575f91345b85841015610c2b5781841015610c17578360051b8086013590828211610c085784013561013e198536030181121561010d57610bec908501611087565b15610bfd5760019103930192610baf565b505050505050505f90565b63044044a560e21b5f5260045ffd5b634e487b7160e01b5f52603260045260245ffd5b505050505050600190565b63251f56a160e21b5f5260045ffd5b909190600435906001600160a01b0382169081830361010d576044356001600160a01b0381169290919083830361010d576040516323b872dd60e01b81526001600160a01b03909216600483015260248281018590523560448301819052916020816064815f865af1908115610309575f91610e9f575b5015610e905760405194506020850152604084015250606082015260608152610ce6608082610963565b6040519260c084018481106001600160401b038211176109345760405260018060a01b0316908184525f6020850152600160408501525f606085015260808401525f60a084015260405160408101908082106001600160401b03831117610934576020916040527f000000000000000000000000000000000000000000000000000000000000000081528181019485526040518095819263f17325e760e01b8352846004840152516024830152516040604483015260018060a01b0381511660648301526001600160401b03848201511660848301526040810151151560a4830152606081015160c483015260a0610dee608083015160c060e4860152610124850190610a0d565b91015161010483015203815f7f00000000000000000000000000000000000000000000000000000000000000006001600160a01b03165af1928315610309575f93610e5c575b50827f4b5d781b1f4414459813c44d669c7821fcdec72a83b67c0303229be68d03ad055f80a3565b9092506020813d602011610e88575b81610e7860209383610963565b8101031261010d5751915f610e34565b3d9150610e6b565b63078d696560e31b5f5260045ffd5b90506020813d602011610ed1575b81610eba60209383610963565b8101031261010d57610ecb90610b5e565b5f610cbc565b3d9150610ead565b805f9172184f03e93ff9f4daa797ed6e38ed64bf6a1f0160401b821015611023575b806d04ee2d6d415b85acef8100000000600a921015611008575b662386f26fc10000811015610ff4575b6305f5e100811015610fe3575b612710811015610fd4575b6064811015610fc6575b1015610fbb575b600a60216001840193610f60856109ac565b94610f6e6040519687610963565b808652610f7d601f19916109ac565b013660208701378401015b5f1901916f181899199a1a9b1b9c1cb0b131b232b360811b8282061a8353048015610fb657600a9091610f88565b505090565b600190910190610f4e565b606460029104930192610f47565b61271060049104930192610f3d565b6305f5e10060089104930192610f32565b662386f26fc1000060109104930192610f25565b6d04ee2d6d415b85acef810000000060209104930192610f15565b506040915072184f03e93ff9f4daa797ed6e38ed64bf6a1f0160401b8104610efb565b7f00000000000000000000000000000000000000000000000000000000000000006001600160a01b0316330361107857565b634ca8886760e01b5f5260045ffd5b60e001356001600160a01b038116810361010d576001600160a01b031630149056fea2646970667358221220ac40b934480181dc53a645b356fdc856075e7b0ff714783c29db709e72eccc2864736f6c634300081b0033","linkReferences":{}},"methodIdentifiers":{"ATTESTATION_SCHEMA()":"5bf2f20d","attest((bytes32,bytes32,uint64,uint64,uint64,bytes32,address,address,bool,bytes))":"e60c3505","checkStatement((bytes32,bytes32,uint64,uint64,uint64,bytes32,address,address,bool,bytes),bytes,bytes32)":"1272ff8b","getSchema()":"6b122fe0","getStatement(bytes32)":"5cc02d2f","isPayable()":"ce46e046","makeStatement((address,uint256,address))":"18e9f307","makeStatementFor((address,uint256,address),address,address)":"fba22190","multiAttest((bytes32,bytes32,uint64,uint64,uint64,bytes32,address,address,bool,bytes)[],uint256[])":"91db0b7e","multiRevoke((bytes32,bytes32,uint64,uint64,uint64,bytes32,address,address,bool,bytes)[],uint256[])":"88e5b2d9","revoke((bytes32,bytes32,uint64,uint64,uint64,bytes32,address,address,bool,bytes))":"e49617e1","version()":"54fd4d50"},"id":77}