{"abi":[{"type":"constructor","inputs":[{"name":"_eas","type":"address","internalType":"contract IEAS"},{"name":"_erc20Escrow","type":"address","internalType":"contract ERC20EscrowObligation"},{"name":"_erc20Payment","type":"address","internalType":"contract ERC20PaymentObligation"},{"name":"_erc721Escrow","type":"address","internalType":"contract ERC721EscrowObligation"},{"name":"_erc721Payment","type":"address","internalType":"contract ERC721PaymentObligation"},{"name":"_erc1155Escrow","type":"address","internalType":"contract ERC1155EscrowObligation"},{"name":"_erc1155Payment","type":"address","internalType":"contract ERC1155PaymentObligation"},{"name":"_bundleEscrow","type":"address","internalType":"contract TokenBundleEscrowObligation"},{"name":"_bundlePayment","type":"address","internalType":"contract TokenBundlePaymentObligation"}],"stateMutability":"nonpayable"},{"type":"function","name":"buyBundleWithErc721","inputs":[{"name":"bidToken","type":"address","internalType":"address"},{"name":"bidTokenId","type":"uint256","internalType":"uint256"},{"name":"askData","type":"tuple","internalType":"struct TokenBundlePaymentObligation.StatementData","components":[{"name":"erc20Tokens","type":"address[]","internalType":"address[]"},{"name":"erc20Amounts","type":"uint256[]","internalType":"uint256[]"},{"name":"erc721Tokens","type":"address[]","internalType":"address[]"},{"name":"erc721TokenIds","type":"uint256[]","internalType":"uint256[]"},{"name":"erc1155Tokens","type":"address[]","internalType":"address[]"},{"name":"erc1155TokenIds","type":"uint256[]","internalType":"uint256[]"},{"name":"erc1155Amounts","type":"uint256[]","internalType":"uint256[]"},{"name":"payee","type":"address","internalType":"address"}]},{"name":"expiration","type":"uint64","internalType":"uint64"}],"outputs":[{"name":"","type":"bytes32","internalType":"bytes32"}],"stateMutability":"nonpayable"},{"type":"function","name":"buyErc1155WithErc721","inputs":[{"name":"bidToken","type":"address","internalType":"address"},{"name":"bidTokenId","type":"uint256","internalType":"uint256"},{"name":"askToken","type":"address","internalType":"address"},{"name":"askTokenId","type":"uint256","internalType":"uint256"},{"name":"askAmount","type":"uint256","internalType":"uint256"},{"name":"expiration","type":"uint64","internalType":"uint64"}],"outputs":[{"name":"","type":"bytes32","internalType":"bytes32"}],"stateMutability":"nonpayable"},{"type":"function","name":"buyErc20WithErc721","inputs":[{"name":"bidToken","type":"address","internalType":"address"},{"name":"bidTokenId","type":"uint256","internalType":"uint256"},{"name":"askToken","type":"address","internalType":"address"},{"name":"askAmount","type":"uint256","internalType":"uint256"},{"name":"expiration","type":"uint64","internalType":"uint64"}],"outputs":[{"name":"","type":"bytes32","internalType":"bytes32"}],"stateMutability":"nonpayable"},{"type":"function","name":"buyErc721ForErc721","inputs":[{"name":"bidToken","type":"address","internalType":"address"},{"name":"bidTokenId","type":"uint256","internalType":"uint256"},{"name":"askToken","type":"address","internalType":"address"},{"name":"askTokenId","type":"uint256","internalType":"uint256"},{"name":"expiration","type":"uint64","internalType":"uint64"}],"outputs":[{"name":"","type":"bytes32","internalType":"bytes32"}],"stateMutability":"nonpayable"},{"type":"function","name":"payErc721ForBundle","inputs":[{"name":"buyAttestation","type":"bytes32","internalType":"bytes32"}],"outputs":[{"name":"","type":"bytes32","internalType":"bytes32"}],"stateMutability":"nonpayable"},{"type":"function","name":"payErc721ForErc1155","inputs":[{"name":"buyAttestation","type":"bytes32","internalType":"bytes32"}],"outputs":[{"name":"","type":"bytes32","internalType":"bytes32"}],"stateMutability":"nonpayable"},{"type":"function","name":"payErc721ForErc20","inputs":[{"name":"buyAttestation","type":"bytes32","internalType":"bytes32"}],"outputs":[{"name":"","type":"bytes32","internalType":"bytes32"}],"stateMutability":"nonpayable"},{"type":"function","name":"payErc721ForErc721","inputs":[{"name":"buyAttestation","type":"bytes32","internalType":"bytes32"}],"outputs":[{"name":"","type":"bytes32","internalType":"bytes32"}],"stateMutability":"nonpayable"},{"type":"error","name":"CouldntCollectPayment","inputs":[]}],"bytecode":{"object":"0x6080346101b057601f61135138819003918201601f19168301916001600160401b038311848410176101b457808492610120946040528339810103126101b05780516001600160a01b03811691908290036101b05760208101516001600160a01b038116908190036101b05760408201516001600160a01b03811691908290036101b05760608301516001600160a01b03811692908390036101b05760808401516001600160a01b03811692908390036101b05760a08501516001600160a01b03811693908490036101b05760c08601516001600160a01b03811695908690036101b05760e08701516001600160a01b03811697908890036101b05761010001516001600160a01b03811698908990036101b05760018060a01b03195f5416175f5560018060a01b0319600154161760015560018060a01b0319600254161760025560018060a01b0319600454161760045560018060a01b0319600354161760035560018060a01b0319600554161760055560018060a01b0319600654161760065560018060a01b0319600754161760075560018060a01b0319600854161760085560405161118890816101c98239f35b5f80fd5b634e487b7160e01b5f52604160045260245ffdfe6080806040526004361015610012575f80fd5b5f3560e01c90816341b81d5814610a8a575080635f19ead1146109cf5780636590e21b146108b5578063793d455d146105aa578063cb9d3a57146103c6578063e32aa46314610389578063ebb48d901461025f5763eff69b5e14610074575f80fd5b346101f15760203660031901126101f15760246004355f60018060a01b03815416604051938480926328c44a9960e21b82528560048301525afa80156101fd576101486100ee60206100de61012082955f98899161023d575b500151828082518301019101610f62565b0151838082518301019101610e94565b60025460408051630fba221960e41b815283516001600160a01b03908116600483015260208501516024830152939091015183166044820152336064820181905260848201529586939290911691839190829060a4820190565b03925af19182156101fd575f92610208575b506001546040516330088bc960e01b8152600481019290925260248201839052602090829060449082905f906001600160a01b03165af19081156101fd575f916101bf575b50156101b057602090604051908152f35b636c7b6f5560e11b5f5260045ffd5b90506020813d6020116101f5575b816101da60209383610cfd565b810103126101f1576101eb90610d46565b5f61019f565b5f80fd5b3d91506101cd565b6040513d5f823e3d90fd5b9091506020813d602011610235575b8161022460209383610cfd565b810103126101f1575190602061015a565b3d9150610217565b61025991503d808b833e6102518183610cfd565b810190610da8565b5f6100cd565b346101f15761033a602061027236610c75565b60015460025460405192966001600160a01b03928316969290911694919390929161029c83610ce2565b60018060a01b03168252878201523360408201526102e5604051918883019060409060018060a01b038151168352602081015160208401528160018060a01b0391015116910152565b606081526102f4608082610cfd565b6040519361030185610cc7565b84528684015260018060a01b0316604083015260608201525f6040518096819582946307e738a360e11b84523391339160048601610ed3565b03925af180156101fd575f90610356575b602090604051908152f35b506020813d602011610381575b8161037060209383610cfd565b810103126101f1576020905161034b565b3d9150610363565b346101f15761033a602061039c36610c75565b60015460035460405192966001600160a01b03928316969290911694919390929161029c83610ce2565b346101f15760803660031901126101f1576103df610c4b565b604435906001600160401b0382116101f1578160040161010060031984360301126101f157606435906001600160401b03821682036101f15761033a9360209361053661056160018060a01b03600154169460018060a01b0360085416946040519384928a808501526105236105186104f96104da6104bb61049c61047d8a604061010061046d8b806110bb565b92909301526101408d01916110ef565b61048a60248b01896110bb565b8c8303603f190160608e01529061112e565b6104a960448a01886110bb565b8b8303603f190160808d0152906110ef565b6104c860648901876110bb565b8a8303603f190160a08c01529061112e565b6104e760848801866110bb565b898303603f190160c08b0152906110ef565b61050660a48701856110bb565b888303603f190160e08a01529061112e565b9160c48501906110bb565b858303603f19016101008701529061112e565b906001600160a01b039061054c9060e401610c61565b1661012083015203601f198101835282610cfd565b6040519261056e84610cc7565b83528583015260018060a01b0316604082015260243560608201525f6040518096819582946307e738a360e11b84523391339160048601610ed3565b346101f15760203660031901126101f15760043560245f60018060a01b03815416604051928380926328c44a9960e21b82528660048301525afa80156101fd57610120915f9161089b575b500151908151820160208101926020818303126101f1576020810151906001600160401b0382116101f157019061012090829003126101f1576040519261012084018481106001600160401b038211176108875760405261065860208301610d32565b845260408201516001600160401b0381116101f15781602061067c92850101610d53565b906020850191825260608301516001600160401b0381116101f1578160206106a692860101610ff9565b604086015260808301516001600160401b0381116101f1578160206106cd9286010161105e565b606086015260a08301516001600160401b0381116101f1578160206106f492860101610ff9565b608086015260c08301516001600160401b0381116101f15781602061071b9286010161105e565b60a086015260e08301516001600160401b0381116101f15781602061074292860101610ff9565b60c08601526101008301516001600160401b0381116101f15781602061076a9286010161105e565b60e0860152610120830151916001600160401b0383116101f1575f9561010061079f6100ee9460206107b1978199010161105e565b91015251838082518301019101610e94565b03925af19182156101fd575f92610852575b506007546040516330088bc960e01b8152600481019290925260248201839052602090829060449082905f906001600160a01b03165af19081156101fd575f916108185750156101b057602090604051908152f35b90506020813d60201161084a575b8161083360209383610cfd565b810103126101f15761084490610d46565b8261019f565b3d9150610826565b9091506020813d60201161087f575b8161086e60209383610cfd565b810103126101f157519060206107c3565b3d9150610861565b634e487b7160e01b5f52604160045260245ffd5b6108af91503d805f833e6102518183610cfd565b836105f5565b346101f15760203660031901126101f15760246004355f60018060a01b03815416604051938480926328c44a9960e21b82528560048301525afa80156101fd5761091e6100ee60206100de61012082955f9889916109b557500151828082518301019101610f62565b03925af19182156101fd575f92610980575b5060205f91604460018060a01b03600454169160405194859384926330088bc960e01b845260048401528760248401525af19081156101fd575f916108185750156101b057602090604051908152f35b9091506020813d6020116109ad575b8161099c60209383610cfd565b810103126101f15751906020610930565b3d915061098f565b6109c991503d808b833e6102518183610cfd565b896100cd565b346101f15760c03660031901126101f1576109e8610c4b565b6044356001600160a01b038116908190036101f15760a4356001600160401b03811681036101f15760015460065460405161033a956020956001600160a01b0394851694909316929091610a3b81610cc7565b8181528681019060643582526060604082019160843583520191338352604051938985015251604084015251606083015260018060a01b0390511660808201526080815261056160a082610cfd565b346101f15760203660031901126101f157600435905f8160248160018060a01b038454166328c44a9960e21b82528660048301525afa80156101fd57610120915f91610c31575b5001519081518201916020818403126101f1576020810151906001600160401b0382116101f157019160a0838203126101f1576040519060a082018281106001600160401b0382111761088757604052610b2d60208501610d32565b825260408401516001600160401b0381116101f1575f94602093608060a0610b626100ee958880610b95990191870101610d53565b938488850152610b7460608201610d32565b60408501528281015160608501520151910152838082518301019101610e94565b03925af19182156101fd575f92610bfc575b506005546040516330088bc960e01b8152600481019290925260248201839052602090829060449082905f906001600160a01b03165af19081156101fd575f916108185750156101b057602090604051908152f35b9091506020813d602011610c29575b81610c1860209383610cfd565b810103126101f15751906020610ba7565b3d9150610c0b565b610c4591503d805f833e6102518183610cfd565b83610ad1565b600435906001600160a01b03821682036101f157565b35906001600160a01b03821682036101f157565b60a09060031901126101f1576004356001600160a01b03811681036101f15790602435906044356001600160a01b03811681036101f15790606435906084356001600160401b03811681036101f15790565b608081019081106001600160401b0382111761088757604052565b606081019081106001600160401b0382111761088757604052565b90601f801991011681019081106001600160401b0382111761088757604052565b51906001600160401b03821682036101f157565b51906001600160a01b03821682036101f157565b519081151582036101f157565b81601f820112156101f1578051906001600160401b0382116108875760405192610d87601f8401601f191660200185610cfd565b828452602083830101116101f157815f9260208093018386015e8301015290565b6020818303126101f1578051906001600160401b0382116101f15701610140818303126101f1576040519161014083018381106001600160401b03821117610887576040528151835260208201516020840152610e0760408301610d1e565b6040840152610e1860608301610d1e565b6060840152610e2960808301610d1e565b608084015260a082015160a0840152610e4460c08301610d32565b60c0840152610e5560e08301610d32565b60e0840152610e676101008301610d46565b6101008401526101208201516001600160401b0381116101f157610e8b9201610d53565b61012082015290565b908160609103126101f157610ecb6040805192610eb084610ce2565b610eb981610d32565b84526020810151602085015201610d32565b604082015290565b926001600160401b036101206020606080969998956080895260018060a01b0381511660808a015282810151608060a08b01528051938491826101008d015201858b015e5f84848b01015260018060a01b0360408201511660c08a0152015160e0880152601f80199101168601019616602085015260018060a01b0316604084015260018060a01b0316910152565b6020818303126101f1578051906001600160401b0382116101f15701906080828203126101f15760405191610f9683610cc7565b610f9f81610d32565b835260208101516001600160401b0381116101f157606092610fc2918301610d53565b6020840152610fd360408201610d32565b60408401520151606082015290565b6001600160401b0381116108875760051b60200190565b9080601f830112156101f157815161101081610fe2565b9261101e6040519485610cfd565b81845260208085019260051b8201019283116101f157602001905b8282106110465750505090565b6020809161105384610d32565b815201910190611039565b9080601f830112156101f157815161107581610fe2565b926110836040519485610cfd565b81845260208085019260051b8201019283116101f157602001905b8282106110ab5750505090565b815181526020918201910161109e565b9035601e19823603018112156101f15701602081359101916001600160401b0382116101f1578160051b360383136101f157565b916020908281520191905f5b8181106111085750505090565b909192602080600192838060a01b0361112088610c61565b1681520194019291016110fb565b81835290916001600160fb1b0383116101f15760209260051b80928483013701019056fea26469706673582212208ec4576c5dc0e6ef9fc09cba7dbd4ead988103314f201318ca6b025926ee2d1e64736f6c634300081b0033","linkReferences":{}},"methodIdentifiers":{"buyBundleWithErc721(address,uint256,(address[],uint256[],address[],uint256[],address[],uint256[],uint256[],address),uint64)":"cb9d3a57","buyErc1155WithErc721(address,uint256,address,uint256,uint256,uint64)":"5f19ead1","buyErc20WithErc721(address,uint256,address,uint256,uint64)":"e32aa463","buyErc721ForErc721(address,uint256,address,uint256,uint64)":"ebb48d90","payErc721ForBundle(bytes32)":"793d455d","payErc721ForErc1155(bytes32)":"41b81d58","payErc721ForErc20(bytes32)":"6590e21b","payErc721ForErc721(bytes32)":"eff69b5e"},"id":80}