{"abi":[{"type":"constructor","inputs":[{"name":"_eas","type":"address","internalType":"contract IEAS"},{"name":"_erc20Escrow","type":"address","internalType":"contract ERC20EscrowObligation"},{"name":"_erc20Payment","type":"address","internalType":"contract ERC20PaymentObligation"},{"name":"_erc721Escrow","type":"address","internalType":"contract ERC721EscrowObligation"},{"name":"_erc721Payment","type":"address","internalType":"contract ERC721PaymentObligation"},{"name":"_erc1155Escrow","type":"address","internalType":"contract ERC1155EscrowObligation"},{"name":"_erc1155Payment","type":"address","internalType":"contract ERC1155PaymentObligation"},{"name":"_bundleEscrow","type":"address","internalType":"contract TokenBundleEscrowObligation"},{"name":"_bundlePayment","type":"address","internalType":"contract TokenBundlePaymentObligation"}],"stateMutability":"nonpayable"},{"type":"function","name":"buyBundleWithErc721","inputs":[{"name":"bidToken","type":"address","internalType":"address"},{"name":"bidTokenId","type":"uint256","internalType":"uint256"},{"name":"askData","type":"tuple","internalType":"struct TokenBundlePaymentObligation.StatementData","components":[{"name":"erc20Tokens","type":"address[]","internalType":"address[]"},{"name":"erc20Amounts","type":"uint256[]","internalType":"uint256[]"},{"name":"erc721Tokens","type":"address[]","internalType":"address[]"},{"name":"erc721TokenIds","type":"uint256[]","internalType":"uint256[]"},{"name":"erc1155Tokens","type":"address[]","internalType":"address[]"},{"name":"erc1155TokenIds","type":"uint256[]","internalType":"uint256[]"},{"name":"erc1155Amounts","type":"uint256[]","internalType":"uint256[]"},{"name":"payee","type":"address","internalType":"address"}]},{"name":"expiration","type":"uint64","internalType":"uint64"}],"outputs":[{"name":"","type":"bytes32","internalType":"bytes32"}],"stateMutability":"nonpayable"},{"type":"function","name":"buyErc1155WithErc721","inputs":[{"name":"bidToken","type":"address","internalType":"address"},{"name":"bidTokenId","type":"uint256","internalType":"uint256"},{"name":"askToken","type":"address","internalType":"address"},{"name":"askTokenId","type":"uint256","internalType":"uint256"},{"name":"askAmount","type":"uint256","internalType":"uint256"},{"name":"expiration","type":"uint64","internalType":"uint64"}],"outputs":[{"name":"","type":"bytes32","internalType":"bytes32"}],"stateMutability":"nonpayable"},{"type":"function","name":"buyErc20WithErc721","inputs":[{"name":"bidToken","type":"address","internalType":"address"},{"name":"bidTokenId","type":"uint256","internalType":"uint256"},{"name":"askToken","type":"address","internalType":"address"},{"name":"askAmount","type":"uint256","internalType":"uint256"},{"name":"expiration","type":"uint64","internalType":"uint64"}],"outputs":[{"name":"","type":"bytes32","internalType":"bytes32"}],"stateMutability":"nonpayable"},{"type":"function","name":"buyErc721ForErc721","inputs":[{"name":"bidToken","type":"address","internalType":"address"},{"name":"bidTokenId","type":"uint256","internalType":"uint256"},{"name":"askToken","type":"address","internalType":"address"},{"name":"askTokenId","type":"uint256","internalType":"uint256"},{"name":"expiration","type":"uint64","internalType":"uint64"}],"outputs":[{"name":"","type":"bytes32","internalType":"bytes32"}],"stateMutability":"nonpayable"},{"type":"function","name":"payErc721ForBundle","inputs":[{"name":"buyAttestation","type":"bytes32","internalType":"bytes32"}],"outputs":[{"name":"","type":"bytes32","internalType":"bytes32"}],"stateMutability":"nonpayable"},{"type":"function","name":"payErc721ForErc1155","inputs":[{"name":"buyAttestation","type":"bytes32","internalType":"bytes32"}],"outputs":[{"name":"","type":"bytes32","internalType":"bytes32"}],"stateMutability":"nonpayable"},{"type":"function","name":"payErc721ForErc20","inputs":[{"name":"buyAttestation","type":"bytes32","internalType":"bytes32"}],"outputs":[{"name":"","type":"bytes32","internalType":"bytes32"}],"stateMutability":"nonpayable"},{"type":"function","name":"payErc721ForErc721","inputs":[{"name":"buyAttestation","type":"bytes32","internalType":"bytes32"}],"outputs":[{"name":"","type":"bytes32","internalType":"bytes32"}],"stateMutability":"nonpayable"},{"type":"error","name":"CouldntCollectPayment","inputs":[]}],"bytecode":{"object":"0x6080346101b057601f61148138819003918201601f19168301916001600160401b038311848410176101b457808492610120946040528339810103126101b05780516001600160a01b03811691908290036101b05760208101516001600160a01b038116908190036101b05760408201516001600160a01b03811691908290036101b05760608301516001600160a01b03811692908390036101b05760808401516001600160a01b03811692908390036101b05760a08501516001600160a01b03811693908490036101b05760c08601516001600160a01b03811695908690036101b05760e08701516001600160a01b03811697908890036101b05761010001516001600160a01b03811698908990036101b05760018060a01b03195f5416175f5560018060a01b0319600154161760015560018060a01b0319600254161760025560018060a01b0319600454161760045560018060a01b0319600354161760035560018060a01b0319600554161760055560018060a01b0319600654161760065560018060a01b0319600754161760075560018060a01b031960085416176008556040516112b890816101c98239f35b5f80fd5b634e487b7160e01b5f52604160045260245ffdfe6080806040526004361015610012575f80fd5b5f3560e01c90816341b81d5814610b61575080635f19ead114610a8f5780636590e21b14610972578063793d455d1461058e578063cb9d3a57146103aa578063e32aa4631461036d578063ebb48d90146102435763eff69b5e14610074575f80fd5b346101d55760203660031901126101d55760043560245f60018060a01b03815416604051928380926328c44a9960e21b82528660048301525afa80156101e1576101206100d6916020935f91610221575b500151828082518301019101610f15565b015190815182016060838203126101d55761012c6100fc5f946020808095019101611024565b600254604051630fba221960e41b81529586936001600160a01b0390921692849283913390819060048501611064565b03925af19182156101e1575f926101ec575b506001546040516330088bc960e01b8152600481019290925260248201839052602090829060449082905f906001600160a01b03165af19081156101e1575f916101a3575b501561019457602090604051908152f35b636c7b6f5560e11b5f5260045ffd5b90506020813d6020116101d9575b816101be60209383610d7e565b810103126101d5576101cf90610dc7565b5f610183565b5f80fd5b3d91506101b1565b6040513d5f823e3d90fd5b9091506020813d602011610219575b8161020860209383610d7e565b810103126101d5575190602061013e565b3d91506101fb565b61023d91503d805f833e6102358183610d7e565b810190610e29565b5f6100c5565b346101d55761031e602061025636610cf6565b60015460025460405192966001600160a01b03928316969290911694919390929161028083610d63565b60018060a01b03168252878201523360408201526102c9604051918883019060409060018060a01b038151168352602081015160208401528160018060a01b0391015116910152565b606081526102d8608082610d7e565b604051936102e585610d48565b84528684015260018060a01b0316604083015260608201525f6040518096819582946307e738a360e11b84523391339160048601610f95565b03925af180156101e1575f9061033a575b602090604051908152f35b506020813d602011610365575b8161035460209383610d7e565b810103126101d5576020905161032f565b3d9150610347565b346101d55761031e602061038036610cf6565b60015460035460405192966001600160a01b03928316969290911694919390929161028083610d63565b346101d55760803660031901126101d5576103c3610ccc565b604435906001600160401b0382116101d5578160040161010060031984360301126101d557606435906001600160401b03821682036101d55761031e9360209361051a61054560018060a01b03600154169460018060a01b0360085416946040519384928a808501526105076104fc6104dd6104be61049f6104806104618a60406101006104518b806111eb565b92909301526101408d019161121f565b61046e60248b01896111eb565b8c8303603f190160608e01529061125e565b61048d60448a01886111eb565b8b8303603f190160808d01529061121f565b6104ac60648901876111eb565b8a8303603f190160a08c01529061125e565b6104cb60848801866111eb565b898303603f190160c08b01529061121f565b6104ea60a48701856111eb565b888303603f190160e08a01529061125e565b9160c48501906111eb565b858303603f19016101008701529061125e565b906001600160a01b03906105309060e401610ce2565b1661012083015203601f198101835282610d7e565b6040519261055284610d48565b83528583015260018060a01b0316604082015260243560608201525f6040518096819582946307e738a360e11b84523391339160048601610f95565b346101d55760203660031901126101d55760043560245f60018060a01b03815416604051928380926328c44a9960e21b82528660048301525afa80156101e1576101206105ef916020935f9161095857500151828082518301019101610f15565b0151908151820160208101926020818303126101d5576020810151906001600160401b0382116101d557019061010090829003126101d55760405161010081018181106001600160401b038211176109445760405260208201516001600160401b0381116101d557846020610666928501016110ba565b815260408201516001600160401b0381116101d55784602061068a9285010161111f565b906020810191825260608301516001600160401b0381116101d5578560206106b4928601016110ba565b946040820195865260808401516001600160401b0381116101d5578160206106de9287010161111f565b936060830194855260a08101516001600160401b0381116101d557826020610708928401016110ba565b916080840192835260c08201516001600160401b0381116101d5578160206107329285010161111f565b9060a0850191825260e08301516001600160401b0381116101d55783016020019061075c9161111f565b9160c085019283526101000161077190610db3565b9260e08501938452600160a01b600190036008541696604051998a978897631d6f87dd60e01b895260048901606090525160648901610100905261016489016107b99161117c565b90518882036063190160848a01526107d191906111b8565b90518782036063190160a48901526107e9919061117c565b90518682036063190160c488015261080191906111b8565b90518582036063190160e4870152610819919061117c565b90518482036063190161010486015261083291906111b8565b90518382036063190161012485015261084b91906111b8565b90516001600160a01b03166101448301523360248301819052604483015203815a6020945f91f19182156101e1575f9261090f575b506001546040516330088bc960e01b8152600481019290925260248201839052602090829060449082905f906001600160a01b03165af19081156101e1575f916108d557501561019457602090604051908152f35b90506020813d602011610907575b816108f060209383610d7e565b810103126101d55761090190610dc7565b82610183565b3d91506108e3565b9091506020813d60201161093c575b8161092b60209383610d7e565b810103126101d55751906020610880565b3d915061091e565b634e487b7160e01b5f52604160045260245ffd5b61096c91503d805f833e6102358183610d7e565b856100c5565b346101d55760203660031901126101d55760043560245f60018060a01b03815416604051928380926328c44a9960e21b82528660048301525afa80156101e1576101206109d3916020935f9161095857500151828082518301019101610f15565b015190815182016060838203126101d557610a296109f95f946020808095019101611024565b600354604051630fba221960e41b81529586936001600160a01b0390921692849283913390819060048501611064565b03925af19182156101e1575f9261090f57506001546040516330088bc960e01b8152600481019290925260248201839052602090829060449082905f906001600160a01b03165af19081156101e1575f916108d557501561019457602090604051908152f35b346101d55760c03660031901126101d557610aa8610ccc565b6044356001600160a01b038116908190036101d55760a4356001600160401b03811681036101d55760015460065460405161031e956020956001600160a01b039485169490931692909190610afc82610d48565b8152606435868201526084356040820152336060820152610b52604051918783019060609060018060a01b03815116835260208101516020840152604081015160408401528160018060a01b0391015116910152565b6080815261054560a082610d7e565b346101d55760203660031901126101d557600435905f8160248160018060a01b038454166328c44a9960e21b82528660048301525afa80156101e157610120610bbe916020935f9161095857500151828082518301019101610f15565b0151906080828051810103126101d557610c08608060405193610be085610d48565b610bec60208201610db3565b8552604081015160208601526060810151604086015201610db3565b6060830190815260065460408051632daf79cd60e01b815285516001600160a01b0390811660048301526020808801516024840152929096015160448201529251851660648401529193849160c49183915f91163360848401523360a48401525af19182156101e1575f9261090f57506001546040516330088bc960e01b8152600481019290925260248201839052602090829060449082905f906001600160a01b03165af19081156101e1575f916108d557501561019457602090604051908152f35b600435906001600160a01b03821682036101d557565b35906001600160a01b03821682036101d557565b60a09060031901126101d5576004356001600160a01b03811681036101d55790602435906044356001600160a01b03811681036101d55790606435906084356001600160401b03811681036101d55790565b608081019081106001600160401b0382111761094457604052565b606081019081106001600160401b0382111761094457604052565b90601f801991011681019081106001600160401b0382111761094457604052565b51906001600160401b03821682036101d557565b51906001600160a01b03821682036101d557565b519081151582036101d557565b81601f820112156101d5578051906001600160401b0382116109445760405192610e08601f8401601f191660200185610d7e565b828452602083830101116101d557815f9260208093018386015e8301015290565b6020818303126101d5578051906001600160401b0382116101d55701610140818303126101d5576040519161014083018381106001600160401b03821117610944576040528151835260208201516020840152610e8860408301610d9f565b6040840152610e9960608301610d9f565b6060840152610eaa60808301610d9f565b608084015260a082015160a0840152610ec560c08301610db3565b60c0840152610ed660e08301610db3565b60e0840152610ee86101008301610dc7565b6101008401526101208201516001600160401b0381116101d557610f0c9201610dd4565b61012082015290565b6020818303126101d5578051906001600160401b0382116101d55701906080828203126101d55760405191610f4983610d48565b610f5281610db3565b835260208101516001600160401b0381116101d557606092610f75918301610dd4565b6020840152610f8660408201610db3565b60408401520151606082015290565b926001600160401b036101206020606080969998956080895260018060a01b0381511660808a015282810151608060a08b01528051938491826101008d015201858b015e5f84848b01015260018060a01b0360408201511660c08a0152015160e0880152601f80199101168601019616602085015260018060a01b0316604084015260018060a01b0316910152565b91908260609103126101d55760405161103c81610d63565b604061105f81839561104d81610db3565b85526020810151602086015201610db3565b910152565b81516001600160a01b03908116825260208084015190830152604092830151811692820192909252918116606083015291909116608082015260a00190565b6001600160401b0381116109445760051b60200190565b9080601f830112156101d55781516110d1816110a3565b926110df6040519485610d7e565b81845260208085019260051b8201019283116101d557602001905b8282106111075750505090565b6020809161111484610db3565b8152019101906110fa565b9080601f830112156101d5578151611136816110a3565b926111446040519485610d7e565b81845260208085019260051b8201019283116101d557602001905b82821061116c5750505090565b815181526020918201910161115f565b90602080835192838152019201905f5b8181106111995750505090565b82516001600160a01b031684526020938401939092019160010161118c565b90602080835192838152019201905f5b8181106111d55750505090565b82518452602093840193909201916001016111c8565b9035601e19823603018112156101d55701602081359101916001600160401b0382116101d5578160051b360383136101d557565b916020908281520191905f5b8181106112385750505090565b909192602080600192838060a01b0361125088610ce2565b16815201940192910161122b565b81835290916001600160fb1b0383116101d55760209260051b80928483013701019056fea26469706673582212201047113fd3817e960a595d69ef1feb52bf1c9a1e224dac47873727830408ba3a64736f6c634300081b0033","linkReferences":{}},"methodIdentifiers":{"buyBundleWithErc721(address,uint256,(address[],uint256[],address[],uint256[],address[],uint256[],uint256[],address),uint64)":"cb9d3a57","buyErc1155WithErc721(address,uint256,address,uint256,uint256,uint64)":"5f19ead1","buyErc20WithErc721(address,uint256,address,uint256,uint64)":"e32aa463","buyErc721ForErc721(address,uint256,address,uint256,uint64)":"ebb48d90","payErc721ForBundle(bytes32)":"793d455d","payErc721ForErc1155(bytes32)":"41b81d58","payErc721ForErc20(bytes32)":"6590e21b","payErc721ForErc721(bytes32)":"eff69b5e"},"id":107}