{"abi":[{"type":"constructor","inputs":[{"name":"_eas","type":"address","internalType":"contract IEAS"}],"stateMutability":"nonpayable"},{"type":"receive","stateMutability":"payable"},{"type":"function","name":"attest","inputs":[{"name":"attestation","type":"tuple","internalType":"struct Attestation","components":[{"name":"uid","type":"bytes32","internalType":"bytes32"},{"name":"schema","type":"bytes32","internalType":"bytes32"},{"name":"time","type":"uint64","internalType":"uint64"},{"name":"expirationTime","type":"uint64","internalType":"uint64"},{"name":"revocationTime","type":"uint64","internalType":"uint64"},{"name":"refUID","type":"bytes32","internalType":"bytes32"},{"name":"recipient","type":"address","internalType":"address"},{"name":"attester","type":"address","internalType":"address"},{"name":"revocable","type":"bool","internalType":"bool"},{"name":"data","type":"bytes","internalType":"bytes"}]}],"outputs":[{"name":"","type":"bool","internalType":"bool"}],"stateMutability":"payable"},{"type":"function","name":"isPayable","inputs":[],"outputs":[{"name":"","type":"bool","internalType":"bool"}],"stateMutability":"pure"},{"type":"function","name":"multiAttest","inputs":[{"name":"attestations","type":"tuple[]","internalType":"struct Attestation[]","components":[{"name":"uid","type":"bytes32","internalType":"bytes32"},{"name":"schema","type":"bytes32","internalType":"bytes32"},{"name":"time","type":"uint64","internalType":"uint64"},{"name":"expirationTime","type":"uint64","internalType":"uint64"},{"name":"revocationTime","type":"uint64","internalType":"uint64"},{"name":"refUID","type":"bytes32","internalType":"bytes32"},{"name":"recipient","type":"address","internalType":"address"},{"name":"attester","type":"address","internalType":"address"},{"name":"revocable","type":"bool","internalType":"bool"},{"name":"data","type":"bytes","internalType":"bytes"}]},{"name":"values","type":"uint256[]","internalType":"uint256[]"}],"outputs":[{"name":"","type":"bool","internalType":"bool"}],"stateMutability":"payable"},{"type":"function","name":"multiRevoke","inputs":[{"name":"attestations","type":"tuple[]","internalType":"struct Attestation[]","components":[{"name":"uid","type":"bytes32","internalType":"bytes32"},{"name":"schema","type":"bytes32","internalType":"bytes32"},{"name":"time","type":"uint64","internalType":"uint64"},{"name":"expirationTime","type":"uint64","internalType":"uint64"},{"name":"revocationTime","type":"uint64","internalType":"uint64"},{"name":"refUID","type":"bytes32","internalType":"bytes32"},{"name":"recipient","type":"address","internalType":"address"},{"name":"attester","type":"address","internalType":"address"},{"name":"revocable","type":"bool","internalType":"bool"},{"name":"data","type":"bytes","internalType":"bytes"}]},{"name":"values","type":"uint256[]","internalType":"uint256[]"}],"outputs":[{"name":"","type":"bool","internalType":"bool"}],"stateMutability":"payable"},{"type":"function","name":"revoke","inputs":[{"name":"attestation","type":"tuple","internalType":"struct Attestation","components":[{"name":"uid","type":"bytes32","internalType":"bytes32"},{"name":"schema","type":"bytes32","internalType":"bytes32"},{"name":"time","type":"uint64","internalType":"uint64"},{"name":"expirationTime","type":"uint64","internalType":"uint64"},{"name":"revocationTime","type":"uint64","internalType":"uint64"},{"name":"refUID","type":"bytes32","internalType":"bytes32"},{"name":"recipient","type":"address","internalType":"address"},{"name":"attester","type":"address","internalType":"address"},{"name":"revocable","type":"bool","internalType":"bool"},{"name":"data","type":"bytes","internalType":"bytes"}]}],"outputs":[{"name":"","type":"bool","internalType":"bool"}],"stateMutability":"payable"},{"type":"function","name":"version","inputs":[],"outputs":[{"name":"","type":"string","internalType":"string"}],"stateMutability":"view"},{"type":"error","name":"AccessDenied","inputs":[]},{"type":"error","name":"InsufficientValue","inputs":[]},{"type":"error","name":"InvalidEAS","inputs":[]},{"type":"error","name":"InvalidLength","inputs":[]},{"type":"error","name":"NotPayable","inputs":[]}],"bytecode":{"object":"0x610100346100a857601f61063c38819003918201601f19168301916001600160401b038311848410176100ac578084926020946040528339810103126100a857516001600160a01b0381168082036100a8576001608052600360a0525f60c052156100995760e05260405161057b90816100c182396080518160e7015260a05181610119015260c05181610144015260e051816105060152f35b6341bc07ff60e11b5f5260045ffd5b5f80fd5b634e487b7160e01b5f52604160045260245ffdfe60806040526004361015610027575b3615610018575f80fd5b631574f9f360e01b5f5260045ffd5b5f3560e01c806354fd4d50146100d257806388e5b2d9146100a957806391db0b7e146100a9578063ce46e0461461008b578063e49617e11461006e5763e60c35050361000e575b6100773661026e565b50610080610504565b602060405160018152f35b346100a5575f3660031901126100a55760206040515f8152f35b5f80fd5b60206100c86100b73661021c565b926100c3929192610504565b610310565b6040519015158152f35b346100a5575f3660031901126100a55761010b7f0000000000000000000000000000000000000000000000000000000000000000610397565b604060206101c0600161013d7f0000000000000000000000000000000000000000000000000000000000000000610397565b81846101687f0000000000000000000000000000000000000000000000000000000000000000610397565b818851978895818088019c8d815192839201905e870190601760f91b83830152805192839101602183015e010190601760f91b84830152805192839101600283015e01015f838201520301601f1981018352826102a3565b8151928391602083525180918160208501528484015e5f828201840152601f01601f19168101030190f35b9181601f840112156100a55782359167ffffffffffffffff83116100a5576020808501948460051b0101116100a557565b60406003198201126100a55760043567ffffffffffffffff81116100a55781610247916004016101eb565b929092916024359067ffffffffffffffff82116100a55761026a916004016101eb565b9091565b60206003198201126100a5576004359067ffffffffffffffff82116100a5576101409082900360031901126100a55760040190565b90601f8019910116810190811067ffffffffffffffff8211176102c557604052565b634e487b7160e01b5f52604160045260245ffd5b91908110156102fc5760051b8101359061013e19813603018212156100a5570190565b634e487b7160e01b5f52603260045260245ffd5b929182820361036c575f90345b83831061032f57505050505050600190565b848310156102fc578260051b82013581811161035d5760019161035385878a6102d9565b500392019161031d565b63044044a560e21b5f5260045ffd5b63251f56a160e21b5f5260045ffd5b67ffffffffffffffff81116102c557601f01601f191660200190565b805f9172184f03e93ff9f4daa797ed6e38ed64bf6a1f0160401b8210156104e1575b806d04ee2d6d415b85acef8100000000600a9210156104c6575b662386f26fc100008110156104b2575b6305f5e1008110156104a1575b612710811015610492575b6064811015610484575b1015610479575b600a6021600184019361041e8561037b565b9461042c60405196876102a3565b80865261043b601f199161037b565b013660208701378401015b5f1901916f181899199a1a9b1b9c1cb0b131b232b360811b8282061a835304801561047457600a9091610446565b505090565b60019091019061040c565b606460029104930192610405565b612710600491049301926103fb565b6305f5e100600891049301926103f0565b662386f26fc10000601091049301926103e3565b6d04ee2d6d415b85acef8100000000602091049301926103d3565b506040915072184f03e93ff9f4daa797ed6e38ed64bf6a1f0160401b81046103b9565b7f00000000000000000000000000000000000000000000000000000000000000006001600160a01b0316330361053657565b634ca8886760e01b5f5260045ffdfea2646970667358221220c3e007eee7f45630c07c5f18de193e62f8f45ab92bdca13578413104ab318be964736f6c634300081b0033","linkReferences":{}},"methodIdentifiers":{"attest((bytes32,bytes32,uint64,uint64,uint64,bytes32,address,address,bool,bytes))":"e60c3505","isPayable()":"ce46e046","multiAttest((bytes32,bytes32,uint64,uint64,uint64,bytes32,address,address,bool,bytes)[],uint256[])":"91db0b7e","multiRevoke((bytes32,bytes32,uint64,uint64,uint64,bytes32,address,address,bool,bytes)[],uint256[])":"88e5b2d9","revoke((bytes32,bytes32,uint64,uint64,uint64,bytes32,address,address,bool,bytes))":"e49617e1","version()":"54fd4d50"},"id":128}