{"abi":[{"type":"constructor","inputs":[{"name":"_eas","type":"address","internalType":"contract IEAS"},{"name":"_schemaRegistry","type":"address","internalType":"contract ISchemaRegistry"}],"stateMutability":"nonpayable"},{"type":"receive","stateMutability":"payable"},{"type":"function","name":"ATTESTATION_SCHEMA","inputs":[],"outputs":[{"name":"","type":"bytes32","internalType":"bytes32"}],"stateMutability":"view"},{"type":"function","name":"attest","inputs":[{"name":"attestation","type":"tuple","internalType":"struct Attestation","components":[{"name":"uid","type":"bytes32","internalType":"bytes32"},{"name":"schema","type":"bytes32","internalType":"bytes32"},{"name":"time","type":"uint64","internalType":"uint64"},{"name":"expirationTime","type":"uint64","internalType":"uint64"},{"name":"revocationTime","type":"uint64","internalType":"uint64"},{"name":"refUID","type":"bytes32","internalType":"bytes32"},{"name":"recipient","type":"address","internalType":"address"},{"name":"attester","type":"address","internalType":"address"},{"name":"revocable","type":"bool","internalType":"bool"},{"name":"data","type":"bytes","internalType":"bytes"}]}],"outputs":[{"name":"","type":"bool","internalType":"bool"}],"stateMutability":"payable"},{"type":"function","name":"checkStatement","inputs":[{"name":"statement","type":"tuple","internalType":"struct Attestation","components":[{"name":"uid","type":"bytes32","internalType":"bytes32"},{"name":"schema","type":"bytes32","internalType":"bytes32"},{"name":"time","type":"uint64","internalType":"uint64"},{"name":"expirationTime","type":"uint64","internalType":"uint64"},{"name":"revocationTime","type":"uint64","internalType":"uint64"},{"name":"refUID","type":"bytes32","internalType":"bytes32"},{"name":"recipient","type":"address","internalType":"address"},{"name":"attester","type":"address","internalType":"address"},{"name":"revocable","type":"bool","internalType":"bool"},{"name":"data","type":"bytes","internalType":"bytes"}]},{"name":"demand","type":"bytes","internalType":"bytes"},{"name":"","type":"bytes32","internalType":"bytes32"}],"outputs":[{"name":"","type":"bool","internalType":"bool"}],"stateMutability":"view"},{"type":"function","name":"collectPayment","inputs":[{"name":"_escrow","type":"bytes32","internalType":"bytes32"},{"name":"_fulfillment","type":"bytes32","internalType":"bytes32"}],"outputs":[{"name":"","type":"bytes32","internalType":"bytes32"}],"stateMutability":"nonpayable"},{"type":"function","name":"decodeStatementData","inputs":[{"name":"data","type":"bytes","internalType":"bytes"}],"outputs":[{"name":"","type":"tuple","internalType":"struct AttestationEscrowObligation.StatementData","components":[{"name":"arbiter","type":"address","internalType":"address"},{"name":"demand","type":"bytes","internalType":"bytes"},{"name":"attestation","type":"tuple","internalType":"struct AttestationRequest","components":[{"name":"schema","type":"bytes32","internalType":"bytes32"},{"name":"data","type":"tuple","internalType":"struct AttestationRequestData","components":[{"name":"recipient","type":"address","internalType":"address"},{"name":"expirationTime","type":"uint64","internalType":"uint64"},{"name":"revocable","type":"bool","internalType":"bool"},{"name":"refUID","type":"bytes32","internalType":"bytes32"},{"name":"data","type":"bytes","internalType":"bytes"},{"name":"value","type":"uint256","internalType":"uint256"}]}]}]}],"stateMutability":"pure"},{"type":"function","name":"getSchema","inputs":[],"outputs":[{"name":"","type":"tuple","internalType":"struct SchemaRecord","components":[{"name":"uid","type":"bytes32","internalType":"bytes32"},{"name":"resolver","type":"address","internalType":"contract ISchemaResolver"},{"name":"revocable","type":"bool","internalType":"bool"},{"name":"schema","type":"string","internalType":"string"}]}],"stateMutability":"view"},{"type":"function","name":"getStatement","inputs":[{"name":"uid","type":"bytes32","internalType":"bytes32"}],"outputs":[{"name":"","type":"tuple","internalType":"struct Attestation","components":[{"name":"uid","type":"bytes32","internalType":"bytes32"},{"name":"schema","type":"bytes32","internalType":"bytes32"},{"name":"time","type":"uint64","internalType":"uint64"},{"name":"expirationTime","type":"uint64","internalType":"uint64"},{"name":"revocationTime","type":"uint64","internalType":"uint64"},{"name":"refUID","type":"bytes32","internalType":"bytes32"},{"name":"recipient","type":"address","internalType":"address"},{"name":"attester","type":"address","internalType":"address"},{"name":"revocable","type":"bool","internalType":"bool"},{"name":"data","type":"bytes","internalType":"bytes"}]}],"stateMutability":"view"},{"type":"function","name":"getStatementData","inputs":[{"name":"uid","type":"bytes32","internalType":"bytes32"}],"outputs":[{"name":"","type":"tuple","internalType":"struct AttestationEscrowObligation.StatementData","components":[{"name":"arbiter","type":"address","internalType":"address"},{"name":"demand","type":"bytes","internalType":"bytes"},{"name":"attestation","type":"tuple","internalType":"struct AttestationRequest","components":[{"name":"schema","type":"bytes32","internalType":"bytes32"},{"name":"data","type":"tuple","internalType":"struct AttestationRequestData","components":[{"name":"recipient","type":"address","internalType":"address"},{"name":"expirationTime","type":"uint64","internalType":"uint64"},{"name":"revocable","type":"bool","internalType":"bool"},{"name":"refUID","type":"bytes32","internalType":"bytes32"},{"name":"data","type":"bytes","internalType":"bytes"},{"name":"value","type":"uint256","internalType":"uint256"}]}]}]}],"stateMutability":"view"},{"type":"function","name":"isPayable","inputs":[],"outputs":[{"name":"","type":"bool","internalType":"bool"}],"stateMutability":"pure"},{"type":"function","name":"makeStatement","inputs":[{"name":"data","type":"tuple","internalType":"struct AttestationEscrowObligation.StatementData","components":[{"name":"arbiter","type":"address","internalType":"address"},{"name":"demand","type":"bytes","internalType":"bytes"},{"name":"attestation","type":"tuple","internalType":"struct AttestationRequest","components":[{"name":"schema","type":"bytes32","internalType":"bytes32"},{"name":"data","type":"tuple","internalType":"struct AttestationRequestData","components":[{"name":"recipient","type":"address","internalType":"address"},{"name":"expirationTime","type":"uint64","internalType":"uint64"},{"name":"revocable","type":"bool","internalType":"bool"},{"name":"refUID","type":"bytes32","internalType":"bytes32"},{"name":"data","type":"bytes","internalType":"bytes"},{"name":"value","type":"uint256","internalType":"uint256"}]}]}]},{"name":"expirationTime","type":"uint64","internalType":"uint64"}],"outputs":[{"name":"uid_","type":"bytes32","internalType":"bytes32"}],"stateMutability":"nonpayable"},{"type":"function","name":"makeStatementFor","inputs":[{"name":"data","type":"tuple","internalType":"struct AttestationEscrowObligation.StatementData","components":[{"name":"arbiter","type":"address","internalType":"address"},{"name":"demand","type":"bytes","internalType":"bytes"},{"name":"attestation","type":"tuple","internalType":"struct AttestationRequest","components":[{"name":"schema","type":"bytes32","internalType":"bytes32"},{"name":"data","type":"tuple","internalType":"struct AttestationRequestData","components":[{"name":"recipient","type":"address","internalType":"address"},{"name":"expirationTime","type":"uint64","internalType":"uint64"},{"name":"revocable","type":"bool","internalType":"bool"},{"name":"refUID","type":"bytes32","internalType":"bytes32"},{"name":"data","type":"bytes","internalType":"bytes"},{"name":"value","type":"uint256","internalType":"uint256"}]}]}]},{"name":"expirationTime","type":"uint64","internalType":"uint64"},{"name":"recipient","type":"address","internalType":"address"}],"outputs":[{"name":"uid_","type":"bytes32","internalType":"bytes32"}],"stateMutability":"nonpayable"},{"type":"function","name":"multiAttest","inputs":[{"name":"attestations","type":"tuple[]","internalType":"struct Attestation[]","components":[{"name":"uid","type":"bytes32","internalType":"bytes32"},{"name":"schema","type":"bytes32","internalType":"bytes32"},{"name":"time","type":"uint64","internalType":"uint64"},{"name":"expirationTime","type":"uint64","internalType":"uint64"},{"name":"revocationTime","type":"uint64","internalType":"uint64"},{"name":"refUID","type":"bytes32","internalType":"bytes32"},{"name":"recipient","type":"address","internalType":"address"},{"name":"attester","type":"address","internalType":"address"},{"name":"revocable","type":"bool","internalType":"bool"},{"name":"data","type":"bytes","internalType":"bytes"}]},{"name":"values","type":"uint256[]","internalType":"uint256[]"}],"outputs":[{"name":"","type":"bool","internalType":"bool"}],"stateMutability":"payable"},{"type":"function","name":"multiRevoke","inputs":[{"name":"attestations","type":"tuple[]","internalType":"struct Attestation[]","components":[{"name":"uid","type":"bytes32","internalType":"bytes32"},{"name":"schema","type":"bytes32","internalType":"bytes32"},{"name":"time","type":"uint64","internalType":"uint64"},{"name":"expirationTime","type":"uint64","internalType":"uint64"},{"name":"revocationTime","type":"uint64","internalType":"uint64"},{"name":"refUID","type":"bytes32","internalType":"bytes32"},{"name":"recipient","type":"address","internalType":"address"},{"name":"attester","type":"address","internalType":"address"},{"name":"revocable","type":"bool","internalType":"bool"},{"name":"data","type":"bytes","internalType":"bytes"}]},{"name":"values","type":"uint256[]","internalType":"uint256[]"}],"outputs":[{"name":"","type":"bool","internalType":"bool"}],"stateMutability":"payable"},{"type":"function","name":"revoke","inputs":[{"name":"attestation","type":"tuple","internalType":"struct Attestation","components":[{"name":"uid","type":"bytes32","internalType":"bytes32"},{"name":"schema","type":"bytes32","internalType":"bytes32"},{"name":"time","type":"uint64","internalType":"uint64"},{"name":"expirationTime","type":"uint64","internalType":"uint64"},{"name":"revocationTime","type":"uint64","internalType":"uint64"},{"name":"refUID","type":"bytes32","internalType":"bytes32"},{"name":"recipient","type":"address","internalType":"address"},{"name":"attester","type":"address","internalType":"address"},{"name":"revocable","type":"bool","internalType":"bool"},{"name":"data","type":"bytes","internalType":"bytes"}]}],"outputs":[{"name":"","type":"bool","internalType":"bool"}],"stateMutability":"payable"},{"type":"function","name":"version","inputs":[],"outputs":[{"name":"","type":"string","internalType":"string"}],"stateMutability":"view"},{"type":"event","name":"EscrowClaimed","inputs":[{"name":"payment","type":"bytes32","indexed":true,"internalType":"bytes32"},{"name":"fulfillment","type":"bytes32","indexed":true,"internalType":"bytes32"},{"name":"fulfiller","type":"address","indexed":true,"internalType":"address"}],"anonymous":false},{"type":"event","name":"EscrowMade","inputs":[{"name":"payment","type":"bytes32","indexed":true,"internalType":"bytes32"},{"name":"buyer","type":"address","indexed":true,"internalType":"address"}],"anonymous":false},{"type":"error","name":"AccessDenied","inputs":[]},{"type":"error","name":"AttestationCreationFailed","inputs":[]},{"type":"error","name":"AttestationNotFound","inputs":[{"name":"attestationId","type":"bytes32","internalType":"bytes32"}]},{"type":"error","name":"AttestationRevoked","inputs":[]},{"type":"error","name":"DeadlineExpired","inputs":[]},{"type":"error","name":"InsufficientValue","inputs":[]},{"type":"error","name":"InvalidEAS","inputs":[]},{"type":"error","name":"InvalidEscrowAttestation","inputs":[]},{"type":"error","name":"InvalidFulfillment","inputs":[]},{"type":"error","name":"InvalidLength","inputs":[]},{"type":"error","name":"InvalidSchema","inputs":[]},{"type":"error","name":"NotFromStatement","inputs":[]},{"type":"error","name":"NotPayable","inputs":[]},{"type":"error","name":"RevocationFailed","inputs":[{"name":"attestationId","type":"bytes32","internalType":"bytes32"}]},{"type":"error","name":"UnauthorizedCall","inputs":[]}],"bytecode":{"object":"0x610160806040523461028b57604081611d62803803809161002082856102c5565b83398101031261028b5780516001600160a01b0381169182820361028b5760200151916001600160a01b03831680840361028b5760405160e081016001600160401b038111828210176102b15760405260b1815260208101927f6164647265737320617262697465722c2062797465732064656d616e642c207484527f75706c65286279746573333220736368656d612c207475706c6528616464726560408301527f737320726563697069656e742c2075696e7436342065787069726174696f6e5460608301527f696d652c20626f6f6c207265766f6361626c652c20627974657333322072656660808301527f5549442c20627974657320646174612c2075696e743235362076616c7565292060a0830152703230ba30949030ba3a32b9ba30ba34b7b760791b60c08301526001608052600360a0525f60c052156102a2576084948460209560e05261012052610100525f604051958680958194630c1af44f60e31b8352606060048401525180918160648501528484015e818101830184905230602483015260016044830152601f01601f191681010301925af1908115610297575f91610261575b5061014052604051611a7990816102e982396080518161078b015260a051816107b7015260c051816107e2015260e051816119eb0152610100518161051e0152610120518181816103120152818161068c015281816108af015261172f015261014051818181610352015281816104ec015281816106cc01528181610748015281816109f90152818161125101526116e40152f35b90506020813d60201161028f575b8161027c602093836102c5565b8101031261028b57515f6101cc565b5f80fd5b3d915061026f565b6040513d5f823e3d90fd5b6341bc07ff60e11b5f5260045ffd5b634e487b7160e01b5f52604160045260245ffd5b601f909101601f19168101906001600160401b038211908210176102b15760405256fe6080806040526004361015610029575b50361561001a575f80fd5b631574f9f360e01b5f5260045ffd5b5f5f3560e01c9182631272ff8b14610bed5750816330088bc91461086f57816354fd4d501461076b5781635bf2f20d146107315781635cc02d2f146106555781636b122fe0146104ac578163735045111461046357816388e5b2d91461044457816391db0b7e14610444578163aed29285146103dd578163c75c572b146102db578163ce46e046146102c0578163e112ea081461010157508063e49617e1146100dc5763e60c3505146100dc575f61000f565b60206100f76100ea36611064565b6100f26119e9565b611a2a565b6040519015158152f35b346102b15760203660031901126102b157600435906001600160401b0382116102b157366023830112156102b15781600401356001600160401b0381116102b45782019160248301903682116102bc576101596117c3565b506020818503126102bc576024810135906001600160401b0382116102b85701916060838503126102b1576040519261019184610d65565b61019d60248201610de6565b845260448101356001600160401b0381116102bc578360246101c192840101610e22565b60208501526064810135906001600160401b0382116102bc57016024810192906040908603126102b457604051926101f884610d2f565b803584526020810135906001600160401b0382116102b85760c0916024910180970301126102b4576040519161022d83610d80565b61023686610de6565b835261024460208701610dd2565b602084015261025560408701610dfa565b6040840152606086013560608401526080860135906001600160401b0382116102b157509461028b60a0926102ad978301610e22565b6080840152013560a0820152602082015260408201526040519182918261101d565b0390f35b80fd5b5080fd5b8380fd5b8280fd5b346102b157806003193601126102b157602090604051908152f35b346102b15760203660031901126102b1576102f46117c3565b506040516328c44a9960e21b815260048035908201529080826024817f00000000000000000000000000000000000000000000000000000000000000006001600160a01b03165afa9182156103d05781926103ac575b5060208201517f00000000000000000000000000000000000000000000000000000000000000000361039d576102ad6103916101208401516020808251830101910161111d565b6040519182918261101d565b63629cd40b60e11b8152600490fd5b6103c99192503d8084833e6103c18183610d9b565b8101906113b1565b908261034a565b50604051903d90823e3d90fd5b346102b15760603660031901126102b1576004356001600160401b0381116102b457606060031982360301126102b457610415610dbc565b604435929091906001600160a01b03841684036102b157602061043c858585600401611581565b604051908152f35b60206100f761045236610f5e565b9261045e9291926119e9565b61148c565b346102b15760403660031901126102b157600435906001600160401b0382116102b157606060031983360301126102b157602061043c836104a2610dbc565b3391600401611581565b346102b157806003193601126102b1576060806040516104cb81610d4a565b8381528360208201528360408201520152604051906351753e3760e11b82527f00000000000000000000000000000000000000000000000000000000000000006004830152808260248160018060a01b037f0000000000000000000000000000000000000000000000000000000000000000165afa908115610649578091610594575b6060826102ad604051928392602084528051602085015260018060a01b0360208201511660408501526040810151151582850152015160808084015260a0830190610e68565b90503d8082843e6105a58184610d9b565b8201916020818403126102b4578051906001600160401b0382116102bc5701906080828403126102b157604051916105dc83610d4a565b8051835260208101516001600160a01b03811681036102bc57602084015261060660408201611110565b60408401526060810151906001600160401b0382116102bc57019083601f830112156102b1575060609281602061063f935191016110ac565b828201528261054e565b604051903d90823e3d90fd5b346102b15760203660031901126102b15761066e611367565b506040516328c44a9960e21b815260048035908201529080826024817f00000000000000000000000000000000000000000000000000000000000000006001600160a01b03165afa9182156103d0578192610715575b5060208201517f00000000000000000000000000000000000000000000000000000000000000000361070657604051602080825281906102ad90820185610e8c565b63295d5f3960e01b8152600490fd5b61072a9192503d8084833e6103c18183610d9b565b90826106c4565b346102b157806003193601126102b15760206040517f00000000000000000000000000000000000000000000000000000000000000008152f35b346102b157806003193601126102b157602061085b60016102ad936107af7f000000000000000000000000000000000000000000000000000000000000000061187c565b9082856107db7f000000000000000000000000000000000000000000000000000000000000000061187c565b81806108067f000000000000000000000000000000000000000000000000000000000000000061187c565b926040519a888c995191829101848b015e880190601760f91b83830152805192839101602183015e010190601760f91b84830152805192839101600283015e010190838201520301601f198101835282610d9b565b604051918291602083526020830190610e68565b34610b31576040366003190112610b31576004356024359161088f611367565b50610898611367565b506040516328c44a9960e21b8152600481018390527f00000000000000000000000000000000000000000000000000000000000000006001600160a01b0316905f81602481855afa5f9181610bd1575b5061090057836301fb6dd160e01b5f5260045260245ffd5b906040516328c44a9960e21b81528560048201525f81602481855afa5f9181610bb5575b5061093c57856301fb6dd160e01b5f5260045260245ffd5b9085919261094981611821565b15610ba6576109666101208201516020808251830101910161111d565b9060206109b760018060a01b0384511682850151935193604051809581948293631272ff8b60e01b8452606060048501526109a58d6064860190610e8c565b84810360031901602486015290610e68565b90604483015203915afa908115610b9b575f91610b61575b5015610b52576040516109e181610d2f565b8681525f6020820152604051906109f782610d2f565b7f0000000000000000000000000000000000000000000000000000000000000000825260208201908152833b15610b3157604051634692626760e01b81529151600483015251805160248301526020015160448201525f8160648183875af19081610b3d575b50610a765763614cf93960e01b85526004869052602485fd5b610aa7859693926040602093015160405198898094819363f17325e760e01b83528760048401526024830190610fae565b03925af180958596610b05575b50610ac857638d7100d760e01b8452600484fd5b6020949260c060018060a01b0391015116917fd903ca32e81477af89f5b8a6ce888d185cc715390e49474a77b4c6846254cccd6040519580a48152f35b9095506020813d602011610b35575b81610b2160209383610d9b565b81010312610b3157519486610ab4565b5f80fd5b3d9150610b14565b610b4a9196505f90610d9b565b5f9487610a5d565b630ebe58ef60e11b5f5260045ffd5b90506020813d602011610b93575b81610b7c60209383610d9b565b81010312610b3157610b8d90611110565b876109cf565b3d9150610b6f565b6040513d5f823e3d90fd5b63629cd40b60e11b5f5260045ffd5b610bca9192503d805f833e6103c18183610d9b565b9087610924565b610be69192503d805f833e6103c18183610d9b565b90866108e8565b34610b31576060366003190112610b31576004356001600160401b038111610b31576101406003198236030112610b3157610c2782610cff565b8060040135825260248101356020830152610c4460448201610dd2565b6040830152610c5560648201610dd2565b6060830152610c6660848201610dd2565b608083015260a481013560a0830152610c8160c48201610de6565b60c0830152610c9260e48201610de6565b60e0830152610ca46101048201610dfa565b610100830152610124810135906001600160401b038211610b31576004610cce9236920101610e22565b6101208201526024356001600160401b038111610b3157602091610cf96100f7923690600401610e22565b9061124f565b61014081019081106001600160401b03821117610d1b57604052565b634e487b7160e01b5f52604160045260245ffd5b604081019081106001600160401b03821117610d1b57604052565b608081019081106001600160401b03821117610d1b57604052565b606081019081106001600160401b03821117610d1b57604052565b60c081019081106001600160401b03821117610d1b57604052565b90601f801991011681019081106001600160401b03821117610d1b57604052565b602435906001600160401b0382168203610b3157565b35906001600160401b0382168203610b3157565b35906001600160a01b0382168203610b3157565b35908115158203610b3157565b6001600160401b038111610d1b57601f01601f191660200190565b81601f82011215610b3157803590610e3982610e07565b92610e476040519485610d9b565b82845260208383010111610b3157815f926020809301838601378301015290565b805180835260209291819084018484015e5f828201840152601f01601f1916010190565b90610140610120610f2b9380518452602081015160208501526001600160401b0360408201511660408501526001600160401b0360608201511660608501526001600160401b03608082015116608085015260a081015160a085015260018060a01b0360c08201511660c085015260018060a01b0360e08201511660e08501526101008101511515610100850152015191816101208201520190610e68565b90565b9181601f84011215610b31578235916001600160401b038311610b31576020808501948460051b010111610b3157565b6040600319820112610b31576004356001600160401b038111610b315781610f8891600401610f2e565b92909291602435906001600160401b038211610b3157610faa91600401610f2e565b9091565b602090805183520151906040602082015260018060a01b0382511660408201526001600160401b036020830151166060820152604082015115156080820152606082015160a082015260e060a0611014608085015160c080860152610100850190610e68565b93015191015290565b90610f2b916020815260018060a01b038251166020820152604061104f60208401516060838501526080840190610e68565b920151906060601f1982850301910152610fae565b6020600319820112610b3157600435906001600160401b038211610b3157610140908290036003190112610b315760040190565b51906001600160a01b0382168203610b3157565b9291926110b882610e07565b916110c66040519384610d9b565b829481845281830111610b31578281602093845f96015e010152565b9080601f83011215610b31578151610f2b926020016110ac565b51906001600160401b0382168203610b3157565b51908115158203610b3157565b602081830312610b31578051906001600160401b038211610b31570190606082820312610b31576040519161115183610d65565b61115a81611098565b835260208101516001600160401b038111610b31578261117b9183016110e2565b60208401526040810151906001600160401b038211610b31570190604082820312610b3157604051916111ad83610d2f565b805183526020810151906001600160401b038211610b3157019060c082820312610b3157604051916111de83610d80565b6111e781611098565b83526111f5602082016110fc565b602084015261120660408201611110565b60408401526060810151606084015260808101516001600160401b038111610b315760a0926112369183016110e2565b6080840152015160a08201526020820152604082015290565b7f00000000000000000000000000000000000000000000000000000000000000006020820151036113585761128381611821565b15611352576112a36101206112b39201516020808251830101910161111d565b916020808251830101910161111d565b60408201516040516112e3816112d56020820194602086526040830190610fae565b03601f198101835282610d9b565b5190206040820151604051611308816112d56020820194602086526040830190610fae565b519020149182611339575b8261131d57505090565b6020919250810151818151910120910151602081519101201490565b805182516001600160a01b039081169116149250611313565b50505f90565b635f9bd90760e11b5f5260045ffd5b6040519061137482610cff565b6060610120835f81525f60208201525f60408201525f838201525f60808201525f60a08201525f60c08201525f60e08201525f6101008201520152565b602081830312610b31578051906001600160401b038211610b31570161014081830312610b3157604051916113e583610cff565b81518352602082015160208401526113ff604083016110fc565b6040840152611410606083016110fc565b6060840152611421608083016110fc565b608084015260a082015160a084015261143c60c08301611098565b60c084015261144d60e08301611098565b60e084015261145f6101008301611110565b6101008401526101208201516001600160401b038111610b315761148392016110e2565b61012082015290565b929092818403611521575f91345b858410156115165781841015611502578360051b80860135908282116114f35784013561013e1985360301811215610b31576114d7908501611a2a565b156114e8576001910393019261149a565b505050505050505f90565b63044044a560e21b5f5260045ffd5b634e487b7160e01b5f52603260045260245ffd5b505050505050600190565b63251f56a160e21b5f5260045ffd5b9035601e1982360301811215610b315701602081359101916001600160401b038211610b31578136038313610b3157565b908060209392818452848401375f828201840152601f01601f1916010190565b60405160208082015293926001600160a01b0361159d83610de6565b1660408601526115c36115b36020840184611530565b60608089015260a0880191611561565b916040810135603e1982360301811215610b3157868403603f190160808801520180358352602081013595903681900360be1901871215610b3157816020946116979261172a99019060408782015260018060a01b0361162283610de6565b1660408201526001600160401b0361163b888401610dd2565b16606082015261164d60408301610dfa565b15156080820152606082013560a082015260e060a06116836116726080860186611530565b60c080870152610100860191611561565b93013591015203601f198101835282610d9b565b6001600160401b03604051926116ac84610d80565b60018060a01b0316948584521683830152600160408301525f606083015260808201525f60a0820152604051906116e282610d2f565b7f00000000000000000000000000000000000000000000000000000000000000008252828201526040518095819263f17325e760e01b83528460048401526024830190610fae565b03815f7f00000000000000000000000000000000000000000000000000000000000000006001600160a01b03165af1928315610b9b575f9361178f575b50827f8f7f2dbafd79125e808bf16a53d7fa4e17b8b6374ced76d946a45f94b7bf4d065f80a3565b9092506020813d6020116117bb575b816117ab60209383610d9b565b81010312610b315751915f611767565b3d915061179e565b604051906117d082610d65565b815f81526060602082015260408051916117e983610d2f565b5f835281516117f781610d80565b5f81525f60208201525f838201525f6060820152606060808201525f60a082015260208401520152565b6001600160401b036060820151168015159081611872575b5061186357608001516001600160401b031661185457600190565b637b6227e960e11b5f5260045ffd5b631ab7da6b60e01b5f5260045ffd5b905042115f611839565b805f9172184f03e93ff9f4daa797ed6e38ed64bf6a1f0160401b8210156119c6575b806d04ee2d6d415b85acef8100000000600a9210156119ab575b662386f26fc10000811015611997575b6305f5e100811015611986575b612710811015611977575b6064811015611969575b101561195e575b600a6021600184019361190385610e07565b946119116040519687610d9b565b808652611920601f1991610e07565b013660208701378401015b5f1901916f181899199a1a9b1b9c1cb0b131b232b360811b8282061a835304801561195957600a909161192b565b505090565b6001909101906118f1565b6064600291049301926118ea565b612710600491049301926118e0565b6305f5e100600891049301926118d5565b662386f26fc10000601091049301926118c8565b6d04ee2d6d415b85acef8100000000602091049301926118b8565b506040915072184f03e93ff9f4daa797ed6e38ed64bf6a1f0160401b810461189e565b7f00000000000000000000000000000000000000000000000000000000000000006001600160a01b03163303611a1b57565b634ca8886760e01b5f5260045ffd5b60e0013560018060a01b038116809103610b315730149056fea2646970667358221220427916ae7f9b743ffa4ee2973f33d0338eb716e89bd8fbab2af38dd184c05a0364736f6c634300081b0033","linkReferences":{}},"methodIdentifiers":{"ATTESTATION_SCHEMA()":"5bf2f20d","attest((bytes32,bytes32,uint64,uint64,uint64,bytes32,address,address,bool,bytes))":"e60c3505","checkStatement((bytes32,bytes32,uint64,uint64,uint64,bytes32,address,address,bool,bytes),bytes,bytes32)":"1272ff8b","collectPayment(bytes32,bytes32)":"30088bc9","decodeStatementData(bytes)":"e112ea08","getSchema()":"6b122fe0","getStatement(bytes32)":"5cc02d2f","getStatementData(bytes32)":"c75c572b","isPayable()":"ce46e046","makeStatement((address,bytes,(bytes32,(address,uint64,bool,bytes32,bytes,uint256))),uint64)":"73504511","makeStatementFor((address,bytes,(bytes32,(address,uint64,bool,bytes32,bytes,uint256))),uint64,address)":"aed29285","multiAttest((bytes32,bytes32,uint64,uint64,uint64,bytes32,address,address,bool,bytes)[],uint256[])":"91db0b7e","multiRevoke((bytes32,bytes32,uint64,uint64,uint64,bytes32,address,address,bool,bytes)[],uint256[])":"88e5b2d9","revoke((bytes32,bytes32,uint64,uint64,uint64,bytes32,address,address,bool,bytes))":"e49617e1","version()":"54fd4d50"},"id":84}