{"abi":[{"type":"constructor","inputs":[{"name":"_eas","type":"address","internalType":"contract IEAS"},{"name":"_schemaRegistry","type":"address","internalType":"contract ISchemaRegistry"}],"stateMutability":"nonpayable"},{"type":"receive","stateMutability":"payable"},{"type":"function","name":"ATTESTATION_SCHEMA","inputs":[],"outputs":[{"name":"","type":"bytes32","internalType":"bytes32"}],"stateMutability":"view"},{"type":"function","name":"attest","inputs":[{"name":"attestation","type":"tuple","internalType":"struct Attestation","components":[{"name":"uid","type":"bytes32","internalType":"bytes32"},{"name":"schema","type":"bytes32","internalType":"bytes32"},{"name":"time","type":"uint64","internalType":"uint64"},{"name":"expirationTime","type":"uint64","internalType":"uint64"},{"name":"revocationTime","type":"uint64","internalType":"uint64"},{"name":"refUID","type":"bytes32","internalType":"bytes32"},{"name":"recipient","type":"address","internalType":"address"},{"name":"attester","type":"address","internalType":"address"},{"name":"revocable","type":"bool","internalType":"bool"},{"name":"data","type":"bytes","internalType":"bytes"}]}],"outputs":[{"name":"","type":"bool","internalType":"bool"}],"stateMutability":"payable"},{"type":"function","name":"checkStatement","inputs":[{"name":"statement","type":"tuple","internalType":"struct Attestation","components":[{"name":"uid","type":"bytes32","internalType":"bytes32"},{"name":"schema","type":"bytes32","internalType":"bytes32"},{"name":"time","type":"uint64","internalType":"uint64"},{"name":"expirationTime","type":"uint64","internalType":"uint64"},{"name":"revocationTime","type":"uint64","internalType":"uint64"},{"name":"refUID","type":"bytes32","internalType":"bytes32"},{"name":"recipient","type":"address","internalType":"address"},{"name":"attester","type":"address","internalType":"address"},{"name":"revocable","type":"bool","internalType":"bool"},{"name":"data","type":"bytes","internalType":"bytes"}]},{"name":"demand","type":"bytes","internalType":"bytes"},{"name":"","type":"bytes32","internalType":"bytes32"}],"outputs":[{"name":"","type":"bool","internalType":"bool"}],"stateMutability":"view"},{"type":"function","name":"collectPayment","inputs":[{"name":"_escrow","type":"bytes32","internalType":"bytes32"},{"name":"_fulfillment","type":"bytes32","internalType":"bytes32"}],"outputs":[{"name":"","type":"bytes32","internalType":"bytes32"}],"stateMutability":"nonpayable"},{"type":"function","name":"getSchema","inputs":[],"outputs":[{"name":"","type":"tuple","internalType":"struct SchemaRecord","components":[{"name":"uid","type":"bytes32","internalType":"bytes32"},{"name":"resolver","type":"address","internalType":"contract ISchemaResolver"},{"name":"revocable","type":"bool","internalType":"bool"},{"name":"schema","type":"string","internalType":"string"}]}],"stateMutability":"view"},{"type":"function","name":"getStatement","inputs":[{"name":"uid","type":"bytes32","internalType":"bytes32"}],"outputs":[{"name":"","type":"tuple","internalType":"struct Attestation","components":[{"name":"uid","type":"bytes32","internalType":"bytes32"},{"name":"schema","type":"bytes32","internalType":"bytes32"},{"name":"time","type":"uint64","internalType":"uint64"},{"name":"expirationTime","type":"uint64","internalType":"uint64"},{"name":"revocationTime","type":"uint64","internalType":"uint64"},{"name":"refUID","type":"bytes32","internalType":"bytes32"},{"name":"recipient","type":"address","internalType":"address"},{"name":"attester","type":"address","internalType":"address"},{"name":"revocable","type":"bool","internalType":"bool"},{"name":"data","type":"bytes","internalType":"bytes"}]}],"stateMutability":"view"},{"type":"function","name":"isPayable","inputs":[],"outputs":[{"name":"","type":"bool","internalType":"bool"}],"stateMutability":"pure"},{"type":"function","name":"makeStatement","inputs":[{"name":"data","type":"tuple","internalType":"struct AttestationEscrowObligation.StatementData","components":[{"name":"arbiter","type":"address","internalType":"address"},{"name":"demand","type":"bytes","internalType":"bytes"},{"name":"attestation","type":"tuple","internalType":"struct AttestationRequest","components":[{"name":"schema","type":"bytes32","internalType":"bytes32"},{"name":"data","type":"tuple","internalType":"struct AttestationRequestData","components":[{"name":"recipient","type":"address","internalType":"address"},{"name":"expirationTime","type":"uint64","internalType":"uint64"},{"name":"revocable","type":"bool","internalType":"bool"},{"name":"refUID","type":"bytes32","internalType":"bytes32"},{"name":"data","type":"bytes","internalType":"bytes"},{"name":"value","type":"uint256","internalType":"uint256"}]}]}]},{"name":"expirationTime","type":"uint64","internalType":"uint64"}],"outputs":[{"name":"uid_","type":"bytes32","internalType":"bytes32"}],"stateMutability":"nonpayable"},{"type":"function","name":"makeStatementFor","inputs":[{"name":"data","type":"tuple","internalType":"struct AttestationEscrowObligation.StatementData","components":[{"name":"arbiter","type":"address","internalType":"address"},{"name":"demand","type":"bytes","internalType":"bytes"},{"name":"attestation","type":"tuple","internalType":"struct AttestationRequest","components":[{"name":"schema","type":"bytes32","internalType":"bytes32"},{"name":"data","type":"tuple","internalType":"struct AttestationRequestData","components":[{"name":"recipient","type":"address","internalType":"address"},{"name":"expirationTime","type":"uint64","internalType":"uint64"},{"name":"revocable","type":"bool","internalType":"bool"},{"name":"refUID","type":"bytes32","internalType":"bytes32"},{"name":"data","type":"bytes","internalType":"bytes"},{"name":"value","type":"uint256","internalType":"uint256"}]}]}]},{"name":"expirationTime","type":"uint64","internalType":"uint64"},{"name":"recipient","type":"address","internalType":"address"}],"outputs":[{"name":"uid_","type":"bytes32","internalType":"bytes32"}],"stateMutability":"nonpayable"},{"type":"function","name":"multiAttest","inputs":[{"name":"attestations","type":"tuple[]","internalType":"struct Attestation[]","components":[{"name":"uid","type":"bytes32","internalType":"bytes32"},{"name":"schema","type":"bytes32","internalType":"bytes32"},{"name":"time","type":"uint64","internalType":"uint64"},{"name":"expirationTime","type":"uint64","internalType":"uint64"},{"name":"revocationTime","type":"uint64","internalType":"uint64"},{"name":"refUID","type":"bytes32","internalType":"bytes32"},{"name":"recipient","type":"address","internalType":"address"},{"name":"attester","type":"address","internalType":"address"},{"name":"revocable","type":"bool","internalType":"bool"},{"name":"data","type":"bytes","internalType":"bytes"}]},{"name":"values","type":"uint256[]","internalType":"uint256[]"}],"outputs":[{"name":"","type":"bool","internalType":"bool"}],"stateMutability":"payable"},{"type":"function","name":"multiRevoke","inputs":[{"name":"attestations","type":"tuple[]","internalType":"struct Attestation[]","components":[{"name":"uid","type":"bytes32","internalType":"bytes32"},{"name":"schema","type":"bytes32","internalType":"bytes32"},{"name":"time","type":"uint64","internalType":"uint64"},{"name":"expirationTime","type":"uint64","internalType":"uint64"},{"name":"revocationTime","type":"uint64","internalType":"uint64"},{"name":"refUID","type":"bytes32","internalType":"bytes32"},{"name":"recipient","type":"address","internalType":"address"},{"name":"attester","type":"address","internalType":"address"},{"name":"revocable","type":"bool","internalType":"bool"},{"name":"data","type":"bytes","internalType":"bytes"}]},{"name":"values","type":"uint256[]","internalType":"uint256[]"}],"outputs":[{"name":"","type":"bool","internalType":"bool"}],"stateMutability":"payable"},{"type":"function","name":"revoke","inputs":[{"name":"attestation","type":"tuple","internalType":"struct Attestation","components":[{"name":"uid","type":"bytes32","internalType":"bytes32"},{"name":"schema","type":"bytes32","internalType":"bytes32"},{"name":"time","type":"uint64","internalType":"uint64"},{"name":"expirationTime","type":"uint64","internalType":"uint64"},{"name":"revocationTime","type":"uint64","internalType":"uint64"},{"name":"refUID","type":"bytes32","internalType":"bytes32"},{"name":"recipient","type":"address","internalType":"address"},{"name":"attester","type":"address","internalType":"address"},{"name":"revocable","type":"bool","internalType":"bool"},{"name":"data","type":"bytes","internalType":"bytes"}]}],"outputs":[{"name":"","type":"bool","internalType":"bool"}],"stateMutability":"payable"},{"type":"function","name":"version","inputs":[],"outputs":[{"name":"","type":"string","internalType":"string"}],"stateMutability":"view"},{"type":"event","name":"EscrowClaimed","inputs":[{"name":"payment","type":"bytes32","indexed":true,"internalType":"bytes32"},{"name":"fulfillment","type":"bytes32","indexed":true,"internalType":"bytes32"},{"name":"fulfiller","type":"address","indexed":true,"internalType":"address"}],"anonymous":false},{"type":"event","name":"EscrowMade","inputs":[{"name":"payment","type":"bytes32","indexed":true,"internalType":"bytes32"},{"name":"buyer","type":"address","indexed":true,"internalType":"address"}],"anonymous":false},{"type":"error","name":"AccessDenied","inputs":[]},{"type":"error","name":"AttestationRevoked","inputs":[]},{"type":"error","name":"DeadlineExpired","inputs":[]},{"type":"error","name":"InsufficientValue","inputs":[]},{"type":"error","name":"InvalidEAS","inputs":[]},{"type":"error","name":"InvalidEscrowAttestation","inputs":[]},{"type":"error","name":"InvalidFulfillment","inputs":[]},{"type":"error","name":"InvalidLength","inputs":[]},{"type":"error","name":"InvalidSchema","inputs":[]},{"type":"error","name":"NotFromStatement","inputs":[]},{"type":"error","name":"NotPayable","inputs":[]},{"type":"error","name":"UnauthorizedCall","inputs":[]}],"bytecode":{"object":"0x610160806040523461027d5760408161198a803803809161002082856102b7565b83398101031261027d5780516001600160a01b0381169182820361027d5760200151916001600160a01b03831680840361027d5760405160e081016001600160401b038111828210176102a35760405260b1815260208101927f7475706c65286279746573333220736368656d612c207475706c65286164647284527f65737320726563697069656e742c2075696e7436342065787069726174696f6e60408301527f54696d652c20626f6f6c207265766f6361626c652c206279746573333220726560608301527f665549442c20627974657320646174612c2075696e743235362076616c75652960808301527f206461746129206174746573746174696f6e2c2061646472657373206172626960a0830152701d195c8b08189e5d195cc819195b585b99607a1b60c08301526001608052600360a0525f60c05215610294576084948460209560e05261012052610100525f604051958680958194630c1af44f60e31b8352606060048401525180918160648501528484015e818101830184905230602483015260016044830152601f01601f191681010301925af1908115610289575f91610253575b50610140526040516116af90816102db823960805181610514015260a05181610540015260c0518161056b015260e051816116210152610100518161024e0152610120518181816104080152818161062201526113c301526101405181818161021c01528181610440015281816104d10152818161074e01528181610f46015261137f0152f35b90506020813d602011610281575b8161026e602093836102b7565b8101031261027d57515f6101cc565b5f80fd5b3d9150610261565b6040513d5f823e3d90fd5b6341bc07ff60e11b5f5260045ffd5b634e487b7160e01b5f52604160045260245ffd5b601f909101601f19168101906001600160401b038211908210176102a35760405256fe6080806040526004361015610029575b50361561001a575f80fd5b631574f9f360e01b5f5260045ffd5b5f5f3560e01c9182631272ff8b1461092d5750816330088bc9146105f857816354fd4d50146104f45781635bf2f20d146104ba5781635cc02d2f1461038d5781636b122fe0146101dc578163735045111461019357816388e5b2d91461017457816391db0b7e14610174578163aed2928514610109578163ce46e046146100eb57508063e49617e1146100c65763e60c3505146100c6575f61000f565b60206100e16100d436610cd3565b6100dc61161f565b611660565b6040519015158152f35b34610106578060031936011261010657602090604051908152f35b80fd5b34610106576060366003190112610106576004356001600160401b038111610170576060600319823603011261017057610141610ae1565b604435929091906001600160a01b038416840361010657602061016885858560040161121c565b604051908152f35b5080fd5b60206100e161018236610c83565b9261018e92919261161f565b611127565b3461010657604036600319011261010657600435906001600160401b0382116101065760606003198336030112610106576020610168836101d2610ae1565b339160040161121c565b346101065780600319360112610106576060806040516101fb81610a8a565b8381528360208201528360408201520152604051906351753e3760e11b82527f00000000000000000000000000000000000000000000000000000000000000006004830152808260248160018060a01b037f0000000000000000000000000000000000000000000000000000000000000000165afa9081156103815780916102c8575b6060826102c4604051928392602084528051602085015260018060a01b0360208201511660408501526040810151151582850152015160808084015260a0830190610b8d565b0390f35b90503d8082843e6102d98184610ac0565b820191602081840312610170578051906001600160401b03821161037d570190608082840312610106576040519161031083610a8a565b8051835260208101516001600160a01b038116810361037d57602084015261033a60408201610d7f565b60408401526060810151906001600160401b03821161037d57019083601f83011215610106575060609281602061037393519101610d1b565b828201528261027e565b8280fd5b604051903d90823e3d90fd5b346101065760203660031901126101065760606101206040516103af81610a3f565b83815283602082015283604082015283838201528360808201528360a08201528360c08201528360e0820152836101008201520152604051906328c44a9960e21b82526004356004830152808260248160018060a01b037f0000000000000000000000000000000000000000000000000000000000000000165afa9182156104ad578192610489575b5060208201517f00000000000000000000000000000000000000000000000000000000000000000361047a57604051602080825281906102c490820185610bb1565b63295d5f3960e01b8152600490fd5b6104a69192503d8084833e61049e8183610ac0565b81019061104c565b9082610438565b50604051903d90823e3d90fd5b3461010657806003193601126101065760206040517f00000000000000000000000000000000000000000000000000000000000000008152f35b3461010657806003193601126101065760206105e460016102c4936105387f00000000000000000000000000000000000000000000000000000000000000006114b2565b9082856105647f00000000000000000000000000000000000000000000000000000000000000006114b2565b818061058f7f00000000000000000000000000000000000000000000000000000000000000006114b2565b926040519a888c995191829101848b015e880190601760f91b83830152805192839101602183015e010190601760f91b84830152805192839101600283015e010190838201520301601f198101835282610ac0565b604051918291602083526020830190610b8d565b3461085b57604036600319011261085b576040516328c44a9960e21b8152600480359082018190527f00000000000000000000000000000000000000000000000000000000000000006001600160a01b031692919060248035905f90849081885afa928315610892575f93610911575b506040516328c44a9960e21b815260048101829052925f84602481895afa938415610892575f946108f5575b5061069e81611457565b156108e6576106bb61012082015160208082518301019101610d8c565b90602061070c60018060a01b0384511682850151935193604051809581948293631272ff8b60e01b8452606060048501526106fa8d6064860190610bb1565b84810360031901602486015290610b8d565b90604483015203915afa908115610892575f916108ac575b501561089d5760405161073681610a6f565b8381525f60208201526040519061074c82610a6f565b7f0000000000000000000000000000000000000000000000000000000000000000825260208201908152873b1561085b57604051634692626760e01b81529151600483015251805160248301526020015160448201525f81606481838b5af1801561089257610872575b506107df85966040602093015160405198898094819363f17325e760e01b835260048301610ece565b03925af192831561086757849361082e575b6020955060c060018060a01b0391015116917fd903ca32e81477af89f5b8a6ce888d185cc715390e49474a77b4c6846254cccd6040519580a48152f35b92506020853d60201161085f575b8161084960209383610ac0565b8101031261085b5760209451926107f1565b5f80fd5b3d915061083c565b6040513d86823e3d90fd5b60209195506040966108875f6107df93610ac0565b5f96925096506107b6565b6040513d5f823e3d90fd5b630ebe58ef60e11b5f5260045ffd5b90506020813d6020116108de575b816108c760209383610ac0565b8101031261085b576108d890610d7f565b87610724565b3d91506108ba565b63629cd40b60e11b5f5260045ffd5b61090a9194503d805f833e61049e8183610ac0565b9286610694565b6109269193503d805f833e61049e8183610ac0565b9185610668565b3461085b57606036600319011261085b576004356001600160401b03811161085b57610140600319823603011261085b5761096782610a3f565b806004013582526024810135602083015261098460448201610af7565b604083015261099560648201610af7565b60608301526109a660848201610af7565b608083015260a481013560a08301526109c160c48201610b0b565b60c08301526109d260e48201610b0b565b60e08301526109e46101048201610b1f565b610100830152610124810135906001600160401b03821161085b576004610a0e9236920101610b47565b6101208201526024356001600160401b03811161085b57602091610a396100e1923690600401610b47565b90610f44565b61014081019081106001600160401b03821117610a5b57604052565b634e487b7160e01b5f52604160045260245ffd5b604081019081106001600160401b03821117610a5b57604052565b608081019081106001600160401b03821117610a5b57604052565b60c081019081106001600160401b03821117610a5b57604052565b90601f801991011681019081106001600160401b03821117610a5b57604052565b602435906001600160401b038216820361085b57565b35906001600160401b038216820361085b57565b35906001600160a01b038216820361085b57565b3590811515820361085b57565b6001600160401b038111610a5b57601f01601f191660200190565b81601f8201121561085b57803590610b5e82610b2c565b92610b6c6040519485610ac0565b8284526020838301011161085b57815f926020809301838601378301015290565b805180835260209291819084018484015e5f828201840152601f01601f1916010190565b90610140610120610c509380518452602081015160208501526001600160401b0360408201511660408501526001600160401b0360608201511660608501526001600160401b03608082015116608085015260a081015160a085015260018060a01b0360c08201511660c085015260018060a01b0360e08201511660e08501526101008101511515610100850152015191816101208201520190610b8d565b90565b9181601f8401121561085b578235916001600160401b03831161085b576020808501948460051b01011161085b57565b604060031982011261085b576004356001600160401b03811161085b5781610cad91600401610c53565b92909291602435906001600160401b03821161085b57610ccf91600401610c53565b9091565b602060031982011261085b57600435906001600160401b03821161085b5761014090829003600319011261085b5760040190565b51906001600160a01b038216820361085b57565b929192610d2782610b2c565b91610d356040519384610ac0565b82948184528183011161085b578281602093845f96015e010152565b9080601f8301121561085b578151610c5092602001610d1b565b51906001600160401b038216820361085b57565b5190811515820361085b57565b60208183031261085b578051906001600160401b03821161085b57019060608282031261085b5760405191606083018381106001600160401b03821117610a5b57604052610dd981610d07565b835260208101516001600160401b03811161085b5782610dfa918301610d51565b60208401526040810151906001600160401b03821161085b57019060408282031261085b5760405191610e2c83610a6f565b805183526020810151906001600160401b03821161085b57019060c08282031261085b5760405191610e5d83610aa5565b610e6681610d07565b8352610e7460208201610d6b565b6020840152610e8560408201610d7f565b60408401526060810151606084015260808101516001600160401b03811161085b5760a092610eb5918301610d51565b6080840152015160a08201526020820152604082015290565b9060209081835280518284015201519060408082015260018060a01b0382511660608201526001600160401b0360208301511660808201526040820151151560a0820152606082015160c082015261010060a0610f3b608085015160c060e0860152610120850190610b8d565b93015191015290565b7f000000000000000000000000000000000000000000000000000000000000000060208201510361103d57610f7881611457565b1561103757610f98610120610fa892015160208082518301019101610d8c565b9160208082518301019101610d8c565b6040820151604051610fd081610fc2602082019485610ece565b03601f198101835282610ac0565b5190206040820151604051610fed81610fc2602082019485610ece565b51902014918261101e575b8261100257505090565b6020919250810151818151910120910151602081519101201490565b805182516001600160a01b039081169116149250610ff8565b50505f90565b635f9bd90760e11b5f5260045ffd5b60208183031261085b578051906001600160401b03821161085b57016101408183031261085b576040519161108083610a3f565b815183526020820151602084015261109a60408301610d6b565b60408401526110ab60608301610d6b565b60608401526110bc60808301610d6b565b608084015260a082015160a08401526110d760c08301610d07565b60c08401526110e860e08301610d07565b60e08401526110fa6101008301610d7f565b6101008401526101208201516001600160401b03811161085b5761111e9201610d51565b61012082015290565b9290928184036111bc575f91345b858410156111b1578184101561119d578360051b808601359082821161118e5784013561013e198536030181121561085b57611172908501611660565b156111835760019103930192611135565b505050505050505f90565b63044044a560e21b5f5260045ffd5b634e487b7160e01b5f52603260045260245ffd5b505050505050600190565b63251f56a160e21b5f5260045ffd5b9035601e198236030181121561085b5701602081359101916001600160401b03821161085b57813603831361085b57565b908060209392818452848401375f828201840152601f01601f1916010190565b60405160208082015293926001600160a01b0361123883610b0b565b16604086015261125e61124e60208401846111cb565b60608089015260a08801916111fc565b916040810135603e198236030181121561085b57868403603f190160808801520180358352602081013595903681900360be190187121561085b5781602094611332926113be99019060408782015260018060a01b036112bd83610b0b565b1660408201526001600160401b036112d6888401610af7565b1660608201526112e860408301610b1f565b15156080820152606082013560a082015260e060a061131e61130d60808601866111cb565b60c0808701526101008601916111fc565b93013591015203601f198101835282610ac0565b6001600160401b036040519261134784610aa5565b60018060a01b0316948584521683830152600160408301525f606083015260808201525f60a08201526040519061137d82610a6f565b7f00000000000000000000000000000000000000000000000000000000000000008252828201526040518095819263f17325e760e01b835260048301610ece565b03815f7f00000000000000000000000000000000000000000000000000000000000000006001600160a01b03165af1928315610892575f93611423575b50827f8f7f2dbafd79125e808bf16a53d7fa4e17b8b6374ced76d946a45f94b7bf4d065f80a3565b9092506020813d60201161144f575b8161143f60209383610ac0565b8101031261085b5751915f6113fb565b3d9150611432565b6001600160401b0360608201511680151590816114a8575b5061149957608001516001600160401b031661148a57600190565b637b6227e960e11b5f5260045ffd5b631ab7da6b60e01b5f5260045ffd5b905042115f61146f565b805f9172184f03e93ff9f4daa797ed6e38ed64bf6a1f0160401b8210156115fc575b806d04ee2d6d415b85acef8100000000600a9210156115e1575b662386f26fc100008110156115cd575b6305f5e1008110156115bc575b6127108110156115ad575b606481101561159f575b1015611594575b600a6021600184019361153985610b2c565b946115476040519687610ac0565b808652611556601f1991610b2c565b013660208701378401015b5f1901916f181899199a1a9b1b9c1cb0b131b232b360811b8282061a835304801561158f57600a9091611561565b505090565b600190910190611527565b606460029104930192611520565b61271060049104930192611516565b6305f5e1006008910493019261150b565b662386f26fc10000601091049301926114fe565b6d04ee2d6d415b85acef8100000000602091049301926114ee565b506040915072184f03e93ff9f4daa797ed6e38ed64bf6a1f0160401b81046114d4565b7f00000000000000000000000000000000000000000000000000000000000000006001600160a01b0316330361165157565b634ca8886760e01b5f5260045ffd5b60e0013560018060a01b03811680910361085b5730149056fea2646970667358221220d131e6f330da9b4ccd09eaeec7e150f99f7f315965f553e2d29e17223e865cf164736f6c634300081b0033","linkReferences":{}},"methodIdentifiers":{"ATTESTATION_SCHEMA()":"5bf2f20d","attest((bytes32,bytes32,uint64,uint64,uint64,bytes32,address,address,bool,bytes))":"e60c3505","checkStatement((bytes32,bytes32,uint64,uint64,uint64,bytes32,address,address,bool,bytes),bytes,bytes32)":"1272ff8b","collectPayment(bytes32,bytes32)":"30088bc9","getSchema()":"6b122fe0","getStatement(bytes32)":"5cc02d2f","isPayable()":"ce46e046","makeStatement((address,bytes,(bytes32,(address,uint64,bool,bytes32,bytes,uint256))),uint64)":"73504511","makeStatementFor((address,bytes,(bytes32,(address,uint64,bool,bytes32,bytes,uint256))),uint64,address)":"aed29285","multiAttest((bytes32,bytes32,uint64,uint64,uint64,bytes32,address,address,bool,bytes)[],uint256[])":"91db0b7e","multiRevoke((bytes32,bytes32,uint64,uint64,uint64,bytes32,address,address,bool,bytes)[],uint256[])":"88e5b2d9","revoke((bytes32,bytes32,uint64,uint64,uint64,bytes32,address,address,bool,bytes))":"e49617e1","version()":"54fd4d50"},"id":72}