{"abi":[{"type":"constructor","inputs":[{"name":"_eas","type":"address","internalType":"contract IEAS"},{"name":"_schemaRegistry","type":"address","internalType":"contract ISchemaRegistry"}],"stateMutability":"nonpayable"},{"type":"receive","stateMutability":"payable"},{"type":"function","name":"ATTESTATION_SCHEMA","inputs":[],"outputs":[{"name":"","type":"bytes32","internalType":"bytes32"}],"stateMutability":"view"},{"type":"function","name":"attest","inputs":[{"name":"attestation","type":"tuple","internalType":"struct Attestation","components":[{"name":"uid","type":"bytes32","internalType":"bytes32"},{"name":"schema","type":"bytes32","internalType":"bytes32"},{"name":"time","type":"uint64","internalType":"uint64"},{"name":"expirationTime","type":"uint64","internalType":"uint64"},{"name":"revocationTime","type":"uint64","internalType":"uint64"},{"name":"refUID","type":"bytes32","internalType":"bytes32"},{"name":"recipient","type":"address","internalType":"address"},{"name":"attester","type":"address","internalType":"address"},{"name":"revocable","type":"bool","internalType":"bool"},{"name":"data","type":"bytes","internalType":"bytes"}]}],"outputs":[{"name":"","type":"bool","internalType":"bool"}],"stateMutability":"payable"},{"type":"function","name":"checkStatement","inputs":[{"name":"statement","type":"tuple","internalType":"struct Attestation","components":[{"name":"uid","type":"bytes32","internalType":"bytes32"},{"name":"schema","type":"bytes32","internalType":"bytes32"},{"name":"time","type":"uint64","internalType":"uint64"},{"name":"expirationTime","type":"uint64","internalType":"uint64"},{"name":"revocationTime","type":"uint64","internalType":"uint64"},{"name":"refUID","type":"bytes32","internalType":"bytes32"},{"name":"recipient","type":"address","internalType":"address"},{"name":"attester","type":"address","internalType":"address"},{"name":"revocable","type":"bool","internalType":"bool"},{"name":"data","type":"bytes","internalType":"bytes"}]},{"name":"demand","type":"bytes","internalType":"bytes"},{"name":"","type":"bytes32","internalType":"bytes32"}],"outputs":[{"name":"","type":"bool","internalType":"bool"}],"stateMutability":"view"},{"type":"function","name":"collectPayment","inputs":[{"name":"_escrow","type":"bytes32","internalType":"bytes32"},{"name":"_fulfillment","type":"bytes32","internalType":"bytes32"}],"outputs":[{"name":"","type":"bytes32","internalType":"bytes32"}],"stateMutability":"nonpayable"},{"type":"function","name":"getSchema","inputs":[],"outputs":[{"name":"","type":"tuple","internalType":"struct SchemaRecord","components":[{"name":"uid","type":"bytes32","internalType":"bytes32"},{"name":"resolver","type":"address","internalType":"contract ISchemaResolver"},{"name":"revocable","type":"bool","internalType":"bool"},{"name":"schema","type":"string","internalType":"string"}]}],"stateMutability":"view"},{"type":"function","name":"getStatement","inputs":[{"name":"uid","type":"bytes32","internalType":"bytes32"}],"outputs":[{"name":"","type":"tuple","internalType":"struct Attestation","components":[{"name":"uid","type":"bytes32","internalType":"bytes32"},{"name":"schema","type":"bytes32","internalType":"bytes32"},{"name":"time","type":"uint64","internalType":"uint64"},{"name":"expirationTime","type":"uint64","internalType":"uint64"},{"name":"revocationTime","type":"uint64","internalType":"uint64"},{"name":"refUID","type":"bytes32","internalType":"bytes32"},{"name":"recipient","type":"address","internalType":"address"},{"name":"attester","type":"address","internalType":"address"},{"name":"revocable","type":"bool","internalType":"bool"},{"name":"data","type":"bytes","internalType":"bytes"}]}],"stateMutability":"view"},{"type":"function","name":"isPayable","inputs":[],"outputs":[{"name":"","type":"bool","internalType":"bool"}],"stateMutability":"pure"},{"type":"function","name":"makeStatement","inputs":[{"name":"data","type":"tuple","internalType":"struct AttestationEscrowObligation.StatementData","components":[{"name":"arbiter","type":"address","internalType":"address"},{"name":"demand","type":"bytes","internalType":"bytes"},{"name":"attestation","type":"tuple","internalType":"struct AttestationRequest","components":[{"name":"schema","type":"bytes32","internalType":"bytes32"},{"name":"data","type":"tuple","internalType":"struct AttestationRequestData","components":[{"name":"recipient","type":"address","internalType":"address"},{"name":"expirationTime","type":"uint64","internalType":"uint64"},{"name":"revocable","type":"bool","internalType":"bool"},{"name":"refUID","type":"bytes32","internalType":"bytes32"},{"name":"data","type":"bytes","internalType":"bytes"},{"name":"value","type":"uint256","internalType":"uint256"}]}]}]},{"name":"expirationTime","type":"uint64","internalType":"uint64"}],"outputs":[{"name":"uid_","type":"bytes32","internalType":"bytes32"}],"stateMutability":"nonpayable"},{"type":"function","name":"makeStatementFor","inputs":[{"name":"data","type":"tuple","internalType":"struct AttestationEscrowObligation.StatementData","components":[{"name":"arbiter","type":"address","internalType":"address"},{"name":"demand","type":"bytes","internalType":"bytes"},{"name":"attestation","type":"tuple","internalType":"struct AttestationRequest","components":[{"name":"schema","type":"bytes32","internalType":"bytes32"},{"name":"data","type":"tuple","internalType":"struct AttestationRequestData","components":[{"name":"recipient","type":"address","internalType":"address"},{"name":"expirationTime","type":"uint64","internalType":"uint64"},{"name":"revocable","type":"bool","internalType":"bool"},{"name":"refUID","type":"bytes32","internalType":"bytes32"},{"name":"data","type":"bytes","internalType":"bytes"},{"name":"value","type":"uint256","internalType":"uint256"}]}]}]},{"name":"expirationTime","type":"uint64","internalType":"uint64"},{"name":"recipient","type":"address","internalType":"address"}],"outputs":[{"name":"uid_","type":"bytes32","internalType":"bytes32"}],"stateMutability":"nonpayable"},{"type":"function","name":"multiAttest","inputs":[{"name":"attestations","type":"tuple[]","internalType":"struct Attestation[]","components":[{"name":"uid","type":"bytes32","internalType":"bytes32"},{"name":"schema","type":"bytes32","internalType":"bytes32"},{"name":"time","type":"uint64","internalType":"uint64"},{"name":"expirationTime","type":"uint64","internalType":"uint64"},{"name":"revocationTime","type":"uint64","internalType":"uint64"},{"name":"refUID","type":"bytes32","internalType":"bytes32"},{"name":"recipient","type":"address","internalType":"address"},{"name":"attester","type":"address","internalType":"address"},{"name":"revocable","type":"bool","internalType":"bool"},{"name":"data","type":"bytes","internalType":"bytes"}]},{"name":"values","type":"uint256[]","internalType":"uint256[]"}],"outputs":[{"name":"","type":"bool","internalType":"bool"}],"stateMutability":"payable"},{"type":"function","name":"multiRevoke","inputs":[{"name":"attestations","type":"tuple[]","internalType":"struct Attestation[]","components":[{"name":"uid","type":"bytes32","internalType":"bytes32"},{"name":"schema","type":"bytes32","internalType":"bytes32"},{"name":"time","type":"uint64","internalType":"uint64"},{"name":"expirationTime","type":"uint64","internalType":"uint64"},{"name":"revocationTime","type":"uint64","internalType":"uint64"},{"name":"refUID","type":"bytes32","internalType":"bytes32"},{"name":"recipient","type":"address","internalType":"address"},{"name":"attester","type":"address","internalType":"address"},{"name":"revocable","type":"bool","internalType":"bool"},{"name":"data","type":"bytes","internalType":"bytes"}]},{"name":"values","type":"uint256[]","internalType":"uint256[]"}],"outputs":[{"name":"","type":"bool","internalType":"bool"}],"stateMutability":"payable"},{"type":"function","name":"revoke","inputs":[{"name":"attestation","type":"tuple","internalType":"struct Attestation","components":[{"name":"uid","type":"bytes32","internalType":"bytes32"},{"name":"schema","type":"bytes32","internalType":"bytes32"},{"name":"time","type":"uint64","internalType":"uint64"},{"name":"expirationTime","type":"uint64","internalType":"uint64"},{"name":"revocationTime","type":"uint64","internalType":"uint64"},{"name":"refUID","type":"bytes32","internalType":"bytes32"},{"name":"recipient","type":"address","internalType":"address"},{"name":"attester","type":"address","internalType":"address"},{"name":"revocable","type":"bool","internalType":"bool"},{"name":"data","type":"bytes","internalType":"bytes"}]}],"outputs":[{"name":"","type":"bool","internalType":"bool"}],"stateMutability":"payable"},{"type":"function","name":"version","inputs":[],"outputs":[{"name":"","type":"string","internalType":"string"}],"stateMutability":"view"},{"type":"event","name":"EscrowClaimed","inputs":[{"name":"payment","type":"bytes32","indexed":true,"internalType":"bytes32"},{"name":"fulfillment","type":"bytes32","indexed":true,"internalType":"bytes32"},{"name":"fulfiller","type":"address","indexed":true,"internalType":"address"}],"anonymous":false},{"type":"event","name":"EscrowMade","inputs":[{"name":"payment","type":"bytes32","indexed":true,"internalType":"bytes32"},{"name":"buyer","type":"address","indexed":true,"internalType":"address"}],"anonymous":false},{"type":"error","name":"AccessDenied","inputs":[]},{"type":"error","name":"AttestationCreationFailed","inputs":[]},{"type":"error","name":"AttestationNotFound","inputs":[{"name":"attestationId","type":"bytes32","internalType":"bytes32"}]},{"type":"error","name":"AttestationRevoked","inputs":[]},{"type":"error","name":"DeadlineExpired","inputs":[]},{"type":"error","name":"InsufficientValue","inputs":[]},{"type":"error","name":"InvalidEAS","inputs":[]},{"type":"error","name":"InvalidEscrowAttestation","inputs":[]},{"type":"error","name":"InvalidFulfillment","inputs":[]},{"type":"error","name":"InvalidLength","inputs":[]},{"type":"error","name":"InvalidSchema","inputs":[]},{"type":"error","name":"NotFromStatement","inputs":[]},{"type":"error","name":"NotPayable","inputs":[]},{"type":"error","name":"RevocationFailed","inputs":[{"name":"attestationId","type":"bytes32","internalType":"bytes32"}]},{"type":"error","name":"UnauthorizedCall","inputs":[]}],"bytecode":{"object":"0x610160806040523461027d576040816119da803803809161002082856102b7565b83398101031261027d5780516001600160a01b0381169182820361027d5760200151916001600160a01b03831680840361027d5760405160e081016001600160401b038111828210176102a35760405260b1815260208101927f7475706c65286279746573333220736368656d612c207475706c65286164647284527f65737320726563697069656e742c2075696e7436342065787069726174696f6e60408301527f54696d652c20626f6f6c207265766f6361626c652c206279746573333220726560608301527f665549442c20627974657320646174612c2075696e743235362076616c75652960808301527f206461746129206174746573746174696f6e2c2061646472657373206172626960a0830152701d195c8b08189e5d195cc819195b585b99607a1b60c08301526001608052600360a0525f60c05215610294576084948460209560e05261012052610100525f604051958680958194630c1af44f60e31b8352606060048401525180918160648501528484015e818101830184905230602483015260016044830152601f01601f191681010301925af1908115610289575f91610253575b50610140526040516116ff90816102db8239608051816104d8015260a05181610504015260c0518161052f015260e051816116710152610100518161024e0152610120518181816103c4015281816105fc015261141301526101405181818161021c01528181610404015281816104950152818161074601528181610f4c01526113cf0152f35b90506020813d602011610281575b8161026e602093836102b7565b8101031261027d57515f6101cc565b5f80fd5b3d9150610261565b6040513d5f823e3d90fd5b6341bc07ff60e11b5f5260045ffd5b634e487b7160e01b5f52604160045260245ffd5b601f909101601f19168101906001600160401b038211908210176102a35760405256fe6080806040526004361015610029575b50361561001a575f80fd5b631574f9f360e01b5f5260045ffd5b5f5f3560e01c9182631272ff8b146109335750816330088bc9146105bc57816354fd4d50146104b85781635bf2f20d1461047e5781635cc02d2f1461038d5781636b122fe0146101dc578163735045111461019357816388e5b2d91461017457816391db0b7e14610174578163aed2928514610109578163ce46e046146100eb57508063e49617e1146100c65763e60c3505146100c6575f61000f565b60206100e16100d436610cd9565b6100dc61166f565b6116b0565b6040519015158152f35b34610106578060031936011261010657602090604051908152f35b80fd5b34610106576060366003190112610106576004356001600160401b038111610170576060600319823603011261017057610141610ae7565b604435929091906001600160a01b038416840361010657602061016885858560040161126c565b604051908152f35b5080fd5b60206100e161018236610c89565b9261018e92919261166f565b611177565b3461010657604036600319011261010657600435906001600160401b0382116101065760606003198336030112610106576020610168836101d2610ae7565b339160040161126c565b346101065780600319360112610106576060806040516101fb81610a90565b8381528360208201528360408201520152604051906351753e3760e11b82527f00000000000000000000000000000000000000000000000000000000000000006004830152808260248160018060a01b037f0000000000000000000000000000000000000000000000000000000000000000165afa9081156103815780916102c8575b6060826102c4604051928392602084528051602085015260018060a01b0360208201511660408501526040810151151582850152015160808084015260a0830190610b93565b0390f35b90503d8082843e6102d98184610ac6565b820191602081840312610170578051906001600160401b03821161037d570190608082840312610106576040519161031083610a90565b8051835260208101516001600160a01b038116810361037d57602084015261033a60408201610d85565b60408401526060810151906001600160401b03821161037d57019083601f83011215610106575060609281602061037393519101610d21565b828201528261027e565b8280fd5b604051903d90823e3d90fd5b34610106576020366003190112610106576103a6611052565b506040516328c44a9960e21b815260048035908201529080826024817f00000000000000000000000000000000000000000000000000000000000000006001600160a01b03165afa91821561047157819261044d575b5060208201517f00000000000000000000000000000000000000000000000000000000000000000361043e57604051602080825281906102c490820185610bb7565b63295d5f3960e01b8152600490fd5b61046a9192503d8084833e6104628183610ac6565b81019061109c565b90826103fc565b50604051903d90823e3d90fd5b3461010657806003193601126101065760206040517f00000000000000000000000000000000000000000000000000000000000000008152f35b3461010657806003193601126101065760206105a860016102c4936104fc7f0000000000000000000000000000000000000000000000000000000000000000611502565b9082856105287f0000000000000000000000000000000000000000000000000000000000000000611502565b81806105537f0000000000000000000000000000000000000000000000000000000000000000611502565b926040519a888c995191829101848b015e880190601760f91b83830152805192839101602183015e010190601760f91b84830152805192839101600283015e010190838201520301601f198101835282610ac6565b604051918291602083526020830190610b93565b3461087757604036600319011261087757600435602435916105dc611052565b506105e5611052565b506040516328c44a9960e21b8152600481018390527f00000000000000000000000000000000000000000000000000000000000000006001600160a01b0316905f81602481855afa5f9181610917575b5061064d57836301fb6dd160e01b5f5260045260245ffd5b906040516328c44a9960e21b81528560048201525f81602481855afa5f91816108fb575b5061068957856301fb6dd160e01b5f5260045260245ffd5b90859192610696816114a7565b156108ec576106b361012082015160208082518301019101610d92565b90602061070460018060a01b0384511682850151935193604051809581948293631272ff8b60e01b8452606060048501526106f28d6064860190610bb7565b84810360031901602486015290610b93565b90604483015203915afa9081156108e1575f916108a7575b50156108985760405161072e81610a75565b8681525f60208201526040519061074482610a75565b7f0000000000000000000000000000000000000000000000000000000000000000825260208201908152833b1561087757604051634692626760e01b81529151600483015251805160248301526020015160448201525f8160648183875af19081610883575b506107c35763614cf93960e01b85526004869052602485fd5b6107ed859693926040602093015160405198898094819363f17325e760e01b835260048301610ed4565b03925af18095859661084b575b5061080e57638d7100d760e01b8452600484fd5b6020949260c060018060a01b0391015116917fd903ca32e81477af89f5b8a6ce888d185cc715390e49474a77b4c6846254cccd6040519580a48152f35b9095506020813d60201161087b575b8161086760209383610ac6565b81010312610877575194866107fa565b5f80fd5b3d915061085a565b6108909196505f90610ac6565b5f94876107aa565b630ebe58ef60e11b5f5260045ffd5b90506020813d6020116108d9575b816108c260209383610ac6565b81010312610877576108d390610d85565b8761071c565b3d91506108b5565b6040513d5f823e3d90fd5b63629cd40b60e11b5f5260045ffd5b6109109192503d805f833e6104628183610ac6565b9087610671565b61092c9192503d805f833e6104628183610ac6565b9086610635565b34610877576060366003190112610877576004356001600160401b0381116108775761014060031982360301126108775761096d82610a45565b806004013582526024810135602083015261098a60448201610afd565b604083015261099b60648201610afd565b60608301526109ac60848201610afd565b608083015260a481013560a08301526109c760c48201610b11565b60c08301526109d860e48201610b11565b60e08301526109ea6101048201610b25565b610100830152610124810135906001600160401b038211610877576004610a149236920101610b4d565b6101208201526024356001600160401b03811161087757602091610a3f6100e1923690600401610b4d565b90610f4a565b61014081019081106001600160401b03821117610a6157604052565b634e487b7160e01b5f52604160045260245ffd5b604081019081106001600160401b03821117610a6157604052565b608081019081106001600160401b03821117610a6157604052565b60c081019081106001600160401b03821117610a6157604052565b90601f801991011681019081106001600160401b03821117610a6157604052565b602435906001600160401b038216820361087757565b35906001600160401b038216820361087757565b35906001600160a01b038216820361087757565b3590811515820361087757565b6001600160401b038111610a6157601f01601f191660200190565b81601f8201121561087757803590610b6482610b32565b92610b726040519485610ac6565b8284526020838301011161087757815f926020809301838601378301015290565b805180835260209291819084018484015e5f828201840152601f01601f1916010190565b90610140610120610c569380518452602081015160208501526001600160401b0360408201511660408501526001600160401b0360608201511660608501526001600160401b03608082015116608085015260a081015160a085015260018060a01b0360c08201511660c085015260018060a01b0360e08201511660e08501526101008101511515610100850152015191816101208201520190610b93565b90565b9181601f84011215610877578235916001600160401b038311610877576020808501948460051b01011161087757565b6040600319820112610877576004356001600160401b0381116108775781610cb391600401610c59565b92909291602435906001600160401b03821161087757610cd591600401610c59565b9091565b602060031982011261087757600435906001600160401b038211610877576101409082900360031901126108775760040190565b51906001600160a01b038216820361087757565b929192610d2d82610b32565b91610d3b6040519384610ac6565b829481845281830111610877578281602093845f96015e010152565b9080601f83011215610877578151610c5692602001610d21565b51906001600160401b038216820361087757565b5190811515820361087757565b602081830312610877578051906001600160401b0382116108775701906060828203126108775760405191606083018381106001600160401b03821117610a6157604052610ddf81610d0d565b835260208101516001600160401b0381116108775782610e00918301610d57565b60208401526040810151906001600160401b0382116108775701906040828203126108775760405191610e3283610a75565b805183526020810151906001600160401b03821161087757019060c0828203126108775760405191610e6383610aab565b610e6c81610d0d565b8352610e7a60208201610d71565b6020840152610e8b60408201610d85565b60408401526060810151606084015260808101516001600160401b0381116108775760a092610ebb918301610d57565b6080840152015160a08201526020820152604082015290565b9060209081835280518284015201519060408082015260018060a01b0382511660608201526001600160401b0360208301511660808201526040820151151560a0820152606082015160c082015261010060a0610f41608085015160c060e0860152610120850190610b93565b93015191015290565b7f000000000000000000000000000000000000000000000000000000000000000060208201510361104357610f7e816114a7565b1561103d57610f9e610120610fae92015160208082518301019101610d92565b9160208082518301019101610d92565b6040820151604051610fd681610fc8602082019485610ed4565b03601f198101835282610ac6565b5190206040820151604051610ff381610fc8602082019485610ed4565b519020149182611024575b8261100857505090565b6020919250810151818151910120910151602081519101201490565b805182516001600160a01b039081169116149250610ffe565b50505f90565b635f9bd90760e11b5f5260045ffd5b6040519061105f82610a45565b6060610120835f81525f60208201525f60408201525f838201525f60808201525f60a08201525f60c08201525f60e08201525f6101008201520152565b602081830312610877578051906001600160401b03821161087757016101408183031261087757604051916110d083610a45565b81518352602082015160208401526110ea60408301610d71565b60408401526110fb60608301610d71565b606084015261110c60808301610d71565b608084015260a082015160a084015261112760c08301610d0d565b60c084015261113860e08301610d0d565b60e084015261114a6101008301610d85565b6101008401526101208201516001600160401b0381116108775761116e9201610d57565b61012082015290565b92909281840361120c575f91345b8584101561120157818410156111ed578360051b80860135908282116111de5784013561013e1985360301811215610877576111c29085016116b0565b156111d35760019103930192611185565b505050505050505f90565b63044044a560e21b5f5260045ffd5b634e487b7160e01b5f52603260045260245ffd5b505050505050600190565b63251f56a160e21b5f5260045ffd5b9035601e19823603018112156108775701602081359101916001600160401b03821161087757813603831361087757565b908060209392818452848401375f828201840152601f01601f1916010190565b60405160208082015293926001600160a01b0361128883610b11565b1660408601526112ae61129e602084018461121b565b60608089015260a088019161124c565b916040810135603e198236030181121561087757868403603f190160808801520180358352602081013595903681900360be190187121561087757816020946113829261140e99019060408782015260018060a01b0361130d83610b11565b1660408201526001600160401b03611326888401610afd565b16606082015261133860408301610b25565b15156080820152606082013560a082015260e060a061136e61135d608086018661121b565b60c08087015261010086019161124c565b93013591015203601f198101835282610ac6565b6001600160401b036040519261139784610aab565b60018060a01b0316948584521683830152600160408301525f606083015260808201525f60a0820152604051906113cd82610a75565b7f00000000000000000000000000000000000000000000000000000000000000008252828201526040518095819263f17325e760e01b835260048301610ed4565b03815f7f00000000000000000000000000000000000000000000000000000000000000006001600160a01b03165af19283156108e1575f93611473575b50827f8f7f2dbafd79125e808bf16a53d7fa4e17b8b6374ced76d946a45f94b7bf4d065f80a3565b9092506020813d60201161149f575b8161148f60209383610ac6565b810103126108775751915f61144b565b3d9150611482565b6001600160401b0360608201511680151590816114f8575b506114e957608001516001600160401b03166114da57600190565b637b6227e960e11b5f5260045ffd5b631ab7da6b60e01b5f5260045ffd5b905042115f6114bf565b805f9172184f03e93ff9f4daa797ed6e38ed64bf6a1f0160401b82101561164c575b806d04ee2d6d415b85acef8100000000600a921015611631575b662386f26fc1000081101561161d575b6305f5e10081101561160c575b6127108110156115fd575b60648110156115ef575b10156115e4575b600a6021600184019361158985610b32565b946115976040519687610ac6565b8086526115a6601f1991610b32565b013660208701378401015b5f1901916f181899199a1a9b1b9c1cb0b131b232b360811b8282061a83530480156115df57600a90916115b1565b505090565b600190910190611577565b606460029104930192611570565b61271060049104930192611566565b6305f5e1006008910493019261155b565b662386f26fc100006010910493019261154e565b6d04ee2d6d415b85acef81000000006020910493019261153e565b506040915072184f03e93ff9f4daa797ed6e38ed64bf6a1f0160401b8104611524565b7f00000000000000000000000000000000000000000000000000000000000000006001600160a01b031633036116a157565b634ca8886760e01b5f5260045ffd5b60e0013560018060a01b0381168091036108775730149056fea2646970667358221220b4b3b2076d228033510053aac6f8bff0c4270ebf6fbb767aefbea9490726ea3b64736f6c634300081b0033","linkReferences":{}},"methodIdentifiers":{"ATTESTATION_SCHEMA()":"5bf2f20d","attest((bytes32,bytes32,uint64,uint64,uint64,bytes32,address,address,bool,bytes))":"e60c3505","checkStatement((bytes32,bytes32,uint64,uint64,uint64,bytes32,address,address,bool,bytes),bytes,bytes32)":"1272ff8b","collectPayment(bytes32,bytes32)":"30088bc9","getSchema()":"6b122fe0","getStatement(bytes32)":"5cc02d2f","isPayable()":"ce46e046","makeStatement((address,bytes,(bytes32,(address,uint64,bool,bytes32,bytes,uint256))),uint64)":"73504511","makeStatementFor((address,bytes,(bytes32,(address,uint64,bool,bytes32,bytes,uint256))),uint64,address)":"aed29285","multiAttest((bytes32,bytes32,uint64,uint64,uint64,bytes32,address,address,bool,bytes)[],uint256[])":"91db0b7e","multiRevoke((bytes32,bytes32,uint64,uint64,uint64,bytes32,address,address,bool,bytes)[],uint256[])":"88e5b2d9","revoke((bytes32,bytes32,uint64,uint64,uint64,bytes32,address,address,bool,bytes))":"e49617e1","version()":"54fd4d50"},"id":51}