{"abi":[{"type":"constructor","inputs":[{"name":"_eas","type":"address","internalType":"contract IEAS"},{"name":"_schemaRegistry","type":"address","internalType":"contract ISchemaRegistry"}],"stateMutability":"nonpayable"},{"type":"receive","stateMutability":"payable"},{"type":"function","name":"ATTESTATION_SCHEMA","inputs":[],"outputs":[{"name":"","type":"bytes32","internalType":"bytes32"}],"stateMutability":"view"},{"type":"function","name":"attest","inputs":[{"name":"attestation","type":"tuple","internalType":"struct Attestation","components":[{"name":"uid","type":"bytes32","internalType":"bytes32"},{"name":"schema","type":"bytes32","internalType":"bytes32"},{"name":"time","type":"uint64","internalType":"uint64"},{"name":"expirationTime","type":"uint64","internalType":"uint64"},{"name":"revocationTime","type":"uint64","internalType":"uint64"},{"name":"refUID","type":"bytes32","internalType":"bytes32"},{"name":"recipient","type":"address","internalType":"address"},{"name":"attester","type":"address","internalType":"address"},{"name":"revocable","type":"bool","internalType":"bool"},{"name":"data","type":"bytes","internalType":"bytes"}]}],"outputs":[{"name":"","type":"bool","internalType":"bool"}],"stateMutability":"payable"},{"type":"function","name":"checkStatement","inputs":[{"name":"statement","type":"tuple","internalType":"struct Attestation","components":[{"name":"uid","type":"bytes32","internalType":"bytes32"},{"name":"schema","type":"bytes32","internalType":"bytes32"},{"name":"time","type":"uint64","internalType":"uint64"},{"name":"expirationTime","type":"uint64","internalType":"uint64"},{"name":"revocationTime","type":"uint64","internalType":"uint64"},{"name":"refUID","type":"bytes32","internalType":"bytes32"},{"name":"recipient","type":"address","internalType":"address"},{"name":"attester","type":"address","internalType":"address"},{"name":"revocable","type":"bool","internalType":"bool"},{"name":"data","type":"bytes","internalType":"bytes"}]},{"name":"demand","type":"bytes","internalType":"bytes"},{"name":"","type":"bytes32","internalType":"bytes32"}],"outputs":[{"name":"","type":"bool","internalType":"bool"}],"stateMutability":"view"},{"type":"function","name":"decodeStatementData","inputs":[{"name":"data","type":"bytes","internalType":"bytes"}],"outputs":[{"name":"","type":"tuple","internalType":"struct ERC721PaymentObligation.StatementData","components":[{"name":"token","type":"address","internalType":"address"},{"name":"tokenId","type":"uint256","internalType":"uint256"},{"name":"payee","type":"address","internalType":"address"}]}],"stateMutability":"pure"},{"type":"function","name":"getSchema","inputs":[],"outputs":[{"name":"","type":"tuple","internalType":"struct SchemaRecord","components":[{"name":"uid","type":"bytes32","internalType":"bytes32"},{"name":"resolver","type":"address","internalType":"contract ISchemaResolver"},{"name":"revocable","type":"bool","internalType":"bool"},{"name":"schema","type":"string","internalType":"string"}]}],"stateMutability":"view"},{"type":"function","name":"getStatement","inputs":[{"name":"uid","type":"bytes32","internalType":"bytes32"}],"outputs":[{"name":"","type":"tuple","internalType":"struct Attestation","components":[{"name":"uid","type":"bytes32","internalType":"bytes32"},{"name":"schema","type":"bytes32","internalType":"bytes32"},{"name":"time","type":"uint64","internalType":"uint64"},{"name":"expirationTime","type":"uint64","internalType":"uint64"},{"name":"revocationTime","type":"uint64","internalType":"uint64"},{"name":"refUID","type":"bytes32","internalType":"bytes32"},{"name":"recipient","type":"address","internalType":"address"},{"name":"attester","type":"address","internalType":"address"},{"name":"revocable","type":"bool","internalType":"bool"},{"name":"data","type":"bytes","internalType":"bytes"}]}],"stateMutability":"view"},{"type":"function","name":"getStatementData","inputs":[{"name":"uid","type":"bytes32","internalType":"bytes32"}],"outputs":[{"name":"","type":"tuple","internalType":"struct ERC721PaymentObligation.StatementData","components":[{"name":"token","type":"address","internalType":"address"},{"name":"tokenId","type":"uint256","internalType":"uint256"},{"name":"payee","type":"address","internalType":"address"}]}],"stateMutability":"view"},{"type":"function","name":"isPayable","inputs":[],"outputs":[{"name":"","type":"bool","internalType":"bool"}],"stateMutability":"pure"},{"type":"function","name":"makeStatement","inputs":[{"name":"data","type":"tuple","internalType":"struct ERC721PaymentObligation.StatementData","components":[{"name":"token","type":"address","internalType":"address"},{"name":"tokenId","type":"uint256","internalType":"uint256"},{"name":"payee","type":"address","internalType":"address"}]}],"outputs":[{"name":"uid_","type":"bytes32","internalType":"bytes32"}],"stateMutability":"nonpayable"},{"type":"function","name":"makeStatementFor","inputs":[{"name":"data","type":"tuple","internalType":"struct ERC721PaymentObligation.StatementData","components":[{"name":"token","type":"address","internalType":"address"},{"name":"tokenId","type":"uint256","internalType":"uint256"},{"name":"payee","type":"address","internalType":"address"}]},{"name":"payer","type":"address","internalType":"address"},{"name":"recipient","type":"address","internalType":"address"}],"outputs":[{"name":"uid_","type":"bytes32","internalType":"bytes32"}],"stateMutability":"nonpayable"},{"type":"function","name":"multiAttest","inputs":[{"name":"attestations","type":"tuple[]","internalType":"struct Attestation[]","components":[{"name":"uid","type":"bytes32","internalType":"bytes32"},{"name":"schema","type":"bytes32","internalType":"bytes32"},{"name":"time","type":"uint64","internalType":"uint64"},{"name":"expirationTime","type":"uint64","internalType":"uint64"},{"name":"revocationTime","type":"uint64","internalType":"uint64"},{"name":"refUID","type":"bytes32","internalType":"bytes32"},{"name":"recipient","type":"address","internalType":"address"},{"name":"attester","type":"address","internalType":"address"},{"name":"revocable","type":"bool","internalType":"bool"},{"name":"data","type":"bytes","internalType":"bytes"}]},{"name":"values","type":"uint256[]","internalType":"uint256[]"}],"outputs":[{"name":"","type":"bool","internalType":"bool"}],"stateMutability":"payable"},{"type":"function","name":"multiRevoke","inputs":[{"name":"attestations","type":"tuple[]","internalType":"struct Attestation[]","components":[{"name":"uid","type":"bytes32","internalType":"bytes32"},{"name":"schema","type":"bytes32","internalType":"bytes32"},{"name":"time","type":"uint64","internalType":"uint64"},{"name":"expirationTime","type":"uint64","internalType":"uint64"},{"name":"revocationTime","type":"uint64","internalType":"uint64"},{"name":"refUID","type":"bytes32","internalType":"bytes32"},{"name":"recipient","type":"address","internalType":"address"},{"name":"attester","type":"address","internalType":"address"},{"name":"revocable","type":"bool","internalType":"bool"},{"name":"data","type":"bytes","internalType":"bytes"}]},{"name":"values","type":"uint256[]","internalType":"uint256[]"}],"outputs":[{"name":"","type":"bool","internalType":"bool"}],"stateMutability":"payable"},{"type":"function","name":"revoke","inputs":[{"name":"attestation","type":"tuple","internalType":"struct Attestation","components":[{"name":"uid","type":"bytes32","internalType":"bytes32"},{"name":"schema","type":"bytes32","internalType":"bytes32"},{"name":"time","type":"uint64","internalType":"uint64"},{"name":"expirationTime","type":"uint64","internalType":"uint64"},{"name":"revocationTime","type":"uint64","internalType":"uint64"},{"name":"refUID","type":"bytes32","internalType":"bytes32"},{"name":"recipient","type":"address","internalType":"address"},{"name":"attester","type":"address","internalType":"address"},{"name":"revocable","type":"bool","internalType":"bool"},{"name":"data","type":"bytes","internalType":"bytes"}]}],"outputs":[{"name":"","type":"bool","internalType":"bool"}],"stateMutability":"payable"},{"type":"function","name":"version","inputs":[],"outputs":[{"name":"","type":"string","internalType":"string"}],"stateMutability":"view"},{"type":"event","name":"PaymentMade","inputs":[{"name":"payment","type":"bytes32","indexed":true,"internalType":"bytes32"},{"name":"buyer","type":"address","indexed":true,"internalType":"address"}],"anonymous":false},{"type":"error","name":"AccessDenied","inputs":[]},{"type":"error","name":"AttestationCreateFailed","inputs":[]},{"type":"error","name":"AttestationRevoked","inputs":[]},{"type":"error","name":"DeadlineExpired","inputs":[]},{"type":"error","name":"ERC721TransferFailed","inputs":[{"name":"token","type":"address","internalType":"address"},{"name":"from","type":"address","internalType":"address"},{"name":"to","type":"address","internalType":"address"},{"name":"tokenId","type":"uint256","internalType":"uint256"}]},{"type":"error","name":"InsufficientValue","inputs":[]},{"type":"error","name":"InvalidEAS","inputs":[]},{"type":"error","name":"InvalidLength","inputs":[]},{"type":"error","name":"InvalidPayment","inputs":[]},{"type":"error","name":"InvalidSchema","inputs":[]},{"type":"error","name":"NotFromStatement","inputs":[]},{"type":"error","name":"NotPayable","inputs":[]}],"bytecode":{"object":"0x61016080604052346101e1576040816115718038038091610020828561021b565b8339810103126101e15780516001600160a01b038116918282036101e15760200151916001600160a01b0383168084036101e157604051606081016001600160401b0381118282101761020757604052602d815260208101927f6164647265737320746f6b656e2c2075696e7432353620746f6b656e49642c2084526c6164647265737320706179656560981b60408301526001608052600360a0525f60c052156101f8576084948460209560e05261012052610100525f604051958680958194630c1af44f60e31b8352606060048401525180918160648501528484015e818101830184905230602483015260016044830152601f01601f191681010301925af19081156101ed575f916101b7575b5061014052604051611332908161023f823960805181610710015260a0518161073b015260c05181610766015260e0518161129b015261010051816103ed0152610120518181816102700152818161058c015261106e0152610140518181816102b0015281816103bb015281816105c5015281816106ce015281816109240152610fc10152f35b90506020813d6020116101e5575b816101d26020938361021b565b810103126101e157515f610130565b5f80fd5b3d91506101c5565b6040513d5f823e3d90fd5b6341bc07ff60e11b5f5260045ffd5b634e487b7160e01b5f52604160045260245ffd5b601f909101601f19168101906001600160401b038211908210176102075760405256fe6080806040526004361015610029575b50361561001a575f80fd5b631574f9f360e01b5f5260045ffd5b5f3560e01c9081631272ff8b146108105750806318e9f307146107f357806354fd4d50146106f15780635bf2f20d146106b75780635cc02d2f146105125780636b122fe01461037c57806388e5b2d91461035d57806391db0b7e1461035d578063c75c572b1461023a578063ce46e04614610220578063e112ea081461014c578063e49617e114610127578063e60c3505146101275763fba22190146100cf575f61000f565b3461012357366003190160a0811261012357606013610123576064356001600160a01b038116810361012357608435906001600160a01b03821682036101235760209161011b91610e6c565b604051908152f35b5f80fd5b602061014261013536610bde565b61013d611299565b6112da565b6040519015158152f35b34610123576020366003190112610123576004356001600160401b03811161012357366023820112156101235780600401356001600160401b038111610123578101366024820111610123576060906101a3610e4e565b50829003126101235761021c906101e06064604051926101c284610a75565b6101ce60248201610ac5565b84526044810135602085015201610ac5565b6040828101918252805183516001600160a01b039081168252602094850151948201949094529151909216918101919091529081906060820190565b0390f35b34610123575f3660031901126101235760206040515f8152f35b3461012357602036600319011261012357610253610e4e565b506040516328c44a9960e21b815260048035908201525f816024817f00000000000000000000000000000000000000000000000000000000000000006001600160a01b03165afa908115610352575f91610330575b5060208101517f000000000000000000000000000000000000000000000000000000000000000003610321576102ef61012061021c92015160208082518301019101610c26565b6040805182516001600160a01b0390811682526020808501519083015292820151909216908201529081906060820190565b63078d696560e31b5f5260045ffd5b61034c91503d805f833e6103448183610a90565b810190610cbc565b816102a8565b6040513d5f823e3d90fd5b602061014261036b36610b8e565b92610377929192611299565b610daa565b34610123575f3660031901126101235760608060405161039b81610a5a565b5f81525f60208201525f604082015201526040516351753e3760e11b81527f000000000000000000000000000000000000000000000000000000000000000060048201525f8160248160018060a01b037f0000000000000000000000000000000000000000000000000000000000000000165afa8015610352575f90610462575b60609061021c604051928392602084528051602085015260018060a01b0360208201511660408501526040810151151582850152015160808084015260a0830190610b3a565b503d805f833e6104728183610a90565b810190602081830312610123578051906001600160401b038211610123570160808183031261012357604051906104a882610a5a565b8051825260208101516001600160a01b03811681036101235760208301526104d260408201610c79565b60408301526060810151906001600160401b038211610123570182601f820112156101235760609281602061050993519101610c86565b8282015261041c565b3461012357602036600319011261012357606061012060405161053481610a2a565b5f81525f60208201525f60408201525f838201525f60808201525f60a08201525f60c08201525f60e08201525f61010082015201526040516328c44a9960e21b815260043560048201525f8160248160018060a01b037f0000000000000000000000000000000000000000000000000000000000000000165afa908115610352575f9161069d575b506020810180517f00000000000000000000000000000000000000000000000000000000000000000361068e5761021c61012060405193849360208552815160208601525160408501526001600160401b0360408201511660608501526001600160401b0360608201511660808501526001600160401b0360808201511660a085015260a081015160c085015260018060a01b0360c08201511660e085015260018060a01b0360e082015116610100850152610100810151151582850152015161014080840152610160830190610b3a565b63295d5f3960e01b5f5260045ffd5b6106b191503d805f833e6103448183610a90565b816105bc565b34610123575f3660031901126101235760206040517f00000000000000000000000000000000000000000000000000000000000000008152f35b34610123575f3660031901126101235761021c60206107df60016107347f000000000000000000000000000000000000000000000000000000000000000061112c565b818461075f7f000000000000000000000000000000000000000000000000000000000000000061112c565b818061078a7f000000000000000000000000000000000000000000000000000000000000000061112c565b9260405199878b985191829101848a015e870190601760f91b83830152805192839101602183015e010190601760f91b84830152805192839101600283015e01015f838201520301601f198101835282610a90565b604051918291602083526020830190610b3a565b3461012357606036600319011261012357602061011b3333610e6c565b34610123576060366003190112610123576004356001600160401b0381116101235761014060031982360301126101235761084a82610a2a565b8060040135825260208201906024810135825261086960448201610ab1565b604084015261087a60648201610ab1565b6060840190815261088d60848301610ab1565b916080850192835260a481013560a08601526108ab60c48201610ac5565b60c08601526108bc60e48201610ac5565b60e08601526101048101358015158103610123576101008601526101248101356001600160401b038111610123576101209160046108fd9236920101610af4565b94019384526024356001600160401b03811161012357610921903690600401610af4565b927f0000000000000000000000000000000000000000000000000000000000000000905103610a1b57516001600160401b03168015159081610a11575b50610a0257516001600160401b03166109f35761099861098960209351848082518301019101610c26565b91838082518301019101610c26565b815181516001600160a01b0390811691161491826109e3575b826109c3575b50506040519015158152f35b6040908101519101516001600160a01b03908116911614905082806109b7565b83810151828501511492506109b1565b637b6227e960e11b5f5260045ffd5b631ab7da6b60e01b5f5260045ffd5b905042118461095e565b635f9bd90760e11b5f5260045ffd5b61014081019081106001600160401b03821117610a4657604052565b634e487b7160e01b5f52604160045260245ffd5b608081019081106001600160401b03821117610a4657604052565b606081019081106001600160401b03821117610a4657604052565b90601f801991011681019081106001600160401b03821117610a4657604052565b35906001600160401b038216820361012357565b35906001600160a01b038216820361012357565b6001600160401b038111610a4657601f01601f191660200190565b81601f8201121561012357803590610b0b82610ad9565b92610b196040519485610a90565b8284526020838301011161012357815f926020809301838601378301015290565b805180835260209291819084018484015e5f828201840152601f01601f1916010190565b9181601f84011215610123578235916001600160401b038311610123576020808501948460051b01011161012357565b6040600319820112610123576004356001600160401b0381116101235781610bb891600401610b5e565b92909291602435906001600160401b03821161012357610bda91600401610b5e565b9091565b602060031982011261012357600435906001600160401b038211610123576101409082900360031901126101235760040190565b51906001600160a01b038216820361012357565b9081606091031261012357610c5d6040805192610c4284610a75565b610c4b81610c12565b84526020810151602085015201610c12565b604082015290565b51906001600160401b038216820361012357565b5190811515820361012357565b929192610c9282610ad9565b91610ca06040519384610a90565b829481845281830111610123578281602093845f96015e010152565b602081830312610123578051906001600160401b038211610123570190610140828203126101235760405191610cf183610a2a565b8051835260208101516020840152610d0b60408201610c65565b6040840152610d1c60608201610c65565b6060840152610d2d60808201610c65565b608084015260a081015160a0840152610d4860c08201610c12565b60c0840152610d5960e08201610c12565b60e0840152610d6b6101008201610c79565b610100840152610120810151906001600160401b03821161012357019080601f83011215610123578151610da192602001610c86565b61012082015290565b929092818403610e3f575f91345b85841015610e345781841015610e20578360051b8086013590828211610e115784013561013e198536030181121561012357610df59085016112da565b15610e065760019103930192610db8565b505050505050505f90565b63044044a560e21b5f5260045ffd5b634e487b7160e01b5f52603260045260245ffd5b505050505050600190565b63251f56a160e21b5f5260045ffd5b60405190610e5b82610a75565b5f6040838281528260208201520152565b5f926004356001600160a01b0381169384821415939092909184610123576044356001600160a01b0381169490929085841415806101235760243597893b15610123576040516323b872dd60e01b81526001600160a01b039097166004880181905260248801899052604488018a9052965f81606481838f5af19081611117575b50610f2257505060405163045b391760e01b815260048101989098525050505060248401526044830152606482015260849150fd5b90949397929891969550604051975061111357602087015260408601525061110757606083015260608252610f58608083610a90565b6040519060c082018281106001600160401b03821117610a465760405260018060a01b0316918282528460208301526001604083015284606083015260808201528360a082015260405160408101908082106001600160401b03831117610a46576020916040527f000000000000000000000000000000000000000000000000000000000000000081528181019283526040518093819263f17325e760e01b8352846004840152516024830152516040604483015260018060a01b0381511660648301526001600160401b03848201511660848301526040810151151560a4830152606081015160c483015260a0611060608083015160c060e4860152610124850190610b3a565b9101516101048301520381877f00000000000000000000000000000000000000000000000000000000000000006001600160a01b03165af18491816110db575b506110b457634a10301360e11b8452600484fd5b7f4b5d781b1f4414459813c44d669c7821fcdec72a83b67c0303229be68d03ad05819480a3565b9091506020813d60201161110b575b816110f760209383610a90565b810103126111075751905f6110a0565b8480fd5b3d91506110ea565b8880fd5b611124919c505f90610a90565b5f9a5f610eed565b805f9172184f03e93ff9f4daa797ed6e38ed64bf6a1f0160401b821015611276575b806d04ee2d6d415b85acef8100000000600a92101561125b575b662386f26fc10000811015611247575b6305f5e100811015611236575b612710811015611227575b6064811015611219575b101561120e575b600a602160018401936111b385610ad9565b946111c16040519687610a90565b8086526111d0601f1991610ad9565b013660208701378401015b5f1901916f181899199a1a9b1b9c1cb0b131b232b360811b8282061a835304801561120957600a90916111db565b505090565b6001909101906111a1565b60646002910493019261119a565b61271060049104930192611190565b6305f5e10060089104930192611185565b662386f26fc1000060109104930192611178565b6d04ee2d6d415b85acef810000000060209104930192611168565b506040915072184f03e93ff9f4daa797ed6e38ed64bf6a1f0160401b810461114e565b7f00000000000000000000000000000000000000000000000000000000000000006001600160a01b031633036112cb57565b634ca8886760e01b5f5260045ffd5b60e001356001600160a01b0381168103610123576001600160a01b031630149056fea264697066735822122001088803c54abacf21120f0d51f512786e4b42727c93d7ee6649f9a42284089b64736f6c634300081b0033","linkReferences":{}},"methodIdentifiers":{"ATTESTATION_SCHEMA()":"5bf2f20d","attest((bytes32,bytes32,uint64,uint64,uint64,bytes32,address,address,bool,bytes))":"e60c3505","checkStatement((bytes32,bytes32,uint64,uint64,uint64,bytes32,address,address,bool,bytes),bytes,bytes32)":"1272ff8b","decodeStatementData(bytes)":"e112ea08","getSchema()":"6b122fe0","getStatement(bytes32)":"5cc02d2f","getStatementData(bytes32)":"c75c572b","isPayable()":"ce46e046","makeStatement((address,uint256,address))":"18e9f307","makeStatementFor((address,uint256,address),address,address)":"fba22190","multiAttest((bytes32,bytes32,uint64,uint64,uint64,bytes32,address,address,bool,bytes)[],uint256[])":"91db0b7e","multiRevoke((bytes32,bytes32,uint64,uint64,uint64,bytes32,address,address,bool,bytes)[],uint256[])":"88e5b2d9","revoke((bytes32,bytes32,uint64,uint64,uint64,bytes32,address,address,bool,bytes))":"e49617e1","version()":"54fd4d50"},"id":91}