{"abi":[{"type":"constructor","inputs":[{"name":"_eas","type":"address","internalType":"contract IEAS"},{"name":"_erc20Escrow","type":"address","internalType":"contract ERC20EscrowObligation"},{"name":"_erc20Fulfillment","type":"address","internalType":"contract ERC20PaymentFulfillmentArbiter"},{"name":"_specificAttestation","type":"address","internalType":"contract SpecificAttestationArbiter"}],"stateMutability":"nonpayable"},{"type":"function","name":"buyErc20ForErc20","inputs":[{"name":"bidToken","type":"address","internalType":"address"},{"name":"bidAmount","type":"uint256","internalType":"uint256"},{"name":"askToken","type":"address","internalType":"address"},{"name":"askAmount","type":"uint256","internalType":"uint256"},{"name":"expiration","type":"uint64","internalType":"uint64"}],"outputs":[{"name":"","type":"bytes32","internalType":"bytes32"}],"stateMutability":"nonpayable"},{"type":"function","name":"payErc20ForErc20","inputs":[{"name":"buyAttestation","type":"bytes32","internalType":"bytes32"}],"outputs":[{"name":"","type":"bytes32","internalType":"bytes32"}],"stateMutability":"nonpayable"},{"type":"function","name":"permitAndBuyErc20ForErc20","inputs":[{"name":"bidToken","type":"address","internalType":"address"},{"name":"bidAmount","type":"uint256","internalType":"uint256"},{"name":"askToken","type":"address","internalType":"address"},{"name":"askAmount","type":"uint256","internalType":"uint256"},{"name":"expiration","type":"uint64","internalType":"uint64"},{"name":"v","type":"uint8","internalType":"uint8"},{"name":"r","type":"bytes32","internalType":"bytes32"},{"name":"s","type":"bytes32","internalType":"bytes32"}],"outputs":[{"name":"","type":"bytes32","internalType":"bytes32"}],"stateMutability":"nonpayable"},{"type":"function","name":"permitAndBuyWithErc20","inputs":[{"name":"token","type":"address","internalType":"address"},{"name":"amount","type":"uint256","internalType":"uint256"},{"name":"arbiter","type":"address","internalType":"address"},{"name":"demand","type":"bytes","internalType":"bytes"},{"name":"expiration","type":"uint64","internalType":"uint64"},{"name":"v","type":"uint8","internalType":"uint8"},{"name":"r","type":"bytes32","internalType":"bytes32"},{"name":"s","type":"bytes32","internalType":"bytes32"}],"outputs":[{"name":"","type":"bytes32","internalType":"bytes32"}],"stateMutability":"nonpayable"},{"type":"function","name":"permitAndPayErc20ForErc20","inputs":[{"name":"buyAttestation","type":"bytes32","internalType":"bytes32"},{"name":"v","type":"uint8","internalType":"uint8"},{"name":"r","type":"bytes32","internalType":"bytes32"},{"name":"s","type":"bytes32","internalType":"bytes32"}],"outputs":[{"name":"","type":"bytes32","internalType":"bytes32"}],"stateMutability":"nonpayable"},{"type":"function","name":"permitAndPayWithErc20","inputs":[{"name":"token","type":"address","internalType":"address"},{"name":"amount","type":"uint256","internalType":"uint256"},{"name":"item","type":"bytes32","internalType":"bytes32"},{"name":"expiration","type":"uint64","internalType":"uint64"},{"name":"v","type":"uint8","internalType":"uint8"},{"name":"r","type":"bytes32","internalType":"bytes32"},{"name":"s","type":"bytes32","internalType":"bytes32"}],"outputs":[{"name":"","type":"bytes32","internalType":"bytes32"}],"stateMutability":"nonpayable"},{"type":"error","name":"CouldntCollectPayment","inputs":[]}],"bytecode":{"object":"0x6080346100e657601f610e4a38819003918201601f19168301916001600160401b038311848410176100ea578084926080946040528339810103126100e65780516001600160a01b03811691908290036100e65760208101516001600160a01b038116908190036100e65760408201516001600160a01b03811692908390036100e657606001516001600160a01b03811693908490036100e65760018060a01b03195f5416175f5560018060a01b0319600154161760015560018060a01b0319600254161760025560018060a01b03196003541617600355604051610d4b90816100ff8239f35b5f80fd5b634e487b7160e01b5f52604160045260245ffdfe60806040526004361015610011575f80fd5b5f5f3560e01c80631b24bf521461069157806343ffa7d6146105495780635957c311146103c657806395cb9bf0146102e5578063a8270530146102265763c18ae7411461005c575f80fd5b346102235760e0366003190112610223576100756106ce565b606435906044356024356001600160401b03841684036101fa576084359260ff8416840361022157600180546001600160a01b0392831695429283019390911691831061020d57908791863b15610209576100ee604051948593849363d505accf60e01b855260c435928960a4359333600489016109d7565b038183885af180156101fe576101e5575b50600154600354604051610186979660209690956001600160a01b03948516959390941693909181906101318161074f565b526040519087820152868152610148604082610785565b6040519361015585610720565b84528684015260408301526060820152846040518097819582946307e738a360e11b84523391339160048601610a71565b03925af19081156101d957906101a2575b602090604051908152f35b506020813d6020116101d1575b816101bc60209383610785565b810103126101cd5760209051610197565b5f80fd5b3d91506101af565b604051903d90823e3d90fd5b6101f0868092610785565b6101fa575f6100ff565b8480fd5b6040513d88823e3d90fd5b8280fd5b634e487b7160e01b88526011600452602488fd5b855b80fd5b50346102235760203660031901126102235780546040516328c44a9960e21b815260048035908201819052918390829060249082906001600160a01b03165afa9081156102da5760206102996101206102af95946102a994888599926102b7575b50500151828082518301019101610928565b01518480825183010191016109a8565b90610b96565b604051908152f35b6102d392503d8091833e6102cb8183610785565b81019061083c565b5f80610287565b6040513d85823e3d90fd5b503461022357610100366003190112610223576103006106ce565b60243561030b6106e4565b906103146106fa565b9361031d610710565b6001805442918201926001600160a01b038881169392169184106103b257823b156101fa579161037293918580946040519687958694859363d505accf60e01b855260e435928d60c4359333600489016109d7565b03925af180156103a757610392575b60206102af8760643587878a610aae565b61039d828092610785565b6102235780610381565b6040513d84823e3d90fd5b634e487b7160e01b85526011600452602485fd5b503461022357610100366003190112610223576103e16106ce565b6024356103ec6106e4565b606435916001600160401b0383116101fa57366023840112156101fa5784836004013593610419856107a6565b946104276040519687610785565b80865236602482840101116102095780602460209301838801378501015261044d6106fa565b93610456610710565b600180546001600160a01b03938416934292830193911691831061053557908891843b15610209576104a6604051948593849363d505accf60e01b855260e435928a60c4359333600489016109d7565b038183865af1801561052a57610515575b50916020939161018696959360018060a01b036001541693604051936104dc85610720565b60018060a01b031684528684015260408301526060820152846040518097819582946307e738a360e11b84523391339160048601610a71565b610520878092610785565b610221575f6104b7565b6040513d89823e3d90fd5b634e487b7160e01b89526011600452602489fd5b346101cd5760803660031901126101cd5760243560043560ff821682036101cd575f80546040516328c44a9960e21b8152600481018490529190829060249082906001600160a01b03165afa908115610658576105c16101206105d2936020935f91610677575b500151828082518301019101610928565b0151602080825183010191016109a8565b80516001805460208401519542928301936001600160a01b0392831693921691841061066357813b156101cd575f809461062b604051998a968795869463d505accf60e01b8652606435936044359333600489016109d7565b03925af1918215610658576020936102af93610648575b50610b96565b5f61065291610785565b5f610642565b6040513d5f823e3d90fd5b634e487b7160e01b5f52601160045260245ffd5b61068b91503d805f833e6102cb8183610785565b876105b0565b346101cd5760a03660031901126101cd5760206102af6106af6106ce565b6106b76106e4565b906106c06106fa565b916064359160243590610aae565b600435906001600160a01b03821682036101cd57565b604435906001600160a01b03821682036101cd57565b608435906001600160401b03821682036101cd57565b60a4359060ff821682036101cd57565b608081019081106001600160401b0382111761073b57604052565b634e487b7160e01b5f52604160045260245ffd5b602081019081106001600160401b0382111761073b57604052565b604081019081106001600160401b0382111761073b57604052565b90601f801991011681019081106001600160401b0382111761073b57604052565b6001600160401b03811161073b57601f01601f191660200190565b51906001600160401b03821682036101cd57565b51906001600160a01b03821682036101cd57565b519081151582036101cd57565b81601f820112156101cd5780519061080d826107a6565b9261081b6040519485610785565b828452602083830101116101cd57815f9260208093018386015e8301015290565b6020818303126101cd578051906001600160401b0382116101cd5701610140818303126101cd576040519161014083018381106001600160401b0382111761073b57604052815183526020820151602084015261089b604083016107c1565b60408401526108ac606083016107c1565b60608401526108bd608083016107c1565b608084015260a082015160a08401526108d860c083016107d5565b60c08401526108e960e083016107d5565b60e08401526108fb61010083016107e9565b6101008401526101208201516001600160401b0381116101cd5761091f92016107f6565b61012082015290565b6020818303126101cd578051906001600160401b0382116101cd5701906080828203126101cd576040519161095c83610720565b610965816107d5565b835260208101516001600160401b0381116101cd576060926109889183016107f6565b6020840152610999604082016107d5565b60408401520151606082015290565b908160409103126101cd576020604051916109c28361076a565b6109cb816107d5565b83520151602082015290565b9360c095919897969360ff9360e087019a60018060a01b0316875260018060a01b031660208701526040860152606085015216608083015260a08201520152565b906020606060a093600180861b038151168452828101516080848601528051938491826080880152018686015e5f8484018601526040818101515f196001881b01169085015201516060830152601f01601f1916010190565b926001600160401b03610a91606094979693608087526080870190610a18565b961660208501526001600160a01b03908116604085015216910152565b600154600254604051610b529760209790966001600160a01b03948516969490931694928890610add8461076a565b6001600160a01b0316808452920190815260408051898101939093529051828201528152610b0c606082610785565b60405193610b1985610720565b84528684015260018060a01b0316604083015260608201525f6040518096819582946307e738a360e11b84523391339160048601610a71565b03925af1908115610658575f91610b67575090565b90506020813d602011610b8e575b81610b8260209383610785565b810103126101cd575190565b3d9150610b75565b60015482516020938401516003546040515f9694610c25946001600160a01b039182169493821693929116908790610bcd8161074f565b526040518787820152868152610be4604082610785565b60405193610bf185610720565b845286840152604083015260608201526040519586809481936307e738a360e11b8352608060048401526084830190610a18565b82602483015233604483015233606483015203925af1918215610658575f92610ce0575b506001546040516330088bc960e01b8152600481019290925260248201839052602090829060449082905f906001600160a01b03165af1908115610658575f91610ca6575b5015610c975790565b636c7b6f5560e11b5f5260045ffd5b90506020813d602011610cd8575b81610cc160209383610785565b810103126101cd57610cd2906107e9565b5f610c8e565b3d9150610cb4565b9091506020813d602011610d0d575b81610cfc60209383610785565b810103126101cd5751906020610c49565b3d9150610cef56fea26469706673582212203a7a066d9c16136e57ecf296e400b3ada59e0317e941f5f9247b91607a9851b364736f6c634300081b0033","linkReferences":{}},"methodIdentifiers":{"buyErc20ForErc20(address,uint256,address,uint256,uint64)":"1b24bf52","payErc20ForErc20(bytes32)":"a8270530","permitAndBuyErc20ForErc20(address,uint256,address,uint256,uint64,uint8,bytes32,bytes32)":"95cb9bf0","permitAndBuyWithErc20(address,uint256,address,bytes,uint64,uint8,bytes32,bytes32)":"5957c311","permitAndPayErc20ForErc20(bytes32,uint8,bytes32,bytes32)":"43ffa7d6","permitAndPayWithErc20(address,uint256,bytes32,uint64,uint8,bytes32,bytes32)":"c18ae741"},"id":104}