{"abi":[{"type":"constructor","inputs":[{"name":"_eas","type":"address","internalType":"contract IEAS"},{"name":"_erc20Escrow","type":"address","internalType":"contract ERC20EscrowObligation"},{"name":"_erc20Fulfillment","type":"address","internalType":"contract ERC20PaymentFulfillmentArbiter"},{"name":"_specificAttestation","type":"address","internalType":"contract SpecificAttestationArbiter"}],"stateMutability":"nonpayable"},{"type":"function","name":"buyErc20ForErc20","inputs":[{"name":"bidToken","type":"address","internalType":"address"},{"name":"bidAmount","type":"uint256","internalType":"uint256"},{"name":"askToken","type":"address","internalType":"address"},{"name":"askAmount","type":"uint256","internalType":"uint256"},{"name":"expiration","type":"uint64","internalType":"uint64"}],"outputs":[{"name":"","type":"bytes32","internalType":"bytes32"}],"stateMutability":"nonpayable"},{"type":"function","name":"payErc20ForErc20","inputs":[{"name":"buyAttestation","type":"bytes32","internalType":"bytes32"}],"outputs":[{"name":"","type":"bytes32","internalType":"bytes32"}],"stateMutability":"nonpayable"},{"type":"function","name":"permitAndBuyErc20ForErc20","inputs":[{"name":"bidToken","type":"address","internalType":"address"},{"name":"bidAmount","type":"uint256","internalType":"uint256"},{"name":"askToken","type":"address","internalType":"address"},{"name":"askAmount","type":"uint256","internalType":"uint256"},{"name":"expiration","type":"uint64","internalType":"uint64"},{"name":"v","type":"uint8","internalType":"uint8"},{"name":"r","type":"bytes32","internalType":"bytes32"},{"name":"s","type":"bytes32","internalType":"bytes32"}],"outputs":[{"name":"","type":"bytes32","internalType":"bytes32"}],"stateMutability":"nonpayable"},{"type":"function","name":"permitAndBuyWithErc20","inputs":[{"name":"token","type":"address","internalType":"address"},{"name":"amount","type":"uint256","internalType":"uint256"},{"name":"arbiter","type":"address","internalType":"address"},{"name":"demand","type":"bytes","internalType":"bytes"},{"name":"expiration","type":"uint64","internalType":"uint64"},{"name":"v","type":"uint8","internalType":"uint8"},{"name":"r","type":"bytes32","internalType":"bytes32"},{"name":"s","type":"bytes32","internalType":"bytes32"}],"outputs":[{"name":"","type":"bytes32","internalType":"bytes32"}],"stateMutability":"nonpayable"},{"type":"function","name":"permitAndPayErc20ForErc20","inputs":[{"name":"buyAttestation","type":"bytes32","internalType":"bytes32"},{"name":"v","type":"uint8","internalType":"uint8"},{"name":"r","type":"bytes32","internalType":"bytes32"},{"name":"s","type":"bytes32","internalType":"bytes32"}],"outputs":[{"name":"","type":"bytes32","internalType":"bytes32"}],"stateMutability":"nonpayable"},{"type":"function","name":"permitAndPayWithErc20","inputs":[{"name":"token","type":"address","internalType":"address"},{"name":"amount","type":"uint256","internalType":"uint256"},{"name":"item","type":"bytes32","internalType":"bytes32"},{"name":"expiration","type":"uint64","internalType":"uint64"},{"name":"v","type":"uint8","internalType":"uint8"},{"name":"r","type":"bytes32","internalType":"bytes32"},{"name":"s","type":"bytes32","internalType":"bytes32"}],"outputs":[{"name":"","type":"bytes32","internalType":"bytes32"}],"stateMutability":"nonpayable"},{"type":"error","name":"CouldntCollectPayment","inputs":[]}],"bytecode":{"object":"0x6080346100e657601f610e4d38819003918201601f19168301916001600160401b038311848410176100ea578084926080946040528339810103126100e65780516001600160a01b03811691908290036100e65760208101516001600160a01b038116908190036100e65760408201516001600160a01b03811692908390036100e657606001516001600160a01b03811693908490036100e65760018060a01b03195f5416175f5560018060a01b0319600154161760015560018060a01b0319600254161760025560018060a01b03196003541617600355604051610d4e90816100ff8239f35b5f80fd5b634e487b7160e01b5f52604160045260245ffdfe60806040526004361015610011575f80fd5b5f803560e01c80631b24bf521461069557806343ffa7d61461054c5780635957c311146103c957806395cb9bf0146102e8578063a8270530146102285763c18ae7411461005c575f80fd5b346102255760e0366003190112610225576100756106d2565b60243560443591606435926001600160401b03841684036101fa576084359160ff8316830361022157600180546001600160a01b0392831694429283019390911691831061020d57908791853b15610209576100ef604051948593849363d505accf60e01b855260c435928b60a4359333600489016109d9565b038183875af180156101fe576101e5575b50600154600354604051610186979660209690956001600160a01b0394851695909490931691839061013181610753565b526040519287840152868352610148604084610789565b6040519361015585610724565b8452868401526040830152606082015284604051809781958294636b72870760e01b84523391339160048601610a72565b03925af19081156101d957906101a2575b602090604051908152f35b506020813d6020116101d1575b816101bc60209383610789565b810103126101cd5760209051610197565b5f80fd5b3d91506101af565b604051903d90823e3d90fd5b6101f0868092610789565b6101fa575f610100565b8480fd5b6040513d88823e3d90fd5b8280fd5b634e487b7160e01b88526011600452602488fd5b8580fd5b80fd5b50346102255760203660031901126102255780546040516328c44a9960e21b815260048035908201819052918390829060249082906001600160a01b03165afa9081156102dd57606061029c6101206102b295946102ac9488602099926102ba575b5050015186808251830101910161092c565b01518480825183010191016109aa565b90610b97565b604051908152f35b6102d692503d8091833e6102ce8183610789565b810190610840565b5f8061028a565b6040513d85823e3d90fd5b503461022557610100366003190112610225576103036106d2565b60243561030e6106e8565b906103176106fe565b93610320610714565b6001805442918201926001600160a01b038881169392169184106103b557823b156101fa579161037593918580946040519687958694859363d505accf60e01b855260e435928d60c4359333600489016109d9565b03925af180156103aa57610395575b60206102b28760643587878a610aaf565b6103a0828092610789565b6102255780610384565b6040513d84823e3d90fd5b634e487b7160e01b85526011600452602485fd5b503461022557610100366003190112610225576103e46106d2565b6024356103ef6106e8565b916064356001600160401b0381116101fa57366023820112156101fa578481600401359161041c836107aa565b9261042a6040519485610789565b8084523660248284010111610209578060246020930183860137830101526104506106fe565b93610459610714565b600180546001600160a01b03958616954292830193911691831061053857908891863b15610209576104a9604051948593849363d505accf60e01b855260e435928c60c4359333600489016109d9565b038183885af1801561052d57610518575b50916020939161018696959360018060a01b036001541693604051936104df85610724565b84528684015260018060a01b03166040830152606082015284604051809781958294636b72870760e01b84523391339160048601610a72565b610523878092610789565b610221575f6104ba565b6040513d89823e3d90fd5b634e487b7160e01b89526011600452602489fd5b346101cd5760803660031901126101cd5760243560043560ff821682036101cd575f80546040516328c44a9960e21b8152600481018490529190829060249082906001600160a01b03165afa90811561065c576105c56101206105d6936060935f9161067b575b5001516020808251830101910161092c565b0151602080825183010191016109aa565b80516001805460208401519542928301936001600160a01b0392831693921691841061066757813b156101cd575f809461062f604051998a968795869463d505accf60e01b8652606435936044359333600489016109d9565b03925af191821561065c576020936102b29361064c575b50610b97565b5f61065691610789565b5f610646565b6040513d5f823e3d90fd5b634e487b7160e01b5f52601160045260245ffd5b61068f91503d805f833e6102ce8183610789565b876105b3565b346101cd5760a03660031901126101cd5760206102b26106b36106d2565b6106bb6106e8565b906106c46106fe565b916064359160243590610aaf565b600435906001600160a01b03821682036101cd57565b604435906001600160a01b03821682036101cd57565b608435906001600160401b03821682036101cd57565b60a4359060ff821682036101cd57565b608081019081106001600160401b0382111761073f57604052565b634e487b7160e01b5f52604160045260245ffd5b602081019081106001600160401b0382111761073f57604052565b604081019081106001600160401b0382111761073f57604052565b90601f801991011681019081106001600160401b0382111761073f57604052565b6001600160401b03811161073f57601f01601f191660200190565b51906001600160401b03821682036101cd57565b51906001600160a01b03821682036101cd57565b519081151582036101cd57565b81601f820112156101cd57805190610811826107aa565b9261081f6040519485610789565b828452602083830101116101cd57815f9260208093018386015e8301015290565b6020818303126101cd578051906001600160401b0382116101cd5701610140818303126101cd576040519161014083018381106001600160401b0382111761073f57604052815183526020820151602084015261089f604083016107c5565b60408401526108b0606083016107c5565b60608401526108c1608083016107c5565b608084015260a082015160a08401526108dc60c083016107d9565b60c08401526108ed60e083016107d9565b60e08401526108ff61010083016107ed565b6101008401526101208201516001600160401b0381116101cd5761092392016107fa565b61012082015290565b6020818303126101cd578051906001600160401b0382116101cd57016080818303126101cd576040519161095f83610724565b610968826107d9565b835260208201516020840152610980604083016107d9565b604084015260608201516001600160401b0381116101cd576109a292016107fa565b606082015290565b908160409103126101cd576020604051916109c48361076e565b6109cd816107d9565b83520151602082015290565b9360c095919897969360ff9360e087019a60018060a01b0316875260018060a01b031660208701526040860152606085015216608083015260a08201520152565b906020606060a093600180861b0381511684528281015183850152600180861b0360408201511660408501520151608060608401528051918291826080860152018484015e5f828201840152601f01601f1916010190565b926001600160401b03610a92606094979693608087526080870190610a1a565b961660208501526001600160a01b03908116604085015216910152565b600154600254604051610b539760209790966001600160a01b03948516969294909316928890610ade8661076e565b6001600160a01b0316808652940190815260408051898101959095529051848201528352610b0d606084610789565b60405193610b1a85610724565b60018060a01b0316845286840152604083015260608201525f604051809681958294636b72870760e01b84523391339160048601610a72565b03925af190811561065c575f91610b68575090565b90506020813d602011610b8f575b81610b8360209383610789565b810103126101cd575190565b3d9150610b76565b60015482516020938401516003546040515f9694610c28946001600160a01b03918216949082169390929116908790610bcf81610753565b52604051918787840152868352610be7604084610789565b60405193610bf485610724565b84528684015260408301526060820152604051958680948193636b72870760e01b8352608060048401526084830190610a1a565b82602483015233604483015233606483015203925af191821561065c575f92610ce3575b506001546040516330088bc960e01b8152600481019290925260248201839052602090829060449082905f906001600160a01b03165af190811561065c575f91610ca9575b5015610c9a5790565b636c7b6f5560e11b5f5260045ffd5b90506020813d602011610cdb575b81610cc460209383610789565b810103126101cd57610cd5906107ed565b5f610c91565b3d9150610cb7565b9091506020813d602011610d10575b81610cff60209383610789565b810103126101cd5751906020610c4c565b3d9150610cf256fea2646970667358221220cb71c5f8da533de14a42e06fe3d52ecf4f1a0dfe3a1e3ad761c70fab9ebc0abb64736f6c634300081a0033","linkReferences":{}},"methodIdentifiers":{"buyErc20ForErc20(address,uint256,address,uint256,uint64)":"1b24bf52","payErc20ForErc20(bytes32)":"a8270530","permitAndBuyErc20ForErc20(address,uint256,address,uint256,uint64,uint8,bytes32,bytes32)":"95cb9bf0","permitAndBuyWithErc20(address,uint256,address,bytes,uint64,uint8,bytes32,bytes32)":"5957c311","permitAndPayErc20ForErc20(bytes32,uint8,bytes32,bytes32)":"43ffa7d6","permitAndPayWithErc20(address,uint256,bytes32,uint64,uint8,bytes32,bytes32)":"c18ae741"},"id":73}