{"abi":[{"type":"constructor","inputs":[{"name":"_eas","type":"address","internalType":"contract IEAS"},{"name":"_schemaRegistry","type":"address","internalType":"contract ISchemaRegistry"}],"stateMutability":"nonpayable"},{"type":"receive","stateMutability":"payable"},{"type":"function","name":"ATTESTATION_SCHEMA","inputs":[],"outputs":[{"name":"","type":"bytes32","internalType":"bytes32"}],"stateMutability":"view"},{"type":"function","name":"attest","inputs":[{"name":"attestation","type":"tuple","internalType":"struct Attestation","components":[{"name":"uid","type":"bytes32","internalType":"bytes32"},{"name":"schema","type":"bytes32","internalType":"bytes32"},{"name":"time","type":"uint64","internalType":"uint64"},{"name":"expirationTime","type":"uint64","internalType":"uint64"},{"name":"revocationTime","type":"uint64","internalType":"uint64"},{"name":"refUID","type":"bytes32","internalType":"bytes32"},{"name":"recipient","type":"address","internalType":"address"},{"name":"attester","type":"address","internalType":"address"},{"name":"revocable","type":"bool","internalType":"bool"},{"name":"data","type":"bytes","internalType":"bytes"}]}],"outputs":[{"name":"","type":"bool","internalType":"bool"}],"stateMutability":"payable"},{"type":"function","name":"checkStatement","inputs":[{"name":"statement","type":"tuple","internalType":"struct Attestation","components":[{"name":"uid","type":"bytes32","internalType":"bytes32"},{"name":"schema","type":"bytes32","internalType":"bytes32"},{"name":"time","type":"uint64","internalType":"uint64"},{"name":"expirationTime","type":"uint64","internalType":"uint64"},{"name":"revocationTime","type":"uint64","internalType":"uint64"},{"name":"refUID","type":"bytes32","internalType":"bytes32"},{"name":"recipient","type":"address","internalType":"address"},{"name":"attester","type":"address","internalType":"address"},{"name":"revocable","type":"bool","internalType":"bool"},{"name":"data","type":"bytes","internalType":"bytes"}]},{"name":"demand","type":"bytes","internalType":"bytes"},{"name":"","type":"bytes32","internalType":"bytes32"}],"outputs":[{"name":"","type":"bool","internalType":"bool"}],"stateMutability":"view"},{"type":"function","name":"getSchema","inputs":[],"outputs":[{"name":"","type":"tuple","internalType":"struct SchemaRecord","components":[{"name":"uid","type":"bytes32","internalType":"bytes32"},{"name":"resolver","type":"address","internalType":"contract ISchemaResolver"},{"name":"revocable","type":"bool","internalType":"bool"},{"name":"schema","type":"string","internalType":"string"}]}],"stateMutability":"view"},{"type":"function","name":"getStatement","inputs":[{"name":"uid","type":"bytes32","internalType":"bytes32"}],"outputs":[{"name":"","type":"tuple","internalType":"struct Attestation","components":[{"name":"uid","type":"bytes32","internalType":"bytes32"},{"name":"schema","type":"bytes32","internalType":"bytes32"},{"name":"time","type":"uint64","internalType":"uint64"},{"name":"expirationTime","type":"uint64","internalType":"uint64"},{"name":"revocationTime","type":"uint64","internalType":"uint64"},{"name":"refUID","type":"bytes32","internalType":"bytes32"},{"name":"recipient","type":"address","internalType":"address"},{"name":"attester","type":"address","internalType":"address"},{"name":"revocable","type":"bool","internalType":"bool"},{"name":"data","type":"bytes","internalType":"bytes"}]}],"stateMutability":"view"},{"type":"function","name":"isPayable","inputs":[],"outputs":[{"name":"","type":"bool","internalType":"bool"}],"stateMutability":"pure"},{"type":"function","name":"makeStatement","inputs":[{"name":"data","type":"tuple","internalType":"struct RedisProvisionObligation.StatementData","components":[{"name":"user","type":"address","internalType":"address"},{"name":"capacity","type":"uint256","internalType":"uint256"},{"name":"egress","type":"uint256","internalType":"uint256"},{"name":"cpus","type":"uint256","internalType":"uint256"},{"name":"serverName","type":"string","internalType":"string"},{"name":"url","type":"string","internalType":"string"}]},{"name":"expirationTime","type":"uint64","internalType":"uint64"}],"outputs":[{"name":"","type":"bytes32","internalType":"bytes32"}],"stateMutability":"nonpayable"},{"type":"function","name":"multiAttest","inputs":[{"name":"attestations","type":"tuple[]","internalType":"struct Attestation[]","components":[{"name":"uid","type":"bytes32","internalType":"bytes32"},{"name":"schema","type":"bytes32","internalType":"bytes32"},{"name":"time","type":"uint64","internalType":"uint64"},{"name":"expirationTime","type":"uint64","internalType":"uint64"},{"name":"revocationTime","type":"uint64","internalType":"uint64"},{"name":"refUID","type":"bytes32","internalType":"bytes32"},{"name":"recipient","type":"address","internalType":"address"},{"name":"attester","type":"address","internalType":"address"},{"name":"revocable","type":"bool","internalType":"bool"},{"name":"data","type":"bytes","internalType":"bytes"}]},{"name":"values","type":"uint256[]","internalType":"uint256[]"}],"outputs":[{"name":"","type":"bool","internalType":"bool"}],"stateMutability":"payable"},{"type":"function","name":"multiRevoke","inputs":[{"name":"attestations","type":"tuple[]","internalType":"struct Attestation[]","components":[{"name":"uid","type":"bytes32","internalType":"bytes32"},{"name":"schema","type":"bytes32","internalType":"bytes32"},{"name":"time","type":"uint64","internalType":"uint64"},{"name":"expirationTime","type":"uint64","internalType":"uint64"},{"name":"revocationTime","type":"uint64","internalType":"uint64"},{"name":"refUID","type":"bytes32","internalType":"bytes32"},{"name":"recipient","type":"address","internalType":"address"},{"name":"attester","type":"address","internalType":"address"},{"name":"revocable","type":"bool","internalType":"bool"},{"name":"data","type":"bytes","internalType":"bytes"}]},{"name":"values","type":"uint256[]","internalType":"uint256[]"}],"outputs":[{"name":"","type":"bool","internalType":"bool"}],"stateMutability":"payable"},{"type":"function","name":"reviseStatement","inputs":[{"name":"statementUID","type":"bytes32","internalType":"bytes32"},{"name":"changeData","type":"tuple","internalType":"struct RedisProvisionObligation.ChangeData","components":[{"name":"addedCapacity","type":"uint256","internalType":"uint256"},{"name":"addedEgress","type":"uint256","internalType":"uint256"},{"name":"addedCpus","type":"uint256","internalType":"uint256"},{"name":"addedDuration","type":"uint64","internalType":"uint64"},{"name":"newServerName","type":"string","internalType":"string"},{"name":"newUrl","type":"string","internalType":"string"}]}],"outputs":[{"name":"","type":"bytes32","internalType":"bytes32"}],"stateMutability":"nonpayable"},{"type":"function","name":"revoke","inputs":[{"name":"attestation","type":"tuple","internalType":"struct Attestation","components":[{"name":"uid","type":"bytes32","internalType":"bytes32"},{"name":"schema","type":"bytes32","internalType":"bytes32"},{"name":"time","type":"uint64","internalType":"uint64"},{"name":"expirationTime","type":"uint64","internalType":"uint64"},{"name":"revocationTime","type":"uint64","internalType":"uint64"},{"name":"refUID","type":"bytes32","internalType":"bytes32"},{"name":"recipient","type":"address","internalType":"address"},{"name":"attester","type":"address","internalType":"address"},{"name":"revocable","type":"bool","internalType":"bool"},{"name":"data","type":"bytes","internalType":"bytes"}]}],"outputs":[{"name":"","type":"bool","internalType":"bool"}],"stateMutability":"payable"},{"type":"function","name":"version","inputs":[],"outputs":[{"name":"","type":"string","internalType":"string"}],"stateMutability":"view"},{"type":"error","name":"AccessDenied","inputs":[]},{"type":"error","name":"AttestationRevoked","inputs":[]},{"type":"error","name":"DeadlineExpired","inputs":[]},{"type":"error","name":"InsufficientValue","inputs":[]},{"type":"error","name":"InvalidEAS","inputs":[]},{"type":"error","name":"InvalidLength","inputs":[]},{"type":"error","name":"InvalidSchema","inputs":[]},{"type":"error","name":"NotFromStatement","inputs":[]},{"type":"error","name":"NotPayable","inputs":[]},{"type":"error","name":"UnauthorizedCall","inputs":[]}],"bytecode":{"object":"0x6101608060405234610229576040816118fe80380380916100208285610263565b8339810103126102295780516001600160a01b038116918282036102295760200151916001600160a01b0383168084036102295760405160a081016001600160401b0381118282101761024f576040526069815260208101927f6164647265737320757365722c2075696e743235362063617061636974792c2084527f75696e74323536206567726573732c2075696e7432353620637075732c20737460408301527f72696e67206d656d6f7279207365727665724e616d652c20737472696e67206d606083015268195b5bdc9e481d5c9b60ba1b60808301526001608052600360a0525f60c05215610240576084948460209560e05261012052610100525f604051958680958194630c1af44f60e31b8352606060048401525180918160648501528484015e818101830184905230602483015260016044830152601f01601f191681010301925af1908115610235575f916101ff575b506101405260405161167790816102878239608051816106bb015260a051816106e7015260c05181610712015260e051816115e9015261010051816103840152610120518181816102810152818161051d01526107ed01526101405181818161023d015281816103520152818161055701528181610678015281816109090152610c660152f35b90506020813d60201161022d575b8161021a60209383610263565b8101031261022957515f610178565b5f80fd5b3d915061020d565b6040513d5f823e3d90fd5b6341bc07ff60e11b5f5260045ffd5b634e487b7160e01b5f52604160045260245ffd5b601f909101601f19168101906001600160401b0382119082101761024f5760405256fe6080806040526004361015610029575b50361561001a575f80fd5b631574f9f360e01b5f5260045ffd5b5f803560e01c9182631272ff8b14610b4f57508163248b85801461079f57816354fd4d501461069b5781635bf2f20d146106615781635cc02d2f146104a25781636b122fe014610312578163813e551d1461011d57816388e5b2d9146100fe57816391db0b7e146100fe578163ce46e046146100e057508063e49617e1146100bb5763e60c3505146100bb575f61000f565b60206100d66100c936611065565b6100d16115e7565b611628565b6040519015158152f35b346100fb57806003193601126100fb57602090604051908152f35b80fd5b60206100d661010c36611015565b926101189291926115e7565b6113fe565b346100fb5760403660031901126100fb576004356001600160401b03811161030e578060040160c0600319833603011261030a57602435916001600160401b03831680930361030657916101e26102026020936101f461027c9796604051948593888086015260018060a01b0361019382610f3e565b1660408601526024830135606086015260448301356080860152606483013560a086015260a46101da6101c96084860184611366565b60c0808a0152610100890191611397565b930190611366565b848303603f190160e086015290611397565b03601f198101835282610f09565b6040519161020f83610ed3565b338352838301526001604083015283606083015260808201528260a08201526040519061023b82610eb8565b7f00000000000000000000000000000000000000000000000000000000000000008252828201526040518094819263f17325e760e01b8352600483016112f0565b0381847f00000000000000000000000000000000000000000000000000000000000000006001600160a01b03165af19081156102fa57906102c3575b602090604051908152f35b506020813d6020116102f2575b816102dd60209383610f09565b810103126102ee57602090516102b8565b5f80fd5b3d91506102d0565b604051903d90823e3d90fd5b8380fd5b8280fd5b5080fd5b346100fb57806003193601126100fb5760608060405161033181610eee565b8381528360208201528360408201520152604051906351753e3760e11b82527f00000000000000000000000000000000000000000000000000000000000000006004830152808260248160018060a01b037f0000000000000000000000000000000000000000000000000000000000000000165afa9081156102fa5780916103fe575b6060826103fa604051928392602084528051602085015260018060a01b0360208201511660408501526040810151151582850152015160808084015260a0830190610fc1565b0390f35b90503d8082843e61040f8184610f09565b82019160208184031261030e578051906001600160401b03821161030a5701906080828403126100fb576040519161044683610eee565b8051835260208101516001600160a01b038116810361030a576020840152610470604082016111b6565b60408401526060810151916001600160401b0383116100fb57509261049891606094016110f7565b82820152826103b4565b346100fb5760203660031901126100fb5760606101206040516104c481610e9c565b83815283602082015283604082015283838201528360808201528360a08201528360c08201528360e0820152836101008201520152604051906328c44a9960e21b82526004356004830152808260248160018060a01b037f0000000000000000000000000000000000000000000000000000000000000000165afa918215610654578192610630575b50602082019081517f00000000000000000000000000000000000000000000000000000000000000000361062157506103fa61012060405193849360208552815160208601525160408501526001600160401b0360408201511660608501526001600160401b0360608201511660808501526001600160401b0360808201511660a085015260a081015160c085015260018060a01b0360c08201511660e085015260018060a01b0360e082015116610100850152610100810151151582850152015161014080840152610160830190610fc1565b63295d5f3960e01b8152600490fd5b61064d9192503d8084833e6106458183610f09565b8101906111c3565b908261054d565b50604051903d90823e3d90fd5b346100fb57806003193601126100fb5760206040517f00000000000000000000000000000000000000000000000000000000000000008152f35b346100fb57806003193601126100fb57602061078b60016103fa936106df7f000000000000000000000000000000000000000000000000000000000000000061147a565b90828561070b7f000000000000000000000000000000000000000000000000000000000000000061147a565b81806107367f000000000000000000000000000000000000000000000000000000000000000061147a565b926040519a888c995191829101848b015e880190601760f91b83830152805192839101602183015e010190601760f91b84830152805192839101600283015e010190838201520301601f198101835282610f09565b604051918291602083526020830190610fc1565b346102ee5760403660031901126102ee576024356004356001600160401b0382116102ee57816004019160c060031982360301126102ee576040516328c44a9960e21b8152600481018390527f00000000000000000000000000000000000000000000000000000000000000006001600160a01b03169390925f84602481885afa938415610acd575f94610b33575b5061084761012085015160208082518301019101611111565b60c08501516001600160a01b03163303610b24576064840135946001600160401b0386168096036102ee57606001946001600160401b03865116016001600160401b038111610b10576001600160401b0316855260208101906108ac843583516112b1565b825260408101936108c2602487013586516112b1565b8552608460608301966108da604482013589516112b1565b885260a481016108ea81856112be565b9050610af8575b5001906108fe82826112be565b9050610ad8575b50507f00000000000000000000000000000000000000000000000000000000000000009560405161093581610eb8565b8481525f60208201526040519061094b82610eb8565b88825260208201908152893b156102ee57604051634692626760e01b81529151600483015251805160248301526020015160448201525f81606481838d5af18015610acd57610a93575b5092610a1e610a789693610a108b9a97946001600160401b0360209b985116966040519687948d8087015260018060a01b0384511660408701525160608601525160808501525160a084015260a06109fc608083015160c080870152610100860190610fc1565b910151838203603f190160e0850152610fc1565b03601f198101845283610f09565b60405192610a2b84610ed3565b3384528784015260016040840152606083015260808201528560a082015260405191610a5683610eb8565b82528482015260405195868094819363f17325e760e01b8352600483016112f0565b03925af19081156102fa57906102c357602090604051908152f35b6001600160401b039950610a789693610a1060209996939a9794610aba5f610a1e95610f09565b5f9c5094979a9396995050939650610995565b6040513d5f823e3d90fd5b610aec91610ae5916112be565b3691610f6d565b60808201528880610905565b610ae5610b0591856112be565b60a08501528b6108f1565b634e487b7160e01b5f52601160045260245ffd5b637bf6a16f60e01b5f5260045ffd5b610b489194503d805f833e6106458183610f09565b928661082e565b346102ee5760603660031901126102ee57600435906001600160401b0382116102ee5761014060031983360301126102ee57610b8a81610e9c565b81600401358152602081019060248301358252610ba960448401610f2a565b6040820152610bba60648401610f2a565b9060608101918252610bce60848501610f2a565b6080820190815260a082019460a48101358652610bed60c48201610f3e565b60c0840152610bfe60e48201610f3e565b60e084015261010481013580151581036102ee576101008401526101248101356001600160401b0381116102ee57610120916004610c3f9236920101610fa3565b92019182526024356001600160401b0381116102ee57610c63903690600401610fa3565b937f0000000000000000000000000000000000000000000000000000000000000000905103610e8d576001600160401b038351168015159081610e83575b50610e7457516001600160401b0316610e655782518301926020818503126102ee576020810151906001600160401b0382116102ee57019360e0858503126102ee576040519260e084018481106001600160401b03821117610e515760405260208601518452610d1360408701611099565b60208501908152606087015190604086019182526080880151926060870193845260a08901519460808801958652610d4d60c08b016110ad565b9860a08901998a5260e08b01516001600160401b0381116102ee5760209b8c610d7e9281610d9595019201016110f7565b9760c08a01988952518b8082518301019101611111565b97519051149788610e36575b505086610e1d575b5085610e0e575b5084610dfe575b5083610dee575b5082610dd1575b50506040519015158152f35b608091925051838151910120910151828151910120148280610dc5565b5160608301511015925084610dbe565b5160408401511015935085610db7565b51848701511015945086610db0565b5185516001600160a01b03908116911614955087610da9565b5190516001600160401b039182169116101596508880610da1565b634e487b7160e01b5f52604160045260245ffd5b637b6227e960e11b5f5260045ffd5b631ab7da6b60e01b5f5260045ffd5b9050421186610ca1565b635f9bd90760e11b5f5260045ffd5b61014081019081106001600160401b03821117610e5157604052565b604081019081106001600160401b03821117610e5157604052565b60c081019081106001600160401b03821117610e5157604052565b608081019081106001600160401b03821117610e5157604052565b90601f801991011681019081106001600160401b03821117610e5157604052565b35906001600160401b03821682036102ee57565b35906001600160a01b03821682036102ee57565b6001600160401b038111610e5157601f01601f191660200190565b929192610f7982610f52565b91610f876040519384610f09565b8294818452818301116102ee578281602093845f960137010152565b9080601f830112156102ee57816020610fbe93359101610f6d565b90565b805180835260209291819084018484015e5f828201840152601f01601f1916010190565b9181601f840112156102ee578235916001600160401b0383116102ee576020808501948460051b0101116102ee57565b60406003198201126102ee576004356001600160401b0381116102ee578161103f91600401610fe5565b92909291602435906001600160401b0382116102ee5761106191600401610fe5565b9091565b60206003198201126102ee57600435906001600160401b0382116102ee576101409082900360031901126102ee5760040190565b51906001600160a01b03821682036102ee57565b51906001600160401b03821682036102ee57565b9291926110cd82610f52565b916110db6040519384610f09565b8294818452818301116102ee578281602093845f96015e010152565b9080601f830112156102ee578151610fbe926020016110c1565b6020818303126102ee578051906001600160401b0382116102ee570160c0818303126102ee576040519161114483610ed3565b61114d82611099565b835260208201516020840152604082015160408401526060820151606084015260808201516001600160401b0381116102ee578161118c9184016110f7565b608084015260a08201516001600160401b0381116102ee576111ae92016110f7565b60a082015290565b519081151582036102ee57565b6020818303126102ee578051906001600160401b0382116102ee570190610140828203126102ee57604051916111f883610e9c565b8051835260208101516020840152611212604082016110ad565b6040840152611223606082016110ad565b6060840152611234608082016110ad565b608084015260a081015160a084015261124f60c08201611099565b60c084015261126060e08201611099565b60e084015261127261010082016111b6565b610100840152610120810151906001600160401b0382116102ee57019080601f830112156102ee5781516112a8926020016110c1565b61012082015290565b91908201809211610b1057565b903590601e19813603018212156102ee57018035906001600160401b0382116102ee576020019181360383136102ee57565b9060209081835280518284015201519060408082015260018060a01b0382511660608201526001600160401b0360208301511660808201526040820151151560a0820152606082015160c082015261010060a061135d608085015160c060e0860152610120850190610fc1565b93015191015290565b9035601e19823603018112156102ee5701602081359101916001600160401b0382116102ee5781360383136102ee57565b908060209392818452848401375f828201840152601f01601f1916010190565b91908110156113c75760051b0190565b634e487b7160e01b5f52603260045260245ffd5b91908110156113c75760051b8101359061013e19813603018212156102ee570190565b9290919281830361146b575f91345b84841061141f57505050505050600190565b61142a8483886113b7565b3581811161145c576114406100d18688876113db565b15611451576001910393019261140d565b505050505050505f90565b63044044a560e21b5f5260045ffd5b63251f56a160e21b5f5260045ffd5b805f9172184f03e93ff9f4daa797ed6e38ed64bf6a1f0160401b8210156115c4575b806d04ee2d6d415b85acef8100000000600a9210156115a9575b662386f26fc10000811015611595575b6305f5e100811015611584575b612710811015611575575b6064811015611567575b101561155c575b600a6021600184019361150185610f52565b9461150f6040519687610f09565b80865261151e601f1991610f52565b013660208701378401015b5f1901916f181899199a1a9b1b9c1cb0b131b232b360811b8282061a835304801561155757600a9091611529565b505090565b6001909101906114ef565b6064600291049301926114e8565b612710600491049301926114de565b6305f5e100600891049301926114d3565b662386f26fc10000601091049301926114c6565b6d04ee2d6d415b85acef8100000000602091049301926114b6565b506040915072184f03e93ff9f4daa797ed6e38ed64bf6a1f0160401b810461149c565b7f00000000000000000000000000000000000000000000000000000000000000006001600160a01b0316330361161957565b634ca8886760e01b5f5260045ffd5b60e0013560018060a01b0381168091036102ee5730149056fea26469706673582212206d9604e5bfcd46506c7afe15306c1f3764d3ba390347df917823ef0ea5f4426964736f6c634300081a0033","linkReferences":{}},"methodIdentifiers":{"ATTESTATION_SCHEMA()":"5bf2f20d","attest((bytes32,bytes32,uint64,uint64,uint64,bytes32,address,address,bool,bytes))":"e60c3505","checkStatement((bytes32,bytes32,uint64,uint64,uint64,bytes32,address,address,bool,bytes),bytes,bytes32)":"1272ff8b","getSchema()":"6b122fe0","getStatement(bytes32)":"5cc02d2f","isPayable()":"ce46e046","makeStatement((address,uint256,uint256,uint256,string,string),uint64)":"813e551d","multiAttest((bytes32,bytes32,uint64,uint64,uint64,bytes32,address,address,bool,bytes)[],uint256[])":"91db0b7e","multiRevoke((bytes32,bytes32,uint64,uint64,uint64,bytes32,address,address,bool,bytes)[],uint256[])":"88e5b2d9","reviseStatement(bytes32,(uint256,uint256,uint256,uint64,string,string))":"248b8580","revoke((bytes32,bytes32,uint64,uint64,uint64,bytes32,address,address,bool,bytes))":"e49617e1","version()":"54fd4d50"},"id":63}