{"abi":[{"type":"constructor","inputs":[{"name":"_eas","type":"address","internalType":"contract IEAS"},{"name":"_erc20Escrow","type":"address","internalType":"contract ERC20EscrowObligation"},{"name":"_erc20Payment","type":"address","internalType":"contract ERC20PaymentObligation"}],"stateMutability":"nonpayable"},{"type":"function","name":"buyErc20ForErc20","inputs":[{"name":"bidToken","type":"address","internalType":"address"},{"name":"bidAmount","type":"uint256","internalType":"uint256"},{"name":"askToken","type":"address","internalType":"address"},{"name":"askAmount","type":"uint256","internalType":"uint256"},{"name":"expiration","type":"uint64","internalType":"uint64"}],"outputs":[{"name":"","type":"bytes32","internalType":"bytes32"}],"stateMutability":"nonpayable"},{"type":"function","name":"payErc20ForErc20","inputs":[{"name":"buyAttestation","type":"bytes32","internalType":"bytes32"}],"outputs":[{"name":"","type":"bytes32","internalType":"bytes32"}],"stateMutability":"nonpayable"},{"type":"function","name":"permitAndBuyErc20ForErc20","inputs":[{"name":"bidToken","type":"address","internalType":"address"},{"name":"bidAmount","type":"uint256","internalType":"uint256"},{"name":"askToken","type":"address","internalType":"address"},{"name":"askAmount","type":"uint256","internalType":"uint256"},{"name":"expiration","type":"uint64","internalType":"uint64"},{"name":"deadline","type":"uint256","internalType":"uint256"},{"name":"v","type":"uint8","internalType":"uint8"},{"name":"r","type":"bytes32","internalType":"bytes32"},{"name":"s","type":"bytes32","internalType":"bytes32"}],"outputs":[{"name":"","type":"bytes32","internalType":"bytes32"}],"stateMutability":"nonpayable"},{"type":"function","name":"permitAndBuyWithErc20","inputs":[{"name":"token","type":"address","internalType":"address"},{"name":"amount","type":"uint256","internalType":"uint256"},{"name":"arbiter","type":"address","internalType":"address"},{"name":"demand","type":"bytes","internalType":"bytes"},{"name":"expiration","type":"uint64","internalType":"uint64"},{"name":"deadline","type":"uint256","internalType":"uint256"},{"name":"v","type":"uint8","internalType":"uint8"},{"name":"r","type":"bytes32","internalType":"bytes32"},{"name":"s","type":"bytes32","internalType":"bytes32"}],"outputs":[{"name":"","type":"bytes32","internalType":"bytes32"}],"stateMutability":"nonpayable"},{"type":"function","name":"permitAndPayErc20ForErc20","inputs":[{"name":"buyAttestation","type":"bytes32","internalType":"bytes32"},{"name":"deadline","type":"uint256","internalType":"uint256"},{"name":"v","type":"uint8","internalType":"uint8"},{"name":"r","type":"bytes32","internalType":"bytes32"},{"name":"s","type":"bytes32","internalType":"bytes32"}],"outputs":[{"name":"","type":"bytes32","internalType":"bytes32"}],"stateMutability":"nonpayable"},{"type":"function","name":"permitAndPayWithErc20","inputs":[{"name":"token","type":"address","internalType":"address"},{"name":"amount","type":"uint256","internalType":"uint256"},{"name":"payee","type":"address","internalType":"address"},{"name":"deadline","type":"uint256","internalType":"uint256"},{"name":"v","type":"uint8","internalType":"uint8"},{"name":"r","type":"bytes32","internalType":"bytes32"},{"name":"s","type":"bytes32","internalType":"bytes32"}],"outputs":[{"name":"","type":"bytes32","internalType":"bytes32"}],"stateMutability":"nonpayable"},{"type":"error","name":"CouldntCollectPayment","inputs":[]}],"bytecode":{"object":"0x60803460b957601f610d6138819003918201601f19168301916001600160401b0383118484101760bd5780849260609460405283398101031260b95780516001600160a01b038116919082900360b95760208101516001600160a01b038116919082900360b957604001516001600160a01b038116929083900360b95760018060a01b03195f5416175f5560018060a01b0319600154161760015560018060a01b03196002541617600255604051610c8f90816100d28239f35b5f80fd5b634e487b7160e01b5f52604160045260245ffdfe60806040526004361015610011575f80fd5b5f5f3560e01c80631b24bf52146105ef57806367cebb701461048757806372448d4d1461035b578063a7a6884d14610295578063a8270530146101d65763c26613731461005c575f80fd5b346101d35760e03660031901126101d3578061007661062c565b602435610081610642565b6084359260ff841684036101d1576002546001600160a01b03918216949116843b156101cd576100d6918691604051938492839263d505accf60e01b845260c4359160a435918a606435913360048901610704565b038183885af19081156101c25785916101a4575b5050906020926101459260018060a01b0360025416926040519261010d8461069d565b8352858301526001600160a01b031660408083019190915251630fba221960e41b8152958693849283919033908190600485016109fa565b03925af19081156101985790610161575b602090604051908152f35b506020813d602011610190575b8161017b602093836106b8565b8101031261018c5760209051610156565b5f80fd5b3d915061016e565b604051903d90823e3d90fd5b816101b1919493946106b8565b6101bd5790835f6100ea565b505050fd5b6040513d87823e3d90fd5b8580fd5b845b80fd5b50346101d35760203660031901126101d35780546040516328c44a9960e21b815260048035908201819052918390829060249082906001600160a01b03165afa90811561028a57602061024961012061025f95946102599488859992610267575b5050015182808251830101910161093b565b01518480825183010191016109bb565b90610b48565b604051908152f35b61028392503d8091833e61027b81836106b8565b81019061084f565b5f80610237565b6040513d85823e3d90fd5b50346101d3576101203660031901126101d3576102b061062c565b6024356102bb610642565b906102c4610658565b936102cd6106f4565b6001546001600160a01b038681169116813b1561035757918391610317938360405180968195829463d505accf60e01b8452610104359160e435918d60a435913360048901610704565b03925af1801561034c57610337575b602061025f8760643587878a610a39565b6103428280926106b8565b6101d35780610326565b6040513d84823e3d90fd5b8380fd5b50346101d35760a03660031901126101d3576004356044359160ff831683036101d35780546040516328c44a9960e21b815260048101849052908290829060249082906001600160a01b03165afa90811561034c576103d56101206103e693602093869161046d575b50015182808251830101910161093b565b0151602080825183010191016109bb565b8051600254602083015192956001600160a01b03918216939190921691823b156101d1579161043d93918580946040519687958694859363d505accf60e01b85526084359260643592602435913360048901610704565b03925af1801561034c57610458575b602061025f8585610b48565b6104638280926106b8565b6101d3578061044c565b61048191503d8088833e61027b81836106b8565b5f6103c4565b503461018c5761012036600319011261018c576104a261062c565b90602435906104af610642565b6064356001600160401b03811161018c573660238201121561018c5780600401356104d9816106d9565b916104e760405193846106b8565b818352366024838301011161018c57815f92602460209301838601378301015261050f610658565b916105186106f4565b60015490966001600160a01b03908116969116863b1561018c57610562975f91604051998a92839263d505accf60e01b8452610104359160e435918860a435913360048901610704565b0381838a5af19687156105e457610145976105cf575b506020949560018060a01b036001541693604051936105968561066e565b60018060a01b031684528684015260408301526060820152846040518097819582946307e738a360e11b84523391339160048601610745565b602095505f6105dd916106b8565b5f94610578565b6040513d5f823e3d90fd5b3461018c5760a036600319011261018c57602061025f61060d61062c565b610615610642565b9061061e610658565b916064359160243590610a39565b600435906001600160a01b038216820361018c57565b604435906001600160a01b038216820361018c57565b608435906001600160401b038216820361018c57565b608081019081106001600160401b0382111761068957604052565b634e487b7160e01b5f52604160045260245ffd5b606081019081106001600160401b0382111761068957604052565b90601f801991011681019081106001600160401b0382111761068957604052565b6001600160401b03811161068957601f01601f191660200190565b60c4359060ff8216820361018c57565b9360c095919897969360ff9360e087019a60018060a01b0316875260018060a01b031660208701526040860152606085015216608083015260a08201520152565b926001600160401b036101206020606080969998956080895260018060a01b0381511660808a015282810151608060a08b01528051938491826101008d015201858b015e5f84848b01015260018060a01b0360408201511660c08a0152015160e0880152601f80199101168601019616602085015260018060a01b0316604084015260018060a01b0316910152565b51906001600160401b038216820361018c57565b51906001600160a01b038216820361018c57565b5190811515820361018c57565b81601f8201121561018c57805190610820826106d9565b9261082e60405194856106b8565b8284526020838301011161018c57815f9260208093018386015e8301015290565b60208183031261018c578051906001600160401b03821161018c57016101408183031261018c576040519161014083018381106001600160401b038211176106895760405281518352602082015160208401526108ae604083016107d4565b60408401526108bf606083016107d4565b60608401526108d0608083016107d4565b608084015260a082015160a08401526108eb60c083016107e8565b60c08401526108fc60e083016107e8565b60e084015261090e61010083016107fc565b6101008401526101208201516001600160401b03811161018c576109329201610809565b61012082015290565b60208183031261018c578051906001600160401b03821161018c57019060808282031261018c576040519161096f8361066e565b610978816107e8565b835260208101516001600160401b03811161018c5760609261099b918301610809565b60208401526109ac604082016107e8565b60408401520151606082015290565b9081606091031261018c576109f260408051926109d78461069d565b6109e0816107e8565b845260208101516020850152016107e8565b604082015290565b81516001600160a01b03908116825260208084015190830152604092830151811692820192909252918116606083015291909116608082015260a00190565b600154600254604051610b049760209790966001600160a01b0394851696949093169492610a668361069d565b60018060a01b0316825287820152336040820152610aaf604051918883019060409060018060a01b038151168352602081015160208401528160018060a01b0391015116910152565b60608152610abe6080826106b8565b60405193610acb8561066e565b84528684015260018060a01b0316604083015260608201525f6040518096819582946307e738a360e11b84523391339160048601610745565b03925af19081156105e4575f91610b19575090565b90506020813d602011610b40575b81610b34602093836106b8565b8101031261018c575190565b3d9150610b27565b6020610b7b5f9360018060a01b036002541690604051958680948193630fba221960e41b835233903390600485016109fa565b03925af19182156105e4575f92610c24575b506001546040516330088bc960e01b8152600481019290925260248201839052602090829060449082905f906001600160a01b03165af19081156105e4575f91610bea575b5015610bdb5790565b636c7b6f5560e11b5f5260045ffd5b90506020813d602011610c1c575b81610c05602093836106b8565b8101031261018c57610c16906107fc565b5f610bd2565b3d9150610bf8565b9091506020813d602011610c51575b81610c40602093836106b8565b8101031261018c5751906020610b8d565b3d9150610c3356fea26469706673582212208af01377338620b33240079a8260cc925a7c3d1dfd3bea1e9ecb5e2aa44c3e4d64736f6c634300081b0033","linkReferences":{}},"methodIdentifiers":{"buyErc20ForErc20(address,uint256,address,uint256,uint64)":"1b24bf52","payErc20ForErc20(bytes32)":"a8270530","permitAndBuyErc20ForErc20(address,uint256,address,uint256,uint64,uint256,uint8,bytes32,bytes32)":"a7a6884d","permitAndBuyWithErc20(address,uint256,address,bytes,uint64,uint256,uint8,bytes32,bytes32)":"67cebb70","permitAndPayErc20ForErc20(bytes32,uint256,uint8,bytes32,bytes32)":"72448d4d","permitAndPayWithErc20(address,uint256,address,uint256,uint8,bytes32,bytes32)":"c2661373"},"id":100}