{"abi":[{"type":"constructor","inputs":[{"name":"_baseStatement","type":"address","internalType":"contract TokenBundleEscrowObligation"},{"name":"_specificAttestation","type":"address","internalType":"contract SpecificAttestationArbiter"}],"stateMutability":"nonpayable"},{"type":"function","name":"checkStatement","inputs":[{"name":"statement","type":"tuple","internalType":"struct Attestation","components":[{"name":"uid","type":"bytes32","internalType":"bytes32"},{"name":"schema","type":"bytes32","internalType":"bytes32"},{"name":"time","type":"uint64","internalType":"uint64"},{"name":"expirationTime","type":"uint64","internalType":"uint64"},{"name":"revocationTime","type":"uint64","internalType":"uint64"},{"name":"refUID","type":"bytes32","internalType":"bytes32"},{"name":"recipient","type":"address","internalType":"address"},{"name":"attester","type":"address","internalType":"address"},{"name":"revocable","type":"bool","internalType":"bool"},{"name":"data","type":"bytes","internalType":"bytes"}]},{"name":"demand","type":"bytes","internalType":"bytes"},{"name":"counteroffer","type":"bytes32","internalType":"bytes32"}],"outputs":[{"name":"","type":"bool","internalType":"bool"}],"stateMutability":"view"},{"type":"function","name":"paymentStatement","inputs":[],"outputs":[{"name":"","type":"address","internalType":"contract TokenBundleEscrowObligation"}],"stateMutability":"view"},{"type":"function","name":"specificAttestation","inputs":[],"outputs":[{"name":"","type":"address","internalType":"contract SpecificAttestationArbiter"}],"stateMutability":"view"},{"type":"error","name":"ArrayLengthMismatch","inputs":[]},{"type":"error","name":"InvalidStatement","inputs":[]},{"type":"error","name":"InvalidValidation","inputs":[]}],"bytecode":{"object":"0x60c03461009957601f610b7c38819003918201601f19168301916001600160401b0383118484101761009d578084926040948552833981010312610099578051906001600160a01b03821682036100995760200151906001600160a01b03821682036100995760805260a052604051610aca90816100b282396080518181816052015261035a015260a0518181816105a801526106bf0152f35b5f80fd5b634e487b7160e01b5f52604160045260245ffdfe6080806040526004361015610012575f80fd5b5f3560e01c9081630ac21e33146106ad575080631272ff8b1461008557634bbf918d1461003d575f80fd5b34610081575f366003190112610081576040517f00000000000000000000000000000000000000000000000000000000000000006001600160a01b03168152602090f35b5f80fd5b34610081576060366003190112610081576004356001600160401b0381116100815761014060031982360301126100815760405161014081018181106001600160401b0382111761062557604052816004013581526020810191602481013583526100f26044820161070f565b60408301526101036064820161070f565b90606083019182526101176084820161070f565b608084015260a481013560a084015261013260c48201610723565b60c084015261014360e48201610723565b60e08401526101048101358015158103610081576101008401526101248101356001600160401b038111610081576101209160046101849236920101610752565b92019182526024356001600160401b038111610081576101a8903690600401610752565b92835184016020810194602081830312610081576020810151906001600160401b03821161008157019060e09082900312610081576040519460e086018681106001600160401b038211176106255760405260208201516001600160401b0381116100815781602061021c928501016107c3565b865260408201516001600160401b0381116100815781602061024092850101610828565b916020870192835260608101516001600160401b0381116100815782602061026a928401016107c3565b6040880190815260808201516001600160401b0381116100815783602061029392850101610828565b906060890191825260a08301516001600160401b038111610081578460206102bd928601016107c3565b9260808a0193845260c08101516001600160401b038111610081578560206102e792840101610828565b9460a08b0195865260e0820151916001600160401b038311610081576103109201602001610828565b9460c08a0195865289515190515103610691575151905151036106915751519051518114918215926106a0575b50506106915751604051635bf2f20d60e01b8152906020826004817f00000000000000000000000000000000000000000000000000000000000000006001600160a01b03165afa918215610686575f92610652575b500361063957516001600160401b03168015159081610648575b50610639575190815182016020810192602081830312610081576020810151906001600160401b0382116100815701906101209082900312610081576040519161012083018381106001600160401b0382111761062557604052610412602083016107af565b835260408201516001600160401b038111610081576020908301019380601f8601121561008157845161044481610737565b9561045260405197886106ee565b818752826020838301011161008157815f926020809301838a015e870101526020840194855260608301516001600160401b0381116100815781602061049a928601016107c3565b604085015260808301516001600160401b038111610081578160206104c192860101610828565b606085015260a08301516001600160401b038111610081578160206104e8928601016107c3565b608085015260c08301516001600160401b0381116100815781602061050f92860101610828565b60a085015260e08301516001600160401b03811161008157816020610536928601016107c3565b60c08501526101008301516001600160401b0381116100815781602061055e92860101610828565b60e0850152610120830151906001600160401b03821161008157602061058992610595950101610828565b610100840152826108ad565b1561061657516001600160a01b039081167f0000000000000000000000000000000000000000000000000000000000000000909116036106165751602081805181010312610081576040519060208201908282106001600160401b038311176106255760209160405201518091526044350361061657602060405160018152f35b634af2691560e01b5f5260045ffd5b634e487b7160e01b5f52604160045260245ffd5b63090bd44d60e31b5f5260045ffd5b90504211836103ac565b9091506020813d60201161067e575b8161066e602093836106ee565b8101031261008157519085610392565b3d9150610661565b6040513d5f823e3d90fd5b63512509d360e11b5f5260045ffd5b515114159050858061033d565b34610081575f366003190112610081577f00000000000000000000000000000000000000000000000000000000000000006001600160a01b03168152602090f35b90601f801991011681019081106001600160401b0382111761062557604052565b35906001600160401b038216820361008157565b35906001600160a01b038216820361008157565b6001600160401b03811161062557601f01601f191660200190565b81601f820112156100815780359061076982610737565b9261077760405194856106ee565b8284526020838301011161008157815f926020809301838601378301015290565b6001600160401b0381116106255760051b60200190565b51906001600160a01b038216820361008157565b9080601f830112156100815781516107da81610798565b926107e860405194856106ee565b81845260208085019260051b82010192831161008157602001905b8282106108105750505090565b6020809161081d846107af565b815201910190610803565b9080601f8301121561008157815161083f81610798565b9261084d60405194856106ee565b81845260208085019260051b82010192831161008157602001905b8282106108755750505090565b8151815260209182019101610868565b80518210156108995760209160051b010190565b634e487b7160e01b5f52603260045260245ffd5b604081019182515181515111610a8d575f5b8151518110156109375783516001600160a01b03906108df908390610885565b511660018060a01b036108f3838551610885565b511614801590610912575b61090a576001016108bf565b505050505f90565b50610921816060850151610885565b51610930826020850151610885565b51116108fe565b509150608081019182515160408201908151511161090a575f5b8151518110156109cb5784516001600160a01b0390610971908390610885565b511660018060a01b03610985838551610885565b5116148015906109a5575b61099c57600101610951565b50505050505f90565b506109b48160a0860151610885565b516109c3826060860151610885565b511415610990565b505060c08201805151608083018051519095501161090a575f5b845151811015610a835781516001600160a01b0390610a05908390610885565b511660018060a01b03610a19838851610885565b511614801590610a5d575b8015610a37575b61099c576001016109e5565b50610a4781610100860151610885565b51610a568260c0860151610885565b5111610a2b565b50610a6c8160e0860151610885565b51610a7b8260a0860151610885565b511415610a24565b5050505050600190565b5050505f9056fea26469706673582212203c0fe1890b429014aa2b6a6e5ac48273ef723d76cc1577493530d067774c195b64736f6c634300081b0033","linkReferences":{}},"methodIdentifiers":{"checkStatement((bytes32,bytes32,uint64,uint64,uint64,bytes32,address,address,bool,bytes),bytes,bytes32)":"1272ff8b","paymentStatement()":"4bbf918d","specificAttestation()":"0ac21e33"},"id":70}