{"abi":[{"type":"constructor","inputs":[{"name":"_baseStatement","type":"address","internalType":"contract TokenBundleEscrowObligation"},{"name":"_specificAttestation","type":"address","internalType":"contract SpecificAttestationArbiter"}],"stateMutability":"nonpayable"},{"type":"function","name":"checkStatement","inputs":[{"name":"statement","type":"tuple","internalType":"struct Attestation","components":[{"name":"uid","type":"bytes32","internalType":"bytes32"},{"name":"schema","type":"bytes32","internalType":"bytes32"},{"name":"time","type":"uint64","internalType":"uint64"},{"name":"expirationTime","type":"uint64","internalType":"uint64"},{"name":"revocationTime","type":"uint64","internalType":"uint64"},{"name":"refUID","type":"bytes32","internalType":"bytes32"},{"name":"recipient","type":"address","internalType":"address"},{"name":"attester","type":"address","internalType":"address"},{"name":"revocable","type":"bool","internalType":"bool"},{"name":"data","type":"bytes","internalType":"bytes"}]},{"name":"demand","type":"bytes","internalType":"bytes"},{"name":"counteroffer","type":"bytes32","internalType":"bytes32"}],"outputs":[{"name":"","type":"bool","internalType":"bool"}],"stateMutability":"view"},{"type":"function","name":"paymentStatement","inputs":[],"outputs":[{"name":"","type":"address","internalType":"contract TokenBundleEscrowObligation"}],"stateMutability":"view"},{"type":"function","name":"specificAttestation","inputs":[],"outputs":[{"name":"","type":"address","internalType":"contract SpecificAttestationArbiter"}],"stateMutability":"view"},{"type":"error","name":"ArrayLengthMismatch","inputs":[]},{"type":"error","name":"InvalidStatement","inputs":[]},{"type":"error","name":"InvalidValidation","inputs":[]}],"bytecode":{"object":"0x60c034609457601f610b7838819003918201601f19168301916001600160401b0383118484101760985780849260409485528339810103126094578051906001600160a01b038216820360945760200151906001600160a01b038216820360945760805260a052604051610acb90816100ad82396080518181816052015261035a015260a0518181816105a901526106c00152f35b5f80fd5b634e487b7160e01b5f52604160045260245ffdfe6080806040526004361015610012575f80fd5b5f3560e01c9081630ac21e33146106ae575080631272ff8b1461008557634bbf918d1461003d575f80fd5b34610081575f366003190112610081576040517f00000000000000000000000000000000000000000000000000000000000000006001600160a01b03168152602090f35b5f80fd5b34610081576060366003190112610081576004356001600160401b0381116100815761014060031982360301126100815760405161014081018181106001600160401b0382111761062657604052816004013581526020810191602481013583526100f260448201610710565b604083015261010360648201610710565b906060830191825261011760848201610710565b608084015260a481013560a084015261013260c48201610724565b60c084015261014360e48201610724565b60e08401526101048101358015158103610081576101008401526101248101356001600160401b038111610081576101209160046101849236920101610753565b92019182526024356001600160401b038111610081576101a8903690600401610753565b92835184016020810194602081830312610081576020810151906001600160401b03821161008157019060e09082900312610081576040519460e086018681106001600160401b038211176106265760405260208201516001600160401b0381116100815781602061021c928501016107c4565b865260408201516001600160401b0381116100815781602061024092850101610829565b916020870192835260608101516001600160401b0381116100815782602061026a928401016107c4565b6040880190815260808201516001600160401b0381116100815783602061029392850101610829565b906060890191825260a08301516001600160401b038111610081578460206102bd928601016107c4565b9260808a0193845260c08101516001600160401b038111610081578560206102e792840101610829565b9460a08b0195865260e0820151916001600160401b038311610081576103109201602001610829565b9460c08a0195865289515190515103610692575151905151036106925751519051518114918215926106a1575b50506106925751604051635bf2f20d60e01b8152906020826004817f00000000000000000000000000000000000000000000000000000000000000006001600160a01b03165afa918215610687575f92610653575b500361063a57516001600160401b03168015159081610649575b5061063a57519081518201906020820192602081840312610081576020810151906001600160401b0382116100815701916101209083900312610081576040519061012082018281106001600160401b038211176106265760405260208301516001600160401b03811161008157846020610429928601016107c4565b825260408301516001600160401b0381116100815784602061044d92860101610829565b602083015260608301516001600160401b03811161008157846020610474928601016107c4565b604083015260808301516001600160401b0381116100815784602061049b92860101610829565b606083015260a08301516001600160401b038111610081578460206104c2928601016107c4565b608083015260c08301516001600160401b038111610081578460206104e992860101610829565b60a083015260e08301516001600160401b0381116100815784602061051092860101610829565b60c083015261052261010084016107b0565b9260e083019384526101208101516001600160401b0381116100815760209101019184601f8401121561008157825161055a81610738565b9561056860405197886106ef565b81875260208286010111610081576020815f92826105969701838a015e8701015261010081019485526108ae565b1561061757516001600160a01b039081167f0000000000000000000000000000000000000000000000000000000000000000909116036106175751602081805181010312610081576040519060208201908282106001600160401b038311176106265760209160405201518091526044350361061757602060405160018152f35b634af2691560e01b5f5260045ffd5b634e487b7160e01b5f52604160045260245ffd5b63090bd44d60e31b5f5260045ffd5b90504211836103ac565b9091506020813d60201161067f575b8161066f602093836106ef565b8101031261008157519085610392565b3d9150610662565b6040513d5f823e3d90fd5b63512509d360e11b5f5260045ffd5b515114159050858061033d565b34610081575f366003190112610081577f00000000000000000000000000000000000000000000000000000000000000006001600160a01b03168152602090f35b90601f801991011681019081106001600160401b0382111761062657604052565b35906001600160401b038216820361008157565b35906001600160a01b038216820361008157565b6001600160401b03811161062657601f01601f191660200190565b81601f820112156100815780359061076a82610738565b9261077860405194856106ef565b8284526020838301011161008157815f926020809301838601378301015290565b6001600160401b0381116106265760051b60200190565b51906001600160a01b038216820361008157565b9080601f830112156100815781516107db81610799565b926107e960405194856106ef565b81845260208085019260051b82010192831161008157602001905b8282106108115750505090565b6020809161081e846107b0565b815201910190610804565b9080601f8301121561008157815161084081610799565b9261084e60405194856106ef565b81845260208085019260051b82010192831161008157602001905b8282106108765750505090565b8151815260209182019101610869565b805182101561089a5760209160051b010190565b634e487b7160e01b5f52603260045260245ffd5b80515182515111610a8f575f5b8251518110156109325781516001600160a01b03906108db908390610886565b511660018060a01b036108ef838651610886565b51161480159061090d575b610906576001016108bb565b5050505f90565b5061091c816020840151610886565b5161092b826020860151610886565b51116108fa565b506040810191825151604082019081515111610a87575f5b8151518110156109c45784516001600160a01b039061096a908390610886565b511660018060a01b0361097e838551610886565b51161480159061099e575b6109955760010161094a565b50505050505f90565b506109ad816060860151610886565b516109bc826060860151610886565b511415610989565b50509150608081019182515192608082019384515111610a87575f5b845151811015610a7d5781516001600160a01b0390610a00908390610886565b511660018060a01b03610a14838851610886565b511614801590610a57575b8015610a32575b610995576001016109e0565b50610a418160c0860151610886565b51610a508260c0860151610886565b5111610a26565b50610a668160a0860151610886565b51610a758260a0860151610886565b511415610a1f565b5050505050600190565b505050505f90565b50505f9056fea26469706673582212200e8a89ff3da270b7cf43e48c2f3c62b883a23da8ef4c787aa18931e52fd5182764736f6c634300081a0033","linkReferences":{}},"methodIdentifiers":{"checkStatement((bytes32,bytes32,uint64,uint64,uint64,bytes32,address,address,bool,bytes),bytes,bytes32)":"1272ff8b","paymentStatement()":"4bbf918d","specificAttestation()":"0ac21e33"},"id":50}