{"abi":[{"type":"constructor","inputs":[{"name":"_eas","type":"address","internalType":"contract IEAS"},{"name":"_schemaRegistry","type":"address","internalType":"contract ISchemaRegistry"}],"stateMutability":"nonpayable"},{"type":"receive","stateMutability":"payable"},{"type":"function","name":"ATTESTATION_SCHEMA","inputs":[],"outputs":[{"name":"","type":"bytes32","internalType":"bytes32"}],"stateMutability":"view"},{"type":"function","name":"attest","inputs":[{"name":"attestation","type":"tuple","internalType":"struct Attestation","components":[{"name":"uid","type":"bytes32","internalType":"bytes32"},{"name":"schema","type":"bytes32","internalType":"bytes32"},{"name":"time","type":"uint64","internalType":"uint64"},{"name":"expirationTime","type":"uint64","internalType":"uint64"},{"name":"revocationTime","type":"uint64","internalType":"uint64"},{"name":"refUID","type":"bytes32","internalType":"bytes32"},{"name":"recipient","type":"address","internalType":"address"},{"name":"attester","type":"address","internalType":"address"},{"name":"revocable","type":"bool","internalType":"bool"},{"name":"data","type":"bytes","internalType":"bytes"}]}],"outputs":[{"name":"","type":"bool","internalType":"bool"}],"stateMutability":"payable"},{"type":"function","name":"getSchema","inputs":[],"outputs":[{"name":"","type":"tuple","internalType":"struct SchemaRecord","components":[{"name":"uid","type":"bytes32","internalType":"bytes32"},{"name":"resolver","type":"address","internalType":"contract ISchemaResolver"},{"name":"revocable","type":"bool","internalType":"bool"},{"name":"schema","type":"string","internalType":"string"}]}],"stateMutability":"view"},{"type":"function","name":"getStatement","inputs":[{"name":"uid","type":"bytes32","internalType":"bytes32"}],"outputs":[{"name":"","type":"tuple","internalType":"struct Attestation","components":[{"name":"uid","type":"bytes32","internalType":"bytes32"},{"name":"schema","type":"bytes32","internalType":"bytes32"},{"name":"time","type":"uint64","internalType":"uint64"},{"name":"expirationTime","type":"uint64","internalType":"uint64"},{"name":"revocationTime","type":"uint64","internalType":"uint64"},{"name":"refUID","type":"bytes32","internalType":"bytes32"},{"name":"recipient","type":"address","internalType":"address"},{"name":"attester","type":"address","internalType":"address"},{"name":"revocable","type":"bool","internalType":"bool"},{"name":"data","type":"bytes","internalType":"bytes"}]}],"stateMutability":"view"},{"type":"function","name":"isPayable","inputs":[],"outputs":[{"name":"","type":"bool","internalType":"bool"}],"stateMutability":"pure"},{"type":"function","name":"makeStatement","inputs":[{"name":"data","type":"tuple","internalType":"struct StringObligation.StatementData","components":[{"name":"item","type":"string","internalType":"string"}]},{"name":"refUID","type":"bytes32","internalType":"bytes32"}],"outputs":[{"name":"","type":"bytes32","internalType":"bytes32"}],"stateMutability":"nonpayable"},{"type":"function","name":"multiAttest","inputs":[{"name":"attestations","type":"tuple[]","internalType":"struct Attestation[]","components":[{"name":"uid","type":"bytes32","internalType":"bytes32"},{"name":"schema","type":"bytes32","internalType":"bytes32"},{"name":"time","type":"uint64","internalType":"uint64"},{"name":"expirationTime","type":"uint64","internalType":"uint64"},{"name":"revocationTime","type":"uint64","internalType":"uint64"},{"name":"refUID","type":"bytes32","internalType":"bytes32"},{"name":"recipient","type":"address","internalType":"address"},{"name":"attester","type":"address","internalType":"address"},{"name":"revocable","type":"bool","internalType":"bool"},{"name":"data","type":"bytes","internalType":"bytes"}]},{"name":"values","type":"uint256[]","internalType":"uint256[]"}],"outputs":[{"name":"","type":"bool","internalType":"bool"}],"stateMutability":"payable"},{"type":"function","name":"multiRevoke","inputs":[{"name":"attestations","type":"tuple[]","internalType":"struct Attestation[]","components":[{"name":"uid","type":"bytes32","internalType":"bytes32"},{"name":"schema","type":"bytes32","internalType":"bytes32"},{"name":"time","type":"uint64","internalType":"uint64"},{"name":"expirationTime","type":"uint64","internalType":"uint64"},{"name":"revocationTime","type":"uint64","internalType":"uint64"},{"name":"refUID","type":"bytes32","internalType":"bytes32"},{"name":"recipient","type":"address","internalType":"address"},{"name":"attester","type":"address","internalType":"address"},{"name":"revocable","type":"bool","internalType":"bool"},{"name":"data","type":"bytes","internalType":"bytes"}]},{"name":"values","type":"uint256[]","internalType":"uint256[]"}],"outputs":[{"name":"","type":"bool","internalType":"bool"}],"stateMutability":"payable"},{"type":"function","name":"revoke","inputs":[{"name":"attestation","type":"tuple","internalType":"struct Attestation","components":[{"name":"uid","type":"bytes32","internalType":"bytes32"},{"name":"schema","type":"bytes32","internalType":"bytes32"},{"name":"time","type":"uint64","internalType":"uint64"},{"name":"expirationTime","type":"uint64","internalType":"uint64"},{"name":"revocationTime","type":"uint64","internalType":"uint64"},{"name":"refUID","type":"bytes32","internalType":"bytes32"},{"name":"recipient","type":"address","internalType":"address"},{"name":"attester","type":"address","internalType":"address"},{"name":"revocable","type":"bool","internalType":"bool"},{"name":"data","type":"bytes","internalType":"bytes"}]}],"outputs":[{"name":"","type":"bool","internalType":"bool"}],"stateMutability":"payable"},{"type":"function","name":"version","inputs":[],"outputs":[{"name":"","type":"string","internalType":"string"}],"stateMutability":"view"},{"type":"error","name":"AccessDenied","inputs":[]},{"type":"error","name":"InsufficientValue","inputs":[]},{"type":"error","name":"InvalidEAS","inputs":[]},{"type":"error","name":"InvalidLength","inputs":[]},{"type":"error","name":"NotFromStatement","inputs":[]},{"type":"error","name":"NotPayable","inputs":[]}],"bytecode":{"object":"0x61016080604052346101a457604081610f09803803809161002082856101de565b8339810103126101a45780516001600160a01b038116918282036101a45760200151916001600160a01b0383168084036101a457604080519081016001600160401b038111828210176101ca57604052600b815260208101926a737472696e67206974656d60a81b84526001608052600360a0525f60c052156101bb576084948460209560e05261012052610100525f604051958680958194630c1af44f60e31b8352606060048401525180918160648501528484015e818101830184905230602483015260016044830152601f01601f191681010301925af19081156101b0575f9161017a575b5061014052604051610d079081610202823960805181610593015260a051816105be015260c051816105e9015260e05181610c790152610100518161017601526101205181818161032401526108270152610140518181816101440152818161035d01528181610551015261077a0152f35b90506020813d6020116101a8575b81610195602093836101de565b810103126101a457515f610108565b5f80fd5b3d9150610188565b6040513d5f823e3d90fd5b6341bc07ff60e11b5f5260045ffd5b634e487b7160e01b5f52604160045260245ffd5b601f909101601f19168101906001600160401b038211908210176101ca5760405256fe6080806040526004361015610029575b50361561001a575f80fd5b631574f9f360e01b5f5260045ffd5b5f3560e01c908163455577cc146106765750806354fd4d50146105745780635bf2f20d1461053a5780635cc02d2f146102aa5780636b122fe01461010557806388e5b2d9146100e657806391db0b7e146100e6578063ce46e046146100c8578063e49617e1146100a35763e60c3505146100a3575f61000f565b60206100be6100b136610954565b6100b9610c77565b610cb8565b6040519015158152f35b346100e2575f3660031901126100e25760206040515f8152f35b5f80fd5b60206100be6100f436610904565b92610100929192610c77565b610a66565b346100e2575f3660031901126100e257606080604051610124816109a4565b5f81525f60208201525f604082015201526040516351753e3760e11b81527f000000000000000000000000000000000000000000000000000000000000000060048201525f8160248160018060a01b037f0000000000000000000000000000000000000000000000000000000000000000165afa801561029f575f906101ef575b6060906101eb604051928392602084528051602085015260018060a01b0360208201511660408501526040810151151582850152015160808084015260a08301906108b0565b0390f35b503d805f833e6101ff81836109bf565b8101906020818303126100e2578051906001600160401b0382116100e257016080818303126100e25760405190610235826109a4565b8051825260208101516001600160a01b03811681036100e257602083015261025f60408201610a08565b60408301526060810151906001600160401b0382116100e2570182601f820112156100e25760609281602061029693519101610a30565b828201526101a5565b6040513d5f823e3d90fd5b346100e25760203660031901126100e25760606101206040516102cc81610988565b5f81525f60208201525f60408201525f838201525f60808201525f60a08201525f60c08201525f60e08201525f61010082015201526040516328c44a9960e21b815260043560048201525f8160248160018060a01b037f0000000000000000000000000000000000000000000000000000000000000000165afa90811561029f575f91610435575b506020810180517f000000000000000000000000000000000000000000000000000000000000000003610426576101eb61012060405193849360208552815160208601525160408501526001600160401b0360408201511660608501526001600160401b0360608201511660808501526001600160401b0360808201511660a085015260a081015160c085015260018060a01b0360c08201511660e085015260018060a01b0360e0820151166101008501526101008101511515828501520151610140808401526101608301906108b0565b63295d5f3960e01b5f5260045ffd5b90503d805f833e61044681836109bf565b8101906020818303126100e2578051906001600160401b0382116100e2570190610140828203126100e2576040519161047e83610988565b8051835260208101516020840152610498604082016109e0565b60408401526104a9606082016109e0565b60608401526104ba608082016109e0565b608084015260a081015160a08401526104d560c082016109f4565b60c08401526104e660e082016109f4565b60e08401526104f86101008201610a08565b610100840152610120810151906001600160401b0382116100e257019080601f830112156100e257815161052e92602001610a30565b61012082015281610354565b346100e2575f3660031901126100e25760206040517f00000000000000000000000000000000000000000000000000000000000000008152f35b346100e2575f3660031901126100e2576101eb602061066260016105b77f0000000000000000000000000000000000000000000000000000000000000000610b0a565b81846105e27f0000000000000000000000000000000000000000000000000000000000000000610b0a565b818061060d7f0000000000000000000000000000000000000000000000000000000000000000610b0a565b9260405199878b985191829101848a015e870190601760f91b83830152805192839101602183015e010190601760f91b84830152805192839101600283015e01015f838201520301601f1981018352826109bf565b6040519182916020835260208301906108b0565b346100e25760403660031901126100e2576004356001600160401b0381116100e25780360360206003198201126100e257602083810152600482013590602219018112156100e25701602460048201359101906001600160401b0381116100e25780360382136100e25782816080926107199460206040850152816060850152848401375f838284010152601f801991011681010301601f1981018352826109bf565b6040519060c082018281106001600160401b0382111761089c576040523382525f60208301525f6040830152602435606083015260808201525f60a082015260405160408101908082106001600160401b0383111761089c576020916040527f000000000000000000000000000000000000000000000000000000000000000081528181019283526040518093819263f17325e760e01b8352846004840152516024830152516040604483015260018060a01b0381511660648301526001600160401b03848201511660848301526040810151151560a4830152606081015160c483015260a0610819608083015160c060e48601526101248501906108b0565b91015161010483015203815f7f00000000000000000000000000000000000000000000000000000000000000006001600160a01b03165af1801561029f575f90610869575b602090604051908152f35b506020813d602011610894575b81610883602093836109bf565b810103126100e2576020905161085e565b3d9150610876565b634e487b7160e01b5f52604160045260245ffd5b805180835260209291819084018484015e5f828201840152601f01601f1916010190565b9181601f840112156100e2578235916001600160401b0383116100e2576020808501948460051b0101116100e257565b60406003198201126100e2576004356001600160401b0381116100e2578161092e916004016108d4565b92909291602435906001600160401b0382116100e257610950916004016108d4565b9091565b60206003198201126100e257600435906001600160401b0382116100e2576101409082900360031901126100e25760040190565b61014081019081106001600160401b0382111761089c57604052565b608081019081106001600160401b0382111761089c57604052565b90601f801991011681019081106001600160401b0382111761089c57604052565b51906001600160401b03821682036100e257565b51906001600160a01b03821682036100e257565b519081151582036100e257565b6001600160401b03811161089c57601f01601f191660200190565b929192610a3c82610a15565b91610a4a60405193846109bf565b8294818452818301116100e2578281602093845f96015e010152565b929092818403610afb575f91345b85841015610af05781841015610adc578360051b8086013590828211610acd5784013561013e19853603018112156100e257610ab1908501610cb8565b15610ac25760019103930192610a74565b505050505050505f90565b63044044a560e21b5f5260045ffd5b634e487b7160e01b5f52603260045260245ffd5b505050505050600190565b63251f56a160e21b5f5260045ffd5b805f9172184f03e93ff9f4daa797ed6e38ed64bf6a1f0160401b821015610c54575b806d04ee2d6d415b85acef8100000000600a921015610c39575b662386f26fc10000811015610c25575b6305f5e100811015610c14575b612710811015610c05575b6064811015610bf7575b1015610bec575b600a60216001840193610b9185610a15565b94610b9f60405196876109bf565b808652610bae601f1991610a15565b013660208701378401015b5f1901916f181899199a1a9b1b9c1cb0b131b232b360811b8282061a8353048015610be757600a9091610bb9565b505090565b600190910190610b7f565b606460029104930192610b78565b61271060049104930192610b6e565b6305f5e10060089104930192610b63565b662386f26fc1000060109104930192610b56565b6d04ee2d6d415b85acef810000000060209104930192610b46565b506040915072184f03e93ff9f4daa797ed6e38ed64bf6a1f0160401b8104610b2c565b7f00000000000000000000000000000000000000000000000000000000000000006001600160a01b03163303610ca957565b634ca8886760e01b5f5260045ffd5b60e0013560018060a01b0381168091036100e25730149056fea2646970667358221220c6ddc9af4ffb6487bdd40c927947ef460fec4be625ffb129736feba3d002112b64736f6c634300081b0033","linkReferences":{}},"methodIdentifiers":{"ATTESTATION_SCHEMA()":"5bf2f20d","attest((bytes32,bytes32,uint64,uint64,uint64,bytes32,address,address,bool,bytes))":"e60c3505","getSchema()":"6b122fe0","getStatement(bytes32)":"5cc02d2f","isPayable()":"ce46e046","makeStatement((string),bytes32)":"455577cc","multiAttest((bytes32,bytes32,uint64,uint64,uint64,bytes32,address,address,bool,bytes)[],uint256[])":"91db0b7e","multiRevoke((bytes32,bytes32,uint64,uint64,uint64,bytes32,address,address,bool,bytes)[],uint256[])":"88e5b2d9","revoke((bytes32,bytes32,uint64,uint64,uint64,bytes32,address,address,bool,bytes))":"e49617e1","version()":"54fd4d50"},"id":80}