{"abi":[{"type":"constructor","inputs":[{"name":"_eas","type":"address","internalType":"contract IEAS"},{"name":"_schemaRegistry","type":"address","internalType":"contract ISchemaRegistry"}],"stateMutability":"nonpayable"},{"type":"receive","stateMutability":"payable"},{"type":"function","name":"ATTESTATION_SCHEMA","inputs":[],"outputs":[{"name":"","type":"bytes32","internalType":"bytes32"}],"stateMutability":"view"},{"type":"function","name":"attest","inputs":[{"name":"attestation","type":"tuple","internalType":"struct Attestation","components":[{"name":"uid","type":"bytes32","internalType":"bytes32"},{"name":"schema","type":"bytes32","internalType":"bytes32"},{"name":"time","type":"uint64","internalType":"uint64"},{"name":"expirationTime","type":"uint64","internalType":"uint64"},{"name":"revocationTime","type":"uint64","internalType":"uint64"},{"name":"refUID","type":"bytes32","internalType":"bytes32"},{"name":"recipient","type":"address","internalType":"address"},{"name":"attester","type":"address","internalType":"address"},{"name":"revocable","type":"bool","internalType":"bool"},{"name":"data","type":"bytes","internalType":"bytes"}]}],"outputs":[{"name":"","type":"bool","internalType":"bool"}],"stateMutability":"payable"},{"type":"function","name":"decodeStatementData","inputs":[{"name":"data","type":"bytes","internalType":"bytes"}],"outputs":[{"name":"","type":"tuple","internalType":"struct StringObligation.StatementData","components":[{"name":"item","type":"string","internalType":"string"}]}],"stateMutability":"pure"},{"type":"function","name":"getSchema","inputs":[],"outputs":[{"name":"","type":"tuple","internalType":"struct SchemaRecord","components":[{"name":"uid","type":"bytes32","internalType":"bytes32"},{"name":"resolver","type":"address","internalType":"contract ISchemaResolver"},{"name":"revocable","type":"bool","internalType":"bool"},{"name":"schema","type":"string","internalType":"string"}]}],"stateMutability":"view"},{"type":"function","name":"getStatement","inputs":[{"name":"uid","type":"bytes32","internalType":"bytes32"}],"outputs":[{"name":"","type":"tuple","internalType":"struct Attestation","components":[{"name":"uid","type":"bytes32","internalType":"bytes32"},{"name":"schema","type":"bytes32","internalType":"bytes32"},{"name":"time","type":"uint64","internalType":"uint64"},{"name":"expirationTime","type":"uint64","internalType":"uint64"},{"name":"revocationTime","type":"uint64","internalType":"uint64"},{"name":"refUID","type":"bytes32","internalType":"bytes32"},{"name":"recipient","type":"address","internalType":"address"},{"name":"attester","type":"address","internalType":"address"},{"name":"revocable","type":"bool","internalType":"bool"},{"name":"data","type":"bytes","internalType":"bytes"}]}],"stateMutability":"view"},{"type":"function","name":"getStatementData","inputs":[{"name":"uid","type":"bytes32","internalType":"bytes32"}],"outputs":[{"name":"","type":"tuple","internalType":"struct StringObligation.StatementData","components":[{"name":"item","type":"string","internalType":"string"}]}],"stateMutability":"view"},{"type":"function","name":"isPayable","inputs":[],"outputs":[{"name":"","type":"bool","internalType":"bool"}],"stateMutability":"pure"},{"type":"function","name":"makeStatement","inputs":[{"name":"data","type":"tuple","internalType":"struct StringObligation.StatementData","components":[{"name":"item","type":"string","internalType":"string"}]},{"name":"refUID","type":"bytes32","internalType":"bytes32"}],"outputs":[{"name":"uid_","type":"bytes32","internalType":"bytes32"}],"stateMutability":"nonpayable"},{"type":"function","name":"multiAttest","inputs":[{"name":"attestations","type":"tuple[]","internalType":"struct Attestation[]","components":[{"name":"uid","type":"bytes32","internalType":"bytes32"},{"name":"schema","type":"bytes32","internalType":"bytes32"},{"name":"time","type":"uint64","internalType":"uint64"},{"name":"expirationTime","type":"uint64","internalType":"uint64"},{"name":"revocationTime","type":"uint64","internalType":"uint64"},{"name":"refUID","type":"bytes32","internalType":"bytes32"},{"name":"recipient","type":"address","internalType":"address"},{"name":"attester","type":"address","internalType":"address"},{"name":"revocable","type":"bool","internalType":"bool"},{"name":"data","type":"bytes","internalType":"bytes"}]},{"name":"values","type":"uint256[]","internalType":"uint256[]"}],"outputs":[{"name":"","type":"bool","internalType":"bool"}],"stateMutability":"payable"},{"type":"function","name":"multiRevoke","inputs":[{"name":"attestations","type":"tuple[]","internalType":"struct Attestation[]","components":[{"name":"uid","type":"bytes32","internalType":"bytes32"},{"name":"schema","type":"bytes32","internalType":"bytes32"},{"name":"time","type":"uint64","internalType":"uint64"},{"name":"expirationTime","type":"uint64","internalType":"uint64"},{"name":"revocationTime","type":"uint64","internalType":"uint64"},{"name":"refUID","type":"bytes32","internalType":"bytes32"},{"name":"recipient","type":"address","internalType":"address"},{"name":"attester","type":"address","internalType":"address"},{"name":"revocable","type":"bool","internalType":"bool"},{"name":"data","type":"bytes","internalType":"bytes"}]},{"name":"values","type":"uint256[]","internalType":"uint256[]"}],"outputs":[{"name":"","type":"bool","internalType":"bool"}],"stateMutability":"payable"},{"type":"function","name":"revoke","inputs":[{"name":"attestation","type":"tuple","internalType":"struct Attestation","components":[{"name":"uid","type":"bytes32","internalType":"bytes32"},{"name":"schema","type":"bytes32","internalType":"bytes32"},{"name":"time","type":"uint64","internalType":"uint64"},{"name":"expirationTime","type":"uint64","internalType":"uint64"},{"name":"revocationTime","type":"uint64","internalType":"uint64"},{"name":"refUID","type":"bytes32","internalType":"bytes32"},{"name":"recipient","type":"address","internalType":"address"},{"name":"attester","type":"address","internalType":"address"},{"name":"revocable","type":"bool","internalType":"bool"},{"name":"data","type":"bytes","internalType":"bytes"}]}],"outputs":[{"name":"","type":"bool","internalType":"bool"}],"stateMutability":"payable"},{"type":"function","name":"version","inputs":[],"outputs":[{"name":"","type":"string","internalType":"string"}],"stateMutability":"view"},{"type":"error","name":"AccessDenied","inputs":[]},{"type":"error","name":"AttestationCreateFailed","inputs":[]},{"type":"error","name":"InsufficientValue","inputs":[]},{"type":"error","name":"InvalidEAS","inputs":[]},{"type":"error","name":"InvalidLength","inputs":[]},{"type":"error","name":"NotFromStatement","inputs":[]},{"type":"error","name":"NotPayable","inputs":[]}],"bytecode":{"object":"0x61016080604052346101b2576040816111b9803803809161002082856101ec565b8339810103126101b25780516001600160a01b038116918282036101b25760200151916001600160a01b0383168084036101b257604080519081016001600160401b038111828210176101d857604052600b815260208101926a737472696e67206974656d60a81b84526001608052600360a0525f60c052156101c9576084948460209560e05261012052610100525f604051958680958194630c1af44f60e31b8352606060048401525180918160648501528484015e818101830184905230602483015260016044830152601f01601f191681010301925af19081156101be575f91610188575b5061014052604051610fa990816102108239608051816106e6015260a05181610711015260c0518161073c015260e05181610f1b015261010051816103e301526101205181818161023d01528181610571015261097a01526101405181818161027d015281816103b1015281816105aa015281816106a401526108cd0152f35b90506020813d6020116101b6575b816101a3602093836101ec565b810103126101b257515f610108565b5f80fd5b3d9150610196565b6040513d5f823e3d90fd5b6341bc07ff60e11b5f5260045ffd5b634e487b7160e01b5f52604160045260245ffd5b601f909101601f19168101906001600160401b038211908210176101d85760405256fe6080806040526004361015610029575b50361561001a575f80fd5b631574f9f360e01b5f5260045ffd5b5f3560e01c908163455577cc146107c95750806354fd4d50146106c75780635bf2f20d1461068d5780635cc02d2f146104f75780636b122fe01461037257806388e5b2d91461035357806391db0b7e14610353578063c75c572b14610201578063ce46e046146101e7578063e112ea08146100de578063e49617e1146100b95763e60c3505146100b9575f61000f565b60206100d46100c736610ad3565b6100cf610f19565b610f5a565b6040519015158152f35b346101e35760203660031901126101e3576004356001600160401b0381116101e357366023820112156101e35780600401356001600160401b0381116101e357810160248101913683116101e357606060405161013a81610b3e565b526020818303126101e3576024810135906001600160401b0382116101e3570190602090829003126101e3576040519061017382610b3e565b60248101356001600160401b0381116101e35760249101019180601f840112156101e35782356101a281610baf565b916101b06040519384610b59565b818352602082860101116101e3576020815f92826101df97018386013783010152815260405191829182610ab7565b0390f35b5f80fd5b346101e3575f3660031901126101e35760206040515f8152f35b346101e35760203660031901126101e357606060405161022081610b3e565b526040516328c44a9960e21b815260048035908201525f816024817f00000000000000000000000000000000000000000000000000000000000000006001600160a01b03165afa908115610348575f91610326575b5060208101517f00000000000000000000000000000000000000000000000000000000000000000361031757610120015180518101906020818303126101e3576020810151906001600160401b0382116101e357016020818303126101e357604051906102e182610b3e565b6020810151906001600160401b0382116101e357602061030992816101df9601920101610cee565b815260405191829182610ab7565b63295d5f3960e01b5f5260045ffd5b61034291503d805f833e61033a8183610b59565b810190610c00565b81610275565b6040513d5f823e3d90fd5b60206100d461036136610a67565b9261036d929192610f19565b610d08565b346101e3575f3660031901126101e35760608060405161039181610b23565b5f81525f60208201525f604082015201526040516351753e3760e11b81527f000000000000000000000000000000000000000000000000000000000000000060048201525f8160248160018060a01b037f0000000000000000000000000000000000000000000000000000000000000000165afa8015610348575f90610458575b6060906101df604051928392602084528051602085015260018060a01b0360208201511660408501526040810151151582850152015160808084015260a0830190610a13565b503d805f833e6104688183610b59565b8101906020818303126101e3578051906001600160401b0382116101e357016080818303126101e3576040519061049e82610b23565b8051825260208101516001600160a01b03811681036101e35760208301526104c860408201610ba2565b60408301526060810151926001600160401b0384116101e3576060936104ee9201610cee565b82820152610412565b346101e35760203660031901126101e357606061012060405161051981610b07565b5f81525f60208201525f60408201525f838201525f60808201525f60a08201525f60c08201525f60e08201525f61010082015201526040516328c44a9960e21b815260043560048201525f8160248160018060a01b037f0000000000000000000000000000000000000000000000000000000000000000165afa908115610348575f91610673575b506020810180517f000000000000000000000000000000000000000000000000000000000000000003610317576101df61012060405193849360208552815160208601525160408501526001600160401b0360408201511660608501526001600160401b0360608201511660808501526001600160401b0360808201511660a085015260a081015160c085015260018060a01b0360c08201511660e085015260018060a01b0360e082015116610100850152610100810151151582850152015161014080840152610160830190610a13565b61068791503d805f833e61033a8183610b59565b816105a1565b346101e3575f3660031901126101e35760206040517f00000000000000000000000000000000000000000000000000000000000000008152f35b346101e3575f3660031901126101e3576101df60206107b5600161070a7f0000000000000000000000000000000000000000000000000000000000000000610dac565b81846107357f0000000000000000000000000000000000000000000000000000000000000000610dac565b81806107607f0000000000000000000000000000000000000000000000000000000000000000610dac565b9260405199878b985191829101848a015e870190601760f91b83830152805192839101602183015e010190601760f91b84830152805192839101600283015e01015f838201520301601f198101835282610b59565b604051918291602083526020830190610a13565b346101e35760403660031901126101e3576004356001600160401b0381116101e35780360360206003198201126101e357602083810152600482013590602219018112156101e35701602460048201359101906001600160401b0381116101e35780360382136101e357828160809261086c9460206040850152816060850152848401375f838284010152601f801991011681010301601f198101835282610b59565b6040519060c082018281106001600160401b038211176109ff576040523382525f60208301525f6040830152602435606083015260808201525f60a082015260405160408101908082106001600160401b038311176109ff576020916040527f000000000000000000000000000000000000000000000000000000000000000081528181019283526040518093819263f17325e760e01b8352846004840152516024830152516040604483015260018060a01b0381511660648301526001600160401b03848201511660848301526040810151151560a4830152606081015160c483015260a061096c608083015160c060e4860152610124850190610a13565b91015161010483015203815f7f00000000000000000000000000000000000000000000000000000000000000006001600160a01b03165af15f91816109cb575b506109c057634a10301360e11b5f5260045ffd5b602090604051908152f35b9091506020813d6020116109f7575b816109e760209383610b59565b810103126101e3575190826109ac565b3d91506109da565b634e487b7160e01b5f52604160045260245ffd5b805180835260209291819084018484015e5f828201840152601f01601f1916010190565b9181601f840112156101e3578235916001600160401b0383116101e3576020808501948460051b0101116101e357565b60406003198201126101e3576004356001600160401b0381116101e35781610a9191600401610a37565b92909291602435906001600160401b0382116101e357610ab391600401610a37565b9091565b6040610ad0926020835251916020808201520190610a13565b90565b60206003198201126101e357600435906001600160401b0382116101e3576101409082900360031901126101e35760040190565b61014081019081106001600160401b038211176109ff57604052565b608081019081106001600160401b038211176109ff57604052565b602081019081106001600160401b038211176109ff57604052565b90601f801991011681019081106001600160401b038211176109ff57604052565b51906001600160401b03821682036101e357565b51906001600160a01b03821682036101e357565b519081151582036101e357565b6001600160401b0381116109ff57601f01601f191660200190565b929192610bd682610baf565b91610be46040519384610b59565b8294818452818301116101e3578281602093845f96015e010152565b6020818303126101e3578051906001600160401b0382116101e3570190610140828203126101e35760405191610c3583610b07565b8051835260208101516020840152610c4f60408201610b7a565b6040840152610c6060608201610b7a565b6060840152610c7160808201610b7a565b608084015260a081015160a0840152610c8c60c08201610b8e565b60c0840152610c9d60e08201610b8e565b60e0840152610caf6101008201610ba2565b610100840152610120810151906001600160401b0382116101e357019080601f830112156101e3578151610ce592602001610bca565b61012082015290565b9080601f830112156101e3578151610ad092602001610bca565b929092818403610d9d575f91345b85841015610d925781841015610d7e578360051b8086013590828211610d6f5784013561013e19853603018112156101e357610d53908501610f5a565b15610d645760019103930192610d16565b505050505050505f90565b63044044a560e21b5f5260045ffd5b634e487b7160e01b5f52603260045260245ffd5b505050505050600190565b63251f56a160e21b5f5260045ffd5b805f9172184f03e93ff9f4daa797ed6e38ed64bf6a1f0160401b821015610ef6575b806d04ee2d6d415b85acef8100000000600a921015610edb575b662386f26fc10000811015610ec7575b6305f5e100811015610eb6575b612710811015610ea7575b6064811015610e99575b1015610e8e575b600a60216001840193610e3385610baf565b94610e416040519687610b59565b808652610e50601f1991610baf565b013660208701378401015b5f1901916f181899199a1a9b1b9c1cb0b131b232b360811b8282061a8353048015610e8957600a9091610e5b565b505090565b600190910190610e21565b606460029104930192610e1a565b61271060049104930192610e10565b6305f5e10060089104930192610e05565b662386f26fc1000060109104930192610df8565b6d04ee2d6d415b85acef810000000060209104930192610de8565b506040915072184f03e93ff9f4daa797ed6e38ed64bf6a1f0160401b8104610dce565b7f00000000000000000000000000000000000000000000000000000000000000006001600160a01b03163303610f4b57565b634ca8886760e01b5f5260045ffd5b60e0013560018060a01b0381168091036101e35730149056fea26469706673582212205f72e9015edee753fe2443a9bc1424a3937093abd81b7108c2faddb64f5eed1a64736f6c634300081b0033","linkReferences":{}},"methodIdentifiers":{"ATTESTATION_SCHEMA()":"5bf2f20d","attest((bytes32,bytes32,uint64,uint64,uint64,bytes32,address,address,bool,bytes))":"e60c3505","decodeStatementData(bytes)":"e112ea08","getSchema()":"6b122fe0","getStatement(bytes32)":"5cc02d2f","getStatementData(bytes32)":"c75c572b","isPayable()":"ce46e046","makeStatement((string),bytes32)":"455577cc","multiAttest((bytes32,bytes32,uint64,uint64,uint64,bytes32,address,address,bool,bytes)[],uint256[])":"91db0b7e","multiRevoke((bytes32,bytes32,uint64,uint64,uint64,bytes32,address,address,bool,bytes)[],uint256[])":"88e5b2d9","revoke((bytes32,bytes32,uint64,uint64,uint64,bytes32,address,address,bool,bytes))":"e49617e1","version()":"54fd4d50"},"id":92}