{"abi":[{"type":"constructor","inputs":[{"name":"_eas","type":"address","internalType":"contract IEAS"},{"name":"_schemaRegistry","type":"address","internalType":"contract ISchemaRegistry"}],"stateMutability":"nonpayable"},{"type":"receive","stateMutability":"payable"},{"type":"function","name":"ATTESTATION_SCHEMA","inputs":[],"outputs":[{"name":"","type":"bytes32","internalType":"bytes32"}],"stateMutability":"view"},{"type":"function","name":"attest","inputs":[{"name":"attestation","type":"tuple","internalType":"struct Attestation","components":[{"name":"uid","type":"bytes32","internalType":"bytes32"},{"name":"schema","type":"bytes32","internalType":"bytes32"},{"name":"time","type":"uint64","internalType":"uint64"},{"name":"expirationTime","type":"uint64","internalType":"uint64"},{"name":"revocationTime","type":"uint64","internalType":"uint64"},{"name":"refUID","type":"bytes32","internalType":"bytes32"},{"name":"recipient","type":"address","internalType":"address"},{"name":"attester","type":"address","internalType":"address"},{"name":"revocable","type":"bool","internalType":"bool"},{"name":"data","type":"bytes","internalType":"bytes"}]}],"outputs":[{"name":"","type":"bool","internalType":"bool"}],"stateMutability":"payable"},{"type":"function","name":"getSchema","inputs":[],"outputs":[{"name":"","type":"tuple","internalType":"struct SchemaRecord","components":[{"name":"uid","type":"bytes32","internalType":"bytes32"},{"name":"resolver","type":"address","internalType":"contract ISchemaResolver"},{"name":"revocable","type":"bool","internalType":"bool"},{"name":"schema","type":"string","internalType":"string"}]}],"stateMutability":"view"},{"type":"function","name":"getStatement","inputs":[{"name":"uid","type":"bytes32","internalType":"bytes32"}],"outputs":[{"name":"","type":"tuple","internalType":"struct Attestation","components":[{"name":"uid","type":"bytes32","internalType":"bytes32"},{"name":"schema","type":"bytes32","internalType":"bytes32"},{"name":"time","type":"uint64","internalType":"uint64"},{"name":"expirationTime","type":"uint64","internalType":"uint64"},{"name":"revocationTime","type":"uint64","internalType":"uint64"},{"name":"refUID","type":"bytes32","internalType":"bytes32"},{"name":"recipient","type":"address","internalType":"address"},{"name":"attester","type":"address","internalType":"address"},{"name":"revocable","type":"bool","internalType":"bool"},{"name":"data","type":"bytes","internalType":"bytes"}]}],"stateMutability":"view"},{"type":"function","name":"isPayable","inputs":[],"outputs":[{"name":"","type":"bool","internalType":"bool"}],"stateMutability":"pure"},{"type":"function","name":"makeStatement","inputs":[{"name":"data","type":"tuple","internalType":"struct StringObligation.StatementData","components":[{"name":"item","type":"string","internalType":"string"}]},{"name":"refUID","type":"bytes32","internalType":"bytes32"}],"outputs":[{"name":"","type":"bytes32","internalType":"bytes32"}],"stateMutability":"nonpayable"},{"type":"function","name":"multiAttest","inputs":[{"name":"attestations","type":"tuple[]","internalType":"struct Attestation[]","components":[{"name":"uid","type":"bytes32","internalType":"bytes32"},{"name":"schema","type":"bytes32","internalType":"bytes32"},{"name":"time","type":"uint64","internalType":"uint64"},{"name":"expirationTime","type":"uint64","internalType":"uint64"},{"name":"revocationTime","type":"uint64","internalType":"uint64"},{"name":"refUID","type":"bytes32","internalType":"bytes32"},{"name":"recipient","type":"address","internalType":"address"},{"name":"attester","type":"address","internalType":"address"},{"name":"revocable","type":"bool","internalType":"bool"},{"name":"data","type":"bytes","internalType":"bytes"}]},{"name":"values","type":"uint256[]","internalType":"uint256[]"}],"outputs":[{"name":"","type":"bool","internalType":"bool"}],"stateMutability":"payable"},{"type":"function","name":"multiRevoke","inputs":[{"name":"attestations","type":"tuple[]","internalType":"struct Attestation[]","components":[{"name":"uid","type":"bytes32","internalType":"bytes32"},{"name":"schema","type":"bytes32","internalType":"bytes32"},{"name":"time","type":"uint64","internalType":"uint64"},{"name":"expirationTime","type":"uint64","internalType":"uint64"},{"name":"revocationTime","type":"uint64","internalType":"uint64"},{"name":"refUID","type":"bytes32","internalType":"bytes32"},{"name":"recipient","type":"address","internalType":"address"},{"name":"attester","type":"address","internalType":"address"},{"name":"revocable","type":"bool","internalType":"bool"},{"name":"data","type":"bytes","internalType":"bytes"}]},{"name":"values","type":"uint256[]","internalType":"uint256[]"}],"outputs":[{"name":"","type":"bool","internalType":"bool"}],"stateMutability":"payable"},{"type":"function","name":"revoke","inputs":[{"name":"attestation","type":"tuple","internalType":"struct Attestation","components":[{"name":"uid","type":"bytes32","internalType":"bytes32"},{"name":"schema","type":"bytes32","internalType":"bytes32"},{"name":"time","type":"uint64","internalType":"uint64"},{"name":"expirationTime","type":"uint64","internalType":"uint64"},{"name":"revocationTime","type":"uint64","internalType":"uint64"},{"name":"refUID","type":"bytes32","internalType":"bytes32"},{"name":"recipient","type":"address","internalType":"address"},{"name":"attester","type":"address","internalType":"address"},{"name":"revocable","type":"bool","internalType":"bool"},{"name":"data","type":"bytes","internalType":"bytes"}]}],"outputs":[{"name":"","type":"bool","internalType":"bool"}],"stateMutability":"payable"},{"type":"function","name":"version","inputs":[],"outputs":[{"name":"","type":"string","internalType":"string"}],"stateMutability":"view"},{"type":"error","name":"AccessDenied","inputs":[]},{"type":"error","name":"AttestationCreateFailed","inputs":[]},{"type":"error","name":"InsufficientValue","inputs":[]},{"type":"error","name":"InvalidEAS","inputs":[]},{"type":"error","name":"InvalidLength","inputs":[]},{"type":"error","name":"NotFromStatement","inputs":[]},{"type":"error","name":"NotPayable","inputs":[]}],"bytecode":{"object":"0x61016080604052346101a457604081610f1e803803809161002082856101de565b8339810103126101a45780516001600160a01b038116918282036101a45760200151916001600160a01b0383168084036101a457604080519081016001600160401b038111828210176101ca57604052600b815260208101926a737472696e67206974656d60a81b84526001608052600360a0525f60c052156101bb576084948460209560e05261012052610100525f604051958680958194630c1af44f60e31b8352606060048401525180918160648501528484015e818101830184905230602483015260016044830152601f01601f191681010301925af19081156101b0575f9161017a575b5061014052604051610d1c908161020282396080518161058a015260a051816105b5015260c051816105e0015260e05181610c8e0152610100518161016d01526101205181818161031b015261097801526101405181818161013b015281816103540152818161054801526108cb0152f35b90506020813d6020116101a8575b81610195602093836101de565b810103126101a457515f610108565b5f80fd5b3d9150610188565b6040513d5f823e3d90fd5b6341bc07ff60e11b5f5260045ffd5b634e487b7160e01b5f52604160045260245ffd5b601f909101601f19168101906001600160401b038211908210176101ca5760405256fe60806040526004361015610027575b3615610018575f80fd5b631574f9f360e01b5f5260045ffd5b5f3560e01c8063455577cc1461066d57806354fd4d501461056b5780635bf2f20d146105315780635cc02d2f146102a15780636b122fe0146100fc57806388e5b2d9146100dd57806391db0b7e146100dd578063ce46e046146100bf578063e49617e11461009a5763e60c35050361000e575b60206100b56100a83661075b565b6100b0610c8c565b610ccd565b6040519015158152f35b346100d9575f3660031901126100d95760206040515f8152f35b5f80fd5b60206100b56100eb3661070b565b926100f7929192610c8c565b610a7b565b346100d9575f3660031901126100d95760608060405161011b816107bf565b5f81525f60208201525f604082015201526040516351753e3760e11b81527f000000000000000000000000000000000000000000000000000000000000000060048201525f8160248160018060a01b037f0000000000000000000000000000000000000000000000000000000000000000165afa8015610296575f906101e6575b6060906101e2604051928392602084528051602085015260018060a01b0360208201511660408501526040810151151582850152015160808084015260a08301906106b7565b0390f35b503d805f833e6101f681836107da565b8101906020818303126100d9578051906001600160401b0382116100d957016080818303126100d9576040519061022c826107bf565b8051825260208101516001600160a01b03811681036100d957602083015261025660408201610a1d565b60408301526060810151906001600160401b0382116100d9570182601f820112156100d95760609281602061028d93519101610a45565b8282015261019c565b6040513d5f823e3d90fd5b346100d95760203660031901126100d95760606101206040516102c38161078f565b5f81525f60208201525f60408201525f838201525f60808201525f60a08201525f60c08201525f60e08201525f61010082015201526040516328c44a9960e21b815260043560048201525f8160248160018060a01b037f0000000000000000000000000000000000000000000000000000000000000000165afa908115610296575f9161042c575b506020810180517f00000000000000000000000000000000000000000000000000000000000000000361041d576101e261012060405193849360208552815160208601525160408501526001600160401b0360408201511660608501526001600160401b0360608201511660808501526001600160401b0360808201511660a085015260a081015160c085015260018060a01b0360c08201511660e085015260018060a01b0360e0820151166101008501526101008101511515828501520151610140808401526101608301906106b7565b63295d5f3960e01b5f5260045ffd5b90503d805f833e61043d81836107da565b8101906020818303126100d9578051906001600160401b0382116100d9570190610140828203126100d957604051916104758361078f565b805183526020810151602084015261048f604082016109f5565b60408401526104a0606082016109f5565b60608401526104b1608082016109f5565b608084015260a081015160a08401526104cc60c08201610a09565b60c08401526104dd60e08201610a09565b60e08401526104ef6101008201610a1d565b610100840152610120810151906001600160401b0382116100d957019080601f830112156100d957815161052592602001610a45565b6101208201528161034b565b346100d9575f3660031901126100d95760206040517f00000000000000000000000000000000000000000000000000000000000000008152f35b346100d9575f3660031901126100d9576101e2602061065960016105ae7f0000000000000000000000000000000000000000000000000000000000000000610b1f565b81846105d97f0000000000000000000000000000000000000000000000000000000000000000610b1f565b81806106047f0000000000000000000000000000000000000000000000000000000000000000610b1f565b9260405199878b985191829101848a015e870190601760f91b83830152805192839101602183015e010190601760f91b84830152805192839101600283015e01015f838201520301601f1981018352826107da565b6040519182916020835260208301906106b7565b346100d95760403660031901126100d9576004356001600160401b0381116100d957602060031982360301126100d9576106af602091602435906004016107fb565b604051908152f35b805180835260209291819084018484015e5f828201840152601f01601f1916010190565b9181601f840112156100d9578235916001600160401b0383116100d9576020808501948460051b0101116100d957565b60406003198201126100d9576004356001600160401b0381116100d95781610735916004016106db565b92909291602435906001600160401b0382116100d957610757916004016106db565b9091565b60206003198201126100d957600435906001600160401b0382116100d9576101409082900360031901126100d95760040190565b61014081019081106001600160401b038211176107ab57604052565b634e487b7160e01b5f52604160045260245ffd5b608081019081106001600160401b038211176107ab57604052565b90601f801991011681019081106001600160401b038211176107ab57604052565b604051906020808301528035601e19823603018112156100d95701602081359101906001600160401b0381116100d95780360382136100d957828160809261086d9460206040850152816060850152848401375f838284010152601f801991011681010301601f1981018352826107da565b6040519160c083018381106001600160401b038211176107ab576040523383525f60208401525f6040840152606083015260808201525f60a082015260405160408101908082106001600160401b038311176107ab576020916040527f000000000000000000000000000000000000000000000000000000000000000081528181019283526040518093819263f17325e760e01b8352846004840152516024830152516040604483015260018060a01b0381511660648301526001600160401b03848201511660848301526040810151151560a4830152606081015160c483015260a061096a608083015160c060e48601526101248501906106b7565b91015161010483015203815f7f00000000000000000000000000000000000000000000000000000000000000006001600160a01b03165af15f91816109c1575b506109be57634a10301360e11b5f5260045ffd5b90565b9091506020813d6020116109ed575b816109dd602093836107da565b810103126100d95751905f6109aa565b3d91506109d0565b51906001600160401b03821682036100d957565b51906001600160a01b03821682036100d957565b519081151582036100d957565b6001600160401b0381116107ab57601f01601f191660200190565b929192610a5182610a2a565b91610a5f60405193846107da565b8294818452818301116100d9578281602093845f96015e010152565b929092818403610b10575f91345b85841015610b055781841015610af1578360051b8086013590828211610ae25784013561013e19853603018112156100d957610ac6908501610ccd565b15610ad75760019103930192610a89565b505050505050505f90565b63044044a560e21b5f5260045ffd5b634e487b7160e01b5f52603260045260245ffd5b505050505050600190565b63251f56a160e21b5f5260045ffd5b805f9172184f03e93ff9f4daa797ed6e38ed64bf6a1f0160401b821015610c69575b806d04ee2d6d415b85acef8100000000600a921015610c4e575b662386f26fc10000811015610c3a575b6305f5e100811015610c29575b612710811015610c1a575b6064811015610c0c575b1015610c01575b600a60216001840193610ba685610a2a565b94610bb460405196876107da565b808652610bc3601f1991610a2a565b013660208701378401015b5f1901916f181899199a1a9b1b9c1cb0b131b232b360811b8282061a8353048015610bfc57600a9091610bce565b505090565b600190910190610b94565b606460029104930192610b8d565b61271060049104930192610b83565b6305f5e10060089104930192610b78565b662386f26fc1000060109104930192610b6b565b6d04ee2d6d415b85acef810000000060209104930192610b5b565b506040915072184f03e93ff9f4daa797ed6e38ed64bf6a1f0160401b8104610b41565b7f00000000000000000000000000000000000000000000000000000000000000006001600160a01b03163303610cbe57565b634ca8886760e01b5f5260045ffd5b60e0013560018060a01b0381168091036100d95730149056fea264697066735822122074284eaf11aa2b70170e5f4e08e514802072a4a812530cd77b62f733f1d3943664736f6c634300081b0033","linkReferences":{}},"methodIdentifiers":{"ATTESTATION_SCHEMA()":"5bf2f20d","attest((bytes32,bytes32,uint64,uint64,uint64,bytes32,address,address,bool,bytes))":"e60c3505","getSchema()":"6b122fe0","getStatement(bytes32)":"5cc02d2f","isPayable()":"ce46e046","makeStatement((string),bytes32)":"455577cc","multiAttest((bytes32,bytes32,uint64,uint64,uint64,bytes32,address,address,bool,bytes)[],uint256[])":"91db0b7e","multiRevoke((bytes32,bytes32,uint64,uint64,uint64,bytes32,address,address,bool,bytes)[],uint256[])":"88e5b2d9","revoke((bytes32,bytes32,uint64,uint64,uint64,bytes32,address,address,bool,bytes))":"e49617e1","version()":"54fd4d50"},"id":98}