{"abi":[{"type":"constructor","inputs":[{"name":"_baseStatement","type":"address","internalType":"contract ERC1155EscrowObligation"},{"name":"_specificAttestation","type":"address","internalType":"contract SpecificAttestationArbiter"}],"stateMutability":"nonpayable"},{"type":"function","name":"checkStatement","inputs":[{"name":"statement","type":"tuple","internalType":"struct Attestation","components":[{"name":"uid","type":"bytes32","internalType":"bytes32"},{"name":"schema","type":"bytes32","internalType":"bytes32"},{"name":"time","type":"uint64","internalType":"uint64"},{"name":"expirationTime","type":"uint64","internalType":"uint64"},{"name":"revocationTime","type":"uint64","internalType":"uint64"},{"name":"refUID","type":"bytes32","internalType":"bytes32"},{"name":"recipient","type":"address","internalType":"address"},{"name":"attester","type":"address","internalType":"address"},{"name":"revocable","type":"bool","internalType":"bool"},{"name":"data","type":"bytes","internalType":"bytes"}]},{"name":"demand","type":"bytes","internalType":"bytes"},{"name":"counteroffer","type":"bytes32","internalType":"bytes32"}],"outputs":[{"name":"","type":"bool","internalType":"bool"}],"stateMutability":"view"},{"type":"function","name":"paymentStatement","inputs":[],"outputs":[{"name":"","type":"address","internalType":"contract ERC1155EscrowObligation"}],"stateMutability":"view"},{"type":"function","name":"specificAttestation","inputs":[],"outputs":[{"name":"","type":"address","internalType":"contract SpecificAttestationArbiter"}],"stateMutability":"view"},{"type":"error","name":"InvalidStatement","inputs":[]},{"type":"error","name":"InvalidValidation","inputs":[]}],"bytecode":{"object":"0x60c03461009957601f61065938819003918201601f19168301916001600160401b0383118484101761009d578084926040948552833981010312610099578051906001600160a01b03821682036100995760200151906001600160a01b03821682036100995760805260a0526040516105a790816100b2823960805181818160520152610217015260a05181818161038901526104840152f35b5f80fd5b634e487b7160e01b5f52604160045260245ffdfe6080806040526004361015610012575f80fd5b5f3560e01c9081630ac21e3314610472575080631272ff8b1461008557634bbf918d1461003d575f80fd5b34610081575f366003190112610081576040517f00000000000000000000000000000000000000000000000000000000000000006001600160a01b03168152602090f35b5f80fd5b34610081576060366003190112610081576004356001600160401b0381116100815761014060031982360301126100815760405161014081018181106001600160401b03821117610406576040528160040135815260208101602483013581526100f1604484016104d4565b6040830152610102606484016104d4565b9260608301938452610116608482016104d4565b608084015260a481013560a084015261013160c482016104e8565b60c084015261014260e482016104e8565b60e08401526101048101358015158103610081576101008401526101248101356001600160401b038111610081576101209160046101839236920101610517565b92019182526024356001600160401b038111610081576101a7903690600401610517565b916060838051810103126100815760405193606085018581106001600160401b03821117610406576040526101de6020850161055d565b8552606060408501519460208701958652015192604086019384525160405190635bf2f20d60e01b825260208260048160018060a01b037f0000000000000000000000000000000000000000000000000000000000000000165afa918215610467575f92610433575b500361041a57516001600160401b03168015159081610429575b5061041a57519283518401926020840194602081860312610081576020810151906001600160401b03821161008157019360a09085900312610081576040519360a085018581106001600160401b03821117610406576040526102c66020820161055d565b855260408101516001600160401b0381116100815760209082010186601f82011215610081578051906102f8826104fc565b97610306604051998a6104b3565b8289526020838301011161008157815f926020809301838b015e88010152602085019586526103376060820161055d565b604086018190526080828101516060880190815260a09093015190870190815293516001600160a01b039081169116036103f757519051036103f757519051116103f757516001600160a01b039081167f0000000000000000000000000000000000000000000000000000000000000000909116036103f75751602081805181010312610081576040519060208201908282106001600160401b03831117610406576020916040520151809152604435036103f757602060405160018152f35b634af2691560e01b5f5260045ffd5b634e487b7160e01b5f52604160045260245ffd5b63090bd44d60e31b5f5260045ffd5b9050421185610261565b9091506020813d60201161045f575b8161044f602093836104b3565b8101031261008157519087610247565b3d9150610442565b6040513d5f823e3d90fd5b34610081575f366003190112610081577f00000000000000000000000000000000000000000000000000000000000000006001600160a01b03168152602090f35b90601f801991011681019081106001600160401b0382111761040657604052565b35906001600160401b038216820361008157565b35906001600160a01b038216820361008157565b6001600160401b03811161040657601f01601f191660200190565b81601f820112156100815780359061052e826104fc565b9261053c60405194856104b3565b8284526020838301011161008157815f926020809301838601378301015290565b51906001600160a01b03821682036100815756fea2646970667358221220707ac67ca61b2fa702c4df7cc8ca114c0ab4f3b65fd45780e8f13469d01c4f1f64736f6c634300081b0033","linkReferences":{}},"methodIdentifiers":{"checkStatement((bytes32,bytes32,uint64,uint64,uint64,bytes32,address,address,bool,bytes),bytes,bytes32)":"1272ff8b","paymentStatement()":"4bbf918d","specificAttestation()":"0ac21e33"},"id":67}